{
	"MatchaToken.sol": {
		"SarahKhushiiCoin": {
			"abi": [
				{
					"inputs": [],
					"stateMutability": "nonpayable",
					"type": "constructor"
				},
				{
					"anonymous": false,
					"inputs": [
						{
							"indexed": true,
							"internalType": "address",
							"name": "owner",
							"type": "address"
						},
						{
							"indexed": true,
							"internalType": "address",
							"name": "spender",
							"type": "address"
						},
						{
							"indexed": false,
							"internalType": "uint256",
							"name": "value",
							"type": "uint256"
						}
					],
					"name": "Approval",
					"type": "event"
				},
				{
					"anonymous": false,
					"inputs": [
						{
							"indexed": true,
							"internalType": "address",
							"name": "from",
							"type": "address"
						},
						{
							"indexed": true,
							"internalType": "address",
							"name": "to",
							"type": "address"
						},
						{
							"indexed": false,
							"internalType": "uint256",
							"name": "value",
							"type": "uint256"
						}
					],
					"name": "Transfer",
					"type": "event"
				},
				{
					"inputs": [],
					"name": "_totalSupply",
					"outputs": [
						{
							"internalType": "uint256",
							"name": "",
							"type": "uint256"
						}
					],
					"stateMutability": "view",
					"type": "function"
				},
				{
					"inputs": [
						{
							"internalType": "address",
							"name": "spender",
							"type": "address"
						},
						{
							"internalType": "uint256",
							"name": "restrict",
							"type": "uint256"
						}
					],
					"name": "allowLess",
					"outputs": [],
					"stateMutability": "nonpayable",
					"type": "function"
				},
				{
					"inputs": [
						{
							"internalType": "address",
							"name": "spender",
							"type": "address"
						},
						{
							"internalType": "uint256",
							"name": "bonus",
							"type": "uint256"
						}
					],
					"name": "allowMore",
					"outputs": [],
					"stateMutability": "nonpayable",
					"type": "function"
				},
				{
					"inputs": [
						{
							"internalType": "address",
							"name": "to",
							"type": "address"
						}
					],
					"name": "allowToSpendOnMatcha",
					"outputs": [
						{
							"internalType": "bool",
							"name": "",
							"type": "bool"
						}
					],
					"stateMutability": "nonpayable",
					"type": "function"
				},
				{
					"inputs": [
						{
							"internalType": "address",
							"name": "from",
							"type": "address"
						},
						{
							"internalType": "address",
							"name": "spender",
							"type": "address"
						}
					],
					"name": "allowance",
					"outputs": [
						{
							"internalType": "uint256",
							"name": "",
							"type": "uint256"
						}
					],
					"stateMutability": "view",
					"type": "function"
				},
				{
					"inputs": [
						{
							"internalType": "address",
							"name": "spender",
							"type": "address"
						},
						{
							"internalType": "uint256",
							"name": "value",
							"type": "uint256"
						}
					],
					"name": "approve",
					"outputs": [
						{
							"internalType": "bool",
							"name": "",
							"type": "bool"
						}
					],
					"stateMutability": "nonpayable",
					"type": "function"
				},
				{
					"inputs": [
						{
							"internalType": "address",
							"name": "owner",
							"type": "address"
						}
					],
					"name": "balanceOf",
					"outputs": [
						{
							"internalType": "uint256",
							"name": "",
							"type": "uint256"
						}
					],
					"stateMutability": "view",
					"type": "function"
				},
				{
					"inputs": [
						{
							"internalType": "address",
							"name": "to",
							"type": "address"
						},
						{
							"internalType": "uint256",
							"name": "price",
							"type": "uint256"
						}
					],
					"name": "buyAMatcha",
					"outputs": [
						{
							"internalType": "bool",
							"name": "",
							"type": "bool"
						}
					],
					"stateMutability": "nonpayable",
					"type": "function"
				},
				{
					"inputs": [
						{
							"internalType": "address",
							"name": "candidate",
							"type": "address"
						},
						{
							"internalType": "string",
							"name": "newName",
							"type": "string"
						}
					],
					"name": "changeTokenName",
					"outputs": [
						{
							"internalType": "bool",
							"name": "",
							"type": "bool"
						}
					],
					"stateMutability": "nonpayable",
					"type": "function"
				},
				{
					"inputs": [],
					"name": "decimals",
					"outputs": [
						{
							"internalType": "uint8",
							"name": "",
							"type": "uint8"
						}
					],
					"stateMutability": "view",
					"type": "function"
				},
				{
					"inputs": [],
					"name": "name",
					"outputs": [
						{
							"internalType": "string",
							"name": "",
							"type": "string"
						}
					],
					"stateMutability": "view",
					"type": "function"
				},
				{
					"inputs": [],
					"name": "symbol",
					"outputs": [
						{
							"internalType": "string",
							"name": "",
							"type": "string"
						}
					],
					"stateMutability": "view",
					"type": "function"
				},
				{
					"inputs": [],
					"name": "totalSupply",
					"outputs": [
						{
							"internalType": "uint256",
							"name": "",
							"type": "uint256"
						}
					],
					"stateMutability": "view",
					"type": "function"
				},
				{
					"inputs": [
						{
							"internalType": "address",
							"name": "to",
							"type": "address"
						},
						{
							"internalType": "uint256",
							"name": "value",
							"type": "uint256"
						}
					],
					"name": "transfer",
					"outputs": [
						{
							"internalType": "bool",
							"name": "",
							"type": "bool"
						}
					],
					"stateMutability": "nonpayable",
					"type": "function"
				},
				{
					"inputs": [
						{
							"internalType": "address",
							"name": "from",
							"type": "address"
						},
						{
							"internalType": "address",
							"name": "to",
							"type": "address"
						},
						{
							"internalType": "uint256",
							"name": "value",
							"type": "uint256"
						}
					],
					"name": "transferFrom",
					"outputs": [
						{
							"internalType": "bool",
							"name": "",
							"type": "bool"
						}
					],
					"stateMutability": "nonpayable",
					"type": "function"
				}
			],
			"devdoc": {
				"kind": "dev",
				"methods": {},
				"version": 1
			},
			"evm": {
				"assembly": "    /* \"MatchaToken.sol\":282:318  string public  name = 'Matcha Token' */\n  0xc0\n    /* \"MatchaToken.sol\":155:5202  contract SarahKhushiiCoin is IERC20{... */\n  0x40\n    /* \"MatchaToken.sol\":282:318  string public  name = 'Matcha Token' */\n  mstore\n  0x0c\n    /* \"MatchaToken.sol\":155:5202  contract SarahKhushiiCoin is IERC20{... */\n  0x80\n    /* \"MatchaToken.sol\":282:318  string public  name = 'Matcha Token' */\n  swap1\n  dup2\n  mstore\n  mstore(0xa0, shl(0xa1, 0x26b0ba31b430902a37b5b2b7))\n  0x00\n  swap1\n  tag_1\n  swap1\n  dup3\n  tag_2\n  jump\t// in\ntag_1:\n  pop\n    /* \"MatchaToken.sol\":511:519  40*10**6 */\n  0x02625a00\n    /* \"MatchaToken.sol\":482:519  uint  public  _totalSupply = 40*10**6 */\n  0x01\n  sstore\n    /* \"MatchaToken.sol\":1458:1592  constructor(){... */\n  callvalue\n  dup1\n  iszero\n  tag_3\n  jumpi\n  0x00\n  dup1\n  revert\ntag_3:\n  pop\n    /* \"MatchaToken.sol\":1508:1520  _totalSupply */\n  sload(0x01)\n    /* \"MatchaToken.sol\":1495:1505  msg.sender */\n  caller\n    /* \"MatchaToken.sol\":1485:1506  _balances[msg.sender] */\n  0x00\n  dup2\n  dup2\n  mstore\n    /* \"MatchaToken.sol\":1485:1494  _balances */\n  0x02\n    /* \"MatchaToken.sol\":1485:1506  _balances[msg.sender] */\n  0x20\n  swap1\n  dup2\n  mstore\n  0x40\n  dup1\n  dup4\n  keccak256\n    /* \"MatchaToken.sol\":1485:1520  _balances[msg.sender]= _totalSupply */\n  dup6\n  swap1\n  sstore\n    /* \"MatchaToken.sol\":1539:1585  Transfer(address(0), msg.sender, _totalSupply) */\n  mload\n    /* \"#utility.yul\":2881:2906   */\n  swap4\n  dup5\n  mstore\n    /* \"MatchaToken.sol\":1495:1505  msg.sender */\n  swap2\n  swap3\n    /* \"MatchaToken.sol\":1485:1506  _balances[msg.sender] */\n  swap1\n  swap2\n    /* \"MatchaToken.sol\":1539:1585  Transfer(address(0), msg.sender, _totalSupply) */\n  0xddf252ad1be2c89b69c2b068fc378daa952ba7f163c4a11628f55a4df523b3ef\n  swap2\n    /* \"#utility.yul\":2854:2872   */\n  add\n    /* \"MatchaToken.sol\":1539:1585  Transfer(address(0), msg.sender, _totalSupply) */\n  mload(0x40)\n  dup1\n  swap2\n  sub\n  swap1\n  log3\n    /* \"MatchaToken.sol\":155:5202  contract SarahKhushiiCoin is IERC20{... */\n  jump(tag_14)\n    /* \"#utility.yul\":14:141   */\ntag_9:\n    /* \"#utility.yul\":75:85   */\n  0x4e487b71\n    /* \"#utility.yul\":70:73   */\n  0xe0\n    /* \"#utility.yul\":66:86   */\n  shl\n    /* \"#utility.yul\":63:64   */\n  0x00\n    /* \"#utility.yul\":56:87   */\n  mstore\n    /* \"#utility.yul\":106:110   */\n  0x41\n    /* \"#utility.yul\":103:104   */\n  0x04\n    /* \"#utility.yul\":96:111   */\n  mstore\n    /* \"#utility.yul\":130:134   */\n  0x24\n    /* \"#utility.yul\":127:128   */\n  0x00\n    /* \"#utility.yul\":120:135   */\n  revert\n    /* \"#utility.yul\":146:526   */\ntag_10:\n    /* \"#utility.yul\":225:226   */\n  0x01\n    /* \"#utility.yul\":221:233   */\n  dup2\n  dup2\n  shr\n  swap1\n    /* \"#utility.yul\":268:280   */\n  dup3\n  and\n  dup1\n    /* \"#utility.yul\":289:350   */\n  tag_17\n  jumpi\n    /* \"#utility.yul\":343:347   */\n  0x7f\n    /* \"#utility.yul\":335:341   */\n  dup3\n    /* \"#utility.yul\":331:348   */\n  and\n    /* \"#utility.yul\":321:348   */\n  swap2\n  pop\n    /* \"#utility.yul\":289:350   */\ntag_17:\n    /* \"#utility.yul\":396:398   */\n  0x20\n    /* \"#utility.yul\":388:394   */\n  dup3\n    /* \"#utility.yul\":385:399   */\n  lt\n    /* \"#utility.yul\":365:383   */\n  dup2\n    /* \"#utility.yul\":362:400   */\n  sub\n    /* \"#utility.yul\":359:520   */\n  tag_18\n  jumpi\n    /* \"#utility.yul\":442:452   */\n  0x4e487b71\n    /* \"#utility.yul\":437:440   */\n  0xe0\n    /* \"#utility.yul\":433:453   */\n  shl\n    /* \"#utility.yul\":430:431   */\n  0x00\n    /* \"#utility.yul\":423:454   */\n  mstore\n    /* \"#utility.yul\":477:481   */\n  0x22\n    /* \"#utility.yul\":474:475   */\n  0x04\n    /* \"#utility.yul\":467:482   */\n  mstore\n    /* \"#utility.yul\":505:509   */\n  0x24\n    /* \"#utility.yul\":502:503   */\n  0x00\n    /* \"#utility.yul\":495:510   */\n  revert\n    /* \"#utility.yul\":359:520   */\ntag_18:\n  pop\n    /* \"#utility.yul\":146:526   */\n  swap2\n  swap1\n  pop\n  jump\t// out\n    /* \"#utility.yul\":657:1202   */\ntag_12:\n    /* \"#utility.yul\":759:761   */\n  0x1f\n    /* \"#utility.yul\":754:757   */\n  dup3\n    /* \"#utility.yul\":751:762   */\n  gt\n    /* \"#utility.yul\":748:1196   */\n  iszero\n  tag_21\n  jumpi\n    /* \"#utility.yul\":795:796   */\n  0x00\n    /* \"#utility.yul\":820:825   */\n  dup2\n    /* \"#utility.yul\":816:818   */\n  dup2\n    /* \"#utility.yul\":809:826   */\n  mstore\n    /* \"#utility.yul\":865:869   */\n  0x20\n    /* \"#utility.yul\":861:863   */\n  dup2\n    /* \"#utility.yul\":851:870   */\n  keccak256\n    /* \"#utility.yul\":935:937   */\n  0x1f\n    /* \"#utility.yul\":923:933   */\n  dup6\n    /* \"#utility.yul\":919:938   */\n  add\n    /* \"#utility.yul\":916:917   */\n  0x05\n    /* \"#utility.yul\":912:939   */\n  shr\n    /* \"#utility.yul\":906:910   */\n  dup2\n    /* \"#utility.yul\":902:940   */\n  add\n    /* \"#utility.yul\":971:975   */\n  0x20\n    /* \"#utility.yul\":959:969   */\n  dup7\n    /* \"#utility.yul\":956:976   */\n  lt\n    /* \"#utility.yul\":953:1000   */\n  iszero\n  tag_22\n  jumpi\n  pop\n    /* \"#utility.yul\":994:998   */\n  dup1\n    /* \"#utility.yul\":953:1000   */\ntag_22:\n    /* \"#utility.yul\":1049:1051   */\n  0x1f\n    /* \"#utility.yul\":1044:1047   */\n  dup6\n    /* \"#utility.yul\":1040:1052   */\n  add\n    /* \"#utility.yul\":1037:1038   */\n  0x05\n    /* \"#utility.yul\":1033:1053   */\n  shr\n    /* \"#utility.yul\":1027:1031   */\n  dup3\n    /* \"#utility.yul\":1023:1054   */\n  add\n    /* \"#utility.yul\":1013:1054   */\n  swap2\n  pop\n    /* \"#utility.yul\":1104:1186   */\ntag_23:\n    /* \"#utility.yul\":1122:1124   */\n  dup2\n    /* \"#utility.yul\":1115:1120   */\n  dup2\n    /* \"#utility.yul\":1112:1125   */\n  lt\n    /* \"#utility.yul\":1104:1186   */\n  iszero\n  tag_25\n  jumpi\n    /* \"#utility.yul\":1167:1184   */\n  dup3\n  dup2\n  sstore\n    /* \"#utility.yul\":1148:1149   */\n  0x01\n    /* \"#utility.yul\":1137:1150   */\n  add\n    /* \"#utility.yul\":1104:1186   */\n  jump(tag_23)\ntag_25:\n    /* \"#utility.yul\":1108:1111   */\n  pop\n  pop\n  pop\n    /* \"#utility.yul\":748:1196   */\ntag_21:\n    /* \"#utility.yul\":657:1202   */\n  pop\n  pop\n  pop\n  jump\t// out\n    /* \"#utility.yul\":1378:2730   */\ntag_2:\n    /* \"#utility.yul\":1498:1508   */\n  dup2\n  mload\n  sub(shl(0x40, 0x01), 0x01)\n    /* \"#utility.yul\":1520:1550   */\n  dup2\n  gt\n    /* \"#utility.yul\":1517:1573   */\n  iszero\n  tag_29\n  jumpi\n    /* \"#utility.yul\":1553:1571   */\n  tag_29\n  tag_9\n  jump\t// in\ntag_29:\n    /* \"#utility.yul\":1582:1679   */\n  tag_30\n    /* \"#utility.yul\":1672:1678   */\n  dup2\n    /* \"#utility.yul\":1632:1670   */\n  tag_31\n    /* \"#utility.yul\":1664:1668   */\n  dup5\n    /* \"#utility.yul\":1658:1669   */\n  sload\n    /* \"#utility.yul\":1632:1670   */\n  tag_10\n  jump\t// in\ntag_31:\n    /* \"#utility.yul\":1626:1630   */\n  dup5\n    /* \"#utility.yul\":1582:1679   */\n  tag_12\n  jump\t// in\ntag_30:\n    /* \"#utility.yul\":1734:1738   */\n  0x20\n  dup1\n    /* \"#utility.yul\":1798:1800   */\n  0x1f\n    /* \"#utility.yul\":1787:1801   */\n  dup4\n  gt\n    /* \"#utility.yul\":1815:1816   */\n  0x01\n    /* \"#utility.yul\":1810:2473   */\n  dup2\n  eq\n  tag_33\n  jumpi\n    /* \"#utility.yul\":2517:2518   */\n  0x00\n    /* \"#utility.yul\":2534:2540   */\n  dup5\n    /* \"#utility.yul\":2531:2620   */\n  iszero\n  tag_34\n  jumpi\n  pop\n    /* \"#utility.yul\":2586:2605   */\n  dup6\n  dup4\n  add\n    /* \"#utility.yul\":2580:2606   */\n  mload\n    /* \"#utility.yul\":2531:2620   */\ntag_34:\n  not(0x00)\n    /* \"#utility.yul\":1335:1336   */\n  0x03\n    /* \"#utility.yul\":1331:1342   */\n  dup7\n  swap1\n  shl\n    /* \"#utility.yul\":1327:1351   */\n  shr\n    /* \"#utility.yul\":1323:1352   */\n  not\n    /* \"#utility.yul\":1313:1353   */\n  and\n    /* \"#utility.yul\":1359:1360   */\n  0x01\n    /* \"#utility.yul\":1355:1366   */\n  dup6\n  swap1\n  shl\n    /* \"#utility.yul\":1310:1367   */\n  or\n    /* \"#utility.yul\":2633:2714   */\n  dup6\n  sstore\n    /* \"#utility.yul\":1780:2724   */\n  jump(tag_25)\n    /* \"#utility.yul\":1810:2473   */\ntag_33:\n    /* \"#utility.yul\":604:605   */\n  0x00\n    /* \"#utility.yul\":597:611   */\n  dup6\n  dup2\n  mstore\n    /* \"#utility.yul\":641:645   */\n  0x20\n    /* \"#utility.yul\":628:646   */\n  dup2\n  keccak256\n  not(0x1f)\n    /* \"#utility.yul\":1846:1866   */\n  dup7\n  and\n  swap2\n    /* \"#utility.yul\":1964:2200   */\ntag_37:\n    /* \"#utility.yul\":1978:1985   */\n  dup3\n    /* \"#utility.yul\":1975:1976   */\n  dup2\n    /* \"#utility.yul\":1972:1986   */\n  lt\n    /* \"#utility.yul\":1964:2200   */\n  iszero\n  tag_39\n  jumpi\n    /* \"#utility.yul\":2067:2086   */\n  dup9\n  dup7\n  add\n    /* \"#utility.yul\":2061:2087   */\n  mload\n    /* \"#utility.yul\":2046:2088   */\n  dup3\n  sstore\n    /* \"#utility.yul\":2159:2186   */\n  swap5\n  dup5\n  add\n  swap5\n    /* \"#utility.yul\":2127:2128   */\n  0x01\n    /* \"#utility.yul\":2115:2129   */\n  swap1\n  swap2\n  add\n  swap1\n    /* \"#utility.yul\":1994:2013   */\n  dup5\n  add\n    /* \"#utility.yul\":1964:2200   */\n  jump(tag_37)\ntag_39:\n    /* \"#utility.yul\":1968:1971   */\n  pop\n    /* \"#utility.yul\":2228:2234   */\n  dup6\n    /* \"#utility.yul\":2219:2226   */\n  dup3\n    /* \"#utility.yul\":2216:2235   */\n  lt\n    /* \"#utility.yul\":2213:2414   */\n  iszero\n  tag_40\n  jumpi\n    /* \"#utility.yul\":2289:2308   */\n  dup8\n  dup6\n  add\n    /* \"#utility.yul\":2283:2309   */\n  mload\n  not(0x00)\n    /* \"#utility.yul\":2372:2373   */\n  0x03\n    /* \"#utility.yul\":2368:2382   */\n  dup9\n  swap1\n  shl\n    /* \"#utility.yul\":2384:2387   */\n  0xf8\n    /* \"#utility.yul\":2364:2388   */\n  and\n    /* \"#utility.yul\":2360:2397   */\n  shr\n    /* \"#utility.yul\":2356:2398   */\n  not\n    /* \"#utility.yul\":2341:2399   */\n  and\n    /* \"#utility.yul\":2326:2400   */\n  dup2\n  sstore\n    /* \"#utility.yul\":2213:2414   */\ntag_40:\n  pop\n  pop\n  pop\n  pop\n  pop\n    /* \"#utility.yul\":2460:2461   */\n  0x01\n    /* \"#utility.yul\":2444:2458   */\n  swap1\n  dup2\n  shl\n    /* \"#utility.yul\":2440:2462   */\n  add\n    /* \"#utility.yul\":2427:2463   */\n  swap1\n  sstore\n  pop\n    /* \"#utility.yul\":1378:2730   */\n  jump\t// out\n    /* \"#utility.yul\":2735:2912   */\ntag_14:\n    /* \"MatchaToken.sol\":155:5202  contract SarahKhushiiCoin is IERC20{... */\n  dataSize(sub_0)\n  dup1\n  dataOffset(sub_0)\n  0x00\n  codecopy\n  0x00\n  return\nstop\n\nsub_0: assembly {\n        /* \"MatchaToken.sol\":155:5202  contract SarahKhushiiCoin is IERC20{... */\n      mstore(0x40, 0x80)\n      callvalue\n      dup1\n      iszero\n      tag_1\n      jumpi\n      0x00\n      dup1\n      revert\n    tag_1:\n      pop\n      jumpi(tag_2, lt(calldatasize, 0x04))\n      shr(0xe0, calldataload(0x00))\n      dup1\n      0x3be5620e\n      gt\n      tag_18\n      jumpi\n      dup1\n      0x95d89b41\n      gt\n      tag_19\n      jumpi\n      dup1\n      0x95d89b41\n      eq\n      tag_14\n      jumpi\n      dup1\n      0xa9059cbb\n      eq\n      tag_15\n      jumpi\n      dup1\n      0xa91f1628\n      eq\n      tag_16\n      jumpi\n      dup1\n      0xdd62ed3e\n      eq\n      tag_17\n      jumpi\n      0x00\n      dup1\n      revert\n    tag_19:\n      dup1\n      0x3be5620e\n      eq\n      tag_10\n      jumpi\n      dup1\n      0x3eaaf86b\n      eq\n      tag_11\n      jumpi\n      dup1\n      0x6de30c30\n      eq\n      tag_12\n      jumpi\n      dup1\n      0x70a08231\n      eq\n      tag_13\n      jumpi\n      0x00\n      dup1\n      revert\n    tag_18:\n      dup1\n      0x14cd78b4\n      gt\n      tag_20\n      jumpi\n      dup1\n      0x14cd78b4\n      eq\n      tag_6\n      jumpi\n      dup1\n      0x18160ddd\n      eq\n      tag_7\n      jumpi\n      dup1\n      0x23b872dd\n      eq\n      tag_8\n      jumpi\n      dup1\n      0x313ce567\n      eq\n      tag_9\n      jumpi\n      0x00\n      dup1\n      revert\n    tag_20:\n      dup1\n      0x06fdde03\n      eq\n      tag_3\n      jumpi\n      dup1\n      0x07c629c8\n      eq\n      tag_4\n      jumpi\n      dup1\n      0x095ea7b3\n      eq\n      tag_5\n      jumpi\n    tag_2:\n      0x00\n      dup1\n      revert\n        /* \"MatchaToken.sol\":282:318  string public  name = 'Matcha Token' */\n    tag_3:\n      tag_21\n      tag_22\n      jump\t// in\n    tag_21:\n      mload(0x40)\n      tag_23\n      swap2\n      swap1\n      tag_24\n      jump\t// in\n    tag_23:\n      mload(0x40)\n      dup1\n      swap2\n      sub\n      swap1\n      return\n        /* \"MatchaToken.sol\":4311:4598  function buyAMatcha(address to, uint256 price) public returns (bool) {... */\n    tag_4:\n      tag_25\n      tag_26\n      calldatasize\n      0x04\n      tag_27\n      jump\t// in\n    tag_26:\n      tag_28\n      jump\t// in\n    tag_25:\n      mload(0x40)\n        /* \"#utility.yul\":1169:1183   */\n      swap1\n      iszero\n        /* \"#utility.yul\":1162:1184   */\n      iszero\n        /* \"#utility.yul\":1144:1185   */\n      dup2\n      mstore\n        /* \"#utility.yul\":1132:1134   */\n      0x20\n        /* \"#utility.yul\":1117:1135   */\n      add\n        /* \"MatchaToken.sol\":4311:4598  function buyAMatcha(address to, uint256 price) public returns (bool) {... */\n      tag_23\n        /* \"#utility.yul\":1004:1191   */\n      jump\n        /* \"MatchaToken.sol\":2469:2745  function approve(address spender, uint256 value) public override returns (bool) {... */\n    tag_5:\n      tag_25\n      tag_32\n      calldatasize\n      0x04\n      tag_27\n      jump\t// in\n    tag_32:\n      tag_33\n      jump\t// in\n        /* \"MatchaToken.sol\":4599:4733  function allowToSpendOnMatcha(address to)public returns (bool){... */\n    tag_6:\n      tag_25\n      tag_36\n      calldatasize\n      0x04\n      tag_37\n      jump\t// in\n    tag_36:\n      tag_38\n      jump\t// in\n        /* \"MatchaToken.sol\":3618:3697  function totalSupply() external view returns (uint){... */\n    tag_7:\n        /* \"MatchaToken.sol\":3682:3694  _totalSupply */\n      sload(0x01)\n        /* \"MatchaToken.sol\":3618:3697  function totalSupply() external view returns (uint){... */\n    tag_40:\n      mload(0x40)\n        /* \"#utility.yul\":1533:1558   */\n      swap1\n      dup2\n      mstore\n        /* \"#utility.yul\":1521:1523   */\n      0x20\n        /* \"#utility.yul\":1506:1524   */\n      add\n        /* \"MatchaToken.sol\":3618:3697  function totalSupply() external view returns (uint){... */\n      tag_23\n        /* \"#utility.yul\":1387:1564   */\n      jump\n        /* \"MatchaToken.sol\":3063:3521  function transferFrom(address from, address to, uint256 value) public override returns (bool) {... */\n    tag_8:\n      tag_25\n      tag_45\n      calldatasize\n      0x04\n      tag_46\n      jump\t// in\n    tag_45:\n      tag_47\n      jump\t// in\n        /* \"MatchaToken.sol\":442:476  uint8 public constant decimals = 3 */\n    tag_9:\n      tag_49\n        /* \"MatchaToken.sol\":475:476  3 */\n      0x03\n        /* \"MatchaToken.sol\":442:476  uint8 public constant decimals = 3 */\n      dup2\n      jump\n    tag_49:\n      mload(0x40)\n        /* \"#utility.yul\":2074:2078   */\n      0xff\n        /* \"#utility.yul\":2062:2079   */\n      swap1\n      swap2\n      and\n        /* \"#utility.yul\":2044:2080   */\n      dup2\n      mstore\n        /* \"#utility.yul\":2032:2034   */\n      0x20\n        /* \"#utility.yul\":2017:2035   */\n      add\n        /* \"MatchaToken.sol\":442:476  uint8 public constant decimals = 3 */\n      tag_23\n        /* \"#utility.yul\":1902:2086   */\n      jump\n        /* \"MatchaToken.sol\":4030:4309  function allowLess(address spender, uint256 restrict ) public {... */\n    tag_10:\n      tag_53\n      tag_54\n      calldatasize\n      0x04\n      tag_27\n      jump\t// in\n    tag_54:\n      tag_55\n      jump\t// in\n    tag_53:\n      stop\n        /* \"MatchaToken.sol\":482:519  uint  public  _totalSupply = 40*10**6 */\n    tag_11:\n      tag_40\n      sload(0x01)\n      dup2\n      jump\n        /* \"MatchaToken.sol\":3730:4028  function allowMore(address spender, uint256 bonus) public {... */\n    tag_12:\n      tag_53\n      tag_60\n      calldatasize\n      0x04\n      tag_27\n      jump\t// in\n    tag_60:\n      tag_61\n      jump\t// in\n        /* \"MatchaToken.sol\":3522:3616  function balanceOf(address owner) external view returns (uint){... */\n    tag_13:\n      tag_40\n      tag_63\n      calldatasize\n      0x04\n      tag_37\n      jump\t// in\n    tag_63:\n      sub(shl(0xa0, 0x01), 0x01)\n        /* \"MatchaToken.sol\":3597:3613  _balances[owner] */\n      and\n        /* \"MatchaToken.sol\":3579:3583  uint */\n      0x00\n        /* \"MatchaToken.sol\":3597:3613  _balances[owner] */\n      swap1\n      dup2\n      mstore\n        /* \"MatchaToken.sol\":3597:3606  _balances */\n      0x02\n        /* \"MatchaToken.sol\":3597:3613  _balances[owner] */\n      0x20\n      mstore\n      0x40\n      swap1\n      keccak256\n      sload\n      swap1\n        /* \"MatchaToken.sol\":3522:3616  function balanceOf(address owner) external view returns (uint){... */\n      jump\n        /* \"MatchaToken.sol\":396:436  string public constant symbol = 'MATCHA' */\n    tag_14:\n      tag_21\n      mload(0x40)\n      dup1\n      0x40\n      add\n      0x40\n      mstore\n      dup1\n      0x06\n      dup2\n      mstore\n      0x20\n      add\n      shl(0xd0, 0x4d4154434841)\n      dup2\n      mstore\n      pop\n      dup2\n      jump\n        /* \"MatchaToken.sol\":1957:2387  function transfer(address to, uint256 value) public override returns (bool) {... */\n    tag_15:\n      tag_25\n      tag_70\n      calldatasize\n      0x04\n      tag_27\n      jump\t// in\n    tag_70:\n      tag_71\n      jump\t// in\n        /* \"MatchaToken.sol\":4840:5087  function changeTokenName(address candidate, string memory  newName)public returns (bool){... */\n    tag_16:\n      tag_25\n      tag_74\n      calldatasize\n      0x04\n      tag_75\n      jump\t// in\n    tag_74:\n      tag_76\n      jump\t// in\n        /* \"MatchaToken.sol\":1695:1829  function allowance (address from, address spender) public override view returns (uint256){... */\n    tag_17:\n      tag_40\n      tag_79\n      calldatasize\n      0x04\n      tag_80\n      jump\t// in\n    tag_79:\n      sub(shl(0xa0, 0x01), 0x01)\n        /* \"MatchaToken.sol\":1797:1813  _allowance[from] */\n      swap2\n      dup3\n      and\n        /* \"MatchaToken.sol\":1776:1783  uint256 */\n      0x00\n        /* \"MatchaToken.sol\":1797:1813  _allowance[from] */\n      swap1\n      dup2\n      mstore\n        /* \"MatchaToken.sol\":1797:1807  _allowance */\n      0x03\n        /* \"MatchaToken.sol\":1797:1813  _allowance[from] */\n      0x20\n      swap1\n      dup2\n      mstore\n      0x40\n      dup1\n      dup4\n      keccak256\n        /* \"MatchaToken.sol\":1797:1822  _allowance[from][spender] */\n      swap4\n      swap1\n      swap5\n      and\n      dup3\n      mstore\n      swap2\n      swap1\n      swap2\n      mstore\n      keccak256\n      sload\n      swap1\n        /* \"MatchaToken.sol\":1695:1829  function allowance (address from, address spender) public override view returns (uint256){... */\n      jump\n        /* \"MatchaToken.sol\":282:318  string public  name = 'Matcha Token' */\n    tag_22:\n      0x00\n      dup1\n      sload\n      tag_83\n      swap1\n      tag_84\n      jump\t// in\n    tag_83:\n      dup1\n      0x1f\n      add\n      0x20\n      dup1\n      swap2\n      div\n      mul\n      0x20\n      add\n      mload(0x40)\n      swap1\n      dup2\n      add\n      0x40\n      mstore\n      dup1\n      swap3\n      swap2\n      swap1\n      dup2\n      dup2\n      mstore\n      0x20\n      add\n      dup3\n      dup1\n      sload\n      tag_85\n      swap1\n      tag_84\n      jump\t// in\n    tag_85:\n      dup1\n      iszero\n      tag_86\n      jumpi\n      dup1\n      0x1f\n      lt\n      tag_87\n      jumpi\n      0x0100\n      dup1\n      dup4\n      sload\n      div\n      mul\n      dup4\n      mstore\n      swap2\n      0x20\n      add\n      swap2\n      jump(tag_86)\n    tag_87:\n      dup3\n      add\n      swap2\n      swap1\n      0x00\n      mstore\n      keccak256(0x00, 0x20)\n      swap1\n    tag_88:\n      dup2\n      sload\n      dup2\n      mstore\n      swap1\n      0x01\n      add\n      swap1\n      0x20\n      add\n      dup1\n      dup4\n      gt\n      tag_88\n      jumpi\n      dup3\n      swap1\n      sub\n      0x1f\n      and\n      dup3\n      add\n      swap2\n    tag_86:\n      pop\n      pop\n      pop\n      pop\n      pop\n      dup2\n      jump\t// out\n        /* \"MatchaToken.sol\":4311:4598  function buyAMatcha(address to, uint256 price) public returns (bool) {... */\n    tag_28:\n        /* \"MatchaToken.sol\":4374:4378  bool */\n      0x00\n        /* \"MatchaToken.sol\":4448:4451  8.0 */\n      0x08\n        /* \"MatchaToken.sol\":4440:4445  price */\n      dup3\n        /* \"MatchaToken.sol\":4440:4451  price<= 8.0 */\n      gt\n      iszero\n        /* \"MatchaToken.sol\":4432:4507  require(price<= 8.0, \"don't buy it, it's too expensive rather go to Joeys\") */\n      tag_90\n      jumpi\n      mload(0x40)\n      shl(0xe5, 0x461bcd)\n      dup2\n      mstore\n        /* \"#utility.yul\":4076:4078   */\n      0x20\n        /* \"MatchaToken.sol\":4432:4507  require(price<= 8.0, \"don't buy it, it's too expensive rather go to Joeys\") */\n      0x04\n      dup3\n      add\n        /* \"#utility.yul\":4058:4079   */\n      mstore\n        /* \"#utility.yul\":4115:4117   */\n      0x33\n        /* \"#utility.yul\":4095:4113   */\n      0x24\n      dup3\n      add\n        /* \"#utility.yul\":4088:4118   */\n      mstore\n        /* \"#utility.yul\":4154:4188   */\n      0x646f6e2774206275792069742c206974277320746f6f20657870656e73697665\n        /* \"#utility.yul\":4134:4152   */\n      0x44\n      dup3\n      add\n        /* \"#utility.yul\":4127:4189   */\n      mstore\n      shl(0x68, 0x2072617468657220676f20746f204a6f657973)\n        /* \"#utility.yul\":4205:4223   */\n      0x64\n      dup3\n      add\n        /* \"#utility.yul\":4198:4247   */\n      mstore\n        /* \"#utility.yul\":4264:4283   */\n      0x84\n      add\n        /* \"MatchaToken.sol\":4432:4507  require(price<= 8.0, \"don't buy it, it's too expensive rather go to Joeys\") */\n    tag_91:\n      mload(0x40)\n      dup1\n      swap2\n      sub\n      swap1\n      revert\n    tag_90:\n      sub(shl(0xa0, 0x01), 0x01)\n        /* \"MatchaToken.sol\":4521:4536  to !=address(0) */\n      dup4\n      and\n        /* \"MatchaToken.sol\":4513:4537  require(to !=address(0)) */\n      tag_93\n      jumpi\n      0x00\n      dup1\n      revert\n    tag_93:\n        /* \"MatchaToken.sol\":4543:4578  transferFrom(msg.sender, to, price) */\n      tag_94\n        /* \"MatchaToken.sol\":4556:4566  msg.sender */\n      caller\n        /* \"MatchaToken.sol\":4568:4570  to */\n      dup5\n        /* \"MatchaToken.sol\":4572:4577  price */\n      dup5\n        /* \"MatchaToken.sol\":4543:4555  transferFrom */\n      tag_47\n        /* \"MatchaToken.sol\":4543:4578  transferFrom(msg.sender, to, price) */\n      jump\t// in\n    tag_94:\n      pop\n        /* \"MatchaToken.sol\":4591:4595  true */\n      0x01\n        /* \"MatchaToken.sol\":4584:4595  return true */\n      swap1\n      pop\n        /* \"MatchaToken.sol\":4311:4598  function buyAMatcha(address to, uint256 price) public returns (bool) {... */\n    tag_89:\n      swap3\n      swap2\n      pop\n      pop\n      jump\t// out\n        /* \"MatchaToken.sol\":2469:2745  function approve(address spender, uint256 value) public override returns (bool) {... */\n    tag_33:\n        /* \"MatchaToken.sol\":2543:2547  bool */\n      0x00\n      sub(shl(0xa0, 0x01), 0x01)\n        /* \"MatchaToken.sol\":2567:2588  spender != address(0) */\n      dup4\n      and\n        /* \"MatchaToken.sol\":2559:2617  require(spender != address(0),\"Invalid recipient address\") */\n      tag_96\n      jumpi\n      mload(0x40)\n      shl(0xe5, 0x461bcd)\n      dup2\n      mstore\n      0x04\n      add\n      tag_91\n      swap1\n      tag_98\n      jump\t// in\n    tag_96:\n        /* \"MatchaToken.sol\":2638:2648  msg.sender */\n      caller\n        /* \"MatchaToken.sol\":2627:2649  _allowance[msg.sender] */\n      0x00\n      dup2\n      dup2\n      mstore\n        /* \"MatchaToken.sol\":2627:2637  _allowance */\n      0x03\n        /* \"MatchaToken.sol\":2627:2649  _allowance[msg.sender] */\n      0x20\n      swap1\n      dup2\n      mstore\n      0x40\n      dup1\n      dup4\n      keccak256\n      sub(shl(0xa0, 0x01), 0x01)\n        /* \"MatchaToken.sol\":2627:2658  _allowance[msg.sender][spender] */\n      dup9\n      and\n      dup1\n      dup6\n      mstore\n      swap1\n      dup4\n      mstore\n      swap3\n      dup2\n      swap1\n      keccak256\n        /* \"MatchaToken.sol\":2627:2666  _allowance[msg.sender][spender] = value */\n      dup7\n      swap1\n      sstore\n        /* \"MatchaToken.sol\":2681:2716  Approval(msg.sender,spender, value) */\n      mload\n        /* \"#utility.yul\":1533:1558   */\n      dup6\n      dup2\n      mstore\n        /* \"MatchaToken.sol\":2627:2658  _allowance[msg.sender][spender] */\n      swap2\n      swap3\n        /* \"MatchaToken.sol\":2638:2648  msg.sender */\n      swap2\n        /* \"MatchaToken.sol\":2681:2716  Approval(msg.sender,spender, value) */\n      0x8c5be1e5ebec7d5bd14f71427d1e84f3dd0314c0f7b2291e5b200ac8c7c3b925\n      swap2\n        /* \"#utility.yul\":1506:1524   */\n      add\n        /* \"MatchaToken.sol\":2681:2716  Approval(msg.sender,spender, value) */\n    tag_99:\n      mload(0x40)\n      dup1\n      swap2\n      sub\n      swap1\n      log3\n      pop\n        /* \"MatchaToken.sol\":2734:2738  true */\n      0x01\n        /* \"MatchaToken.sol\":2469:2745  function approve(address spender, uint256 value) public override returns (bool) {... */\n      swap3\n      swap2\n      pop\n      pop\n      jump\t// out\n        /* \"MatchaToken.sol\":4599:4733  function allowToSpendOnMatcha(address to)public returns (bool){... */\n    tag_38:\n        /* \"MatchaToken.sol\":4656:4660  bool */\n      0x00\n      sub(shl(0xa0, 0x01), 0x01)\n        /* \"MatchaToken.sol\":4675:4690  to !=address(0) */\n      dup3\n      and\n        /* \"MatchaToken.sol\":4667:4691  require(to !=address(0)) */\n      tag_101\n      jumpi\n      0x00\n      dup1\n      revert\n    tag_101:\n        /* \"MatchaToken.sol\":4697:4713  allowMore(to, 8) */\n      tag_102\n        /* \"MatchaToken.sol\":4707:4709  to */\n      dup3\n        /* \"MatchaToken.sol\":4711:4712  8 */\n      0x08\n        /* \"MatchaToken.sol\":4697:4706  allowMore */\n      tag_61\n        /* \"MatchaToken.sol\":4697:4713  allowMore(to, 8) */\n      jump\t// in\n    tag_102:\n      pop\n        /* \"MatchaToken.sol\":4726:4730  true */\n      0x01\n      swap2\n        /* \"MatchaToken.sol\":4599:4733  function allowToSpendOnMatcha(address to)public returns (bool){... */\n      swap1\n      pop\n      jump\t// out\n        /* \"MatchaToken.sol\":3063:3521  function transferFrom(address from, address to, uint256 value) public override returns (bool) {... */\n    tag_47:\n        /* \"MatchaToken.sol\":3151:3155  bool */\n      0x00\n      sub(shl(0xa0, 0x01), 0x01)\n        /* \"MatchaToken.sol\":3176:3192  to != address(0) */\n      dup4\n      and\n        /* \"MatchaToken.sol\":3167:3221  require( to != address(0),\"Invalid recipient address\") */\n      tag_105\n      jumpi\n      mload(0x40)\n      shl(0xe5, 0x461bcd)\n      dup2\n      mstore\n      0x04\n      add\n      tag_91\n      swap1\n      tag_98\n      jump\t// in\n    tag_105:\n      sub(shl(0xa0, 0x01), 0x01)\n        /* \"MatchaToken.sol\":3275:3291  _allowance[from] */\n      dup5\n      and\n      0x00\n      swap1\n      dup2\n      mstore\n        /* \"MatchaToken.sol\":3275:3285  _allowance */\n      0x03\n        /* \"MatchaToken.sol\":3275:3291  _allowance[from] */\n      0x20\n      swap1\n      dup2\n      mstore\n      0x40\n      dup1\n      dup4\n      keccak256\n        /* \"MatchaToken.sol\":3292:3302  msg.sender */\n      caller\n        /* \"MatchaToken.sol\":3275:3303  _allowance[from][msg.sender] */\n      dup5\n      mstore\n      swap1\n      swap2\n      mstore\n      swap1\n      keccak256\n      sload\n        /* \"MatchaToken.sol\":3267:3303  value<= _allowance[from][msg.sender] */\n      dup3\n      gt\n      iszero\n        /* \"MatchaToken.sol\":3259:3304  require(value<= _allowance[from][msg.sender]) */\n      tag_107\n      jumpi\n      0x00\n      dup1\n      revert\n    tag_107:\n      sub(shl(0xa0, 0x01), 0x01)\n        /* \"MatchaToken.sol\":3329:3344  _balances[from] */\n      dup5\n      and\n      0x00\n      swap1\n      dup2\n      mstore\n        /* \"MatchaToken.sol\":3329:3338  _balances */\n      0x02\n        /* \"MatchaToken.sol\":3329:3344  _balances[from] */\n      0x20\n      mstore\n      0x40\n      swap1\n      keccak256\n      sload\n        /* \"MatchaToken.sol\":3322:3344  value<=_balances[from] */\n      dup3\n      gt\n      iszero\n        /* \"MatchaToken.sol\":3314:3345  require(value<=_balances[from]) */\n      tag_108\n      jumpi\n      0x00\n      dup1\n      revert\n    tag_108:\n      sub(shl(0xa0, 0x01), 0x01)\n        /* \"MatchaToken.sol\":3387:3403  _allowance[from] */\n      dup5\n      and\n      0x00\n      swap1\n      dup2\n      mstore\n        /* \"MatchaToken.sol\":3387:3397  _allowance */\n      0x03\n        /* \"MatchaToken.sol\":3387:3403  _allowance[from] */\n      0x20\n      swap1\n      dup2\n      mstore\n      0x40\n      dup1\n      dup4\n      keccak256\n        /* \"MatchaToken.sol\":3404:3414  msg.sender */\n      caller\n        /* \"MatchaToken.sol\":3387:3415  _allowance[from][msg.sender] */\n      dup5\n      mstore\n      swap1\n      swap2\n      mstore\n      swap1\n      keccak256\n      sload\n        /* \"MatchaToken.sol\":3387:3426  _allowance[from][msg.sender].sub(value) */\n      tag_109\n      swap1\n        /* \"MatchaToken.sol\":3420:3425  value */\n      dup4\n        /* \"MatchaToken.sol\":3387:3419  _allowance[from][msg.sender].sub */\n      tag_110\n        /* \"MatchaToken.sol\":3387:3426  _allowance[from][msg.sender].sub(value) */\n      jump\t// in\n    tag_109:\n      sub(shl(0xa0, 0x01), 0x01)\n        /* \"MatchaToken.sol\":3356:3372  _allowance[from] */\n      dup6\n      and\n      0x00\n      swap1\n      dup2\n      mstore\n        /* \"MatchaToken.sol\":3356:3366  _allowance */\n      0x03\n        /* \"MatchaToken.sol\":3356:3372  _allowance[from] */\n      0x20\n      swap1\n      dup2\n      mstore\n      0x40\n      dup1\n      dup4\n      keccak256\n        /* \"MatchaToken.sol\":3373:3383  msg.sender */\n      caller\n        /* \"MatchaToken.sol\":3356:3384  _allowance[from][msg.sender] */\n      dup1\n      dup6\n      mstore\n      swap3\n      mstore\n      swap1\n      swap2\n      keccak256\n        /* \"MatchaToken.sol\":3356:3426  _allowance[from][msg.sender] = _allowance[from][msg.sender].sub(value) */\n      swap2\n      swap1\n      swap2\n      sstore\n        /* \"MatchaToken.sol\":3460:3493  _transfer(from,msg.sender, value) */\n      tag_111\n      swap1\n        /* \"MatchaToken.sol\":3367:3371  from */\n      dup6\n      swap1\n        /* \"MatchaToken.sol\":3487:3492  value */\n      dup5\n        /* \"MatchaToken.sol\":3460:3469  _transfer */\n      tag_112\n        /* \"MatchaToken.sol\":3460:3493  _transfer(from,msg.sender, value) */\n      jump\t// in\n    tag_111:\n      pop\n        /* \"MatchaToken.sol\":3510:3514  true */\n      0x01\n        /* \"MatchaToken.sol\":3063:3521  function transferFrom(address from, address to, uint256 value) public override returns (bool) {... */\n      swap4\n      swap3\n      pop\n      pop\n      pop\n      jump\t// out\n        /* \"MatchaToken.sol\":4030:4309  function allowLess(address spender, uint256 restrict ) public {... */\n    tag_55:\n      sub(shl(0xa0, 0x01), 0x01)\n        /* \"MatchaToken.sol\":4107:4128  spender != address(0) */\n      dup3\n      and\n        /* \"MatchaToken.sol\":4099:4147  require(spender != address(0),\"invalid spender\") */\n      tag_114\n      jumpi\n      mload(0x40)\n      shl(0xe5, 0x461bcd)\n      dup2\n      mstore\n        /* \"#utility.yul\":4850:4852   */\n      0x20\n        /* \"MatchaToken.sol\":4099:4147  require(spender != address(0),\"invalid spender\") */\n      0x04\n      dup3\n      add\n        /* \"#utility.yul\":4832:4853   */\n      mstore\n        /* \"#utility.yul\":4889:4891   */\n      0x0f\n        /* \"#utility.yul\":4869:4887   */\n      0x24\n      dup3\n      add\n        /* \"#utility.yul\":4862:4892   */\n      mstore\n      shl(0x89, 0x34b73b30b634b21039b832b73232b9)\n        /* \"#utility.yul\":4908:4926   */\n      0x44\n      dup3\n      add\n        /* \"#utility.yul\":4901:4946   */\n      mstore\n        /* \"#utility.yul\":4963:4981   */\n      0x64\n      add\n        /* \"MatchaToken.sol\":4099:4147  require(spender != address(0),\"invalid spender\") */\n      tag_91\n        /* \"#utility.yul\":4648:4987   */\n      jump\n        /* \"MatchaToken.sol\":4099:4147  require(spender != address(0),\"invalid spender\") */\n    tag_114:\n        /* \"MatchaToken.sol\":4199:4209  msg.sender */\n      caller\n        /* \"MatchaToken.sol\":4188:4210  _allowance[msg.sender] */\n      0x00\n      swap1\n      dup2\n      mstore\n        /* \"MatchaToken.sol\":4188:4198  _allowance */\n      0x03\n        /* \"MatchaToken.sol\":4188:4210  _allowance[msg.sender] */\n      0x20\n      swap1\n      dup2\n      mstore\n      0x40\n      dup1\n      dup4\n      keccak256\n      sub(shl(0xa0, 0x01), 0x01)\n        /* \"MatchaToken.sol\":4188:4219  _allowance[msg.sender][spender] */\n      dup7\n      and\n      dup5\n      mstore\n      swap1\n      swap2\n      mstore\n      swap1\n      keccak256\n      sload\n        /* \"MatchaToken.sol\":4187:4234  (_allowance[msg.sender][spender]).sub(restrict) */\n      tag_117\n      swap1\n        /* \"MatchaToken.sol\":4225:4233  restrict */\n      dup3\n        /* \"MatchaToken.sol\":4187:4224  (_allowance[msg.sender][spender]).sub */\n      tag_110\n        /* \"MatchaToken.sol\":4187:4234  (_allowance[msg.sender][spender]).sub(restrict) */\n      jump\t// in\n    tag_117:\n        /* \"MatchaToken.sol\":4165:4175  msg.sender */\n      caller\n        /* \"MatchaToken.sol\":4154:4176  _allowance[msg.sender] */\n      0x00\n      dup2\n      dup2\n      mstore\n        /* \"MatchaToken.sol\":4154:4164  _allowance */\n      0x03\n        /* \"MatchaToken.sol\":4154:4176  _allowance[msg.sender] */\n      0x20\n      swap1\n      dup2\n      mstore\n      0x40\n      dup1\n      dup4\n      keccak256\n      sub(shl(0xa0, 0x01), 0x01)\n        /* \"MatchaToken.sol\":4154:4185  _allowance[msg.sender][spender] */\n      dup9\n      and\n      dup1\n      dup6\n      mstore\n      swap1\n      dup4\n      mstore\n      swap3\n      dup2\n      swap1\n      keccak256\n        /* \"MatchaToken.sol\":4154:4234  _allowance[msg.sender][spender]= (_allowance[msg.sender][spender]).sub(restrict) */\n      dup6\n      swap1\n      sstore\n        /* \"MatchaToken.sol\":4245:4306  Approval(msg.sender,spender, _allowance[msg.sender][spender]) */\n      mload\n        /* \"#utility.yul\":1533:1558   */\n      swap4\n      dup5\n      mstore\n        /* \"MatchaToken.sol\":4154:4185  _allowance[msg.sender][spender] */\n      swap1\n      swap3\n        /* \"MatchaToken.sol\":4245:4306  Approval(msg.sender,spender, _allowance[msg.sender][spender]) */\n      0x8c5be1e5ebec7d5bd14f71427d1e84f3dd0314c0f7b2291e5b200ac8c7c3b925\n      swap2\n        /* \"#utility.yul\":1506:1524   */\n      add\n        /* \"MatchaToken.sol\":4245:4306  Approval(msg.sender,spender, _allowance[msg.sender][spender]) */\n      mload(0x40)\n      dup1\n      swap2\n      sub\n      swap1\n      log3\n        /* \"MatchaToken.sol\":4030:4309  function allowLess(address spender, uint256 restrict ) public {... */\n      pop\n      pop\n      jump\t// out\n        /* \"MatchaToken.sol\":3730:4028  function allowMore(address spender, uint256 bonus) public {... */\n    tag_61:\n      sub(shl(0xa0, 0x01), 0x01)\n        /* \"MatchaToken.sol\":3802:3823  spender != address(0) */\n      dup3\n      and\n        /* \"MatchaToken.sol\":3794:3842  require(spender != address(0),\"invalid spender\") */\n      tag_120\n      jumpi\n      mload(0x40)\n      shl(0xe5, 0x461bcd)\n      dup2\n      mstore\n        /* \"#utility.yul\":4850:4852   */\n      0x20\n        /* \"MatchaToken.sol\":3794:3842  require(spender != address(0),\"invalid spender\") */\n      0x04\n      dup3\n      add\n        /* \"#utility.yul\":4832:4853   */\n      mstore\n        /* \"#utility.yul\":4889:4891   */\n      0x0f\n        /* \"#utility.yul\":4869:4887   */\n      0x24\n      dup3\n      add\n        /* \"#utility.yul\":4862:4892   */\n      mstore\n      shl(0x89, 0x34b73b30b634b21039b832b73232b9)\n        /* \"#utility.yul\":4908:4926   */\n      0x44\n      dup3\n      add\n        /* \"#utility.yul\":4901:4946   */\n      mstore\n        /* \"#utility.yul\":4963:4981   */\n      0x64\n      add\n        /* \"MatchaToken.sol\":3794:3842  require(spender != address(0),\"invalid spender\") */\n      tag_91\n        /* \"#utility.yul\":4648:4987   */\n      jump\n        /* \"MatchaToken.sol\":3794:3842  require(spender != address(0),\"invalid spender\") */\n    tag_120:\n        /* \"MatchaToken.sol\":3892:3902  msg.sender */\n      caller\n        /* \"MatchaToken.sol\":3881:3903  _allowance[msg.sender] */\n      0x00\n      swap1\n      dup2\n      mstore\n        /* \"MatchaToken.sol\":3881:3891  _allowance */\n      0x03\n        /* \"MatchaToken.sol\":3881:3903  _allowance[msg.sender] */\n      0x20\n      swap1\n      dup2\n      mstore\n      0x40\n      dup1\n      dup4\n      keccak256\n      sub(shl(0xa0, 0x01), 0x01)\n        /* \"MatchaToken.sol\":3881:3912  _allowance[msg.sender][spender] */\n      dup7\n      and\n      dup5\n      mstore\n      swap1\n      swap2\n      mstore\n      swap1\n      keccak256\n      sload\n        /* \"MatchaToken.sol\":3881:3923  _allowance[msg.sender][spender].add(bonus) */\n      tag_117\n      swap1\n        /* \"MatchaToken.sol\":3917:3922  bonus */\n      dup3\n        /* \"MatchaToken.sol\":3881:3916  _allowance[msg.sender][spender].add */\n      tag_123\n        /* \"MatchaToken.sol\":3881:3923  _allowance[msg.sender][spender].add(bonus) */\n      jump\t// in\n        /* \"MatchaToken.sol\":1957:2387  function transfer(address to, uint256 value) public override returns (bool) {... */\n    tag_71:\n        /* \"MatchaToken.sol\":2066:2076  msg.sender */\n      caller\n        /* \"MatchaToken.sol\":2027:2031  bool */\n      0x00\n        /* \"MatchaToken.sol\":2056:2077  _balances[msg.sender] */\n      swap1\n      dup2\n      mstore\n        /* \"MatchaToken.sol\":2056:2065  _balances */\n      0x02\n        /* \"MatchaToken.sol\":2056:2077  _balances[msg.sender] */\n      0x20\n      mstore\n      0x40\n      dup2\n      keccak256\n      sload\n        /* \"MatchaToken.sol\":2047:2077  value <= _balances[msg.sender] */\n      dup3\n      gt\n      iszero\n        /* \"MatchaToken.sol\":2039:2102  require(value <= _balances[msg.sender], \"Insufficient balance\") */\n      tag_127\n      jumpi\n      mload(0x40)\n      shl(0xe5, 0x461bcd)\n      dup2\n      mstore\n        /* \"#utility.yul\":5194:5196   */\n      0x20\n        /* \"MatchaToken.sol\":2039:2102  require(value <= _balances[msg.sender], \"Insufficient balance\") */\n      0x04\n      dup3\n      add\n        /* \"#utility.yul\":5176:5197   */\n      mstore\n        /* \"#utility.yul\":5233:5235   */\n      0x14\n        /* \"#utility.yul\":5213:5231   */\n      0x24\n      dup3\n      add\n        /* \"#utility.yul\":5206:5236   */\n      mstore\n      shl(0x60, 0x496e73756666696369656e742062616c616e6365)\n        /* \"#utility.yul\":5252:5270   */\n      0x44\n      dup3\n      add\n        /* \"#utility.yul\":5245:5295   */\n      mstore\n        /* \"#utility.yul\":5312:5330   */\n      0x64\n      add\n        /* \"MatchaToken.sol\":2039:2102  require(value <= _balances[msg.sender], \"Insufficient balance\") */\n      tag_91\n        /* \"#utility.yul\":4992:5336   */\n      jump\n        /* \"MatchaToken.sol\":2039:2102  require(value <= _balances[msg.sender], \"Insufficient balance\") */\n    tag_127:\n      sub(shl(0xa0, 0x01), 0x01)\n        /* \"MatchaToken.sol\":2116:2132  to != address(0) */\n      dup4\n      and\n        /* \"MatchaToken.sol\":2108:2162  require(to != address(0), \"Invalid recipient address\") */\n      tag_130\n      jumpi\n      mload(0x40)\n      shl(0xe5, 0x461bcd)\n      dup2\n      mstore\n      0x04\n      add\n      tag_91\n      swap1\n      tag_98\n      jump\t// in\n    tag_130:\n        /* \"MatchaToken.sol\":2202:2212  msg.sender */\n      caller\n        /* \"MatchaToken.sol\":2192:2213  _balances[msg.sender] */\n      0x00\n      swap1\n      dup2\n      mstore\n        /* \"MatchaToken.sol\":2192:2201  _balances */\n      0x02\n        /* \"MatchaToken.sol\":2192:2213  _balances[msg.sender] */\n      0x20\n      mstore\n      0x40\n      swap1\n      keccak256\n      sload\n        /* \"MatchaToken.sol\":2192:2224  _balances[msg.sender].sub(value) */\n      tag_132\n      swap1\n        /* \"MatchaToken.sol\":2218:2223  value */\n      dup4\n        /* \"MatchaToken.sol\":2192:2217  _balances[msg.sender].sub */\n      tag_110\n        /* \"MatchaToken.sol\":2192:2224  _balances[msg.sender].sub(value) */\n      jump\t// in\n    tag_132:\n        /* \"MatchaToken.sol\":2178:2188  msg.sender */\n      caller\n        /* \"MatchaToken.sol\":2168:2189  _balances[msg.sender] */\n      0x00\n      swap1\n      dup2\n      mstore\n        /* \"MatchaToken.sol\":2168:2177  _balances */\n      0x02\n        /* \"MatchaToken.sol\":2168:2189  _balances[msg.sender] */\n      0x20\n      mstore\n      0x40\n      dup1\n      dup3\n      keccak256\n        /* \"MatchaToken.sol\":2168:2224  _balances[msg.sender] = _balances[msg.sender].sub(value) */\n      swap3\n      swap1\n      swap3\n      sstore\n      sub(shl(0xa0, 0x01), 0x01)\n        /* \"MatchaToken.sol\":2246:2259  _balances[to] */\n      dup6\n      and\n      dup2\n      mstore\n      keccak256\n      sload\n        /* \"MatchaToken.sol\":2246:2270  _balances[to].add(value) */\n      tag_133\n      swap1\n        /* \"MatchaToken.sol\":2264:2269  value */\n      dup4\n        /* \"MatchaToken.sol\":2246:2263  _balances[to].add */\n      tag_123\n        /* \"MatchaToken.sol\":2246:2270  _balances[to].add(value) */\n      jump\t// in\n    tag_133:\n      sub(shl(0xa0, 0x01), 0x01)\n        /* \"MatchaToken.sol\":2230:2243  _balances[to] */\n      dup5\n      and\n      0x00\n      dup2\n      dup2\n      mstore\n        /* \"MatchaToken.sol\":2230:2239  _balances */\n      0x02\n        /* \"MatchaToken.sol\":2230:2243  _balances[to] */\n      0x20\n      mstore\n      0x40\n      swap1\n      dup2\n      swap1\n      keccak256\n        /* \"MatchaToken.sol\":2230:2270  _balances[to] = _balances[to].add(value) */\n      swap3\n      swap1\n      swap3\n      sstore\n        /* \"MatchaToken.sol\":2282:2313  Transfer(msg.sender, to, value) */\n      swap1\n      mload\n        /* \"MatchaToken.sol\":2291:2301  msg.sender */\n      caller\n      swap1\n        /* \"MatchaToken.sol\":2282:2313  Transfer(msg.sender, to, value) */\n      0xddf252ad1be2c89b69c2b068fc378daa952ba7f163c4a11628f55a4df523b3ef\n      swap1\n      tag_99\n      swap1\n        /* \"MatchaToken.sol\":2307:2312  value */\n      dup7\n        /* \"#utility.yul\":1533:1558   */\n      dup2\n      mstore\n        /* \"#utility.yul\":1521:1523   */\n      0x20\n        /* \"#utility.yul\":1506:1524   */\n      add\n      swap1\n        /* \"#utility.yul\":1387:1564   */\n      jump\n        /* \"MatchaToken.sol\":4840:5087  function changeTokenName(address candidate, string memory  newName)public returns (bool){... */\n    tag_76:\n        /* \"MatchaToken.sol\":4923:4927  bool */\n      0x00\n      sub(shl(0xa0, 0x01), 0x01)\n        /* \"MatchaToken.sol\":4942:4964  candidate !=address(0) */\n      dup4\n      and\n        /* \"MatchaToken.sol\":4934:4965  require(candidate !=address(0)) */\n      tag_136\n      jumpi\n      0x00\n      dup1\n      revert\n    tag_136:\n        /* \"MatchaToken.sol\":5014:5015  2 */\n      0x02\n        /* \"MatchaToken.sol\":5001:5013  _totalSupply */\n      sload(0x01)\n        /* \"MatchaToken.sol\":5001:5015  _totalSupply/2 */\n      tag_137\n      swap2\n      swap1\n      tag_138\n      jump\t// in\n    tag_137:\n      sub(shl(0xa0, 0x01), 0x01)\n        /* \"MatchaToken.sol\":4979:4999  _balances[candidate] */\n      dup5\n      and\n      0x00\n      swap1\n      dup2\n      mstore\n        /* \"MatchaToken.sol\":4979:4988  _balances */\n      0x02\n        /* \"MatchaToken.sol\":4979:4999  _balances[candidate] */\n      0x20\n      mstore\n      0x40\n      swap1\n      keccak256\n      sload\n        /* \"MatchaToken.sol\":4979:5015  _balances[candidate]> _totalSupply/2 */\n      gt\n        /* \"MatchaToken.sol\":4971:5038  require(_balances[candidate]> _totalSupply/2, \"Don't own majority\") */\n      tag_139\n      jumpi\n      mload(0x40)\n      shl(0xe5, 0x461bcd)\n      dup2\n      mstore\n        /* \"#utility.yul\":5897:5899   */\n      0x20\n        /* \"MatchaToken.sol\":4971:5038  require(_balances[candidate]> _totalSupply/2, \"Don't own majority\") */\n      0x04\n      dup3\n      add\n        /* \"#utility.yul\":5879:5900   */\n      mstore\n        /* \"#utility.yul\":5936:5938   */\n      0x12\n        /* \"#utility.yul\":5916:5934   */\n      0x24\n      dup3\n      add\n        /* \"#utility.yul\":5909:5939   */\n      mstore\n      shl(0x70, 0x446f6e2774206f776e206d616a6f72697479)\n        /* \"#utility.yul\":5955:5973   */\n      0x44\n      dup3\n      add\n        /* \"#utility.yul\":5948:5996   */\n      mstore\n        /* \"#utility.yul\":6013:6031   */\n      0x64\n      add\n        /* \"MatchaToken.sol\":4971:5038  require(_balances[candidate]> _totalSupply/2, \"Don't own majority\") */\n      tag_91\n        /* \"#utility.yul\":5695:6037   */\n      jump\n        /* \"MatchaToken.sol\":4971:5038  require(_balances[candidate]> _totalSupply/2, \"Don't own majority\") */\n    tag_139:\n        /* \"MatchaToken.sol\":5050:5067  _setName(newName) */\n      tag_142\n        /* \"MatchaToken.sol\":5059:5066  newName */\n      dup3\n        /* \"MatchaToken.sol\":5050:5058  _setName */\n      tag_143\n        /* \"MatchaToken.sol\":5050:5067  _setName(newName) */\n      jump\t// in\n    tag_142:\n        /* \"MatchaToken.sol\":5044:5048  name */\n      0x00\n      swap1\n        /* \"MatchaToken.sol\":5044:5067  name= _setName(newName) */\n      tag_94\n      swap1\n        /* \"MatchaToken.sol\":5044:5048  name */\n      dup3\n        /* \"MatchaToken.sol\":5044:5067  name= _setName(newName) */\n      tag_145\n      jump\t// in\n        /* \"SafeMath.sol\":320:447  function sub(uint x, uint y) internal pure returns (uint z) {... */\n    tag_110:\n        /* \"SafeMath.sol\":372:378  uint z */\n      0x00\n        /* \"SafeMath.sol\":413:414  x */\n      dup3\n        /* \"SafeMath.sol\":403:408  x - y */\n      tag_148\n        /* \"SafeMath.sol\":407:408  y */\n      dup4\n        /* \"SafeMath.sol\":413:414  x */\n      dup3\n        /* \"SafeMath.sol\":403:408  x - y */\n      tag_149\n      jump\t// in\n    tag_148:\n        /* \"SafeMath.sol\":399:408  z = x - y */\n      swap2\n      pop\n      dup2\n        /* \"SafeMath.sol\":398:414  (z = x - y) <= x */\n      gt\n      iszero\n        /* \"SafeMath.sol\":390:440  require((z = x - y) <= x, 'ds-math-sub-underflow') */\n      tag_89\n      jumpi\n      mload(0x40)\n      shl(0xe5, 0x461bcd)\n      dup2\n      mstore\n        /* \"#utility.yul\":8581:8583   */\n      0x20\n        /* \"SafeMath.sol\":390:440  require((z = x - y) <= x, 'ds-math-sub-underflow') */\n      0x04\n      dup3\n      add\n        /* \"#utility.yul\":8563:8584   */\n      mstore\n        /* \"#utility.yul\":8620:8622   */\n      0x15\n        /* \"#utility.yul\":8600:8618   */\n      0x24\n      dup3\n      add\n        /* \"#utility.yul\":8593:8623   */\n      mstore\n      shl(0x58, 0x64732d6d6174682d7375622d756e646572666c6f77)\n        /* \"#utility.yul\":8639:8657   */\n      0x44\n      dup3\n      add\n        /* \"#utility.yul\":8632:8683   */\n      mstore\n        /* \"#utility.yul\":8700:8718   */\n      0x64\n      add\n        /* \"SafeMath.sol\":390:440  require((z = x - y) <= x, 'ds-math-sub-underflow') */\n      tag_91\n        /* \"#utility.yul\":8379:8724   */\n      jump\n        /* \"MatchaToken.sol\":2835:3057  function _transfer(address from, address to, uint256 value) private {... */\n    tag_112:\n      sub(shl(0xa0, 0x01), 0x01)\n        /* \"MatchaToken.sol\":2932:2947  _balances[from] */\n      dup4\n      and\n      0x00\n      swap1\n      dup2\n      mstore\n        /* \"MatchaToken.sol\":2932:2941  _balances */\n      0x02\n        /* \"MatchaToken.sol\":2932:2947  _balances[from] */\n      0x20\n      mstore\n      0x40\n      swap1\n      keccak256\n      sload\n        /* \"MatchaToken.sol\":2932:2958  _balances[from].sub(value) */\n      tag_154\n      swap1\n        /* \"MatchaToken.sol\":2952:2957  value */\n      dup3\n        /* \"MatchaToken.sol\":2932:2951  _balances[from].sub */\n      tag_110\n        /* \"MatchaToken.sol\":2932:2958  _balances[from].sub(value) */\n      jump\t// in\n    tag_154:\n      sub(shl(0xa0, 0x01), 0x01)\n        /* \"MatchaToken.sol\":2913:2928  _balances[from] */\n      dup1\n      dup6\n      and\n      0x00\n      swap1\n      dup2\n      mstore\n        /* \"MatchaToken.sol\":2913:2922  _balances */\n      0x02\n        /* \"MatchaToken.sol\":2913:2928  _balances[from] */\n      0x20\n      mstore\n      0x40\n      dup1\n      dup3\n      keccak256\n        /* \"MatchaToken.sol\":2913:2958  _balances[from] =  _balances[from].sub(value) */\n      swap4\n      swap1\n      swap4\n      sstore\n        /* \"MatchaToken.sol\":2985:2998  _balances[to] */\n      swap1\n      dup5\n      and\n      dup2\n      mstore\n      keccak256\n      sload\n        /* \"MatchaToken.sol\":2985:3009  _balances[to].add(value) */\n      tag_155\n      swap1\n        /* \"MatchaToken.sol\":3003:3008  value */\n      dup3\n        /* \"MatchaToken.sol\":2985:3002  _balances[to].add */\n      tag_123\n        /* \"MatchaToken.sol\":2985:3009  _balances[to].add(value) */\n      jump\t// in\n    tag_155:\n      sub(shl(0xa0, 0x01), 0x01)\n        /* \"MatchaToken.sol\":2968:2981  _balances[to] */\n      dup1\n      dup5\n      and\n      0x00\n      dup2\n      dup2\n      mstore\n        /* \"MatchaToken.sol\":2968:2977  _balances */\n      0x02\n        /* \"MatchaToken.sol\":2968:2981  _balances[to] */\n      0x20\n      mstore\n      0x40\n      swap1\n      dup2\n      swap1\n      keccak256\n        /* \"MatchaToken.sol\":2968:3009  _balances[to] =  _balances[to].add(value) */\n      swap4\n      swap1\n      swap4\n      sstore\n        /* \"MatchaToken.sol\":3024:3050  Transfer (from, to, value) */\n      swap2\n      mload\n      swap1\n      dup6\n      and\n      swap1\n      0xddf252ad1be2c89b69c2b068fc378daa952ba7f163c4a11628f55a4df523b3ef\n      swap1\n      tag_156\n      swap1\n        /* \"MatchaToken.sol\":3044:3049  value */\n      dup6\n        /* \"#utility.yul\":1533:1558   */\n      dup2\n      mstore\n        /* \"#utility.yul\":1521:1523   */\n      0x20\n        /* \"#utility.yul\":1506:1524   */\n      add\n      swap1\n        /* \"#utility.yul\":1387:1564   */\n      jump\n        /* \"MatchaToken.sol\":3024:3050  Transfer (from, to, value) */\n    tag_156:\n      mload(0x40)\n      dup1\n      swap2\n      sub\n      swap1\n      log3\n        /* \"MatchaToken.sol\":2835:3057  function _transfer(address from, address to, uint256 value) private {... */\n      pop\n      pop\n      pop\n      jump\t// out\n        /* \"SafeMath.sol\":192:314  function add(uint x, uint y) internal pure returns (uint z) {... */\n    tag_123:\n        /* \"SafeMath.sol\":244:250  uint z */\n      0x00\n        /* \"SafeMath.sol\":281:282  x */\n      dup3\n        /* \"SafeMath.sol\":271:276  x + y */\n      tag_158\n        /* \"SafeMath.sol\":275:276  y */\n      dup4\n        /* \"SafeMath.sol\":281:282  x */\n      dup3\n        /* \"SafeMath.sol\":271:276  x + y */\n      tag_159\n      jump\t// in\n    tag_158:\n        /* \"SafeMath.sol\":267:276  z = x + y */\n      swap2\n      pop\n      dup2\n        /* \"SafeMath.sol\":266:282  (z = x + y) >= x */\n      lt\n      iszero\n        /* \"SafeMath.sol\":258:307  require((z = x + y) >= x, 'ds-math-add-overflow') */\n      tag_89\n      jumpi\n      mload(0x40)\n      shl(0xe5, 0x461bcd)\n      dup2\n      mstore\n        /* \"#utility.yul\":9061:9063   */\n      0x20\n        /* \"SafeMath.sol\":258:307  require((z = x + y) >= x, 'ds-math-add-overflow') */\n      0x04\n      dup3\n      add\n        /* \"#utility.yul\":9043:9064   */\n      mstore\n        /* \"#utility.yul\":9100:9102   */\n      0x14\n        /* \"#utility.yul\":9080:9098   */\n      0x24\n      dup3\n      add\n        /* \"#utility.yul\":9073:9103   */\n      mstore\n      shl(0x60, 0x64732d6d6174682d6164642d6f766572666c6f77)\n        /* \"#utility.yul\":9119:9137   */\n      0x44\n      dup3\n      add\n        /* \"#utility.yul\":9112:9162   */\n      mstore\n        /* \"#utility.yul\":9179:9197   */\n      0x64\n      add\n        /* \"SafeMath.sol\":258:307  require((z = x + y) >= x, 'ds-math-add-overflow') */\n      tag_91\n        /* \"#utility.yul\":8859:9203   */\n      jump\n        /* \"MatchaToken.sol\":5088:5200  function _setName(string memory  change) internal returns (string memory)  {... */\n    tag_143:\n        /* \"MatchaToken.sol\":5147:5160  string memory */\n      0x60\n        /* \"MatchaToken.sol\":5169:5173  name */\n      0x00\n        /* \"MatchaToken.sol\":5169:5180  name=change */\n      tag_164\n        /* \"MatchaToken.sol\":5174:5180  change */\n      dup4\n        /* \"MatchaToken.sol\":5169:5173  name */\n      dup3\n        /* \"MatchaToken.sol\":5169:5180  name=change */\n      tag_145\n      jump\t// in\n    tag_164:\n      pop\n        /* \"MatchaToken.sol\":5193:5197  name */\n      0x00\n        /* \"MatchaToken.sol\":5186:5197  return name */\n      dup1\n      sload\n      tag_165\n      swap1\n      tag_84\n      jump\t// in\n    tag_165:\n      dup1\n      0x1f\n      add\n      0x20\n      dup1\n      swap2\n      div\n      mul\n      0x20\n      add\n      mload(0x40)\n      swap1\n      dup2\n      add\n      0x40\n      mstore\n      dup1\n      swap3\n      swap2\n      swap1\n      dup2\n      dup2\n      mstore\n      0x20\n      add\n      dup3\n      dup1\n      sload\n      tag_166\n      swap1\n      tag_84\n      jump\t// in\n    tag_166:\n      dup1\n      iszero\n      tag_167\n      jumpi\n      dup1\n      0x1f\n      lt\n      tag_168\n      jumpi\n      0x0100\n      dup1\n      dup4\n      sload\n      div\n      mul\n      dup4\n      mstore\n      swap2\n      0x20\n      add\n      swap2\n      jump(tag_167)\n    tag_168:\n      dup3\n      add\n      swap2\n      swap1\n      0x00\n      mstore\n      keccak256(0x00, 0x20)\n      swap1\n    tag_169:\n      dup2\n      sload\n      dup2\n      mstore\n      swap1\n      0x01\n      add\n      swap1\n      0x20\n      add\n      dup1\n      dup4\n      gt\n      tag_169\n      jumpi\n      dup3\n      swap1\n      sub\n      0x1f\n      and\n      dup3\n      add\n      swap2\n    tag_167:\n      pop\n      pop\n      pop\n      pop\n      pop\n      swap1\n      pop\n        /* \"MatchaToken.sol\":5088:5200  function _setName(string memory  change) internal returns (string memory)  {... */\n      swap2\n      swap1\n      pop\n      jump\t// out\n        /* \"#utility.yul\":14:562   */\n    tag_24:\n        /* \"#utility.yul\":126:130   */\n      0x00\n        /* \"#utility.yul\":155:157   */\n      0x20\n        /* \"#utility.yul\":184:186   */\n      dup1\n        /* \"#utility.yul\":173:182   */\n      dup4\n        /* \"#utility.yul\":166:187   */\n      mstore\n        /* \"#utility.yul\":216:222   */\n      dup4\n        /* \"#utility.yul\":210:223   */\n      mload\n        /* \"#utility.yul\":259:265   */\n      dup1\n        /* \"#utility.yul\":254:256   */\n      dup3\n        /* \"#utility.yul\":243:252   */\n      dup6\n        /* \"#utility.yul\":239:257   */\n      add\n        /* \"#utility.yul\":232:266   */\n      mstore\n        /* \"#utility.yul\":284:285   */\n      0x00\n        /* \"#utility.yul\":294:434   */\n    tag_178:\n        /* \"#utility.yul\":308:314   */\n      dup2\n        /* \"#utility.yul\":305:306   */\n      dup2\n        /* \"#utility.yul\":302:315   */\n      lt\n        /* \"#utility.yul\":294:434   */\n      iszero\n      tag_180\n      jumpi\n        /* \"#utility.yul\":403:417   */\n      dup6\n      dup2\n      add\n        /* \"#utility.yul\":399:422   */\n      dup4\n      add\n        /* \"#utility.yul\":393:423   */\n      mload\n        /* \"#utility.yul\":369:386   */\n      dup6\n      dup3\n      add\n        /* \"#utility.yul\":388:390   */\n      0x40\n        /* \"#utility.yul\":365:391   */\n      add\n        /* \"#utility.yul\":358:424   */\n      mstore\n        /* \"#utility.yul\":323:333   */\n      dup3\n      add\n        /* \"#utility.yul\":294:434   */\n      jump(tag_178)\n    tag_180:\n        /* \"#utility.yul\":298:301   */\n      pop\n        /* \"#utility.yul\":483:484   */\n      0x00\n        /* \"#utility.yul\":478:480   */\n      0x40\n        /* \"#utility.yul\":469:475   */\n      dup3\n        /* \"#utility.yul\":458:467   */\n      dup7\n        /* \"#utility.yul\":454:476   */\n      add\n        /* \"#utility.yul\":450:481   */\n      add\n        /* \"#utility.yul\":443:485   */\n      mstore\n        /* \"#utility.yul\":553:555   */\n      0x40\n        /* \"#utility.yul\":546:548   */\n      0x1f\n        /* \"#utility.yul\":542:549   */\n      not\n        /* \"#utility.yul\":537:539   */\n      0x1f\n        /* \"#utility.yul\":529:535   */\n      dup4\n        /* \"#utility.yul\":525:540   */\n      add\n        /* \"#utility.yul\":521:550   */\n      and\n        /* \"#utility.yul\":510:519   */\n      dup6\n        /* \"#utility.yul\":506:551   */\n      add\n        /* \"#utility.yul\":502:556   */\n      add\n        /* \"#utility.yul\":494:556   */\n      swap3\n      pop\n      pop\n      pop\n        /* \"#utility.yul\":14:562   */\n      swap3\n      swap2\n      pop\n      pop\n      jump\t// out\n        /* \"#utility.yul\":567:740   */\n    tag_170:\n        /* \"#utility.yul\":635:655   */\n      dup1\n      calldataload\n      sub(shl(0xa0, 0x01), 0x01)\n        /* \"#utility.yul\":684:715   */\n      dup2\n      and\n        /* \"#utility.yul\":674:716   */\n      dup2\n      eq\n        /* \"#utility.yul\":664:734   */\n      tag_182\n      jumpi\n        /* \"#utility.yul\":730:731   */\n      0x00\n        /* \"#utility.yul\":727:728   */\n      dup1\n        /* \"#utility.yul\":720:732   */\n      revert\n        /* \"#utility.yul\":664:734   */\n    tag_182:\n        /* \"#utility.yul\":567:740   */\n      swap2\n      swap1\n      pop\n      jump\t// out\n        /* \"#utility.yul\":745:999   */\n    tag_27:\n        /* \"#utility.yul\":813:819   */\n      0x00\n        /* \"#utility.yul\":821:827   */\n      dup1\n        /* \"#utility.yul\":874:876   */\n      0x40\n        /* \"#utility.yul\":862:871   */\n      dup4\n        /* \"#utility.yul\":853:860   */\n      dup6\n        /* \"#utility.yul\":849:872   */\n      sub\n        /* \"#utility.yul\":845:877   */\n      slt\n        /* \"#utility.yul\":842:894   */\n      iszero\n      tag_184\n      jumpi\n        /* \"#utility.yul\":890:891   */\n      0x00\n        /* \"#utility.yul\":887:888   */\n      dup1\n        /* \"#utility.yul\":880:892   */\n      revert\n        /* \"#utility.yul\":842:894   */\n    tag_184:\n        /* \"#utility.yul\":913:942   */\n      tag_185\n        /* \"#utility.yul\":932:941   */\n      dup4\n        /* \"#utility.yul\":913:942   */\n      tag_170\n      jump\t// in\n    tag_185:\n        /* \"#utility.yul\":903:942   */\n      swap5\n        /* \"#utility.yul\":989:991   */\n      0x20\n        /* \"#utility.yul\":974:992   */\n      swap4\n      swap1\n      swap4\n      add\n        /* \"#utility.yul\":961:993   */\n      calldataload\n      swap4\n      pop\n      pop\n      pop\n        /* \"#utility.yul\":745:999   */\n      jump\t// out\n        /* \"#utility.yul\":1196:1382   */\n    tag_37:\n        /* \"#utility.yul\":1255:1261   */\n      0x00\n        /* \"#utility.yul\":1308:1310   */\n      0x20\n        /* \"#utility.yul\":1296:1305   */\n      dup3\n        /* \"#utility.yul\":1287:1294   */\n      dup5\n        /* \"#utility.yul\":1283:1306   */\n      sub\n        /* \"#utility.yul\":1279:1311   */\n      slt\n        /* \"#utility.yul\":1276:1328   */\n      iszero\n      tag_188\n      jumpi\n        /* \"#utility.yul\":1324:1325   */\n      0x00\n        /* \"#utility.yul\":1321:1322   */\n      dup1\n        /* \"#utility.yul\":1314:1326   */\n      revert\n        /* \"#utility.yul\":1276:1328   */\n    tag_188:\n        /* \"#utility.yul\":1347:1376   */\n      tag_189\n        /* \"#utility.yul\":1366:1375   */\n      dup3\n        /* \"#utility.yul\":1347:1376   */\n      tag_170\n      jump\t// in\n    tag_189:\n        /* \"#utility.yul\":1337:1376   */\n      swap4\n        /* \"#utility.yul\":1196:1382   */\n      swap3\n      pop\n      pop\n      pop\n      jump\t// out\n        /* \"#utility.yul\":1569:1897   */\n    tag_46:\n        /* \"#utility.yul\":1646:1652   */\n      0x00\n        /* \"#utility.yul\":1654:1660   */\n      dup1\n        /* \"#utility.yul\":1662:1668   */\n      0x00\n        /* \"#utility.yul\":1715:1717   */\n      0x60\n        /* \"#utility.yul\":1703:1712   */\n      dup5\n        /* \"#utility.yul\":1694:1701   */\n      dup7\n        /* \"#utility.yul\":1690:1713   */\n      sub\n        /* \"#utility.yul\":1686:1718   */\n      slt\n        /* \"#utility.yul\":1683:1735   */\n      iszero\n      tag_192\n      jumpi\n        /* \"#utility.yul\":1731:1732   */\n      0x00\n        /* \"#utility.yul\":1728:1729   */\n      dup1\n        /* \"#utility.yul\":1721:1733   */\n      revert\n        /* \"#utility.yul\":1683:1735   */\n    tag_192:\n        /* \"#utility.yul\":1754:1783   */\n      tag_193\n        /* \"#utility.yul\":1773:1782   */\n      dup5\n        /* \"#utility.yul\":1754:1783   */\n      tag_170\n      jump\t// in\n    tag_193:\n        /* \"#utility.yul\":1744:1783   */\n      swap3\n      pop\n        /* \"#utility.yul\":1802:1840   */\n      tag_194\n        /* \"#utility.yul\":1836:1838   */\n      0x20\n        /* \"#utility.yul\":1825:1834   */\n      dup6\n        /* \"#utility.yul\":1821:1839   */\n      add\n        /* \"#utility.yul\":1802:1840   */\n      tag_170\n      jump\t// in\n    tag_194:\n        /* \"#utility.yul\":1792:1840   */\n      swap2\n      pop\n        /* \"#utility.yul\":1887:1889   */\n      0x40\n        /* \"#utility.yul\":1876:1885   */\n      dup5\n        /* \"#utility.yul\":1872:1890   */\n      add\n        /* \"#utility.yul\":1859:1891   */\n      calldataload\n        /* \"#utility.yul\":1849:1891   */\n      swap1\n      pop\n        /* \"#utility.yul\":1569:1897   */\n      swap3\n      pop\n      swap3\n      pop\n      swap3\n      jump\t// out\n        /* \"#utility.yul\":2091:2218   */\n    tag_171:\n        /* \"#utility.yul\":2152:2162   */\n      0x4e487b71\n        /* \"#utility.yul\":2147:2150   */\n      0xe0\n        /* \"#utility.yul\":2143:2163   */\n      shl\n        /* \"#utility.yul\":2140:2141   */\n      0x00\n        /* \"#utility.yul\":2133:2164   */\n      mstore\n        /* \"#utility.yul\":2183:2187   */\n      0x41\n        /* \"#utility.yul\":2180:2181   */\n      0x04\n        /* \"#utility.yul\":2173:2188   */\n      mstore\n        /* \"#utility.yul\":2207:2211   */\n      0x24\n        /* \"#utility.yul\":2204:2205   */\n      0x00\n        /* \"#utility.yul\":2197:2212   */\n      revert\n        /* \"#utility.yul\":2223:3219   */\n    tag_75:\n        /* \"#utility.yul\":2301:2307   */\n      0x00\n        /* \"#utility.yul\":2309:2315   */\n      dup1\n        /* \"#utility.yul\":2362:2364   */\n      0x40\n        /* \"#utility.yul\":2350:2359   */\n      dup4\n        /* \"#utility.yul\":2341:2348   */\n      dup6\n        /* \"#utility.yul\":2337:2360   */\n      sub\n        /* \"#utility.yul\":2333:2365   */\n      slt\n        /* \"#utility.yul\":2330:2382   */\n      iszero\n      tag_198\n      jumpi\n        /* \"#utility.yul\":2378:2379   */\n      0x00\n        /* \"#utility.yul\":2375:2376   */\n      dup1\n        /* \"#utility.yul\":2368:2380   */\n      revert\n        /* \"#utility.yul\":2330:2382   */\n    tag_198:\n        /* \"#utility.yul\":2401:2430   */\n      tag_199\n        /* \"#utility.yul\":2420:2429   */\n      dup4\n        /* \"#utility.yul\":2401:2430   */\n      tag_170\n      jump\t// in\n    tag_199:\n        /* \"#utility.yul\":2391:2430   */\n      swap2\n      pop\n        /* \"#utility.yul\":2481:2483   */\n      0x20\n        /* \"#utility.yul\":2470:2479   */\n      dup4\n        /* \"#utility.yul\":2466:2484   */\n      add\n        /* \"#utility.yul\":2453:2485   */\n      calldataload\n        /* \"#utility.yul\":2504:2522   */\n      0xffffffffffffffff\n        /* \"#utility.yul\":2545:2547   */\n      dup1\n        /* \"#utility.yul\":2537:2543   */\n      dup3\n        /* \"#utility.yul\":2534:2548   */\n      gt\n        /* \"#utility.yul\":2531:2565   */\n      iszero\n      tag_200\n      jumpi\n        /* \"#utility.yul\":2561:2562   */\n      0x00\n        /* \"#utility.yul\":2558:2559   */\n      dup1\n        /* \"#utility.yul\":2551:2563   */\n      revert\n        /* \"#utility.yul\":2531:2565   */\n    tag_200:\n        /* \"#utility.yul\":2599:2605   */\n      dup2\n        /* \"#utility.yul\":2588:2597   */\n      dup6\n        /* \"#utility.yul\":2584:2606   */\n      add\n        /* \"#utility.yul\":2574:2606   */\n      swap2\n      pop\n        /* \"#utility.yul\":2644:2651   */\n      dup6\n        /* \"#utility.yul\":2637:2641   */\n      0x1f\n        /* \"#utility.yul\":2633:2635   */\n      dup4\n        /* \"#utility.yul\":2629:2642   */\n      add\n        /* \"#utility.yul\":2625:2652   */\n      slt\n        /* \"#utility.yul\":2615:2670   */\n      tag_201\n      jumpi\n        /* \"#utility.yul\":2666:2667   */\n      0x00\n        /* \"#utility.yul\":2663:2664   */\n      dup1\n        /* \"#utility.yul\":2656:2668   */\n      revert\n        /* \"#utility.yul\":2615:2670   */\n    tag_201:\n        /* \"#utility.yul\":2702:2704   */\n      dup2\n        /* \"#utility.yul\":2689:2705   */\n      calldataload\n        /* \"#utility.yul\":2724:2726   */\n      dup2\n        /* \"#utility.yul\":2720:2722   */\n      dup2\n        /* \"#utility.yul\":2717:2727   */\n      gt\n        /* \"#utility.yul\":2714:2750   */\n      iszero\n      tag_203\n      jumpi\n        /* \"#utility.yul\":2730:2748   */\n      tag_203\n      tag_171\n      jump\t// in\n    tag_203:\n        /* \"#utility.yul\":2805:2807   */\n      0x40\n        /* \"#utility.yul\":2799:2808   */\n      mload\n        /* \"#utility.yul\":2773:2775   */\n      0x1f\n        /* \"#utility.yul\":2859:2872   */\n      dup3\n      add\n      not(0x1f)\n        /* \"#utility.yul\":2855:2877   */\n      swap1\n      dup2\n      and\n        /* \"#utility.yul\":2879:2881   */\n      0x3f\n        /* \"#utility.yul\":2851:2882   */\n      add\n        /* \"#utility.yul\":2847:2887   */\n      and\n        /* \"#utility.yul\":2835:2888   */\n      dup2\n      add\n      swap1\n        /* \"#utility.yul\":2903:2921   */\n      dup4\n      dup3\n      gt\n        /* \"#utility.yul\":2923:2945   */\n      dup2\n      dup4\n      lt\n        /* \"#utility.yul\":2900:2946   */\n      or\n        /* \"#utility.yul\":2897:2969   */\n      iszero\n      tag_205\n      jumpi\n        /* \"#utility.yul\":2949:2967   */\n      tag_205\n      tag_171\n      jump\t// in\n    tag_205:\n        /* \"#utility.yul\":2989:2999   */\n      dup2\n        /* \"#utility.yul\":2985:2987   */\n      0x40\n        /* \"#utility.yul\":2978:3000   */\n      mstore\n        /* \"#utility.yul\":3024:3026   */\n      dup3\n        /* \"#utility.yul\":3016:3022   */\n      dup2\n        /* \"#utility.yul\":3009:3027   */\n      mstore\n        /* \"#utility.yul\":3064:3071   */\n      dup9\n        /* \"#utility.yul\":3059:3061   */\n      0x20\n        /* \"#utility.yul\":3054:3056   */\n      dup5\n        /* \"#utility.yul\":3050:3052   */\n      dup8\n        /* \"#utility.yul\":3046:3057   */\n      add\n        /* \"#utility.yul\":3042:3062   */\n      add\n        /* \"#utility.yul\":3039:3072   */\n      gt\n        /* \"#utility.yul\":3036:3089   */\n      iszero\n      tag_206\n      jumpi\n        /* \"#utility.yul\":3085:3086   */\n      0x00\n        /* \"#utility.yul\":3082:3083   */\n      dup1\n        /* \"#utility.yul\":3075:3087   */\n      revert\n        /* \"#utility.yul\":3036:3089   */\n    tag_206:\n        /* \"#utility.yul\":3141:3143   */\n      dup3\n        /* \"#utility.yul\":3136:3138   */\n      0x20\n        /* \"#utility.yul\":3132:3134   */\n      dup7\n        /* \"#utility.yul\":3128:3139   */\n      add\n        /* \"#utility.yul\":3123:3125   */\n      0x20\n        /* \"#utility.yul\":3115:3121   */\n      dup4\n        /* \"#utility.yul\":3111:3126   */\n      add\n        /* \"#utility.yul\":3098:3144   */\n      calldatacopy\n        /* \"#utility.yul\":3186:3187   */\n      0x00\n        /* \"#utility.yul\":3181:3183   */\n      0x20\n        /* \"#utility.yul\":3176:3178   */\n      dup5\n        /* \"#utility.yul\":3168:3174   */\n      dup4\n        /* \"#utility.yul\":3164:3179   */\n      add\n        /* \"#utility.yul\":3160:3184   */\n      add\n        /* \"#utility.yul\":3153:3188   */\n      mstore\n        /* \"#utility.yul\":3207:3213   */\n      dup1\n        /* \"#utility.yul\":3197:3213   */\n      swap6\n      pop\n      pop\n      pop\n      pop\n      pop\n      pop\n        /* \"#utility.yul\":2223:3219   */\n      swap3\n      pop\n      swap3\n      swap1\n      pop\n      jump\t// out\n        /* \"#utility.yul\":3224:3484   */\n    tag_80:\n        /* \"#utility.yul\":3292:3298   */\n      0x00\n        /* \"#utility.yul\":3300:3306   */\n      dup1\n        /* \"#utility.yul\":3353:3355   */\n      0x40\n        /* \"#utility.yul\":3341:3350   */\n      dup4\n        /* \"#utility.yul\":3332:3339   */\n      dup6\n        /* \"#utility.yul\":3328:3351   */\n      sub\n        /* \"#utility.yul\":3324:3356   */\n      slt\n        /* \"#utility.yul\":3321:3373   */\n      iszero\n      tag_208\n      jumpi\n        /* \"#utility.yul\":3369:3370   */\n      0x00\n        /* \"#utility.yul\":3366:3367   */\n      dup1\n        /* \"#utility.yul\":3359:3371   */\n      revert\n        /* \"#utility.yul\":3321:3373   */\n    tag_208:\n        /* \"#utility.yul\":3392:3421   */\n      tag_209\n        /* \"#utility.yul\":3411:3420   */\n      dup4\n        /* \"#utility.yul\":3392:3421   */\n      tag_170\n      jump\t// in\n    tag_209:\n        /* \"#utility.yul\":3382:3421   */\n      swap2\n      pop\n        /* \"#utility.yul\":3440:3478   */\n      tag_210\n        /* \"#utility.yul\":3474:3476   */\n      0x20\n        /* \"#utility.yul\":3463:3472   */\n      dup5\n        /* \"#utility.yul\":3459:3477   */\n      add\n        /* \"#utility.yul\":3440:3478   */\n      tag_170\n      jump\t// in\n    tag_210:\n        /* \"#utility.yul\":3430:3478   */\n      swap1\n      pop\n        /* \"#utility.yul\":3224:3484   */\n      swap3\n      pop\n      swap3\n      swap1\n      pop\n      jump\t// out\n        /* \"#utility.yul\":3489:3869   */\n    tag_84:\n        /* \"#utility.yul\":3568:3569   */\n      0x01\n        /* \"#utility.yul\":3564:3576   */\n      dup2\n      dup2\n      shr\n      swap1\n        /* \"#utility.yul\":3611:3623   */\n      dup3\n      and\n      dup1\n        /* \"#utility.yul\":3632:3693   */\n      tag_212\n      jumpi\n        /* \"#utility.yul\":3686:3690   */\n      0x7f\n        /* \"#utility.yul\":3678:3684   */\n      dup3\n        /* \"#utility.yul\":3674:3691   */\n      and\n        /* \"#utility.yul\":3664:3691   */\n      swap2\n      pop\n        /* \"#utility.yul\":3632:3693   */\n    tag_212:\n        /* \"#utility.yul\":3739:3741   */\n      0x20\n        /* \"#utility.yul\":3731:3737   */\n      dup3\n        /* \"#utility.yul\":3728:3742   */\n      lt\n        /* \"#utility.yul\":3708:3726   */\n      dup2\n        /* \"#utility.yul\":3705:3743   */\n      sub\n        /* \"#utility.yul\":3702:3863   */\n      tag_213\n      jumpi\n        /* \"#utility.yul\":3785:3795   */\n      0x4e487b71\n        /* \"#utility.yul\":3780:3783   */\n      0xe0\n        /* \"#utility.yul\":3776:3796   */\n      shl\n        /* \"#utility.yul\":3773:3774   */\n      0x00\n        /* \"#utility.yul\":3766:3797   */\n      mstore\n        /* \"#utility.yul\":3820:3824   */\n      0x22\n        /* \"#utility.yul\":3817:3818   */\n      0x04\n        /* \"#utility.yul\":3810:3825   */\n      mstore\n        /* \"#utility.yul\":3848:3852   */\n      0x24\n        /* \"#utility.yul\":3845:3846   */\n      0x00\n        /* \"#utility.yul\":3838:3853   */\n      revert\n        /* \"#utility.yul\":3702:3863   */\n    tag_213:\n      pop\n        /* \"#utility.yul\":3489:3869   */\n      swap2\n      swap1\n      pop\n      jump\t// out\n        /* \"#utility.yul\":4294:4643   */\n    tag_98:\n        /* \"#utility.yul\":4496:4498   */\n      0x20\n        /* \"#utility.yul\":4478:4499   */\n      dup1\n      dup3\n      mstore\n        /* \"#utility.yul\":4535:4537   */\n      0x19\n        /* \"#utility.yul\":4515:4533   */\n      swap1\n      dup3\n      add\n        /* \"#utility.yul\":4508:4538   */\n      mstore\n        /* \"#utility.yul\":4574:4601   */\n      0x496e76616c696420726563697069656e74206164647265737300000000000000\n        /* \"#utility.yul\":4569:4571   */\n      0x40\n        /* \"#utility.yul\":4554:4572   */\n      dup3\n      add\n        /* \"#utility.yul\":4547:4602   */\n      mstore\n        /* \"#utility.yul\":4634:4636   */\n      0x60\n        /* \"#utility.yul\":4619:4637   */\n      add\n      swap1\n        /* \"#utility.yul\":4294:4643   */\n      jump\t// out\n        /* \"#utility.yul\":5341:5468   */\n    tag_172:\n        /* \"#utility.yul\":5402:5412   */\n      0x4e487b71\n        /* \"#utility.yul\":5397:5400   */\n      0xe0\n        /* \"#utility.yul\":5393:5413   */\n      shl\n        /* \"#utility.yul\":5390:5391   */\n      0x00\n        /* \"#utility.yul\":5383:5414   */\n      mstore\n        /* \"#utility.yul\":5433:5437   */\n      0x11\n        /* \"#utility.yul\":5430:5431   */\n      0x04\n        /* \"#utility.yul\":5423:5438   */\n      mstore\n        /* \"#utility.yul\":5457:5461   */\n      0x24\n        /* \"#utility.yul\":5454:5455   */\n      0x00\n        /* \"#utility.yul\":5447:5462   */\n      revert\n        /* \"#utility.yul\":5473:5690   */\n    tag_138:\n        /* \"#utility.yul\":5513:5514   */\n      0x00\n        /* \"#utility.yul\":5539:5540   */\n      dup3\n        /* \"#utility.yul\":5529:5661   */\n      tag_220\n      jumpi\n        /* \"#utility.yul\":5583:5593   */\n      0x4e487b71\n        /* \"#utility.yul\":5578:5581   */\n      0xe0\n        /* \"#utility.yul\":5574:5594   */\n      shl\n        /* \"#utility.yul\":5571:5572   */\n      0x00\n        /* \"#utility.yul\":5564:5595   */\n      mstore\n        /* \"#utility.yul\":5618:5622   */\n      0x12\n        /* \"#utility.yul\":5615:5616   */\n      0x04\n        /* \"#utility.yul\":5608:5623   */\n      mstore\n        /* \"#utility.yul\":5646:5650   */\n      0x24\n        /* \"#utility.yul\":5643:5644   */\n      0x00\n        /* \"#utility.yul\":5636:5651   */\n      revert\n        /* \"#utility.yul\":5529:5661   */\n    tag_220:\n      pop\n        /* \"#utility.yul\":5675:5684   */\n      div\n      swap1\n        /* \"#utility.yul\":5473:5690   */\n      jump\t// out\n        /* \"#utility.yul\":6168:6713   */\n    tag_174:\n        /* \"#utility.yul\":6270:6272   */\n      0x1f\n        /* \"#utility.yul\":6265:6268   */\n      dup3\n        /* \"#utility.yul\":6262:6273   */\n      gt\n        /* \"#utility.yul\":6259:6707   */\n      iszero\n      tag_224\n      jumpi\n        /* \"#utility.yul\":6306:6307   */\n      0x00\n        /* \"#utility.yul\":6331:6336   */\n      dup2\n        /* \"#utility.yul\":6327:6329   */\n      dup2\n        /* \"#utility.yul\":6320:6337   */\n      mstore\n        /* \"#utility.yul\":6376:6380   */\n      0x20\n        /* \"#utility.yul\":6372:6374   */\n      dup2\n        /* \"#utility.yul\":6362:6381   */\n      keccak256\n        /* \"#utility.yul\":6446:6448   */\n      0x1f\n        /* \"#utility.yul\":6434:6444   */\n      dup6\n        /* \"#utility.yul\":6430:6449   */\n      add\n        /* \"#utility.yul\":6427:6428   */\n      0x05\n        /* \"#utility.yul\":6423:6450   */\n      shr\n        /* \"#utility.yul\":6417:6421   */\n      dup2\n        /* \"#utility.yul\":6413:6451   */\n      add\n        /* \"#utility.yul\":6482:6486   */\n      0x20\n        /* \"#utility.yul\":6470:6480   */\n      dup7\n        /* \"#utility.yul\":6467:6487   */\n      lt\n        /* \"#utility.yul\":6464:6511   */\n      iszero\n      tag_225\n      jumpi\n      pop\n        /* \"#utility.yul\":6505:6509   */\n      dup1\n        /* \"#utility.yul\":6464:6511   */\n    tag_225:\n        /* \"#utility.yul\":6560:6562   */\n      0x1f\n        /* \"#utility.yul\":6555:6558   */\n      dup6\n        /* \"#utility.yul\":6551:6563   */\n      add\n        /* \"#utility.yul\":6548:6549   */\n      0x05\n        /* \"#utility.yul\":6544:6564   */\n      shr\n        /* \"#utility.yul\":6538:6542   */\n      dup3\n        /* \"#utility.yul\":6534:6565   */\n      add\n        /* \"#utility.yul\":6524:6565   */\n      swap2\n      pop\n        /* \"#utility.yul\":6615:6697   */\n    tag_226:\n        /* \"#utility.yul\":6633:6635   */\n      dup2\n        /* \"#utility.yul\":6626:6631   */\n      dup2\n        /* \"#utility.yul\":6623:6636   */\n      lt\n        /* \"#utility.yul\":6615:6697   */\n      iszero\n      tag_228\n      jumpi\n        /* \"#utility.yul\":6678:6695   */\n      dup3\n      dup2\n      sstore\n        /* \"#utility.yul\":6659:6660   */\n      0x01\n        /* \"#utility.yul\":6648:6661   */\n      add\n        /* \"#utility.yul\":6615:6697   */\n      jump(tag_226)\n    tag_228:\n        /* \"#utility.yul\":6619:6622   */\n      pop\n      pop\n      pop\n        /* \"#utility.yul\":6259:6707   */\n    tag_224:\n        /* \"#utility.yul\":6168:6713   */\n      pop\n      pop\n      pop\n      jump\t// out\n        /* \"#utility.yul\":6889:8241   */\n    tag_145:\n        /* \"#utility.yul\":7015:7018   */\n      dup2\n        /* \"#utility.yul\":7009:7019   */\n      mload\n        /* \"#utility.yul\":7042:7060   */\n      0xffffffffffffffff\n        /* \"#utility.yul\":7034:7040   */\n      dup2\n        /* \"#utility.yul\":7031:7061   */\n      gt\n        /* \"#utility.yul\":7028:7084   */\n      iszero\n      tag_232\n      jumpi\n        /* \"#utility.yul\":7064:7082   */\n      tag_232\n      tag_171\n      jump\t// in\n    tag_232:\n        /* \"#utility.yul\":7093:7190   */\n      tag_233\n        /* \"#utility.yul\":7183:7189   */\n      dup2\n        /* \"#utility.yul\":7143:7181   */\n      tag_234\n        /* \"#utility.yul\":7175:7179   */\n      dup5\n        /* \"#utility.yul\":7169:7180   */\n      sload\n        /* \"#utility.yul\":7143:7181   */\n      tag_84\n      jump\t// in\n    tag_234:\n        /* \"#utility.yul\":7137:7141   */\n      dup5\n        /* \"#utility.yul\":7093:7190   */\n      tag_174\n      jump\t// in\n    tag_233:\n        /* \"#utility.yul\":7245:7249   */\n      0x20\n      dup1\n        /* \"#utility.yul\":7309:7311   */\n      0x1f\n        /* \"#utility.yul\":7298:7312   */\n      dup4\n      gt\n        /* \"#utility.yul\":7326:7327   */\n      0x01\n        /* \"#utility.yul\":7321:7984   */\n      dup2\n      eq\n      tag_236\n      jumpi\n        /* \"#utility.yul\":8028:8029   */\n      0x00\n        /* \"#utility.yul\":8045:8051   */\n      dup5\n        /* \"#utility.yul\":8042:8131   */\n      iszero\n      tag_237\n      jumpi\n      pop\n        /* \"#utility.yul\":8097:8116   */\n      dup6\n      dup4\n      add\n        /* \"#utility.yul\":8091:8117   */\n      mload\n        /* \"#utility.yul\":8042:8131   */\n    tag_237:\n      not(0x00)\n        /* \"#utility.yul\":6846:6847   */\n      0x03\n        /* \"#utility.yul\":6842:6853   */\n      dup7\n      swap1\n      shl\n        /* \"#utility.yul\":6838:6862   */\n      shr\n        /* \"#utility.yul\":6834:6863   */\n      not\n        /* \"#utility.yul\":6824:6864   */\n      and\n        /* \"#utility.yul\":6870:6871   */\n      0x01\n        /* \"#utility.yul\":6866:6877   */\n      dup6\n      swap1\n      shl\n        /* \"#utility.yul\":6821:6878   */\n      or\n        /* \"#utility.yul\":8144:8225   */\n      dup6\n      sstore\n        /* \"#utility.yul\":7291:8235   */\n      jump(tag_228)\n        /* \"#utility.yul\":7321:7984   */\n    tag_236:\n        /* \"#utility.yul\":6115:6116   */\n      0x00\n        /* \"#utility.yul\":6108:6122   */\n      dup6\n      dup2\n      mstore\n        /* \"#utility.yul\":6152:6156   */\n      0x20\n        /* \"#utility.yul\":6139:6157   */\n      dup2\n      keccak256\n      not(0x1f)\n        /* \"#utility.yul\":7357:7377   */\n      dup7\n      and\n      swap2\n        /* \"#utility.yul\":7475:7711   */\n    tag_240:\n        /* \"#utility.yul\":7489:7496   */\n      dup3\n        /* \"#utility.yul\":7486:7487   */\n      dup2\n        /* \"#utility.yul\":7483:7497   */\n      lt\n        /* \"#utility.yul\":7475:7711   */\n      iszero\n      tag_242\n      jumpi\n        /* \"#utility.yul\":7578:7597   */\n      dup9\n      dup7\n      add\n        /* \"#utility.yul\":7572:7598   */\n      mload\n        /* \"#utility.yul\":7557:7599   */\n      dup3\n      sstore\n        /* \"#utility.yul\":7670:7697   */\n      swap5\n      dup5\n      add\n      swap5\n        /* \"#utility.yul\":7638:7639   */\n      0x01\n        /* \"#utility.yul\":7626:7640   */\n      swap1\n      swap2\n      add\n      swap1\n        /* \"#utility.yul\":7505:7524   */\n      dup5\n      add\n        /* \"#utility.yul\":7475:7711   */\n      jump(tag_240)\n    tag_242:\n        /* \"#utility.yul\":7479:7482   */\n      pop\n        /* \"#utility.yul\":7739:7745   */\n      dup6\n        /* \"#utility.yul\":7730:7737   */\n      dup3\n        /* \"#utility.yul\":7727:7746   */\n      lt\n        /* \"#utility.yul\":7724:7925   */\n      iszero\n      tag_243\n      jumpi\n        /* \"#utility.yul\":7800:7819   */\n      dup8\n      dup6\n      add\n        /* \"#utility.yul\":7794:7820   */\n      mload\n      not(0x00)\n        /* \"#utility.yul\":7883:7884   */\n      0x03\n        /* \"#utility.yul\":7879:7893   */\n      dup9\n      swap1\n      shl\n        /* \"#utility.yul\":7895:7898   */\n      0xf8\n        /* \"#utility.yul\":7875:7899   */\n      and\n        /* \"#utility.yul\":7871:7908   */\n      shr\n        /* \"#utility.yul\":7867:7909   */\n      not\n        /* \"#utility.yul\":7852:7910   */\n      and\n        /* \"#utility.yul\":7837:7911   */\n      dup2\n      sstore\n        /* \"#utility.yul\":7724:7925   */\n    tag_243:\n      pop\n      pop\n      pop\n      pop\n      pop\n        /* \"#utility.yul\":7971:7972   */\n      0x01\n        /* \"#utility.yul\":7955:7969   */\n      swap1\n      dup2\n      shl\n        /* \"#utility.yul\":7951:7973   */\n      add\n        /* \"#utility.yul\":7938:7974   */\n      swap1\n      sstore\n      pop\n        /* \"#utility.yul\":6889:8241   */\n      jump\t// out\n        /* \"#utility.yul\":8246:8374   */\n    tag_149:\n        /* \"#utility.yul\":8313:8322   */\n      dup2\n      dup2\n      sub\n        /* \"#utility.yul\":8334:8345   */\n      dup2\n      dup2\n      gt\n        /* \"#utility.yul\":8331:8368   */\n      iszero\n      tag_89\n      jumpi\n        /* \"#utility.yul\":8348:8366   */\n      tag_89\n      tag_172\n      jump\t// in\n        /* \"#utility.yul\":8729:8854   */\n    tag_159:\n        /* \"#utility.yul\":8794:8803   */\n      dup1\n      dup3\n      add\n        /* \"#utility.yul\":8815:8825   */\n      dup1\n      dup3\n      gt\n        /* \"#utility.yul\":8812:8848   */\n      iszero\n      tag_89\n      jumpi\n        /* \"#utility.yul\":8828:8846   */\n      tag_89\n      tag_172\n      jump\t// in\n\n    auxdata: 0xa264697066735822122017ce94088976b21831045737f523cb07b5adb966ab6df9ae4826111940e472ad64736f6c63430008110033\n}\n",
				"bytecode": {
					"linkReferences": {},
					"object": "60c0604052600c60809081526b26b0ba31b430902a37b5b2b760a11b60a0526000906200002d90826200013a565b506302625a006001553480156200004357600080fd5b5060015433600081815260026020908152604080832085905551938452919290917fddf252ad1be2c89b69c2b068fc378daa952ba7f163c4a11628f55a4df523b3ef910160405180910390a362000206565b634e487b7160e01b600052604160045260246000fd5b600181811c90821680620000c057607f821691505b602082108103620000e157634e487b7160e01b600052602260045260246000fd5b50919050565b601f8211156200013557600081815260208120601f850160051c81016020861015620001105750805b601f850160051c820191505b8181101562000131578281556001016200011c565b5050505b505050565b81516001600160401b0381111562000156576200015662000095565b6200016e81620001678454620000ab565b84620000e7565b602080601f831160018114620001a657600084156200018d5750858301515b600019600386901b1c1916600185901b17855562000131565b600085815260208120601f198616915b82811015620001d757888601518255948401946001909101908401620001b6565b5085821015620001f65787850151600019600388901b60f8161c191681555b5050505050600190811b01905550565b610e4a80620002166000396000f3fe608060405234801561001057600080fd5b50600436106100f55760003560e01c80633be5620e1161009757806395d89b411161006657806395d89b41146101fa578063a9059cbb1461021f578063a91f162814610232578063dd62ed3e1461024557600080fd5b80633be5620e146101a05780633eaaf86b146101b55780636de30c30146101be57806370a08231146101d157600080fd5b806314cd78b4116100d357806314cd78b41461014e57806318160ddd1461016157806323b872dd14610173578063313ce5671461018657600080fd5b806306fdde03146100fa57806307c629c814610118578063095ea7b31461013b575b600080fd5b61010261027e565b60405161010f9190610a39565b60405180910390f35b61012b610126366004610aa3565b61030c565b604051901515815260200161010f565b61012b610149366004610aa3565b6103aa565b61012b61015c366004610acd565b610437565b6001545b60405190815260200161010f565b61012b610181366004610aef565b61045f565b61018e600381565b60405160ff909116815260200161010f565b6101b36101ae366004610aa3565b610548565b005b61016560015481565b6101b36101cc366004610aa3565b61061c565b6101656101df366004610acd565b6001600160a01b031660009081526002602052604090205490565b610102604051806040016040528060068152602001654d415443484160d01b81525081565b61012b61022d366004610aa3565b610692565b61012b610240366004610b41565b6107a5565b610165610253366004610c03565b6001600160a01b03918216600090815260036020908152604080832093909416825291909152205490565b6000805461028b90610c36565b80601f01602080910402602001604051908101604052809291908181526020018280546102b790610c36565b80156103045780601f106102d957610100808354040283529160200191610304565b820191906000526020600020905b8154815290600101906020018083116102e757829003601f168201915b505050505081565b600060088211156103805760405162461bcd60e51b815260206004820152603360248201527f646f6e2774206275792069742c206974277320746f6f20657870656e736976656044820152722072617468657220676f20746f204a6f65797360681b60648201526084015b60405180910390fd5b6001600160a01b03831661039357600080fd5b61039e33848461045f565b50600190505b92915050565b60006001600160a01b0383166103d25760405162461bcd60e51b815260040161037790610c70565b3360008181526003602090815260408083206001600160a01b03881680855290835292819020869055518581529192917f8c5be1e5ebec7d5bd14f71427d1e84f3dd0314c0f7b2291e5b200ac8c7c3b92591015b60405180910390a350600192915050565b60006001600160a01b03821661044c57600080fd5b61045782600861061c565b506001919050565b60006001600160a01b0383166104875760405162461bcd60e51b815260040161037790610c70565b6001600160a01b03841660009081526003602090815260408083203384529091529020548211156104b757600080fd5b6001600160a01b0384166000908152600260205260409020548211156104dc57600080fd5b6001600160a01b038416600090815260036020908152604080832033845290915290205461050a908361083a565b6001600160a01b03851660009081526003602090815260408083203380855292529091209190915561053e90859084610890565b5060019392505050565b6001600160a01b0382166105905760405162461bcd60e51b815260206004820152600f60248201526e34b73b30b634b21039b832b73232b960891b6044820152606401610377565b3360009081526003602090815260408083206001600160a01b03861684529091529020546105be908261083a565b3360008181526003602090815260408083206001600160a01b038816808552908352928190208590555193845290927f8c5be1e5ebec7d5bd14f71427d1e84f3dd0314c0f7b2291e5b200ac8c7c3b925910160405180910390a35050565b6001600160a01b0382166106645760405162461bcd60e51b815260206004820152600f60248201526e34b73b30b634b21039b832b73232b960891b6044820152606401610377565b3360009081526003602090815260408083206001600160a01b03861684529091529020546105be9082610943565b336000908152600260205260408120548211156106e85760405162461bcd60e51b8152602060048201526014602482015273496e73756666696369656e742062616c616e636560601b6044820152606401610377565b6001600160a01b03831661070e5760405162461bcd60e51b815260040161037790610c70565b33600090815260026020526040902054610728908361083a565b33600090815260026020526040808220929092556001600160a01b038516815220546107549083610943565b6001600160a01b0384166000818152600260205260409081902092909255905133907fddf252ad1be2c89b69c2b068fc378daa952ba7f163c4a11628f55a4df523b3ef906104269086815260200190565b60006001600160a01b0383166107ba57600080fd5b60026001546107c99190610cbd565b6001600160a01b038416600090815260026020526040902054116108245760405162461bcd60e51b8152602060048201526012602482015271446f6e2774206f776e206d616a6f7269747960701b6044820152606401610377565b61082d82610998565b60009061039e9082610d2e565b6000826108478382610dee565b91508111156103a45760405162461bcd60e51b815260206004820152601560248201527464732d6d6174682d7375622d756e646572666c6f7760581b6044820152606401610377565b6001600160a01b0383166000908152600260205260409020546108b3908261083a565b6001600160a01b0380851660009081526002602052604080822093909355908416815220546108e29082610943565b6001600160a01b0380841660008181526002602052604090819020939093559151908516907fddf252ad1be2c89b69c2b068fc378daa952ba7f163c4a11628f55a4df523b3ef906109369085815260200190565b60405180910390a3505050565b6000826109508382610e01565b91508110156103a45760405162461bcd60e51b815260206004820152601460248201527364732d6d6174682d6164642d6f766572666c6f7760601b6044820152606401610377565b606060006109a68382610d2e565b50600080546109b490610c36565b80601f01602080910402602001604051908101604052809291908181526020018280546109e090610c36565b8015610a2d5780601f10610a0257610100808354040283529160200191610a2d565b820191906000526020600020905b815481529060010190602001808311610a1057829003601f168201915b50505050509050919050565b600060208083528351808285015260005b81811015610a6657858101830151858201604001528201610a4a565b506000604082860101526040601f19601f8301168501019250505092915050565b80356001600160a01b0381168114610a9e57600080fd5b919050565b60008060408385031215610ab657600080fd5b610abf83610a87565b946020939093013593505050565b600060208284031215610adf57600080fd5b610ae882610a87565b9392505050565b600080600060608486031215610b0457600080fd5b610b0d84610a87565b9250610b1b60208501610a87565b9150604084013590509250925092565b634e487b7160e01b600052604160045260246000fd5b60008060408385031215610b5457600080fd5b610b5d83610a87565b9150602083013567ffffffffffffffff80821115610b7a57600080fd5b818501915085601f830112610b8e57600080fd5b813581811115610ba057610ba0610b2b565b604051601f8201601f19908116603f01168101908382118183101715610bc857610bc8610b2b565b81604052828152886020848701011115610be157600080fd5b8260208601602083013760006020848301015280955050505050509250929050565b60008060408385031215610c1657600080fd5b610c1f83610a87565b9150610c2d60208401610a87565b90509250929050565b600181811c90821680610c4a57607f821691505b602082108103610c6a57634e487b7160e01b600052602260045260246000fd5b50919050565b60208082526019908201527f496e76616c696420726563697069656e74206164647265737300000000000000604082015260600190565b634e487b7160e01b600052601160045260246000fd5b600082610cda57634e487b7160e01b600052601260045260246000fd5b500490565b601f821115610d2957600081815260208120601f850160051c81016020861015610d065750805b601f850160051c820191505b81811015610d2557828155600101610d12565b5050505b505050565b815167ffffffffffffffff811115610d4857610d48610b2b565b610d5c81610d568454610c36565b84610cdf565b602080601f831160018114610d915760008415610d795750858301515b600019600386901b1c1916600185901b178555610d25565b600085815260208120601f198616915b82811015610dc057888601518255948401946001909101908401610da1565b5085821015610dde5787850151600019600388901b60f8161c191681555b5050505050600190811b01905550565b818103818111156103a4576103a4610ca7565b808201808211156103a4576103a4610ca756fea264697066735822122017ce94088976b21831045737f523cb07b5adb966ab6df9ae4826111940e472ad64736f6c63430008110033",
					"opcodes": "PUSH1 0xC0 PUSH1 0x40 MSTORE PUSH1 0xC PUSH1 0x80 SWAP1 DUP2 MSTORE PUSH12 0x26B0BA31B430902A37B5B2B7 PUSH1 0xA1 SHL PUSH1 0xA0 MSTORE PUSH1 0x0 SWAP1 PUSH3 0x2D SWAP1 DUP3 PUSH3 0x13A JUMP JUMPDEST POP PUSH4 0x2625A00 PUSH1 0x1 SSTORE CALLVALUE DUP1 ISZERO PUSH3 0x43 JUMPI PUSH1 0x0 DUP1 REVERT JUMPDEST POP PUSH1 0x1 SLOAD CALLER PUSH1 0x0 DUP2 DUP2 MSTORE PUSH1 0x2 PUSH1 0x20 SWAP1 DUP2 MSTORE PUSH1 0x40 DUP1 DUP4 KECCAK256 DUP6 SWAP1 SSTORE MLOAD SWAP4 DUP5 MSTORE SWAP2 SWAP3 SWAP1 SWAP2 PUSH32 0xDDF252AD1BE2C89B69C2B068FC378DAA952BA7F163C4A11628F55A4DF523B3EF SWAP2 ADD PUSH1 0x40 MLOAD DUP1 SWAP2 SUB SWAP1 LOG3 PUSH3 0x206 JUMP JUMPDEST PUSH4 0x4E487B71 PUSH1 0xE0 SHL PUSH1 0x0 MSTORE PUSH1 0x41 PUSH1 0x4 MSTORE PUSH1 0x24 PUSH1 0x0 REVERT JUMPDEST PUSH1 0x1 DUP2 DUP2 SHR SWAP1 DUP3 AND DUP1 PUSH3 0xC0 JUMPI PUSH1 0x7F DUP3 AND SWAP2 POP JUMPDEST PUSH1 0x20 DUP3 LT DUP2 SUB PUSH3 0xE1 JUMPI PUSH4 0x4E487B71 PUSH1 0xE0 SHL PUSH1 0x0 MSTORE PUSH1 0x22 PUSH1 0x4 MSTORE PUSH1 0x24 PUSH1 0x0 REVERT JUMPDEST POP SWAP2 SWAP1 POP JUMP JUMPDEST PUSH1 0x1F DUP3 GT ISZERO PUSH3 0x135 JUMPI PUSH1 0x0 DUP2 DUP2 MSTORE PUSH1 0x20 DUP2 KECCAK256 PUSH1 0x1F DUP6 ADD PUSH1 0x5 SHR DUP2 ADD PUSH1 0x20 DUP7 LT ISZERO PUSH3 0x110 JUMPI POP DUP1 JUMPDEST PUSH1 0x1F DUP6 ADD PUSH1 0x5 SHR DUP3 ADD SWAP2 POP JUMPDEST DUP2 DUP2 LT ISZERO PUSH3 0x131 JUMPI DUP3 DUP2 SSTORE PUSH1 0x1 ADD PUSH3 0x11C JUMP JUMPDEST POP POP POP JUMPDEST POP POP POP JUMP JUMPDEST DUP2 MLOAD PUSH1 0x1 PUSH1 0x1 PUSH1 0x40 SHL SUB DUP2 GT ISZERO PUSH3 0x156 JUMPI PUSH3 0x156 PUSH3 0x95 JUMP JUMPDEST PUSH3 0x16E DUP2 PUSH3 0x167 DUP5 SLOAD PUSH3 0xAB JUMP JUMPDEST DUP5 PUSH3 0xE7 JUMP JUMPDEST PUSH1 0x20 DUP1 PUSH1 0x1F DUP4 GT PUSH1 0x1 DUP2 EQ PUSH3 0x1A6 JUMPI PUSH1 0x0 DUP5 ISZERO PUSH3 0x18D JUMPI POP DUP6 DUP4 ADD MLOAD JUMPDEST PUSH1 0x0 NOT PUSH1 0x3 DUP7 SWAP1 SHL SHR NOT AND PUSH1 0x1 DUP6 SWAP1 SHL OR DUP6 SSTORE PUSH3 0x131 JUMP JUMPDEST PUSH1 0x0 DUP6 DUP2 MSTORE PUSH1 0x20 DUP2 KECCAK256 PUSH1 0x1F NOT DUP7 AND SWAP2 JUMPDEST DUP3 DUP2 LT ISZERO PUSH3 0x1D7 JUMPI DUP9 DUP7 ADD MLOAD DUP3 SSTORE SWAP5 DUP5 ADD SWAP5 PUSH1 0x1 SWAP1 SWAP2 ADD SWAP1 DUP5 ADD PUSH3 0x1B6 JUMP JUMPDEST POP DUP6 DUP3 LT ISZERO PUSH3 0x1F6 JUMPI DUP8 DUP6 ADD MLOAD PUSH1 0x0 NOT PUSH1 0x3 DUP9 SWAP1 SHL PUSH1 0xF8 AND SHR NOT AND DUP2 SSTORE JUMPDEST POP POP POP POP POP PUSH1 0x1 SWAP1 DUP2 SHL ADD SWAP1 SSTORE POP JUMP JUMPDEST PUSH2 0xE4A DUP1 PUSH3 0x216 PUSH1 0x0 CODECOPY PUSH1 0x0 RETURN INVALID PUSH1 0x80 PUSH1 0x40 MSTORE CALLVALUE DUP1 ISZERO PUSH2 0x10 JUMPI PUSH1 0x0 DUP1 REVERT JUMPDEST POP PUSH1 0x4 CALLDATASIZE LT PUSH2 0xF5 JUMPI PUSH1 0x0 CALLDATALOAD PUSH1 0xE0 SHR DUP1 PUSH4 0x3BE5620E GT PUSH2 0x97 JUMPI DUP1 PUSH4 0x95D89B41 GT PUSH2 0x66 JUMPI DUP1 PUSH4 0x95D89B41 EQ PUSH2 0x1FA JUMPI DUP1 PUSH4 0xA9059CBB EQ PUSH2 0x21F JUMPI DUP1 PUSH4 0xA91F1628 EQ PUSH2 0x232 JUMPI DUP1 PUSH4 0xDD62ED3E EQ PUSH2 0x245 JUMPI PUSH1 0x0 DUP1 REVERT JUMPDEST DUP1 PUSH4 0x3BE5620E EQ PUSH2 0x1A0 JUMPI DUP1 PUSH4 0x3EAAF86B EQ PUSH2 0x1B5 JUMPI DUP1 PUSH4 0x6DE30C30 EQ PUSH2 0x1BE JUMPI DUP1 PUSH4 0x70A08231 EQ PUSH2 0x1D1 JUMPI PUSH1 0x0 DUP1 REVERT JUMPDEST DUP1 PUSH4 0x14CD78B4 GT PUSH2 0xD3 JUMPI DUP1 PUSH4 0x14CD78B4 EQ PUSH2 0x14E JUMPI DUP1 PUSH4 0x18160DDD EQ PUSH2 0x161 JUMPI DUP1 PUSH4 0x23B872DD EQ PUSH2 0x173 JUMPI DUP1 PUSH4 0x313CE567 EQ PUSH2 0x186 JUMPI PUSH1 0x0 DUP1 REVERT JUMPDEST DUP1 PUSH4 0x6FDDE03 EQ PUSH2 0xFA JUMPI DUP1 PUSH4 0x7C629C8 EQ PUSH2 0x118 JUMPI DUP1 PUSH4 0x95EA7B3 EQ PUSH2 0x13B JUMPI JUMPDEST PUSH1 0x0 DUP1 REVERT JUMPDEST PUSH2 0x102 PUSH2 0x27E JUMP JUMPDEST PUSH1 0x40 MLOAD PUSH2 0x10F SWAP2 SWAP1 PUSH2 0xA39 JUMP JUMPDEST PUSH1 0x40 MLOAD DUP1 SWAP2 SUB SWAP1 RETURN JUMPDEST PUSH2 0x12B PUSH2 0x126 CALLDATASIZE PUSH1 0x4 PUSH2 0xAA3 JUMP JUMPDEST PUSH2 0x30C JUMP JUMPDEST PUSH1 0x40 MLOAD SWAP1 ISZERO ISZERO DUP2 MSTORE PUSH1 0x20 ADD PUSH2 0x10F JUMP JUMPDEST PUSH2 0x12B PUSH2 0x149 CALLDATASIZE PUSH1 0x4 PUSH2 0xAA3 JUMP JUMPDEST PUSH2 0x3AA JUMP JUMPDEST PUSH2 0x12B PUSH2 0x15C CALLDATASIZE PUSH1 0x4 PUSH2 0xACD JUMP JUMPDEST PUSH2 0x437 JUMP JUMPDEST PUSH1 0x1 SLOAD JUMPDEST PUSH1 0x40 MLOAD SWAP1 DUP2 MSTORE PUSH1 0x20 ADD PUSH2 0x10F JUMP JUMPDEST PUSH2 0x12B PUSH2 0x181 CALLDATASIZE PUSH1 0x4 PUSH2 0xAEF JUMP JUMPDEST PUSH2 0x45F JUMP JUMPDEST PUSH2 0x18E PUSH1 0x3 DUP2 JUMP JUMPDEST PUSH1 0x40 MLOAD PUSH1 0xFF SWAP1 SWAP2 AND DUP2 MSTORE PUSH1 0x20 ADD PUSH2 0x10F JUMP JUMPDEST PUSH2 0x1B3 PUSH2 0x1AE CALLDATASIZE PUSH1 0x4 PUSH2 0xAA3 JUMP JUMPDEST PUSH2 0x548 JUMP JUMPDEST STOP JUMPDEST PUSH2 0x165 PUSH1 0x1 SLOAD DUP2 JUMP JUMPDEST PUSH2 0x1B3 PUSH2 0x1CC CALLDATASIZE PUSH1 0x4 PUSH2 0xAA3 JUMP JUMPDEST PUSH2 0x61C JUMP JUMPDEST PUSH2 0x165 PUSH2 0x1DF CALLDATASIZE PUSH1 0x4 PUSH2 0xACD JUMP JUMPDEST PUSH1 0x1 PUSH1 0x1 PUSH1 0xA0 SHL SUB AND PUSH1 0x0 SWAP1 DUP2 MSTORE PUSH1 0x2 PUSH1 0x20 MSTORE PUSH1 0x40 SWAP1 KECCAK256 SLOAD SWAP1 JUMP JUMPDEST PUSH2 0x102 PUSH1 0x40 MLOAD DUP1 PUSH1 0x40 ADD PUSH1 0x40 MSTORE DUP1 PUSH1 0x6 DUP2 MSTORE PUSH1 0x20 ADD PUSH6 0x4D4154434841 PUSH1 0xD0 SHL DUP2 MSTORE POP DUP2 JUMP JUMPDEST PUSH2 0x12B PUSH2 0x22D CALLDATASIZE PUSH1 0x4 PUSH2 0xAA3 JUMP JUMPDEST PUSH2 0x692 JUMP JUMPDEST PUSH2 0x12B PUSH2 0x240 CALLDATASIZE PUSH1 0x4 PUSH2 0xB41 JUMP JUMPDEST PUSH2 0x7A5 JUMP JUMPDEST PUSH2 0x165 PUSH2 0x253 CALLDATASIZE PUSH1 0x4 PUSH2 0xC03 JUMP JUMPDEST PUSH1 0x1 PUSH1 0x1 PUSH1 0xA0 SHL SUB SWAP2 DUP3 AND PUSH1 0x0 SWAP1 DUP2 MSTORE PUSH1 0x3 PUSH1 0x20 SWAP1 DUP2 MSTORE PUSH1 0x40 DUP1 DUP4 KECCAK256 SWAP4 SWAP1 SWAP5 AND DUP3 MSTORE SWAP2 SWAP1 SWAP2 MSTORE KECCAK256 SLOAD SWAP1 JUMP JUMPDEST PUSH1 0x0 DUP1 SLOAD PUSH2 0x28B SWAP1 PUSH2 0xC36 JUMP JUMPDEST DUP1 PUSH1 0x1F ADD PUSH1 0x20 DUP1 SWAP2 DIV MUL PUSH1 0x20 ADD PUSH1 0x40 MLOAD SWAP1 DUP2 ADD PUSH1 0x40 MSTORE DUP1 SWAP3 SWAP2 SWAP1 DUP2 DUP2 MSTORE PUSH1 0x20 ADD DUP3 DUP1 SLOAD PUSH2 0x2B7 SWAP1 PUSH2 0xC36 JUMP JUMPDEST DUP1 ISZERO PUSH2 0x304 JUMPI DUP1 PUSH1 0x1F LT PUSH2 0x2D9 JUMPI PUSH2 0x100 DUP1 DUP4 SLOAD DIV MUL DUP4 MSTORE SWAP2 PUSH1 0x20 ADD SWAP2 PUSH2 0x304 JUMP JUMPDEST DUP3 ADD SWAP2 SWAP1 PUSH1 0x0 MSTORE PUSH1 0x20 PUSH1 0x0 KECCAK256 SWAP1 JUMPDEST DUP2 SLOAD DUP2 MSTORE SWAP1 PUSH1 0x1 ADD SWAP1 PUSH1 0x20 ADD DUP1 DUP4 GT PUSH2 0x2E7 JUMPI DUP3 SWAP1 SUB PUSH1 0x1F AND DUP3 ADD SWAP2 JUMPDEST POP POP POP POP POP DUP2 JUMP JUMPDEST PUSH1 0x0 PUSH1 0x8 DUP3 GT ISZERO PUSH2 0x380 JUMPI PUSH1 0x40 MLOAD PUSH3 0x461BCD PUSH1 0xE5 SHL DUP2 MSTORE PUSH1 0x20 PUSH1 0x4 DUP3 ADD MSTORE PUSH1 0x33 PUSH1 0x24 DUP3 ADD MSTORE PUSH32 0x646F6E2774206275792069742C206974277320746F6F20657870656E73697665 PUSH1 0x44 DUP3 ADD MSTORE PUSH19 0x2072617468657220676F20746F204A6F657973 PUSH1 0x68 SHL PUSH1 0x64 DUP3 ADD MSTORE PUSH1 0x84 ADD JUMPDEST PUSH1 0x40 MLOAD DUP1 SWAP2 SUB SWAP1 REVERT JUMPDEST PUSH1 0x1 PUSH1 0x1 PUSH1 0xA0 SHL SUB DUP4 AND PUSH2 0x393 JUMPI PUSH1 0x0 DUP1 REVERT JUMPDEST PUSH2 0x39E CALLER DUP5 DUP5 PUSH2 0x45F JUMP JUMPDEST POP PUSH1 0x1 SWAP1 POP JUMPDEST SWAP3 SWAP2 POP POP JUMP JUMPDEST PUSH1 0x0 PUSH1 0x1 PUSH1 0x1 PUSH1 0xA0 SHL SUB DUP4 AND PUSH2 0x3D2 JUMPI PUSH1 0x40 MLOAD PUSH3 0x461BCD PUSH1 0xE5 SHL DUP2 MSTORE PUSH1 0x4 ADD PUSH2 0x377 SWAP1 PUSH2 0xC70 JUMP JUMPDEST CALLER PUSH1 0x0 DUP2 DUP2 MSTORE PUSH1 0x3 PUSH1 0x20 SWAP1 DUP2 MSTORE PUSH1 0x40 DUP1 DUP4 KECCAK256 PUSH1 0x1 PUSH1 0x1 PUSH1 0xA0 SHL SUB DUP9 AND DUP1 DUP6 MSTORE SWAP1 DUP4 MSTORE SWAP3 DUP2 SWAP1 KECCAK256 DUP7 SWAP1 SSTORE MLOAD DUP6 DUP2 MSTORE SWAP2 SWAP3 SWAP2 PUSH32 0x8C5BE1E5EBEC7D5BD14F71427D1E84F3DD0314C0F7B2291E5B200AC8C7C3B925 SWAP2 ADD JUMPDEST PUSH1 0x40 MLOAD DUP1 SWAP2 SUB SWAP1 LOG3 POP PUSH1 0x1 SWAP3 SWAP2 POP POP JUMP JUMPDEST PUSH1 0x0 PUSH1 0x1 PUSH1 0x1 PUSH1 0xA0 SHL SUB DUP3 AND PUSH2 0x44C JUMPI PUSH1 0x0 DUP1 REVERT JUMPDEST PUSH2 0x457 DUP3 PUSH1 0x8 PUSH2 0x61C JUMP JUMPDEST POP PUSH1 0x1 SWAP2 SWAP1 POP JUMP JUMPDEST PUSH1 0x0 PUSH1 0x1 PUSH1 0x1 PUSH1 0xA0 SHL SUB DUP4 AND PUSH2 0x487 JUMPI PUSH1 0x40 MLOAD PUSH3 0x461BCD PUSH1 0xE5 SHL DUP2 MSTORE PUSH1 0x4 ADD PUSH2 0x377 SWAP1 PUSH2 0xC70 JUMP JUMPDEST PUSH1 0x1 PUSH1 0x1 PUSH1 0xA0 SHL SUB DUP5 AND PUSH1 0x0 SWAP1 DUP2 MSTORE PUSH1 0x3 PUSH1 0x20 SWAP1 DUP2 MSTORE PUSH1 0x40 DUP1 DUP4 KECCAK256 CALLER DUP5 MSTORE SWAP1 SWAP2 MSTORE SWAP1 KECCAK256 SLOAD DUP3 GT ISZERO PUSH2 0x4B7 JUMPI PUSH1 0x0 DUP1 REVERT JUMPDEST PUSH1 0x1 PUSH1 0x1 PUSH1 0xA0 SHL SUB DUP5 AND PUSH1 0x0 SWAP1 DUP2 MSTORE PUSH1 0x2 PUSH1 0x20 MSTORE PUSH1 0x40 SWAP1 KECCAK256 SLOAD DUP3 GT ISZERO PUSH2 0x4DC JUMPI PUSH1 0x0 DUP1 REVERT JUMPDEST PUSH1 0x1 PUSH1 0x1 PUSH1 0xA0 SHL SUB DUP5 AND PUSH1 0x0 SWAP1 DUP2 MSTORE PUSH1 0x3 PUSH1 0x20 SWAP1 DUP2 MSTORE PUSH1 0x40 DUP1 DUP4 KECCAK256 CALLER DUP5 MSTORE SWAP1 SWAP2 MSTORE SWAP1 KECCAK256 SLOAD PUSH2 0x50A SWAP1 DUP4 PUSH2 0x83A JUMP JUMPDEST PUSH1 0x1 PUSH1 0x1 PUSH1 0xA0 SHL SUB DUP6 AND PUSH1 0x0 SWAP1 DUP2 MSTORE PUSH1 0x3 PUSH1 0x20 SWAP1 DUP2 MSTORE PUSH1 0x40 DUP1 DUP4 KECCAK256 CALLER DUP1 DUP6 MSTORE SWAP3 MSTORE SWAP1 SWAP2 KECCAK256 SWAP2 SWAP1 SWAP2 SSTORE PUSH2 0x53E SWAP1 DUP6 SWAP1 DUP5 PUSH2 0x890 JUMP JUMPDEST POP PUSH1 0x1 SWAP4 SWAP3 POP POP POP JUMP JUMPDEST PUSH1 0x1 PUSH1 0x1 PUSH1 0xA0 SHL SUB DUP3 AND PUSH2 0x590 JUMPI PUSH1 0x40 MLOAD PUSH3 0x461BCD PUSH1 0xE5 SHL DUP2 MSTORE PUSH1 0x20 PUSH1 0x4 DUP3 ADD MSTORE PUSH1 0xF PUSH1 0x24 DUP3 ADD MSTORE PUSH15 0x34B73B30B634B21039B832B73232B9 PUSH1 0x89 SHL PUSH1 0x44 DUP3 ADD MSTORE PUSH1 0x64 ADD PUSH2 0x377 JUMP JUMPDEST CALLER PUSH1 0x0 SWAP1 DUP2 MSTORE PUSH1 0x3 PUSH1 0x20 SWAP1 DUP2 MSTORE PUSH1 0x40 DUP1 DUP4 KECCAK256 PUSH1 0x1 PUSH1 0x1 PUSH1 0xA0 SHL SUB DUP7 AND DUP5 MSTORE SWAP1 SWAP2 MSTORE SWAP1 KECCAK256 SLOAD PUSH2 0x5BE SWAP1 DUP3 PUSH2 0x83A JUMP JUMPDEST CALLER PUSH1 0x0 DUP2 DUP2 MSTORE PUSH1 0x3 PUSH1 0x20 SWAP1 DUP2 MSTORE PUSH1 0x40 DUP1 DUP4 KECCAK256 PUSH1 0x1 PUSH1 0x1 PUSH1 0xA0 SHL SUB DUP9 AND DUP1 DUP6 MSTORE SWAP1 DUP4 MSTORE SWAP3 DUP2 SWAP1 KECCAK256 DUP6 SWAP1 SSTORE MLOAD SWAP4 DUP5 MSTORE SWAP1 SWAP3 PUSH32 0x8C5BE1E5EBEC7D5BD14F71427D1E84F3DD0314C0F7B2291E5B200AC8C7C3B925 SWAP2 ADD PUSH1 0x40 MLOAD DUP1 SWAP2 SUB SWAP1 LOG3 POP POP JUMP JUMPDEST PUSH1 0x1 PUSH1 0x1 PUSH1 0xA0 SHL SUB DUP3 AND PUSH2 0x664 JUMPI PUSH1 0x40 MLOAD PUSH3 0x461BCD PUSH1 0xE5 SHL DUP2 MSTORE PUSH1 0x20 PUSH1 0x4 DUP3 ADD MSTORE PUSH1 0xF PUSH1 0x24 DUP3 ADD MSTORE PUSH15 0x34B73B30B634B21039B832B73232B9 PUSH1 0x89 SHL PUSH1 0x44 DUP3 ADD MSTORE PUSH1 0x64 ADD PUSH2 0x377 JUMP JUMPDEST CALLER PUSH1 0x0 SWAP1 DUP2 MSTORE PUSH1 0x3 PUSH1 0x20 SWAP1 DUP2 MSTORE PUSH1 0x40 DUP1 DUP4 KECCAK256 PUSH1 0x1 PUSH1 0x1 PUSH1 0xA0 SHL SUB DUP7 AND DUP5 MSTORE SWAP1 SWAP2 MSTORE SWAP1 KECCAK256 SLOAD PUSH2 0x5BE SWAP1 DUP3 PUSH2 0x943 JUMP JUMPDEST CALLER PUSH1 0x0 SWAP1 DUP2 MSTORE PUSH1 0x2 PUSH1 0x20 MSTORE PUSH1 0x40 DUP2 KECCAK256 SLOAD DUP3 GT ISZERO PUSH2 0x6E8 JUMPI PUSH1 0x40 MLOAD PUSH3 0x461BCD PUSH1 0xE5 SHL DUP2 MSTORE PUSH1 0x20 PUSH1 0x4 DUP3 ADD MSTORE PUSH1 0x14 PUSH1 0x24 DUP3 ADD MSTORE PUSH20 0x496E73756666696369656E742062616C616E6365 PUSH1 0x60 SHL PUSH1 0x44 DUP3 ADD MSTORE PUSH1 0x64 ADD PUSH2 0x377 JUMP JUMPDEST PUSH1 0x1 PUSH1 0x1 PUSH1 0xA0 SHL SUB DUP4 AND PUSH2 0x70E JUMPI PUSH1 0x40 MLOAD PUSH3 0x461BCD PUSH1 0xE5 SHL DUP2 MSTORE PUSH1 0x4 ADD PUSH2 0x377 SWAP1 PUSH2 0xC70 JUMP JUMPDEST CALLER PUSH1 0x0 SWAP1 DUP2 MSTORE PUSH1 0x2 PUSH1 0x20 MSTORE PUSH1 0x40 SWAP1 KECCAK256 SLOAD PUSH2 0x728 SWAP1 DUP4 PUSH2 0x83A JUMP JUMPDEST CALLER PUSH1 0x0 SWAP1 DUP2 MSTORE PUSH1 0x2 PUSH1 0x20 MSTORE PUSH1 0x40 DUP1 DUP3 KECCAK256 SWAP3 SWAP1 SWAP3 SSTORE PUSH1 0x1 PUSH1 0x1 PUSH1 0xA0 SHL SUB DUP6 AND DUP2 MSTORE KECCAK256 SLOAD PUSH2 0x754 SWAP1 DUP4 PUSH2 0x943 JUMP JUMPDEST PUSH1 0x1 PUSH1 0x1 PUSH1 0xA0 SHL SUB DUP5 AND PUSH1 0x0 DUP2 DUP2 MSTORE PUSH1 0x2 PUSH1 0x20 MSTORE PUSH1 0x40 SWAP1 DUP2 SWAP1 KECCAK256 SWAP3 SWAP1 SWAP3 SSTORE SWAP1 MLOAD CALLER SWAP1 PUSH32 0xDDF252AD1BE2C89B69C2B068FC378DAA952BA7F163C4A11628F55A4DF523B3EF SWAP1 PUSH2 0x426 SWAP1 DUP7 DUP2 MSTORE PUSH1 0x20 ADD SWAP1 JUMP JUMPDEST PUSH1 0x0 PUSH1 0x1 PUSH1 0x1 PUSH1 0xA0 SHL SUB DUP4 AND PUSH2 0x7BA JUMPI PUSH1 0x0 DUP1 REVERT JUMPDEST PUSH1 0x2 PUSH1 0x1 SLOAD PUSH2 0x7C9 SWAP2 SWAP1 PUSH2 0xCBD JUMP JUMPDEST PUSH1 0x1 PUSH1 0x1 PUSH1 0xA0 SHL SUB DUP5 AND PUSH1 0x0 SWAP1 DUP2 MSTORE PUSH1 0x2 PUSH1 0x20 MSTORE PUSH1 0x40 SWAP1 KECCAK256 SLOAD GT PUSH2 0x824 JUMPI PUSH1 0x40 MLOAD PUSH3 0x461BCD PUSH1 0xE5 SHL DUP2 MSTORE PUSH1 0x20 PUSH1 0x4 DUP3 ADD MSTORE PUSH1 0x12 PUSH1 0x24 DUP3 ADD MSTORE PUSH18 0x446F6E2774206F776E206D616A6F72697479 PUSH1 0x70 SHL PUSH1 0x44 DUP3 ADD MSTORE PUSH1 0x64 ADD PUSH2 0x377 JUMP JUMPDEST PUSH2 0x82D DUP3 PUSH2 0x998 JUMP JUMPDEST PUSH1 0x0 SWAP1 PUSH2 0x39E SWAP1 DUP3 PUSH2 0xD2E JUMP JUMPDEST PUSH1 0x0 DUP3 PUSH2 0x847 DUP4 DUP3 PUSH2 0xDEE JUMP JUMPDEST SWAP2 POP DUP2 GT ISZERO PUSH2 0x3A4 JUMPI PUSH1 0x40 MLOAD PUSH3 0x461BCD PUSH1 0xE5 SHL DUP2 MSTORE PUSH1 0x20 PUSH1 0x4 DUP3 ADD MSTORE PUSH1 0x15 PUSH1 0x24 DUP3 ADD MSTORE PUSH21 0x64732D6D6174682D7375622D756E646572666C6F77 PUSH1 0x58 SHL PUSH1 0x44 DUP3 ADD MSTORE PUSH1 0x64 ADD PUSH2 0x377 JUMP JUMPDEST PUSH1 0x1 PUSH1 0x1 PUSH1 0xA0 SHL SUB DUP4 AND PUSH1 0x0 SWAP1 DUP2 MSTORE PUSH1 0x2 PUSH1 0x20 MSTORE PUSH1 0x40 SWAP1 KECCAK256 SLOAD PUSH2 0x8B3 SWAP1 DUP3 PUSH2 0x83A JUMP JUMPDEST PUSH1 0x1 PUSH1 0x1 PUSH1 0xA0 SHL SUB DUP1 DUP6 AND PUSH1 0x0 SWAP1 DUP2 MSTORE PUSH1 0x2 PUSH1 0x20 MSTORE PUSH1 0x40 DUP1 DUP3 KECCAK256 SWAP4 SWAP1 SWAP4 SSTORE SWAP1 DUP5 AND DUP2 MSTORE KECCAK256 SLOAD PUSH2 0x8E2 SWAP1 DUP3 PUSH2 0x943 JUMP JUMPDEST PUSH1 0x1 PUSH1 0x1 PUSH1 0xA0 SHL SUB DUP1 DUP5 AND PUSH1 0x0 DUP2 DUP2 MSTORE PUSH1 0x2 PUSH1 0x20 MSTORE PUSH1 0x40 SWAP1 DUP2 SWAP1 KECCAK256 SWAP4 SWAP1 SWAP4 SSTORE SWAP2 MLOAD SWAP1 DUP6 AND SWAP1 PUSH32 0xDDF252AD1BE2C89B69C2B068FC378DAA952BA7F163C4A11628F55A4DF523B3EF SWAP1 PUSH2 0x936 SWAP1 DUP6 DUP2 MSTORE PUSH1 0x20 ADD SWAP1 JUMP JUMPDEST PUSH1 0x40 MLOAD DUP1 SWAP2 SUB SWAP1 LOG3 POP POP POP JUMP JUMPDEST PUSH1 0x0 DUP3 PUSH2 0x950 DUP4 DUP3 PUSH2 0xE01 JUMP JUMPDEST SWAP2 POP DUP2 LT ISZERO PUSH2 0x3A4 JUMPI PUSH1 0x40 MLOAD PUSH3 0x461BCD PUSH1 0xE5 SHL DUP2 MSTORE PUSH1 0x20 PUSH1 0x4 DUP3 ADD MSTORE PUSH1 0x14 PUSH1 0x24 DUP3 ADD MSTORE PUSH20 0x64732D6D6174682D6164642D6F766572666C6F77 PUSH1 0x60 SHL PUSH1 0x44 DUP3 ADD MSTORE PUSH1 0x64 ADD PUSH2 0x377 JUMP JUMPDEST PUSH1 0x60 PUSH1 0x0 PUSH2 0x9A6 DUP4 DUP3 PUSH2 0xD2E JUMP JUMPDEST POP PUSH1 0x0 DUP1 SLOAD PUSH2 0x9B4 SWAP1 PUSH2 0xC36 JUMP JUMPDEST DUP1 PUSH1 0x1F ADD PUSH1 0x20 DUP1 SWAP2 DIV MUL PUSH1 0x20 ADD PUSH1 0x40 MLOAD SWAP1 DUP2 ADD PUSH1 0x40 MSTORE DUP1 SWAP3 SWAP2 SWAP1 DUP2 DUP2 MSTORE PUSH1 0x20 ADD DUP3 DUP1 SLOAD PUSH2 0x9E0 SWAP1 PUSH2 0xC36 JUMP JUMPDEST DUP1 ISZERO PUSH2 0xA2D JUMPI DUP1 PUSH1 0x1F LT PUSH2 0xA02 JUMPI PUSH2 0x100 DUP1 DUP4 SLOAD DIV MUL DUP4 MSTORE SWAP2 PUSH1 0x20 ADD SWAP2 PUSH2 0xA2D JUMP JUMPDEST DUP3 ADD SWAP2 SWAP1 PUSH1 0x0 MSTORE PUSH1 0x20 PUSH1 0x0 KECCAK256 SWAP1 JUMPDEST DUP2 SLOAD DUP2 MSTORE SWAP1 PUSH1 0x1 ADD SWAP1 PUSH1 0x20 ADD DUP1 DUP4 GT PUSH2 0xA10 JUMPI DUP3 SWAP1 SUB PUSH1 0x1F AND DUP3 ADD SWAP2 JUMPDEST POP POP POP POP POP SWAP1 POP SWAP2 SWAP1 POP JUMP JUMPDEST PUSH1 0x0 PUSH1 0x20 DUP1 DUP4 MSTORE DUP4 MLOAD DUP1 DUP3 DUP6 ADD MSTORE PUSH1 0x0 JUMPDEST DUP2 DUP2 LT ISZERO PUSH2 0xA66 JUMPI DUP6 DUP2 ADD DUP4 ADD MLOAD DUP6 DUP3 ADD PUSH1 0x40 ADD MSTORE DUP3 ADD PUSH2 0xA4A JUMP JUMPDEST POP PUSH1 0x0 PUSH1 0x40 DUP3 DUP7 ADD ADD MSTORE PUSH1 0x40 PUSH1 0x1F NOT PUSH1 0x1F DUP4 ADD AND DUP6 ADD ADD SWAP3 POP POP POP SWAP3 SWAP2 POP POP JUMP JUMPDEST DUP1 CALLDATALOAD PUSH1 0x1 PUSH1 0x1 PUSH1 0xA0 SHL SUB DUP2 AND DUP2 EQ PUSH2 0xA9E JUMPI PUSH1 0x0 DUP1 REVERT JUMPDEST SWAP2 SWAP1 POP JUMP JUMPDEST PUSH1 0x0 DUP1 PUSH1 0x40 DUP4 DUP6 SUB SLT ISZERO PUSH2 0xAB6 JUMPI PUSH1 0x0 DUP1 REVERT JUMPDEST PUSH2 0xABF DUP4 PUSH2 0xA87 JUMP JUMPDEST SWAP5 PUSH1 0x20 SWAP4 SWAP1 SWAP4 ADD CALLDATALOAD SWAP4 POP POP POP JUMP JUMPDEST PUSH1 0x0 PUSH1 0x20 DUP3 DUP5 SUB SLT ISZERO PUSH2 0xADF JUMPI PUSH1 0x0 DUP1 REVERT JUMPDEST PUSH2 0xAE8 DUP3 PUSH2 0xA87 JUMP JUMPDEST SWAP4 SWAP3 POP POP POP JUMP JUMPDEST PUSH1 0x0 DUP1 PUSH1 0x0 PUSH1 0x60 DUP5 DUP7 SUB SLT ISZERO PUSH2 0xB04 JUMPI PUSH1 0x0 DUP1 REVERT JUMPDEST PUSH2 0xB0D DUP5 PUSH2 0xA87 JUMP JUMPDEST SWAP3 POP PUSH2 0xB1B PUSH1 0x20 DUP6 ADD PUSH2 0xA87 JUMP JUMPDEST SWAP2 POP PUSH1 0x40 DUP5 ADD CALLDATALOAD SWAP1 POP SWAP3 POP SWAP3 POP SWAP3 JUMP JUMPDEST PUSH4 0x4E487B71 PUSH1 0xE0 SHL PUSH1 0x0 MSTORE PUSH1 0x41 PUSH1 0x4 MSTORE PUSH1 0x24 PUSH1 0x0 REVERT JUMPDEST PUSH1 0x0 DUP1 PUSH1 0x40 DUP4 DUP6 SUB SLT ISZERO PUSH2 0xB54 JUMPI PUSH1 0x0 DUP1 REVERT JUMPDEST PUSH2 0xB5D DUP4 PUSH2 0xA87 JUMP JUMPDEST SWAP2 POP PUSH1 0x20 DUP4 ADD CALLDATALOAD PUSH8 0xFFFFFFFFFFFFFFFF DUP1 DUP3 GT ISZERO PUSH2 0xB7A JUMPI PUSH1 0x0 DUP1 REVERT JUMPDEST DUP2 DUP6 ADD SWAP2 POP DUP6 PUSH1 0x1F DUP4 ADD SLT PUSH2 0xB8E JUMPI PUSH1 0x0 DUP1 REVERT JUMPDEST DUP2 CALLDATALOAD DUP2 DUP2 GT ISZERO PUSH2 0xBA0 JUMPI PUSH2 0xBA0 PUSH2 0xB2B JUMP JUMPDEST PUSH1 0x40 MLOAD PUSH1 0x1F DUP3 ADD PUSH1 0x1F NOT SWAP1 DUP2 AND PUSH1 0x3F ADD AND DUP2 ADD SWAP1 DUP4 DUP3 GT DUP2 DUP4 LT OR ISZERO PUSH2 0xBC8 JUMPI PUSH2 0xBC8 PUSH2 0xB2B JUMP JUMPDEST DUP2 PUSH1 0x40 MSTORE DUP3 DUP2 MSTORE DUP9 PUSH1 0x20 DUP5 DUP8 ADD ADD GT ISZERO PUSH2 0xBE1 JUMPI PUSH1 0x0 DUP1 REVERT JUMPDEST DUP3 PUSH1 0x20 DUP7 ADD PUSH1 0x20 DUP4 ADD CALLDATACOPY PUSH1 0x0 PUSH1 0x20 DUP5 DUP4 ADD ADD MSTORE DUP1 SWAP6 POP POP POP POP POP POP SWAP3 POP SWAP3 SWAP1 POP JUMP JUMPDEST PUSH1 0x0 DUP1 PUSH1 0x40 DUP4 DUP6 SUB SLT ISZERO PUSH2 0xC16 JUMPI PUSH1 0x0 DUP1 REVERT JUMPDEST PUSH2 0xC1F DUP4 PUSH2 0xA87 JUMP JUMPDEST SWAP2 POP PUSH2 0xC2D PUSH1 0x20 DUP5 ADD PUSH2 0xA87 JUMP JUMPDEST SWAP1 POP SWAP3 POP SWAP3 SWAP1 POP JUMP JUMPDEST PUSH1 0x1 DUP2 DUP2 SHR SWAP1 DUP3 AND DUP1 PUSH2 0xC4A JUMPI PUSH1 0x7F DUP3 AND SWAP2 POP JUMPDEST PUSH1 0x20 DUP3 LT DUP2 SUB PUSH2 0xC6A JUMPI PUSH4 0x4E487B71 PUSH1 0xE0 SHL PUSH1 0x0 MSTORE PUSH1 0x22 PUSH1 0x4 MSTORE PUSH1 0x24 PUSH1 0x0 REVERT JUMPDEST POP SWAP2 SWAP1 POP JUMP JUMPDEST PUSH1 0x20 DUP1 DUP3 MSTORE PUSH1 0x19 SWAP1 DUP3 ADD MSTORE PUSH32 0x496E76616C696420726563697069656E74206164647265737300000000000000 PUSH1 0x40 DUP3 ADD MSTORE PUSH1 0x60 ADD SWAP1 JUMP JUMPDEST PUSH4 0x4E487B71 PUSH1 0xE0 SHL PUSH1 0x0 MSTORE PUSH1 0x11 PUSH1 0x4 MSTORE PUSH1 0x24 PUSH1 0x0 REVERT JUMPDEST PUSH1 0x0 DUP3 PUSH2 0xCDA JUMPI PUSH4 0x4E487B71 PUSH1 0xE0 SHL PUSH1 0x0 MSTORE PUSH1 0x12 PUSH1 0x4 MSTORE PUSH1 0x24 PUSH1 0x0 REVERT JUMPDEST POP DIV SWAP1 JUMP JUMPDEST PUSH1 0x1F DUP3 GT ISZERO PUSH2 0xD29 JUMPI PUSH1 0x0 DUP2 DUP2 MSTORE PUSH1 0x20 DUP2 KECCAK256 PUSH1 0x1F DUP6 ADD PUSH1 0x5 SHR DUP2 ADD PUSH1 0x20 DUP7 LT ISZERO PUSH2 0xD06 JUMPI POP DUP1 JUMPDEST PUSH1 0x1F DUP6 ADD PUSH1 0x5 SHR DUP3 ADD SWAP2 POP JUMPDEST DUP2 DUP2 LT ISZERO PUSH2 0xD25 JUMPI DUP3 DUP2 SSTORE PUSH1 0x1 ADD PUSH2 0xD12 JUMP JUMPDEST POP POP POP JUMPDEST POP POP POP JUMP JUMPDEST DUP2 MLOAD PUSH8 0xFFFFFFFFFFFFFFFF DUP2 GT ISZERO PUSH2 0xD48 JUMPI PUSH2 0xD48 PUSH2 0xB2B JUMP JUMPDEST PUSH2 0xD5C DUP2 PUSH2 0xD56 DUP5 SLOAD PUSH2 0xC36 JUMP JUMPDEST DUP5 PUSH2 0xCDF JUMP JUMPDEST PUSH1 0x20 DUP1 PUSH1 0x1F DUP4 GT PUSH1 0x1 DUP2 EQ PUSH2 0xD91 JUMPI PUSH1 0x0 DUP5 ISZERO PUSH2 0xD79 JUMPI POP DUP6 DUP4 ADD MLOAD JUMPDEST PUSH1 0x0 NOT PUSH1 0x3 DUP7 SWAP1 SHL SHR NOT AND PUSH1 0x1 DUP6 SWAP1 SHL OR DUP6 SSTORE PUSH2 0xD25 JUMP JUMPDEST PUSH1 0x0 DUP6 DUP2 MSTORE PUSH1 0x20 DUP2 KECCAK256 PUSH1 0x1F NOT DUP7 AND SWAP2 JUMPDEST DUP3 DUP2 LT ISZERO PUSH2 0xDC0 JUMPI DUP9 DUP7 ADD MLOAD DUP3 SSTORE SWAP5 DUP5 ADD SWAP5 PUSH1 0x1 SWAP1 SWAP2 ADD SWAP1 DUP5 ADD PUSH2 0xDA1 JUMP JUMPDEST POP DUP6 DUP3 LT ISZERO PUSH2 0xDDE JUMPI DUP8 DUP6 ADD MLOAD PUSH1 0x0 NOT PUSH1 0x3 DUP9 SWAP1 SHL PUSH1 0xF8 AND SHR NOT AND DUP2 SSTORE JUMPDEST POP POP POP POP POP PUSH1 0x1 SWAP1 DUP2 SHL ADD SWAP1 SSTORE POP JUMP JUMPDEST DUP2 DUP2 SUB DUP2 DUP2 GT ISZERO PUSH2 0x3A4 JUMPI PUSH2 0x3A4 PUSH2 0xCA7 JUMP JUMPDEST DUP1 DUP3 ADD DUP1 DUP3 GT ISZERO PUSH2 0x3A4 JUMPI PUSH2 0x3A4 PUSH2 0xCA7 JUMP INVALID LOG2 PUSH5 0x6970667358 0x22 SLT KECCAK256 OR 0xCE SWAP5 ADDMOD DUP10 PUSH23 0xB21831045737F523CB07B5ADB966AB6DF9AE4826111940 0xE4 PUSH19 0xAD64736F6C6343000811003300000000000000 "
				},
				"gasEstimates": {
					"creation": {
						"codeDepositCost": "731600",
						"executionCost": "infinite",
						"totalCost": "infinite"
					},
					"external": {
						"_totalSupply()": "2340",
						"allowLess(address,uint256)": "infinite",
						"allowMore(address,uint256)": "infinite",
						"allowToSpendOnMatcha(address)": "infinite",
						"allowance(address,address)": "infinite",
						"approve(address,uint256)": "24588",
						"balanceOf(address)": "2626",
						"buyAMatcha(address,uint256)": "infinite",
						"changeTokenName(address,string)": "infinite",
						"decimals()": "293",
						"name()": "infinite",
						"symbol()": "infinite",
						"totalSupply()": "2326",
						"transfer(address,uint256)": "infinite",
						"transferFrom(address,address,uint256)": "infinite"
					},
					"internal": {
						"_setName(string memory)": "infinite",
						"_transfer(address,address,uint256)": "infinite"
					}
				},
				"methodIdentifiers": {
					"_totalSupply()": "3eaaf86b",
					"allowLess(address,uint256)": "3be5620e",
					"allowMore(address,uint256)": "6de30c30",
					"allowToSpendOnMatcha(address)": "14cd78b4",
					"allowance(address,address)": "dd62ed3e",
					"approve(address,uint256)": "095ea7b3",
					"balanceOf(address)": "70a08231",
					"buyAMatcha(address,uint256)": "07c629c8",
					"changeTokenName(address,string)": "a91f1628",
					"decimals()": "313ce567",
					"name()": "06fdde03",
					"symbol()": "95d89b41",
					"totalSupply()": "18160ddd",
					"transfer(address,uint256)": "a9059cbb",
					"transferFrom(address,address,uint256)": "23b872dd"
				}
			},
			"storageLayout": {
				"storage": [
					{
						"astId": 97,
						"contract": "MatchaToken.sol:SarahKhushiiCoin",
						"label": "name",
						"offset": 0,
						"slot": "0",
						"type": "t_string_storage"
					},
					{
						"astId": 110,
						"contract": "MatchaToken.sol:SarahKhushiiCoin",
						"label": "_totalSupply",
						"offset": 0,
						"slot": "1",
						"type": "t_uint256"
					},
					{
						"astId": 115,
						"contract": "MatchaToken.sol:SarahKhushiiCoin",
						"label": "_balances",
						"offset": 0,
						"slot": "2",
						"type": "t_mapping(t_address,t_uint256)"
					},
					{
						"astId": 121,
						"contract": "MatchaToken.sol:SarahKhushiiCoin",
						"label": "_allowance",
						"offset": 0,
						"slot": "3",
						"type": "t_mapping(t_address,t_mapping(t_address,t_uint256))"
					}
				],
				"types": {
					"t_address": {
						"encoding": "inplace",
						"label": "address",
						"numberOfBytes": "20"
					},
					"t_mapping(t_address,t_mapping(t_address,t_uint256))": {
						"encoding": "mapping",
						"key": "t_address",
						"label": "mapping(address => mapping(address => uint256))",
						"numberOfBytes": "32",
						"value": "t_mapping(t_address,t_uint256)"
					},
					"t_mapping(t_address,t_uint256)": {
						"encoding": "mapping",
						"key": "t_address",
						"label": "mapping(address => uint256)",
						"numberOfBytes": "32",
						"value": "t_uint256"
					},
					"t_string_storage": {
						"encoding": "bytes",
						"label": "string",
						"numberOfBytes": "32"
					},
					"t_uint256": {
						"encoding": "inplace",
						"label": "uint256",
						"numberOfBytes": "32"
					}
				}
			},
			"userdoc": {
				"kind": "user",
				"methods": {
					"allowance(address,address)": {
						"notice": "Function to check the amount of tokens that an owner allowed to a spender."
					},
					"approve(address,uint256)": {
						"notice": "here we approve others to spend our token, just added saftey checks "
					},
					"changeTokenName(address,string)": {
						"notice": "here another tries to change the token name but only allow this if he owns more than half the tokens "
					},
					"constructor": {
						"notice": "this method initzilazes the smart contract, only call it once when deploying, the smart contract deployer gets the totalSupply, so will be holder of all the tokens  emit: signals that from address 0 to the caller a transfer happend-> helps other to track what happend"
					},
					"name()": {
						"notice": "wanna adapt this to the actual ints we are using."
					},
					"transfer(address,uint256)": {
						"notice": "inserted saftey checks + delete the from attribute as we should anyways only send from the token holder to others "
					}
				},
				"notice": "copied the provided ERC20 token contract ",
				"version": 1
			}
		}
	}
}