{
	"MatchaToken.sol": {
		"SarahKhushiiCoin": {
			"abi": [
				{
					"inputs": [],
					"stateMutability": "nonpayable",
					"type": "constructor"
				},
				{
					"anonymous": false,
					"inputs": [
						{
							"indexed": true,
							"internalType": "address",
							"name": "owner",
							"type": "address"
						},
						{
							"indexed": true,
							"internalType": "address",
							"name": "spender",
							"type": "address"
						},
						{
							"indexed": false,
							"internalType": "uint256",
							"name": "value",
							"type": "uint256"
						}
					],
					"name": "Approval",
					"type": "event"
				},
				{
					"anonymous": false,
					"inputs": [
						{
							"indexed": true,
							"internalType": "address",
							"name": "from",
							"type": "address"
						},
						{
							"indexed": true,
							"internalType": "address",
							"name": "to",
							"type": "address"
						},
						{
							"indexed": false,
							"internalType": "uint256",
							"name": "value",
							"type": "uint256"
						}
					],
					"name": "Transfer",
					"type": "event"
				},
				{
					"inputs": [],
					"name": "_totalSupply",
					"outputs": [
						{
							"internalType": "uint256",
							"name": "",
							"type": "uint256"
						}
					],
					"stateMutability": "view",
					"type": "function"
				},
				{
					"inputs": [
						{
							"internalType": "address",
							"name": "spender",
							"type": "address"
						},
						{
							"internalType": "uint256",
							"name": "restrict",
							"type": "uint256"
						}
					],
					"name": "allowLess",
					"outputs": [],
					"stateMutability": "nonpayable",
					"type": "function"
				},
				{
					"inputs": [
						{
							"internalType": "address",
							"name": "spender",
							"type": "address"
						},
						{
							"internalType": "uint256",
							"name": "bonus",
							"type": "uint256"
						}
					],
					"name": "allowMore",
					"outputs": [],
					"stateMutability": "nonpayable",
					"type": "function"
				},
				{
					"inputs": [
						{
							"internalType": "address",
							"name": "to",
							"type": "address"
						}
					],
					"name": "allowToSpendOnMatcha",
					"outputs": [
						{
							"internalType": "bool",
							"name": "",
							"type": "bool"
						}
					],
					"stateMutability": "nonpayable",
					"type": "function"
				},
				{
					"inputs": [
						{
							"internalType": "address",
							"name": "from",
							"type": "address"
						},
						{
							"internalType": "address",
							"name": "spender",
							"type": "address"
						}
					],
					"name": "allowance",
					"outputs": [
						{
							"internalType": "uint256",
							"name": "",
							"type": "uint256"
						}
					],
					"stateMutability": "view",
					"type": "function"
				},
				{
					"inputs": [
						{
							"internalType": "address",
							"name": "spender",
							"type": "address"
						},
						{
							"internalType": "uint256",
							"name": "value",
							"type": "uint256"
						}
					],
					"name": "approve",
					"outputs": [
						{
							"internalType": "bool",
							"name": "",
							"type": "bool"
						}
					],
					"stateMutability": "nonpayable",
					"type": "function"
				},
				{
					"inputs": [
						{
							"internalType": "address",
							"name": "owner",
							"type": "address"
						}
					],
					"name": "balanceOf",
					"outputs": [
						{
							"internalType": "uint256",
							"name": "",
							"type": "uint256"
						}
					],
					"stateMutability": "view",
					"type": "function"
				},
				{
					"inputs": [
						{
							"internalType": "address",
							"name": "to",
							"type": "address"
						},
						{
							"internalType": "uint256",
							"name": "price",
							"type": "uint256"
						}
					],
					"name": "buyAMatcha",
					"outputs": [
						{
							"internalType": "bool",
							"name": "",
							"type": "bool"
						}
					],
					"stateMutability": "nonpayable",
					"type": "function"
				},
				{
					"inputs": [
						{
							"internalType": "address",
							"name": "candidate",
							"type": "address"
						},
						{
							"internalType": "string",
							"name": "newName",
							"type": "string"
						}
					],
					"name": "changeTokenName",
					"outputs": [
						{
							"internalType": "bool",
							"name": "",
							"type": "bool"
						}
					],
					"stateMutability": "nonpayable",
					"type": "function"
				},
				{
					"inputs": [],
					"name": "decimals",
					"outputs": [
						{
							"internalType": "uint8",
							"name": "",
							"type": "uint8"
						}
					],
					"stateMutability": "view",
					"type": "function"
				},
				{
					"inputs": [],
					"name": "name",
					"outputs": [
						{
							"internalType": "string",
							"name": "",
							"type": "string"
						}
					],
					"stateMutability": "view",
					"type": "function"
				},
				{
					"inputs": [],
					"name": "symbol",
					"outputs": [
						{
							"internalType": "string",
							"name": "",
							"type": "string"
						}
					],
					"stateMutability": "view",
					"type": "function"
				},
				{
					"inputs": [],
					"name": "totalSupply",
					"outputs": [
						{
							"internalType": "uint256",
							"name": "",
							"type": "uint256"
						}
					],
					"stateMutability": "view",
					"type": "function"
				},
				{
					"inputs": [
						{
							"internalType": "address",
							"name": "to",
							"type": "address"
						},
						{
							"internalType": "uint256",
							"name": "value",
							"type": "uint256"
						}
					],
					"name": "transfer",
					"outputs": [
						{
							"internalType": "bool",
							"name": "",
							"type": "bool"
						}
					],
					"stateMutability": "nonpayable",
					"type": "function"
				},
				{
					"inputs": [
						{
							"internalType": "address",
							"name": "from",
							"type": "address"
						},
						{
							"internalType": "address",
							"name": "to",
							"type": "address"
						},
						{
							"internalType": "uint256",
							"name": "value",
							"type": "uint256"
						}
					],
					"name": "transferFrom",
					"outputs": [
						{
							"internalType": "bool",
							"name": "",
							"type": "bool"
						}
					],
					"stateMutability": "nonpayable",
					"type": "function"
				}
			],
			"devdoc": {
				"kind": "dev",
				"methods": {},
				"version": 1
			},
			"evm": {
				"assembly": "    /* \"MatchaToken.sol\":155:5198  contract SarahKhushiiCoin is IERC20{... */\n  mstore(0x40, 0x80)\n    /* \"MatchaToken.sol\":282:316  string public  name = 'MatchaCoin' */\n  mload(0x40)\n  dup1\n  0x40\n  add\n  0x40\n  mstore\n  dup1\n  0x0a\n  dup2\n  mstore\n  0x20\n  add\n  0x4d6174636861436f696e00000000000000000000000000000000000000000000\n  dup2\n  mstore\n  pop\n  0x00\n  swap1\n  dup2\n  tag_1\n  swap2\n  swap1\n  tag_2\n  jump\t// in\ntag_1:\n  pop\n    /* \"MatchaToken.sol\":509:517  40*10**6 */\n  0x02625a00\n    /* \"MatchaToken.sol\":480:517  uint  public  _totalSupply = 40*10**6 */\n  0x01\n  sstore\n    /* \"MatchaToken.sol\":1454:1588  constructor(){... */\n  callvalue\n  dup1\n  iszero\n  tag_3\n  jumpi\n  0x00\n  dup1\n  revert\ntag_3:\n  pop\n    /* \"MatchaToken.sol\":1504:1516  _totalSupply */\n  sload(0x01)\n    /* \"MatchaToken.sol\":1481:1490  _balances */\n  0x02\n    /* \"MatchaToken.sol\":1481:1502  _balances[msg.sender] */\n  0x00\n    /* \"MatchaToken.sol\":1491:1501  msg.sender */\n  caller\n    /* \"MatchaToken.sol\":1481:1502  _balances[msg.sender] */\n  0xffffffffffffffffffffffffffffffffffffffff\n  and\n  0xffffffffffffffffffffffffffffffffffffffff\n  and\n  dup2\n  mstore\n  0x20\n  add\n  swap1\n  dup2\n  mstore\n  0x20\n  add\n  0x00\n  keccak256\n    /* \"MatchaToken.sol\":1481:1516  _balances[msg.sender]= _totalSupply */\n  dup2\n  swap1\n  sstore\n  pop\n    /* \"MatchaToken.sol\":1556:1566  msg.sender */\n  caller\n    /* \"MatchaToken.sol\":1535:1581  Transfer(address(0), msg.sender, _totalSupply) */\n  0xffffffffffffffffffffffffffffffffffffffff\n  and\n    /* \"MatchaToken.sol\":1552:1553  0 */\n  0x00\n    /* \"MatchaToken.sol\":1535:1581  Transfer(address(0), msg.sender, _totalSupply) */\n  0xffffffffffffffffffffffffffffffffffffffff\n  and\n  0xddf252ad1be2c89b69c2b068fc378daa952ba7f163c4a11628f55a4df523b3ef\n    /* \"MatchaToken.sol\":1568:1580  _totalSupply */\n  sload(0x01)\n    /* \"MatchaToken.sol\":1535:1581  Transfer(address(0), msg.sender, _totalSupply) */\n  mload(0x40)\n  tag_6\n  swap2\n  swap1\n  tag_7\n  jump\t// in\ntag_6:\n  mload(0x40)\n  dup1\n  swap2\n  sub\n  swap1\n  log3\n    /* \"MatchaToken.sol\":155:5198  contract SarahKhushiiCoin is IERC20{... */\n  jump(tag_8)\n    /* \"#utility.yul\":7:106   */\ntag_9:\n    /* \"#utility.yul\":59:65   */\n  0x00\n    /* \"#utility.yul\":93:98   */\n  dup2\n    /* \"#utility.yul\":87:99   */\n  mload\n    /* \"#utility.yul\":77:99   */\n  swap1\n  pop\n    /* \"#utility.yul\":7:106   */\n  swap2\n  swap1\n  pop\n  jump\t// out\n    /* \"#utility.yul\":112:292   */\ntag_10:\n    /* \"#utility.yul\":160:237   */\n  0x4e487b7100000000000000000000000000000000000000000000000000000000\n    /* \"#utility.yul\":157:158   */\n  0x00\n    /* \"#utility.yul\":150:238   */\n  mstore\n    /* \"#utility.yul\":257:261   */\n  0x41\n    /* \"#utility.yul\":254:255   */\n  0x04\n    /* \"#utility.yul\":247:262   */\n  mstore\n    /* \"#utility.yul\":281:285   */\n  0x24\n    /* \"#utility.yul\":278:279   */\n  0x00\n    /* \"#utility.yul\":271:286   */\n  revert\n    /* \"#utility.yul\":298:478   */\ntag_11:\n    /* \"#utility.yul\":346:423   */\n  0x4e487b7100000000000000000000000000000000000000000000000000000000\n    /* \"#utility.yul\":343:344   */\n  0x00\n    /* \"#utility.yul\":336:424   */\n  mstore\n    /* \"#utility.yul\":443:447   */\n  0x22\n    /* \"#utility.yul\":440:441   */\n  0x04\n    /* \"#utility.yul\":433:448   */\n  mstore\n    /* \"#utility.yul\":467:471   */\n  0x24\n    /* \"#utility.yul\":464:465   */\n  0x00\n    /* \"#utility.yul\":457:472   */\n  revert\n    /* \"#utility.yul\":484:804   */\ntag_12:\n    /* \"#utility.yul\":528:534   */\n  0x00\n    /* \"#utility.yul\":565:566   */\n  0x02\n    /* \"#utility.yul\":559:563   */\n  dup3\n    /* \"#utility.yul\":555:567   */\n  div\n    /* \"#utility.yul\":545:567   */\n  swap1\n  pop\n    /* \"#utility.yul\":612:613   */\n  0x01\n    /* \"#utility.yul\":606:610   */\n  dup3\n    /* \"#utility.yul\":602:614   */\n  and\n    /* \"#utility.yul\":633:651   */\n  dup1\n    /* \"#utility.yul\":623:704   */\n  tag_35\n  jumpi\n    /* \"#utility.yul\":689:693   */\n  0x7f\n    /* \"#utility.yul\":681:687   */\n  dup3\n    /* \"#utility.yul\":677:694   */\n  and\n    /* \"#utility.yul\":667:694   */\n  swap2\n  pop\n    /* \"#utility.yul\":623:704   */\ntag_35:\n    /* \"#utility.yul\":751:753   */\n  0x20\n    /* \"#utility.yul\":743:749   */\n  dup3\n    /* \"#utility.yul\":740:754   */\n  lt\n    /* \"#utility.yul\":720:738   */\n  dup2\n    /* \"#utility.yul\":717:755   */\n  sub\n    /* \"#utility.yul\":714:798   */\n  tag_36\n  jumpi\n    /* \"#utility.yul\":770:788   */\n  tag_37\n  tag_11\n  jump\t// in\ntag_37:\n    /* \"#utility.yul\":714:798   */\ntag_36:\n    /* \"#utility.yul\":535:804   */\n  pop\n    /* \"#utility.yul\":484:804   */\n  swap2\n  swap1\n  pop\n  jump\t// out\n    /* \"#utility.yul\":810:951   */\ntag_13:\n    /* \"#utility.yul\":859:863   */\n  0x00\n    /* \"#utility.yul\":882:885   */\n  dup2\n    /* \"#utility.yul\":874:885   */\n  swap1\n  pop\n    /* \"#utility.yul\":905:908   */\n  dup2\n    /* \"#utility.yul\":902:903   */\n  0x00\n    /* \"#utility.yul\":895:909   */\n  mstore\n    /* \"#utility.yul\":939:943   */\n  0x20\n    /* \"#utility.yul\":936:937   */\n  0x00\n    /* \"#utility.yul\":926:944   */\n  keccak256\n    /* \"#utility.yul\":918:944   */\n  swap1\n  pop\n    /* \"#utility.yul\":810:951   */\n  swap2\n  swap1\n  pop\n  jump\t// out\n    /* \"#utility.yul\":957:1050   */\ntag_14:\n    /* \"#utility.yul\":994:1000   */\n  0x00\n    /* \"#utility.yul\":1041:1043   */\n  0x20\n    /* \"#utility.yul\":1036:1038   */\n  0x1f\n    /* \"#utility.yul\":1029:1034   */\n  dup4\n    /* \"#utility.yul\":1025:1039   */\n  add\n    /* \"#utility.yul\":1021:1044   */\n  div\n    /* \"#utility.yul\":1011:1044   */\n  swap1\n  pop\n    /* \"#utility.yul\":957:1050   */\n  swap2\n  swap1\n  pop\n  jump\t// out\n    /* \"#utility.yul\":1056:1163   */\ntag_15:\n    /* \"#utility.yul\":1100:1108   */\n  0x00\n    /* \"#utility.yul\":1150:1155   */\n  dup3\n    /* \"#utility.yul\":1144:1148   */\n  dup3\n    /* \"#utility.yul\":1140:1156   */\n  shl\n    /* \"#utility.yul\":1119:1156   */\n  swap1\n  pop\n    /* \"#utility.yul\":1056:1163   */\n  swap3\n  swap2\n  pop\n  pop\n  jump\t// out\n    /* \"#utility.yul\":1169:1562   */\ntag_16:\n    /* \"#utility.yul\":1238:1244   */\n  0x00\n    /* \"#utility.yul\":1288:1289   */\n  0x08\n    /* \"#utility.yul\":1276:1286   */\n  dup4\n    /* \"#utility.yul\":1272:1290   */\n  mul\n    /* \"#utility.yul\":1311:1408   */\n  tag_42\n    /* \"#utility.yul\":1341:1407   */\n  0xffffffffffffffffffffffffffffffffffffffffffffffffffffffffffffffff\n    /* \"#utility.yul\":1330:1339   */\n  dup3\n    /* \"#utility.yul\":1311:1408   */\n  tag_15\n  jump\t// in\ntag_42:\n    /* \"#utility.yul\":1429:1468   */\n  tag_43\n    /* \"#utility.yul\":1459:1467   */\n  dup7\n    /* \"#utility.yul\":1448:1457   */\n  dup4\n    /* \"#utility.yul\":1429:1468   */\n  tag_15\n  jump\t// in\ntag_43:\n    /* \"#utility.yul\":1417:1468   */\n  swap6\n  pop\n    /* \"#utility.yul\":1501:1505   */\n  dup1\n    /* \"#utility.yul\":1497:1506   */\n  not\n    /* \"#utility.yul\":1490:1495   */\n  dup5\n    /* \"#utility.yul\":1486:1507   */\n  and\n    /* \"#utility.yul\":1477:1507   */\n  swap4\n  pop\n    /* \"#utility.yul\":1550:1554   */\n  dup1\n    /* \"#utility.yul\":1540:1548   */\n  dup7\n    /* \"#utility.yul\":1536:1555   */\n  and\n    /* \"#utility.yul\":1529:1534   */\n  dup5\n    /* \"#utility.yul\":1526:1556   */\n  or\n    /* \"#utility.yul\":1516:1556   */\n  swap3\n  pop\n    /* \"#utility.yul\":1245:1562   */\n  pop\n  pop\n    /* \"#utility.yul\":1169:1562   */\n  swap4\n  swap3\n  pop\n  pop\n  pop\n  jump\t// out\n    /* \"#utility.yul\":1568:1645   */\ntag_17:\n    /* \"#utility.yul\":1605:1612   */\n  0x00\n    /* \"#utility.yul\":1634:1639   */\n  dup2\n    /* \"#utility.yul\":1623:1639   */\n  swap1\n  pop\n    /* \"#utility.yul\":1568:1645   */\n  swap2\n  swap1\n  pop\n  jump\t// out\n    /* \"#utility.yul\":1651:1711   */\ntag_18:\n    /* \"#utility.yul\":1679:1682   */\n  0x00\n    /* \"#utility.yul\":1700:1705   */\n  dup2\n    /* \"#utility.yul\":1693:1705   */\n  swap1\n  pop\n    /* \"#utility.yul\":1651:1711   */\n  swap2\n  swap1\n  pop\n  jump\t// out\n    /* \"#utility.yul\":1717:1859   */\ntag_19:\n    /* \"#utility.yul\":1767:1776   */\n  0x00\n    /* \"#utility.yul\":1800:1853   */\n  tag_47\n    /* \"#utility.yul\":1818:1852   */\n  tag_48\n    /* \"#utility.yul\":1827:1851   */\n  tag_49\n    /* \"#utility.yul\":1845:1850   */\n  dup5\n    /* \"#utility.yul\":1827:1851   */\n  tag_17\n  jump\t// in\ntag_49:\n    /* \"#utility.yul\":1818:1852   */\n  tag_18\n  jump\t// in\ntag_48:\n    /* \"#utility.yul\":1800:1853   */\n  tag_17\n  jump\t// in\ntag_47:\n    /* \"#utility.yul\":1787:1853   */\n  swap1\n  pop\n    /* \"#utility.yul\":1717:1859   */\n  swap2\n  swap1\n  pop\n  jump\t// out\n    /* \"#utility.yul\":1865:1940   */\ntag_20:\n    /* \"#utility.yul\":1908:1911   */\n  0x00\n    /* \"#utility.yul\":1929:1934   */\n  dup2\n    /* \"#utility.yul\":1922:1934   */\n  swap1\n  pop\n    /* \"#utility.yul\":1865:1940   */\n  swap2\n  swap1\n  pop\n  jump\t// out\n    /* \"#utility.yul\":1946:2215   */\ntag_21:\n    /* \"#utility.yul\":2056:2095   */\n  tag_52\n    /* \"#utility.yul\":2087:2094   */\n  dup4\n    /* \"#utility.yul\":2056:2095   */\n  tag_19\n  jump\t// in\ntag_52:\n    /* \"#utility.yul\":2117:2208   */\n  tag_53\n    /* \"#utility.yul\":2166:2207   */\n  tag_54\n    /* \"#utility.yul\":2190:2206   */\n  dup3\n    /* \"#utility.yul\":2166:2207   */\n  tag_20\n  jump\t// in\ntag_54:\n    /* \"#utility.yul\":2158:2164   */\n  dup5\n    /* \"#utility.yul\":2151:2155   */\n  dup5\n    /* \"#utility.yul\":2145:2156   */\n  sload\n    /* \"#utility.yul\":2117:2208   */\n  tag_16\n  jump\t// in\ntag_53:\n    /* \"#utility.yul\":2111:2115   */\n  dup3\n    /* \"#utility.yul\":2104:2209   */\n  sstore\n    /* \"#utility.yul\":2022:2215   */\n  pop\n    /* \"#utility.yul\":1946:2215   */\n  pop\n  pop\n  pop\n  jump\t// out\n    /* \"#utility.yul\":2221:2294   */\ntag_22:\n    /* \"#utility.yul\":2266:2269   */\n  0x00\n    /* \"#utility.yul\":2221:2294   */\n  swap1\n  jump\t// out\n    /* \"#utility.yul\":2300:2489   */\ntag_23:\n    /* \"#utility.yul\":2377:2409   */\n  tag_57\n  tag_22\n  jump\t// in\ntag_57:\n    /* \"#utility.yul\":2418:2483   */\n  tag_58\n    /* \"#utility.yul\":2476:2482   */\n  dup2\n    /* \"#utility.yul\":2468:2474   */\n  dup5\n    /* \"#utility.yul\":2462:2466   */\n  dup5\n    /* \"#utility.yul\":2418:2483   */\n  tag_21\n  jump\t// in\ntag_58:\n    /* \"#utility.yul\":2353:2489   */\n  pop\n    /* \"#utility.yul\":2300:2489   */\n  pop\n  pop\n  jump\t// out\n    /* \"#utility.yul\":2495:2681   */\ntag_24:\n    /* \"#utility.yul\":2555:2675   */\ntag_60:\n    /* \"#utility.yul\":2572:2575   */\n  dup2\n    /* \"#utility.yul\":2565:2570   */\n  dup2\n    /* \"#utility.yul\":2562:2576   */\n  lt\n    /* \"#utility.yul\":2555:2675   */\n  iszero\n  tag_62\n  jumpi\n    /* \"#utility.yul\":2626:2665   */\n  tag_63\n    /* \"#utility.yul\":2663:2664   */\n  0x00\n    /* \"#utility.yul\":2656:2661   */\n  dup3\n    /* \"#utility.yul\":2626:2665   */\n  tag_23\n  jump\t// in\ntag_63:\n    /* \"#utility.yul\":2599:2600   */\n  0x01\n    /* \"#utility.yul\":2592:2597   */\n  dup2\n    /* \"#utility.yul\":2588:2601   */\n  add\n    /* \"#utility.yul\":2579:2601   */\n  swap1\n  pop\n    /* \"#utility.yul\":2555:2675   */\n  jump(tag_60)\ntag_62:\n    /* \"#utility.yul\":2495:2681   */\n  pop\n  pop\n  jump\t// out\n    /* \"#utility.yul\":2687:3230   */\ntag_25:\n    /* \"#utility.yul\":2788:2790   */\n  0x1f\n    /* \"#utility.yul\":2783:2786   */\n  dup3\n    /* \"#utility.yul\":2780:2791   */\n  gt\n    /* \"#utility.yul\":2777:3223   */\n  iszero\n  tag_65\n  jumpi\n    /* \"#utility.yul\":2822:2860   */\n  tag_66\n    /* \"#utility.yul\":2854:2859   */\n  dup2\n    /* \"#utility.yul\":2822:2860   */\n  tag_13\n  jump\t// in\ntag_66:\n    /* \"#utility.yul\":2906:2935   */\n  tag_67\n    /* \"#utility.yul\":2924:2934   */\n  dup5\n    /* \"#utility.yul\":2906:2935   */\n  tag_14\n  jump\t// in\ntag_67:\n    /* \"#utility.yul\":2896:2904   */\n  dup2\n    /* \"#utility.yul\":2892:2936   */\n  add\n    /* \"#utility.yul\":3089:3091   */\n  0x20\n    /* \"#utility.yul\":3077:3087   */\n  dup6\n    /* \"#utility.yul\":3074:3092   */\n  lt\n    /* \"#utility.yul\":3071:3120   */\n  iszero\n  tag_68\n  jumpi\n    /* \"#utility.yul\":3110:3118   */\n  dup2\n    /* \"#utility.yul\":3095:3118   */\n  swap1\n  pop\n    /* \"#utility.yul\":3071:3120   */\ntag_68:\n    /* \"#utility.yul\":3133:3213   */\n  tag_69\n    /* \"#utility.yul\":3189:3211   */\n  tag_70\n    /* \"#utility.yul\":3207:3210   */\n  dup6\n    /* \"#utility.yul\":3189:3211   */\n  tag_14\n  jump\t// in\ntag_70:\n    /* \"#utility.yul\":3179:3187   */\n  dup4\n    /* \"#utility.yul\":3175:3212   */\n  add\n    /* \"#utility.yul\":3162:3173   */\n  dup3\n    /* \"#utility.yul\":3133:3213   */\n  tag_24\n  jump\t// in\ntag_69:\n    /* \"#utility.yul\":2792:3223   */\n  pop\n  pop\n    /* \"#utility.yul\":2777:3223   */\ntag_65:\n    /* \"#utility.yul\":2687:3230   */\n  pop\n  pop\n  pop\n  jump\t// out\n    /* \"#utility.yul\":3236:3353   */\ntag_26:\n    /* \"#utility.yul\":3290:3298   */\n  0x00\n    /* \"#utility.yul\":3340:3345   */\n  dup3\n    /* \"#utility.yul\":3334:3338   */\n  dup3\n    /* \"#utility.yul\":3330:3346   */\n  shr\n    /* \"#utility.yul\":3309:3346   */\n  swap1\n  pop\n    /* \"#utility.yul\":3236:3353   */\n  swap3\n  swap2\n  pop\n  pop\n  jump\t// out\n    /* \"#utility.yul\":3359:3528   */\ntag_27:\n    /* \"#utility.yul\":3403:3409   */\n  0x00\n    /* \"#utility.yul\":3436:3487   */\n  tag_73\n    /* \"#utility.yul\":3484:3485   */\n  0x00\n    /* \"#utility.yul\":3480:3486   */\n  not\n    /* \"#utility.yul\":3472:3477   */\n  dup5\n    /* \"#utility.yul\":3469:3470   */\n  0x08\n    /* \"#utility.yul\":3465:3478   */\n  mul\n    /* \"#utility.yul\":3436:3487   */\n  tag_26\n  jump\t// in\ntag_73:\n    /* \"#utility.yul\":3432:3488   */\n  not\n    /* \"#utility.yul\":3517:3521   */\n  dup1\n    /* \"#utility.yul\":3511:3515   */\n  dup4\n    /* \"#utility.yul\":3507:3522   */\n  and\n    /* \"#utility.yul\":3497:3522   */\n  swap2\n  pop\n    /* \"#utility.yul\":3410:3528   */\n  pop\n    /* \"#utility.yul\":3359:3528   */\n  swap3\n  swap2\n  pop\n  pop\n  jump\t// out\n    /* \"#utility.yul\":3533:3828   */\ntag_28:\n    /* \"#utility.yul\":3609:3613   */\n  0x00\n    /* \"#utility.yul\":3755:3784   */\n  tag_75\n    /* \"#utility.yul\":3780:3783   */\n  dup4\n    /* \"#utility.yul\":3774:3778   */\n  dup4\n    /* \"#utility.yul\":3755:3784   */\n  tag_27\n  jump\t// in\ntag_75:\n    /* \"#utility.yul\":3747:3784   */\n  swap2\n  pop\n    /* \"#utility.yul\":3817:3820   */\n  dup3\n    /* \"#utility.yul\":3814:3815   */\n  0x02\n    /* \"#utility.yul\":3810:3821   */\n  mul\n    /* \"#utility.yul\":3804:3808   */\n  dup3\n    /* \"#utility.yul\":3801:3822   */\n  or\n    /* \"#utility.yul\":3793:3822   */\n  swap1\n  pop\n    /* \"#utility.yul\":3533:3828   */\n  swap3\n  swap2\n  pop\n  pop\n  jump\t// out\n    /* \"#utility.yul\":3833:5228   */\ntag_2:\n    /* \"#utility.yul\":3950:3987   */\n  tag_77\n    /* \"#utility.yul\":3983:3986   */\n  dup3\n    /* \"#utility.yul\":3950:3987   */\n  tag_9\n  jump\t// in\ntag_77:\n    /* \"#utility.yul\":4052:4070   */\n  0xffffffffffffffff\n    /* \"#utility.yul\":4044:4050   */\n  dup2\n    /* \"#utility.yul\":4041:4071   */\n  gt\n    /* \"#utility.yul\":4038:4094   */\n  iszero\n  tag_78\n  jumpi\n    /* \"#utility.yul\":4074:4092   */\n  tag_79\n  tag_10\n  jump\t// in\ntag_79:\n    /* \"#utility.yul\":4038:4094   */\ntag_78:\n    /* \"#utility.yul\":4118:4156   */\n  tag_80\n    /* \"#utility.yul\":4150:4154   */\n  dup3\n    /* \"#utility.yul\":4144:4155   */\n  sload\n    /* \"#utility.yul\":4118:4156   */\n  tag_12\n  jump\t// in\ntag_80:\n    /* \"#utility.yul\":4203:4270   */\n  tag_81\n    /* \"#utility.yul\":4263:4269   */\n  dup3\n    /* \"#utility.yul\":4255:4261   */\n  dup3\n    /* \"#utility.yul\":4249:4253   */\n  dup6\n    /* \"#utility.yul\":4203:4270   */\n  tag_25\n  jump\t// in\ntag_81:\n    /* \"#utility.yul\":4297:4298   */\n  0x00\n    /* \"#utility.yul\":4321:4325   */\n  0x20\n    /* \"#utility.yul\":4308:4325   */\n  swap1\n  pop\n    /* \"#utility.yul\":4353:4355   */\n  0x1f\n    /* \"#utility.yul\":4345:4351   */\n  dup4\n    /* \"#utility.yul\":4342:4356   */\n  gt\n    /* \"#utility.yul\":4370:4371   */\n  0x01\n    /* \"#utility.yul\":4365:4983   */\n  dup2\n  eq\n  tag_83\n  jumpi\n    /* \"#utility.yul\":5027:5028   */\n  0x00\n    /* \"#utility.yul\":5044:5050   */\n  dup5\n    /* \"#utility.yul\":5041:5118   */\n  iszero\n  tag_84\n  jumpi\n    /* \"#utility.yul\":5093:5102   */\n  dup3\n    /* \"#utility.yul\":5088:5091   */\n  dup8\n    /* \"#utility.yul\":5084:5103   */\n  add\n    /* \"#utility.yul\":5078:5104   */\n  mload\n    /* \"#utility.yul\":5069:5104   */\n  swap1\n  pop\n    /* \"#utility.yul\":5041:5118   */\ntag_84:\n    /* \"#utility.yul\":5144:5211   */\n  tag_85\n    /* \"#utility.yul\":5204:5210   */\n  dup6\n    /* \"#utility.yul\":5197:5202   */\n  dup3\n    /* \"#utility.yul\":5144:5211   */\n  tag_28\n  jump\t// in\ntag_85:\n    /* \"#utility.yul\":5138:5142   */\n  dup7\n    /* \"#utility.yul\":5131:5212   */\n  sstore\n    /* \"#utility.yul\":5000:5222   */\n  pop\n    /* \"#utility.yul\":4335:5222   */\n  jump(tag_82)\n    /* \"#utility.yul\":4365:4983   */\ntag_83:\n    /* \"#utility.yul\":4417:4421   */\n  0x1f\n    /* \"#utility.yul\":4413:4422   */\n  not\n    /* \"#utility.yul\":4405:4411   */\n  dup5\n    /* \"#utility.yul\":4401:4423   */\n  and\n    /* \"#utility.yul\":4451:4488   */\n  tag_86\n    /* \"#utility.yul\":4483:4487   */\n  dup7\n    /* \"#utility.yul\":4451:4488   */\n  tag_13\n  jump\t// in\ntag_86:\n    /* \"#utility.yul\":4510:4511   */\n  0x00\n    /* \"#utility.yul\":4524:4732   */\ntag_87:\n    /* \"#utility.yul\":4538:4545   */\n  dup3\n    /* \"#utility.yul\":4535:4536   */\n  dup2\n    /* \"#utility.yul\":4532:4546   */\n  lt\n    /* \"#utility.yul\":4524:4732   */\n  iszero\n  tag_89\n  jumpi\n    /* \"#utility.yul\":4617:4626   */\n  dup5\n    /* \"#utility.yul\":4612:4615   */\n  dup10\n    /* \"#utility.yul\":4608:4627   */\n  add\n    /* \"#utility.yul\":4602:4628   */\n  mload\n    /* \"#utility.yul\":4594:4600   */\n  dup3\n    /* \"#utility.yul\":4587:4629   */\n  sstore\n    /* \"#utility.yul\":4668:4669   */\n  0x01\n    /* \"#utility.yul\":4660:4666   */\n  dup3\n    /* \"#utility.yul\":4656:4670   */\n  add\n    /* \"#utility.yul\":4646:4670   */\n  swap2\n  pop\n    /* \"#utility.yul\":4715:4717   */\n  0x20\n    /* \"#utility.yul\":4704:4713   */\n  dup6\n    /* \"#utility.yul\":4700:4718   */\n  add\n    /* \"#utility.yul\":4687:4718   */\n  swap5\n  pop\n    /* \"#utility.yul\":4561:4565   */\n  0x20\n    /* \"#utility.yul\":4558:4559   */\n  dup2\n    /* \"#utility.yul\":4554:4566   */\n  add\n    /* \"#utility.yul\":4549:4566   */\n  swap1\n  pop\n    /* \"#utility.yul\":4524:4732   */\n  jump(tag_87)\ntag_89:\n    /* \"#utility.yul\":4760:4766   */\n  dup7\n    /* \"#utility.yul\":4751:4758   */\n  dup4\n    /* \"#utility.yul\":4748:4767   */\n  lt\n    /* \"#utility.yul\":4745:4924   */\n  iszero\n  tag_90\n  jumpi\n    /* \"#utility.yul\":4818:4827   */\n  dup5\n    /* \"#utility.yul\":4813:4816   */\n  dup10\n    /* \"#utility.yul\":4809:4828   */\n  add\n    /* \"#utility.yul\":4803:4829   */\n  mload\n    /* \"#utility.yul\":4861:4909   */\n  tag_91\n    /* \"#utility.yul\":4903:4907   */\n  0x1f\n    /* \"#utility.yul\":4895:4901   */\n  dup10\n    /* \"#utility.yul\":4891:4908   */\n  and\n    /* \"#utility.yul\":4880:4889   */\n  dup3\n    /* \"#utility.yul\":4861:4909   */\n  tag_27\n  jump\t// in\ntag_91:\n    /* \"#utility.yul\":4853:4859   */\n  dup4\n    /* \"#utility.yul\":4846:4910   */\n  sstore\n    /* \"#utility.yul\":4768:4924   */\n  pop\n    /* \"#utility.yul\":4745:4924   */\ntag_90:\n    /* \"#utility.yul\":4970:4971   */\n  0x01\n    /* \"#utility.yul\":4966:4967   */\n  0x02\n    /* \"#utility.yul\":4958:4964   */\n  dup9\n    /* \"#utility.yul\":4954:4968   */\n  mul\n    /* \"#utility.yul\":4950:4972   */\n  add\n    /* \"#utility.yul\":4944:4948   */\n  dup9\n    /* \"#utility.yul\":4937:4973   */\n  sstore\n    /* \"#utility.yul\":4372:4983   */\n  pop\n  pop\n  pop\n    /* \"#utility.yul\":4335:5222   */\ntag_82:\n  pop\n    /* \"#utility.yul\":3925:5228   */\n  pop\n  pop\n  pop\n    /* \"#utility.yul\":3833:5228   */\n  pop\n  pop\n  jump\t// out\n    /* \"#utility.yul\":5234:5352   */\ntag_29:\n    /* \"#utility.yul\":5321:5345   */\n  tag_93\n    /* \"#utility.yul\":5339:5344   */\n  dup2\n    /* \"#utility.yul\":5321:5345   */\n  tag_17\n  jump\t// in\ntag_93:\n    /* \"#utility.yul\":5316:5319   */\n  dup3\n    /* \"#utility.yul\":5309:5346   */\n  mstore\n    /* \"#utility.yul\":5234:5352   */\n  pop\n  pop\n  jump\t// out\n    /* \"#utility.yul\":5358:5580   */\ntag_7:\n    /* \"#utility.yul\":5451:5455   */\n  0x00\n    /* \"#utility.yul\":5489:5491   */\n  0x20\n    /* \"#utility.yul\":5478:5487   */\n  dup3\n    /* \"#utility.yul\":5474:5492   */\n  add\n    /* \"#utility.yul\":5466:5492   */\n  swap1\n  pop\n    /* \"#utility.yul\":5502:5573   */\n  tag_95\n    /* \"#utility.yul\":5570:5571   */\n  0x00\n    /* \"#utility.yul\":5559:5568   */\n  dup4\n    /* \"#utility.yul\":5555:5572   */\n  add\n    /* \"#utility.yul\":5546:5552   */\n  dup5\n    /* \"#utility.yul\":5502:5573   */\n  tag_29\n  jump\t// in\ntag_95:\n    /* \"#utility.yul\":5358:5580   */\n  swap3\n  swap2\n  pop\n  pop\n  jump\t// out\n    /* \"MatchaToken.sol\":155:5198  contract SarahKhushiiCoin is IERC20{... */\ntag_8:\n  dataSize(sub_0)\n  dup1\n  dataOffset(sub_0)\n  0x00\n  codecopy\n  0x00\n  return\nstop\n\nsub_0: assembly {\n        /* \"MatchaToken.sol\":155:5198  contract SarahKhushiiCoin is IERC20{... */\n      mstore(0x40, 0x80)\n      callvalue\n      dup1\n      iszero\n      tag_1\n      jumpi\n      0x00\n      dup1\n      revert\n    tag_1:\n      pop\n      jumpi(tag_2, lt(calldatasize, 0x04))\n      shr(0xe0, calldataload(0x00))\n      dup1\n      0x3be5620e\n      gt\n      tag_18\n      jumpi\n      dup1\n      0x95d89b41\n      gt\n      tag_19\n      jumpi\n      dup1\n      0x95d89b41\n      eq\n      tag_14\n      jumpi\n      dup1\n      0xa9059cbb\n      eq\n      tag_15\n      jumpi\n      dup1\n      0xa91f1628\n      eq\n      tag_16\n      jumpi\n      dup1\n      0xdd62ed3e\n      eq\n      tag_17\n      jumpi\n      jump(tag_2)\n    tag_19:\n      dup1\n      0x3be5620e\n      eq\n      tag_10\n      jumpi\n      dup1\n      0x3eaaf86b\n      eq\n      tag_11\n      jumpi\n      dup1\n      0x6de30c30\n      eq\n      tag_12\n      jumpi\n      dup1\n      0x70a08231\n      eq\n      tag_13\n      jumpi\n      jump(tag_2)\n    tag_18:\n      dup1\n      0x14cd78b4\n      gt\n      tag_20\n      jumpi\n      dup1\n      0x14cd78b4\n      eq\n      tag_6\n      jumpi\n      dup1\n      0x18160ddd\n      eq\n      tag_7\n      jumpi\n      dup1\n      0x23b872dd\n      eq\n      tag_8\n      jumpi\n      dup1\n      0x313ce567\n      eq\n      tag_9\n      jumpi\n      jump(tag_2)\n    tag_20:\n      dup1\n      0x06fdde03\n      eq\n      tag_3\n      jumpi\n      dup1\n      0x07c629c8\n      eq\n      tag_4\n      jumpi\n      dup1\n      0x095ea7b3\n      eq\n      tag_5\n      jumpi\n    tag_2:\n      0x00\n      dup1\n      revert\n        /* \"MatchaToken.sol\":282:316  string public  name = 'MatchaCoin' */\n    tag_3:\n      tag_21\n      tag_22\n      jump\t// in\n    tag_21:\n      mload(0x40)\n      tag_23\n      swap2\n      swap1\n      tag_24\n      jump\t// in\n    tag_23:\n      mload(0x40)\n      dup1\n      swap2\n      sub\n      swap1\n      return\n        /* \"MatchaToken.sol\":4307:4594  function buyAMatcha(address to, uint256 price) public returns (bool) {... */\n    tag_4:\n      tag_25\n      0x04\n      dup1\n      calldatasize\n      sub\n      dup2\n      add\n      swap1\n      tag_26\n      swap2\n      swap1\n      tag_27\n      jump\t// in\n    tag_26:\n      tag_28\n      jump\t// in\n    tag_25:\n      mload(0x40)\n      tag_29\n      swap2\n      swap1\n      tag_30\n      jump\t// in\n    tag_29:\n      mload(0x40)\n      dup1\n      swap2\n      sub\n      swap1\n      return\n        /* \"MatchaToken.sol\":2465:2741  function approve(address spender, uint256 value) public override returns (bool) {... */\n    tag_5:\n      tag_31\n      0x04\n      dup1\n      calldatasize\n      sub\n      dup2\n      add\n      swap1\n      tag_32\n      swap2\n      swap1\n      tag_27\n      jump\t// in\n    tag_32:\n      tag_33\n      jump\t// in\n    tag_31:\n      mload(0x40)\n      tag_34\n      swap2\n      swap1\n      tag_30\n      jump\t// in\n    tag_34:\n      mload(0x40)\n      dup1\n      swap2\n      sub\n      swap1\n      return\n        /* \"MatchaToken.sol\":4595:4729  function allowToSpendOnMatcha(address to)public returns (bool){... */\n    tag_6:\n      tag_35\n      0x04\n      dup1\n      calldatasize\n      sub\n      dup2\n      add\n      swap1\n      tag_36\n      swap2\n      swap1\n      tag_37\n      jump\t// in\n    tag_36:\n      tag_38\n      jump\t// in\n    tag_35:\n      mload(0x40)\n      tag_39\n      swap2\n      swap1\n      tag_30\n      jump\t// in\n    tag_39:\n      mload(0x40)\n      dup1\n      swap2\n      sub\n      swap1\n      return\n        /* \"MatchaToken.sol\":3614:3693  function totalSupply() external view returns (uint){... */\n    tag_7:\n      tag_40\n      tag_41\n      jump\t// in\n    tag_40:\n      mload(0x40)\n      tag_42\n      swap2\n      swap1\n      tag_43\n      jump\t// in\n    tag_42:\n      mload(0x40)\n      dup1\n      swap2\n      sub\n      swap1\n      return\n        /* \"MatchaToken.sol\":3059:3517  function transferFrom(address from, address to, uint256 value) public override returns (bool) {... */\n    tag_8:\n      tag_44\n      0x04\n      dup1\n      calldatasize\n      sub\n      dup2\n      add\n      swap1\n      tag_45\n      swap2\n      swap1\n      tag_46\n      jump\t// in\n    tag_45:\n      tag_47\n      jump\t// in\n    tag_44:\n      mload(0x40)\n      tag_48\n      swap2\n      swap1\n      tag_30\n      jump\t// in\n    tag_48:\n      mload(0x40)\n      dup1\n      swap2\n      sub\n      swap1\n      return\n        /* \"MatchaToken.sol\":440:474  uint8 public constant decimals = 3 */\n    tag_9:\n      tag_49\n      tag_50\n      jump\t// in\n    tag_49:\n      mload(0x40)\n      tag_51\n      swap2\n      swap1\n      tag_52\n      jump\t// in\n    tag_51:\n      mload(0x40)\n      dup1\n      swap2\n      sub\n      swap1\n      return\n        /* \"MatchaToken.sol\":4026:4305  function allowLess(address spender, uint256 restrict ) public {... */\n    tag_10:\n      tag_53\n      0x04\n      dup1\n      calldatasize\n      sub\n      dup2\n      add\n      swap1\n      tag_54\n      swap2\n      swap1\n      tag_27\n      jump\t// in\n    tag_54:\n      tag_55\n      jump\t// in\n    tag_53:\n      stop\n        /* \"MatchaToken.sol\":480:517  uint  public  _totalSupply = 40*10**6 */\n    tag_11:\n      tag_56\n      tag_57\n      jump\t// in\n    tag_56:\n      mload(0x40)\n      tag_58\n      swap2\n      swap1\n      tag_43\n      jump\t// in\n    tag_58:\n      mload(0x40)\n      dup1\n      swap2\n      sub\n      swap1\n      return\n        /* \"MatchaToken.sol\":3726:4024  function allowMore(address spender, uint256 bonus) public {... */\n    tag_12:\n      tag_59\n      0x04\n      dup1\n      calldatasize\n      sub\n      dup2\n      add\n      swap1\n      tag_60\n      swap2\n      swap1\n      tag_27\n      jump\t// in\n    tag_60:\n      tag_61\n      jump\t// in\n    tag_59:\n      stop\n        /* \"MatchaToken.sol\":3518:3612  function balanceOf(address owner) external view returns (uint){... */\n    tag_13:\n      tag_62\n      0x04\n      dup1\n      calldatasize\n      sub\n      dup2\n      add\n      swap1\n      tag_63\n      swap2\n      swap1\n      tag_37\n      jump\t// in\n    tag_63:\n      tag_64\n      jump\t// in\n    tag_62:\n      mload(0x40)\n      tag_65\n      swap2\n      swap1\n      tag_43\n      jump\t// in\n    tag_65:\n      mload(0x40)\n      dup1\n      swap2\n      sub\n      swap1\n      return\n        /* \"MatchaToken.sol\":394:434  string public constant symbol = 'Matcha' */\n    tag_14:\n      tag_66\n      tag_67\n      jump\t// in\n    tag_66:\n      mload(0x40)\n      tag_68\n      swap2\n      swap1\n      tag_24\n      jump\t// in\n    tag_68:\n      mload(0x40)\n      dup1\n      swap2\n      sub\n      swap1\n      return\n        /* \"MatchaToken.sol\":1953:2383  function transfer(address to, uint256 value) public override returns (bool) {... */\n    tag_15:\n      tag_69\n      0x04\n      dup1\n      calldatasize\n      sub\n      dup2\n      add\n      swap1\n      tag_70\n      swap2\n      swap1\n      tag_27\n      jump\t// in\n    tag_70:\n      tag_71\n      jump\t// in\n    tag_69:\n      mload(0x40)\n      tag_72\n      swap2\n      swap1\n      tag_30\n      jump\t// in\n    tag_72:\n      mload(0x40)\n      dup1\n      swap2\n      sub\n      swap1\n      return\n        /* \"MatchaToken.sol\":4836:5083  function changeTokenName(address candidate, string memory  newName)public returns (bool){... */\n    tag_16:\n      tag_73\n      0x04\n      dup1\n      calldatasize\n      sub\n      dup2\n      add\n      swap1\n      tag_74\n      swap2\n      swap1\n      tag_75\n      jump\t// in\n    tag_74:\n      tag_76\n      jump\t// in\n    tag_73:\n      mload(0x40)\n      tag_77\n      swap2\n      swap1\n      tag_30\n      jump\t// in\n    tag_77:\n      mload(0x40)\n      dup1\n      swap2\n      sub\n      swap1\n      return\n        /* \"MatchaToken.sol\":1691:1825  function allowance (address from, address spender) public override view returns (uint256){... */\n    tag_17:\n      tag_78\n      0x04\n      dup1\n      calldatasize\n      sub\n      dup2\n      add\n      swap1\n      tag_79\n      swap2\n      swap1\n      tag_80\n      jump\t// in\n    tag_79:\n      tag_81\n      jump\t// in\n    tag_78:\n      mload(0x40)\n      tag_82\n      swap2\n      swap1\n      tag_43\n      jump\t// in\n    tag_82:\n      mload(0x40)\n      dup1\n      swap2\n      sub\n      swap1\n      return\n        /* \"MatchaToken.sol\":282:316  string public  name = 'MatchaCoin' */\n    tag_22:\n      0x00\n      dup1\n      sload\n      tag_83\n      swap1\n      tag_84\n      jump\t// in\n    tag_83:\n      dup1\n      0x1f\n      add\n      0x20\n      dup1\n      swap2\n      div\n      mul\n      0x20\n      add\n      mload(0x40)\n      swap1\n      dup2\n      add\n      0x40\n      mstore\n      dup1\n      swap3\n      swap2\n      swap1\n      dup2\n      dup2\n      mstore\n      0x20\n      add\n      dup3\n      dup1\n      sload\n      tag_85\n      swap1\n      tag_84\n      jump\t// in\n    tag_85:\n      dup1\n      iszero\n      tag_86\n      jumpi\n      dup1\n      0x1f\n      lt\n      tag_87\n      jumpi\n      0x0100\n      dup1\n      dup4\n      sload\n      div\n      mul\n      dup4\n      mstore\n      swap2\n      0x20\n      add\n      swap2\n      jump(tag_86)\n    tag_87:\n      dup3\n      add\n      swap2\n      swap1\n      0x00\n      mstore\n      keccak256(0x00, 0x20)\n      swap1\n    tag_88:\n      dup2\n      sload\n      dup2\n      mstore\n      swap1\n      0x01\n      add\n      swap1\n      0x20\n      add\n      dup1\n      dup4\n      gt\n      tag_88\n      jumpi\n      dup3\n      swap1\n      sub\n      0x1f\n      and\n      dup3\n      add\n      swap2\n    tag_86:\n      pop\n      pop\n      pop\n      pop\n      pop\n      dup2\n      jump\t// out\n        /* \"MatchaToken.sol\":4307:4594  function buyAMatcha(address to, uint256 price) public returns (bool) {... */\n    tag_28:\n        /* \"MatchaToken.sol\":4370:4374  bool */\n      0x00\n        /* \"MatchaToken.sol\":4444:4447  8.0 */\n      0x08\n        /* \"MatchaToken.sol\":4436:4441  price */\n      dup3\n        /* \"MatchaToken.sol\":4436:4447  price<= 8.0 */\n      gt\n      iszero\n        /* \"MatchaToken.sol\":4428:4503  require(price<= 8.0, \"don't buy it, it's too expensive rather go to Joeys\") */\n      tag_90\n      jumpi\n      mload(0x40)\n      0x08c379a000000000000000000000000000000000000000000000000000000000\n      dup2\n      mstore\n      0x04\n      add\n      tag_91\n      swap1\n      tag_92\n      jump\t// in\n    tag_91:\n      mload(0x40)\n      dup1\n      swap2\n      sub\n      swap1\n      revert\n    tag_90:\n        /* \"MatchaToken.sol\":4530:4531  0 */\n      0x00\n        /* \"MatchaToken.sol\":4517:4532  to !=address(0) */\n      0xffffffffffffffffffffffffffffffffffffffff\n      and\n        /* \"MatchaToken.sol\":4517:4519  to */\n      dup4\n        /* \"MatchaToken.sol\":4517:4532  to !=address(0) */\n      0xffffffffffffffffffffffffffffffffffffffff\n      and\n      sub\n        /* \"MatchaToken.sol\":4509:4533  require(to !=address(0)) */\n      tag_93\n      jumpi\n      0x00\n      dup1\n      revert\n    tag_93:\n        /* \"MatchaToken.sol\":4539:4574  transferFrom(msg.sender, to, price) */\n      tag_94\n        /* \"MatchaToken.sol\":4552:4562  msg.sender */\n      caller\n        /* \"MatchaToken.sol\":4564:4566  to */\n      dup5\n        /* \"MatchaToken.sol\":4568:4573  price */\n      dup5\n        /* \"MatchaToken.sol\":4539:4551  transferFrom */\n      tag_47\n        /* \"MatchaToken.sol\":4539:4574  transferFrom(msg.sender, to, price) */\n      jump\t// in\n    tag_94:\n      pop\n        /* \"MatchaToken.sol\":4587:4591  true */\n      0x01\n        /* \"MatchaToken.sol\":4580:4591  return true */\n      swap1\n      pop\n        /* \"MatchaToken.sol\":4307:4594  function buyAMatcha(address to, uint256 price) public returns (bool) {... */\n      swap3\n      swap2\n      pop\n      pop\n      jump\t// out\n        /* \"MatchaToken.sol\":2465:2741  function approve(address spender, uint256 value) public override returns (bool) {... */\n    tag_33:\n        /* \"MatchaToken.sol\":2539:2543  bool */\n      0x00\n        /* \"MatchaToken.sol\":2582:2583  0 */\n      dup1\n        /* \"MatchaToken.sol\":2563:2584  spender != address(0) */\n      0xffffffffffffffffffffffffffffffffffffffff\n      and\n        /* \"MatchaToken.sol\":2563:2570  spender */\n      dup4\n        /* \"MatchaToken.sol\":2563:2584  spender != address(0) */\n      0xffffffffffffffffffffffffffffffffffffffff\n      and\n      sub\n        /* \"MatchaToken.sol\":2555:2613  require(spender != address(0),\"Invalid recipient address\") */\n      tag_96\n      jumpi\n      mload(0x40)\n      0x08c379a000000000000000000000000000000000000000000000000000000000\n      dup2\n      mstore\n      0x04\n      add\n      tag_97\n      swap1\n      tag_98\n      jump\t// in\n    tag_97:\n      mload(0x40)\n      dup1\n      swap2\n      sub\n      swap1\n      revert\n    tag_96:\n        /* \"MatchaToken.sol\":2657:2662  value */\n      dup2\n        /* \"MatchaToken.sol\":2623:2633  _allowance */\n      0x03\n        /* \"MatchaToken.sol\":2623:2645  _allowance[msg.sender] */\n      0x00\n        /* \"MatchaToken.sol\":2634:2644  msg.sender */\n      caller\n        /* \"MatchaToken.sol\":2623:2645  _allowance[msg.sender] */\n      0xffffffffffffffffffffffffffffffffffffffff\n      and\n      0xffffffffffffffffffffffffffffffffffffffff\n      and\n      dup2\n      mstore\n      0x20\n      add\n      swap1\n      dup2\n      mstore\n      0x20\n      add\n      0x00\n      keccak256\n        /* \"MatchaToken.sol\":2623:2654  _allowance[msg.sender][spender] */\n      0x00\n        /* \"MatchaToken.sol\":2646:2653  spender */\n      dup6\n        /* \"MatchaToken.sol\":2623:2654  _allowance[msg.sender][spender] */\n      0xffffffffffffffffffffffffffffffffffffffff\n      and\n      0xffffffffffffffffffffffffffffffffffffffff\n      and\n      dup2\n      mstore\n      0x20\n      add\n      swap1\n      dup2\n      mstore\n      0x20\n      add\n      0x00\n      keccak256\n        /* \"MatchaToken.sol\":2623:2662  _allowance[msg.sender][spender] = value */\n      dup2\n      swap1\n      sstore\n      pop\n        /* \"MatchaToken.sol\":2697:2704  spender */\n      dup3\n        /* \"MatchaToken.sol\":2677:2712  Approval(msg.sender,spender, value) */\n      0xffffffffffffffffffffffffffffffffffffffff\n      and\n        /* \"MatchaToken.sol\":2686:2696  msg.sender */\n      caller\n        /* \"MatchaToken.sol\":2677:2712  Approval(msg.sender,spender, value) */\n      0xffffffffffffffffffffffffffffffffffffffff\n      and\n      0x8c5be1e5ebec7d5bd14f71427d1e84f3dd0314c0f7b2291e5b200ac8c7c3b925\n        /* \"MatchaToken.sol\":2706:2711  value */\n      dup5\n        /* \"MatchaToken.sol\":2677:2712  Approval(msg.sender,spender, value) */\n      mload(0x40)\n      tag_99\n      swap2\n      swap1\n      tag_43\n      jump\t// in\n    tag_99:\n      mload(0x40)\n      dup1\n      swap2\n      sub\n      swap1\n      log3\n        /* \"MatchaToken.sol\":2730:2734  true */\n      0x01\n        /* \"MatchaToken.sol\":2722:2734  return  true */\n      swap1\n      pop\n        /* \"MatchaToken.sol\":2465:2741  function approve(address spender, uint256 value) public override returns (bool) {... */\n      swap3\n      swap2\n      pop\n      pop\n      jump\t// out\n        /* \"MatchaToken.sol\":4595:4729  function allowToSpendOnMatcha(address to)public returns (bool){... */\n    tag_38:\n        /* \"MatchaToken.sol\":4652:4656  bool */\n      0x00\n        /* \"MatchaToken.sol\":4684:4685  0 */\n      dup1\n        /* \"MatchaToken.sol\":4671:4686  to !=address(0) */\n      0xffffffffffffffffffffffffffffffffffffffff\n      and\n        /* \"MatchaToken.sol\":4671:4673  to */\n      dup3\n        /* \"MatchaToken.sol\":4671:4686  to !=address(0) */\n      0xffffffffffffffffffffffffffffffffffffffff\n      and\n      sub\n        /* \"MatchaToken.sol\":4663:4687  require(to !=address(0)) */\n      tag_101\n      jumpi\n      0x00\n      dup1\n      revert\n    tag_101:\n        /* \"MatchaToken.sol\":4693:4709  allowMore(to, 8) */\n      tag_102\n        /* \"MatchaToken.sol\":4703:4705  to */\n      dup3\n        /* \"MatchaToken.sol\":4707:4708  8 */\n      0x08\n        /* \"MatchaToken.sol\":4693:4702  allowMore */\n      tag_61\n        /* \"MatchaToken.sol\":4693:4709  allowMore(to, 8) */\n      jump\t// in\n    tag_102:\n        /* \"MatchaToken.sol\":4722:4726  true */\n      0x01\n        /* \"MatchaToken.sol\":4715:4726  return true */\n      swap1\n      pop\n        /* \"MatchaToken.sol\":4595:4729  function allowToSpendOnMatcha(address to)public returns (bool){... */\n      swap2\n      swap1\n      pop\n      jump\t// out\n        /* \"MatchaToken.sol\":3614:3693  function totalSupply() external view returns (uint){... */\n    tag_41:\n        /* \"MatchaToken.sol\":3660:3664  uint */\n      0x00\n        /* \"MatchaToken.sol\":3678:3690  _totalSupply */\n      sload(0x01)\n        /* \"MatchaToken.sol\":3671:3690  return _totalSupply */\n      swap1\n      pop\n        /* \"MatchaToken.sol\":3614:3693  function totalSupply() external view returns (uint){... */\n      swap1\n      jump\t// out\n        /* \"MatchaToken.sol\":3059:3517  function transferFrom(address from, address to, uint256 value) public override returns (bool) {... */\n    tag_47:\n        /* \"MatchaToken.sol\":3147:3151  bool */\n      0x00\n        /* \"MatchaToken.sol\":3186:3187  0 */\n      dup1\n        /* \"MatchaToken.sol\":3172:3188  to != address(0) */\n      0xffffffffffffffffffffffffffffffffffffffff\n      and\n        /* \"MatchaToken.sol\":3172:3174  to */\n      dup4\n        /* \"MatchaToken.sol\":3172:3188  to != address(0) */\n      0xffffffffffffffffffffffffffffffffffffffff\n      and\n      sub\n        /* \"MatchaToken.sol\":3163:3217  require( to != address(0),\"Invalid recipient address\") */\n      tag_105\n      jumpi\n      mload(0x40)\n      0x08c379a000000000000000000000000000000000000000000000000000000000\n      dup2\n      mstore\n      0x04\n      add\n      tag_106\n      swap1\n      tag_98\n      jump\t// in\n    tag_106:\n      mload(0x40)\n      dup1\n      swap2\n      sub\n      swap1\n      revert\n    tag_105:\n        /* \"MatchaToken.sol\":3271:3281  _allowance */\n      0x03\n        /* \"MatchaToken.sol\":3271:3287  _allowance[from] */\n      0x00\n        /* \"MatchaToken.sol\":3282:3286  from */\n      dup6\n        /* \"MatchaToken.sol\":3271:3287  _allowance[from] */\n      0xffffffffffffffffffffffffffffffffffffffff\n      and\n      0xffffffffffffffffffffffffffffffffffffffff\n      and\n      dup2\n      mstore\n      0x20\n      add\n      swap1\n      dup2\n      mstore\n      0x20\n      add\n      0x00\n      keccak256\n        /* \"MatchaToken.sol\":3271:3299  _allowance[from][msg.sender] */\n      0x00\n        /* \"MatchaToken.sol\":3288:3298  msg.sender */\n      caller\n        /* \"MatchaToken.sol\":3271:3299  _allowance[from][msg.sender] */\n      0xffffffffffffffffffffffffffffffffffffffff\n      and\n      0xffffffffffffffffffffffffffffffffffffffff\n      and\n      dup2\n      mstore\n      0x20\n      add\n      swap1\n      dup2\n      mstore\n      0x20\n      add\n      0x00\n      keccak256\n      sload\n        /* \"MatchaToken.sol\":3263:3268  value */\n      dup3\n        /* \"MatchaToken.sol\":3263:3299  value<= _allowance[from][msg.sender] */\n      gt\n      iszero\n        /* \"MatchaToken.sol\":3255:3300  require(value<= _allowance[from][msg.sender]) */\n      tag_107\n      jumpi\n      0x00\n      dup1\n      revert\n    tag_107:\n        /* \"MatchaToken.sol\":3325:3334  _balances */\n      0x02\n        /* \"MatchaToken.sol\":3325:3340  _balances[from] */\n      0x00\n        /* \"MatchaToken.sol\":3335:3339  from */\n      dup6\n        /* \"MatchaToken.sol\":3325:3340  _balances[from] */\n      0xffffffffffffffffffffffffffffffffffffffff\n      and\n      0xffffffffffffffffffffffffffffffffffffffff\n      and\n      dup2\n      mstore\n      0x20\n      add\n      swap1\n      dup2\n      mstore\n      0x20\n      add\n      0x00\n      keccak256\n      sload\n        /* \"MatchaToken.sol\":3318:3323  value */\n      dup3\n        /* \"MatchaToken.sol\":3318:3340  value<=_balances[from] */\n      gt\n      iszero\n        /* \"MatchaToken.sol\":3310:3341  require(value<=_balances[from]) */\n      tag_108\n      jumpi\n      0x00\n      dup1\n      revert\n    tag_108:\n        /* \"MatchaToken.sol\":3383:3422  _allowance[from][msg.sender].sub(value) */\n      tag_109\n        /* \"MatchaToken.sol\":3416:3421  value */\n      dup3\n        /* \"MatchaToken.sol\":3383:3393  _allowance */\n      0x03\n        /* \"MatchaToken.sol\":3383:3399  _allowance[from] */\n      0x00\n        /* \"MatchaToken.sol\":3394:3398  from */\n      dup8\n        /* \"MatchaToken.sol\":3383:3399  _allowance[from] */\n      0xffffffffffffffffffffffffffffffffffffffff\n      and\n      0xffffffffffffffffffffffffffffffffffffffff\n      and\n      dup2\n      mstore\n      0x20\n      add\n      swap1\n      dup2\n      mstore\n      0x20\n      add\n      0x00\n      keccak256\n        /* \"MatchaToken.sol\":3383:3411  _allowance[from][msg.sender] */\n      0x00\n        /* \"MatchaToken.sol\":3400:3410  msg.sender */\n      caller\n        /* \"MatchaToken.sol\":3383:3411  _allowance[from][msg.sender] */\n      0xffffffffffffffffffffffffffffffffffffffff\n      and\n      0xffffffffffffffffffffffffffffffffffffffff\n      and\n      dup2\n      mstore\n      0x20\n      add\n      swap1\n      dup2\n      mstore\n      0x20\n      add\n      0x00\n      keccak256\n      sload\n        /* \"MatchaToken.sol\":3383:3415  _allowance[from][msg.sender].sub */\n      tag_110\n      swap1\n        /* \"MatchaToken.sol\":3383:3422  _allowance[from][msg.sender].sub(value) */\n      swap2\n      swap1\n      0xffffffff\n      and\n      jump\t// in\n    tag_109:\n        /* \"MatchaToken.sol\":3352:3362  _allowance */\n      0x03\n        /* \"MatchaToken.sol\":3352:3368  _allowance[from] */\n      0x00\n        /* \"MatchaToken.sol\":3363:3367  from */\n      dup7\n        /* \"MatchaToken.sol\":3352:3368  _allowance[from] */\n      0xffffffffffffffffffffffffffffffffffffffff\n      and\n      0xffffffffffffffffffffffffffffffffffffffff\n      and\n      dup2\n      mstore\n      0x20\n      add\n      swap1\n      dup2\n      mstore\n      0x20\n      add\n      0x00\n      keccak256\n        /* \"MatchaToken.sol\":3352:3380  _allowance[from][msg.sender] */\n      0x00\n        /* \"MatchaToken.sol\":3369:3379  msg.sender */\n      caller\n        /* \"MatchaToken.sol\":3352:3380  _allowance[from][msg.sender] */\n      0xffffffffffffffffffffffffffffffffffffffff\n      and\n      0xffffffffffffffffffffffffffffffffffffffff\n      and\n      dup2\n      mstore\n      0x20\n      add\n      swap1\n      dup2\n      mstore\n      0x20\n      add\n      0x00\n      keccak256\n        /* \"MatchaToken.sol\":3352:3422  _allowance[from][msg.sender] = _allowance[from][msg.sender].sub(value) */\n      dup2\n      swap1\n      sstore\n      pop\n        /* \"MatchaToken.sol\":3456:3489  _transfer(from,msg.sender, value) */\n      tag_111\n        /* \"MatchaToken.sol\":3466:3470  from */\n      dup5\n        /* \"MatchaToken.sol\":3471:3481  msg.sender */\n      caller\n        /* \"MatchaToken.sol\":3483:3488  value */\n      dup5\n        /* \"MatchaToken.sol\":3456:3465  _transfer */\n      tag_112\n        /* \"MatchaToken.sol\":3456:3489  _transfer(from,msg.sender, value) */\n      jump\t// in\n    tag_111:\n        /* \"MatchaToken.sol\":3506:3510  true */\n      0x01\n        /* \"MatchaToken.sol\":3499:3510  return true */\n      swap1\n      pop\n        /* \"MatchaToken.sol\":3059:3517  function transferFrom(address from, address to, uint256 value) public override returns (bool) {... */\n      swap4\n      swap3\n      pop\n      pop\n      pop\n      jump\t// out\n        /* \"MatchaToken.sol\":440:474  uint8 public constant decimals = 3 */\n    tag_50:\n        /* \"MatchaToken.sol\":473:474  3 */\n      0x03\n        /* \"MatchaToken.sol\":440:474  uint8 public constant decimals = 3 */\n      dup2\n      jump\t// out\n        /* \"MatchaToken.sol\":4026:4305  function allowLess(address spender, uint256 restrict ) public {... */\n    tag_55:\n        /* \"MatchaToken.sol\":4122:4123  0 */\n      0x00\n        /* \"MatchaToken.sol\":4103:4124  spender != address(0) */\n      0xffffffffffffffffffffffffffffffffffffffff\n      and\n        /* \"MatchaToken.sol\":4103:4110  spender */\n      dup3\n        /* \"MatchaToken.sol\":4103:4124  spender != address(0) */\n      0xffffffffffffffffffffffffffffffffffffffff\n      and\n      sub\n        /* \"MatchaToken.sol\":4095:4143  require(spender != address(0),\"invalid spender\") */\n      tag_114\n      jumpi\n      mload(0x40)\n      0x08c379a000000000000000000000000000000000000000000000000000000000\n      dup2\n      mstore\n      0x04\n      add\n      tag_115\n      swap1\n      tag_116\n      jump\t// in\n    tag_115:\n      mload(0x40)\n      dup1\n      swap2\n      sub\n      swap1\n      revert\n    tag_114:\n        /* \"MatchaToken.sol\":4183:4230  (_allowance[msg.sender][spender]).sub(restrict) */\n      tag_117\n        /* \"MatchaToken.sol\":4221:4229  restrict */\n      dup2\n        /* \"MatchaToken.sol\":4184:4194  _allowance */\n      0x03\n        /* \"MatchaToken.sol\":4184:4206  _allowance[msg.sender] */\n      0x00\n        /* \"MatchaToken.sol\":4195:4205  msg.sender */\n      caller\n        /* \"MatchaToken.sol\":4184:4206  _allowance[msg.sender] */\n      0xffffffffffffffffffffffffffffffffffffffff\n      and\n      0xffffffffffffffffffffffffffffffffffffffff\n      and\n      dup2\n      mstore\n      0x20\n      add\n      swap1\n      dup2\n      mstore\n      0x20\n      add\n      0x00\n      keccak256\n        /* \"MatchaToken.sol\":4184:4215  _allowance[msg.sender][spender] */\n      0x00\n        /* \"MatchaToken.sol\":4207:4214  spender */\n      dup6\n        /* \"MatchaToken.sol\":4184:4215  _allowance[msg.sender][spender] */\n      0xffffffffffffffffffffffffffffffffffffffff\n      and\n      0xffffffffffffffffffffffffffffffffffffffff\n      and\n      dup2\n      mstore\n      0x20\n      add\n      swap1\n      dup2\n      mstore\n      0x20\n      add\n      0x00\n      keccak256\n      sload\n        /* \"MatchaToken.sol\":4183:4220  (_allowance[msg.sender][spender]).sub */\n      tag_110\n      swap1\n        /* \"MatchaToken.sol\":4183:4230  (_allowance[msg.sender][spender]).sub(restrict) */\n      swap2\n      swap1\n      0xffffffff\n      and\n      jump\t// in\n    tag_117:\n        /* \"MatchaToken.sol\":4150:4160  _allowance */\n      0x03\n        /* \"MatchaToken.sol\":4150:4172  _allowance[msg.sender] */\n      0x00\n        /* \"MatchaToken.sol\":4161:4171  msg.sender */\n      caller\n        /* \"MatchaToken.sol\":4150:4172  _allowance[msg.sender] */\n      0xffffffffffffffffffffffffffffffffffffffff\n      and\n      0xffffffffffffffffffffffffffffffffffffffff\n      and\n      dup2\n      mstore\n      0x20\n      add\n      swap1\n      dup2\n      mstore\n      0x20\n      add\n      0x00\n      keccak256\n        /* \"MatchaToken.sol\":4150:4181  _allowance[msg.sender][spender] */\n      0x00\n        /* \"MatchaToken.sol\":4173:4180  spender */\n      dup5\n        /* \"MatchaToken.sol\":4150:4181  _allowance[msg.sender][spender] */\n      0xffffffffffffffffffffffffffffffffffffffff\n      and\n      0xffffffffffffffffffffffffffffffffffffffff\n      and\n      dup2\n      mstore\n      0x20\n      add\n      swap1\n      dup2\n      mstore\n      0x20\n      add\n      0x00\n      keccak256\n        /* \"MatchaToken.sol\":4150:4230  _allowance[msg.sender][spender]= (_allowance[msg.sender][spender]).sub(restrict) */\n      dup2\n      swap1\n      sstore\n      pop\n        /* \"MatchaToken.sol\":4261:4268  spender */\n      dup2\n        /* \"MatchaToken.sol\":4241:4302  Approval(msg.sender,spender, _allowance[msg.sender][spender]) */\n      0xffffffffffffffffffffffffffffffffffffffff\n      and\n        /* \"MatchaToken.sol\":4250:4260  msg.sender */\n      caller\n        /* \"MatchaToken.sol\":4241:4302  Approval(msg.sender,spender, _allowance[msg.sender][spender]) */\n      0xffffffffffffffffffffffffffffffffffffffff\n      and\n      0x8c5be1e5ebec7d5bd14f71427d1e84f3dd0314c0f7b2291e5b200ac8c7c3b925\n        /* \"MatchaToken.sol\":4270:4280  _allowance */\n      0x03\n        /* \"MatchaToken.sol\":4270:4292  _allowance[msg.sender] */\n      0x00\n        /* \"MatchaToken.sol\":4281:4291  msg.sender */\n      caller\n        /* \"MatchaToken.sol\":4270:4292  _allowance[msg.sender] */\n      0xffffffffffffffffffffffffffffffffffffffff\n      and\n      0xffffffffffffffffffffffffffffffffffffffff\n      and\n      dup2\n      mstore\n      0x20\n      add\n      swap1\n      dup2\n      mstore\n      0x20\n      add\n      0x00\n      keccak256\n        /* \"MatchaToken.sol\":4270:4301  _allowance[msg.sender][spender] */\n      0x00\n        /* \"MatchaToken.sol\":4293:4300  spender */\n      dup7\n        /* \"MatchaToken.sol\":4270:4301  _allowance[msg.sender][spender] */\n      0xffffffffffffffffffffffffffffffffffffffff\n      and\n      0xffffffffffffffffffffffffffffffffffffffff\n      and\n      dup2\n      mstore\n      0x20\n      add\n      swap1\n      dup2\n      mstore\n      0x20\n      add\n      0x00\n      keccak256\n      sload\n        /* \"MatchaToken.sol\":4241:4302  Approval(msg.sender,spender, _allowance[msg.sender][spender]) */\n      mload(0x40)\n      tag_118\n      swap2\n      swap1\n      tag_43\n      jump\t// in\n    tag_118:\n      mload(0x40)\n      dup1\n      swap2\n      sub\n      swap1\n      log3\n        /* \"MatchaToken.sol\":4026:4305  function allowLess(address spender, uint256 restrict ) public {... */\n      pop\n      pop\n      jump\t// out\n        /* \"MatchaToken.sol\":480:517  uint  public  _totalSupply = 40*10**6 */\n    tag_57:\n      sload(0x01)\n      dup2\n      jump\t// out\n        /* \"MatchaToken.sol\":3726:4024  function allowMore(address spender, uint256 bonus) public {... */\n    tag_61:\n        /* \"MatchaToken.sol\":3817:3818  0 */\n      0x00\n        /* \"MatchaToken.sol\":3798:3819  spender != address(0) */\n      0xffffffffffffffffffffffffffffffffffffffff\n      and\n        /* \"MatchaToken.sol\":3798:3805  spender */\n      dup3\n        /* \"MatchaToken.sol\":3798:3819  spender != address(0) */\n      0xffffffffffffffffffffffffffffffffffffffff\n      and\n      sub\n        /* \"MatchaToken.sol\":3790:3838  require(spender != address(0),\"invalid spender\") */\n      tag_120\n      jumpi\n      mload(0x40)\n      0x08c379a000000000000000000000000000000000000000000000000000000000\n      dup2\n      mstore\n      0x04\n      add\n      tag_121\n      swap1\n      tag_116\n      jump\t// in\n    tag_121:\n      mload(0x40)\n      dup1\n      swap2\n      sub\n      swap1\n      revert\n    tag_120:\n        /* \"MatchaToken.sol\":3877:3919  _allowance[msg.sender][spender].add(bonus) */\n      tag_122\n        /* \"MatchaToken.sol\":3913:3918  bonus */\n      dup2\n        /* \"MatchaToken.sol\":3877:3887  _allowance */\n      0x03\n        /* \"MatchaToken.sol\":3877:3899  _allowance[msg.sender] */\n      0x00\n        /* \"MatchaToken.sol\":3888:3898  msg.sender */\n      caller\n        /* \"MatchaToken.sol\":3877:3899  _allowance[msg.sender] */\n      0xffffffffffffffffffffffffffffffffffffffff\n      and\n      0xffffffffffffffffffffffffffffffffffffffff\n      and\n      dup2\n      mstore\n      0x20\n      add\n      swap1\n      dup2\n      mstore\n      0x20\n      add\n      0x00\n      keccak256\n        /* \"MatchaToken.sol\":3877:3908  _allowance[msg.sender][spender] */\n      0x00\n        /* \"MatchaToken.sol\":3900:3907  spender */\n      dup6\n        /* \"MatchaToken.sol\":3877:3908  _allowance[msg.sender][spender] */\n      0xffffffffffffffffffffffffffffffffffffffff\n      and\n      0xffffffffffffffffffffffffffffffffffffffff\n      and\n      dup2\n      mstore\n      0x20\n      add\n      swap1\n      dup2\n      mstore\n      0x20\n      add\n      0x00\n      keccak256\n      sload\n        /* \"MatchaToken.sol\":3877:3912  _allowance[msg.sender][spender].add */\n      tag_123\n      swap1\n        /* \"MatchaToken.sol\":3877:3919  _allowance[msg.sender][spender].add(bonus) */\n      swap2\n      swap1\n      0xffffffff\n      and\n      jump\t// in\n    tag_122:\n        /* \"MatchaToken.sol\":3844:3854  _allowance */\n      0x03\n        /* \"MatchaToken.sol\":3844:3866  _allowance[msg.sender] */\n      0x00\n        /* \"MatchaToken.sol\":3855:3865  msg.sender */\n      caller\n        /* \"MatchaToken.sol\":3844:3866  _allowance[msg.sender] */\n      0xffffffffffffffffffffffffffffffffffffffff\n      and\n      0xffffffffffffffffffffffffffffffffffffffff\n      and\n      dup2\n      mstore\n      0x20\n      add\n      swap1\n      dup2\n      mstore\n      0x20\n      add\n      0x00\n      keccak256\n        /* \"MatchaToken.sol\":3844:3875  _allowance[msg.sender][spender] */\n      0x00\n        /* \"MatchaToken.sol\":3867:3874  spender */\n      dup5\n        /* \"MatchaToken.sol\":3844:3875  _allowance[msg.sender][spender] */\n      0xffffffffffffffffffffffffffffffffffffffff\n      and\n      0xffffffffffffffffffffffffffffffffffffffff\n      and\n      dup2\n      mstore\n      0x20\n      add\n      swap1\n      dup2\n      mstore\n      0x20\n      add\n      0x00\n      keccak256\n        /* \"MatchaToken.sol\":3844:3919  _allowance[msg.sender][spender]= _allowance[msg.sender][spender].add(bonus) */\n      dup2\n      swap1\n      sstore\n      pop\n        /* \"MatchaToken.sol\":3980:3987  spender */\n      dup2\n        /* \"MatchaToken.sol\":3960:4021  Approval(msg.sender,spender, _allowance[msg.sender][spender]) */\n      0xffffffffffffffffffffffffffffffffffffffff\n      and\n        /* \"MatchaToken.sol\":3969:3979  msg.sender */\n      caller\n        /* \"MatchaToken.sol\":3960:4021  Approval(msg.sender,spender, _allowance[msg.sender][spender]) */\n      0xffffffffffffffffffffffffffffffffffffffff\n      and\n      0x8c5be1e5ebec7d5bd14f71427d1e84f3dd0314c0f7b2291e5b200ac8c7c3b925\n        /* \"MatchaToken.sol\":3989:3999  _allowance */\n      0x03\n        /* \"MatchaToken.sol\":3989:4011  _allowance[msg.sender] */\n      0x00\n        /* \"MatchaToken.sol\":4000:4010  msg.sender */\n      caller\n        /* \"MatchaToken.sol\":3989:4011  _allowance[msg.sender] */\n      0xffffffffffffffffffffffffffffffffffffffff\n      and\n      0xffffffffffffffffffffffffffffffffffffffff\n      and\n      dup2\n      mstore\n      0x20\n      add\n      swap1\n      dup2\n      mstore\n      0x20\n      add\n      0x00\n      keccak256\n        /* \"MatchaToken.sol\":3989:4020  _allowance[msg.sender][spender] */\n      0x00\n        /* \"MatchaToken.sol\":4012:4019  spender */\n      dup7\n        /* \"MatchaToken.sol\":3989:4020  _allowance[msg.sender][spender] */\n      0xffffffffffffffffffffffffffffffffffffffff\n      and\n      0xffffffffffffffffffffffffffffffffffffffff\n      and\n      dup2\n      mstore\n      0x20\n      add\n      swap1\n      dup2\n      mstore\n      0x20\n      add\n      0x00\n      keccak256\n      sload\n        /* \"MatchaToken.sol\":3960:4021  Approval(msg.sender,spender, _allowance[msg.sender][spender]) */\n      mload(0x40)\n      tag_124\n      swap2\n      swap1\n      tag_43\n      jump\t// in\n    tag_124:\n      mload(0x40)\n      dup1\n      swap2\n      sub\n      swap1\n      log3\n        /* \"MatchaToken.sol\":3726:4024  function allowMore(address spender, uint256 bonus) public {... */\n      pop\n      pop\n      jump\t// out\n        /* \"MatchaToken.sol\":3518:3612  function balanceOf(address owner) external view returns (uint){... */\n    tag_64:\n        /* \"MatchaToken.sol\":3575:3579  uint */\n      0x00\n        /* \"MatchaToken.sol\":3593:3602  _balances */\n      0x02\n        /* \"MatchaToken.sol\":3593:3609  _balances[owner] */\n      0x00\n        /* \"MatchaToken.sol\":3603:3608  owner */\n      dup4\n        /* \"MatchaToken.sol\":3593:3609  _balances[owner] */\n      0xffffffffffffffffffffffffffffffffffffffff\n      and\n      0xffffffffffffffffffffffffffffffffffffffff\n      and\n      dup2\n      mstore\n      0x20\n      add\n      swap1\n      dup2\n      mstore\n      0x20\n      add\n      0x00\n      keccak256\n      sload\n        /* \"MatchaToken.sol\":3586:3609  return _balances[owner] */\n      swap1\n      pop\n        /* \"MatchaToken.sol\":3518:3612  function balanceOf(address owner) external view returns (uint){... */\n      swap2\n      swap1\n      pop\n      jump\t// out\n        /* \"MatchaToken.sol\":394:434  string public constant symbol = 'Matcha' */\n    tag_67:\n      mload(0x40)\n      dup1\n      0x40\n      add\n      0x40\n      mstore\n      dup1\n      0x06\n      dup2\n      mstore\n      0x20\n      add\n      0x4d61746368610000000000000000000000000000000000000000000000000000\n      dup2\n      mstore\n      pop\n      dup2\n      jump\t// out\n        /* \"MatchaToken.sol\":1953:2383  function transfer(address to, uint256 value) public override returns (bool) {... */\n    tag_71:\n        /* \"MatchaToken.sol\":2023:2027  bool */\n      0x00\n        /* \"MatchaToken.sol\":2052:2061  _balances */\n      0x02\n        /* \"MatchaToken.sol\":2052:2073  _balances[msg.sender] */\n      0x00\n        /* \"MatchaToken.sol\":2062:2072  msg.sender */\n      caller\n        /* \"MatchaToken.sol\":2052:2073  _balances[msg.sender] */\n      0xffffffffffffffffffffffffffffffffffffffff\n      and\n      0xffffffffffffffffffffffffffffffffffffffff\n      and\n      dup2\n      mstore\n      0x20\n      add\n      swap1\n      dup2\n      mstore\n      0x20\n      add\n      0x00\n      keccak256\n      sload\n        /* \"MatchaToken.sol\":2043:2048  value */\n      dup3\n        /* \"MatchaToken.sol\":2043:2073  value <= _balances[msg.sender] */\n      gt\n      iszero\n        /* \"MatchaToken.sol\":2035:2098  require(value <= _balances[msg.sender], \"Insufficient balance\") */\n      tag_127\n      jumpi\n      mload(0x40)\n      0x08c379a000000000000000000000000000000000000000000000000000000000\n      dup2\n      mstore\n      0x04\n      add\n      tag_128\n      swap1\n      tag_129\n      jump\t// in\n    tag_128:\n      mload(0x40)\n      dup1\n      swap2\n      sub\n      swap1\n      revert\n    tag_127:\n        /* \"MatchaToken.sol\":2126:2127  0 */\n      0x00\n        /* \"MatchaToken.sol\":2112:2128  to != address(0) */\n      0xffffffffffffffffffffffffffffffffffffffff\n      and\n        /* \"MatchaToken.sol\":2112:2114  to */\n      dup4\n        /* \"MatchaToken.sol\":2112:2128  to != address(0) */\n      0xffffffffffffffffffffffffffffffffffffffff\n      and\n      sub\n        /* \"MatchaToken.sol\":2104:2158  require(to != address(0), \"Invalid recipient address\") */\n      tag_130\n      jumpi\n      mload(0x40)\n      0x08c379a000000000000000000000000000000000000000000000000000000000\n      dup2\n      mstore\n      0x04\n      add\n      tag_131\n      swap1\n      tag_98\n      jump\t// in\n    tag_131:\n      mload(0x40)\n      dup1\n      swap2\n      sub\n      swap1\n      revert\n    tag_130:\n        /* \"MatchaToken.sol\":2188:2220  _balances[msg.sender].sub(value) */\n      tag_132\n        /* \"MatchaToken.sol\":2214:2219  value */\n      dup3\n        /* \"MatchaToken.sol\":2188:2197  _balances */\n      0x02\n        /* \"MatchaToken.sol\":2188:2209  _balances[msg.sender] */\n      0x00\n        /* \"MatchaToken.sol\":2198:2208  msg.sender */\n      caller\n        /* \"MatchaToken.sol\":2188:2209  _balances[msg.sender] */\n      0xffffffffffffffffffffffffffffffffffffffff\n      and\n      0xffffffffffffffffffffffffffffffffffffffff\n      and\n      dup2\n      mstore\n      0x20\n      add\n      swap1\n      dup2\n      mstore\n      0x20\n      add\n      0x00\n      keccak256\n      sload\n        /* \"MatchaToken.sol\":2188:2213  _balances[msg.sender].sub */\n      tag_110\n      swap1\n        /* \"MatchaToken.sol\":2188:2220  _balances[msg.sender].sub(value) */\n      swap2\n      swap1\n      0xffffffff\n      and\n      jump\t// in\n    tag_132:\n        /* \"MatchaToken.sol\":2164:2173  _balances */\n      0x02\n        /* \"MatchaToken.sol\":2164:2185  _balances[msg.sender] */\n      0x00\n        /* \"MatchaToken.sol\":2174:2184  msg.sender */\n      caller\n        /* \"MatchaToken.sol\":2164:2185  _balances[msg.sender] */\n      0xffffffffffffffffffffffffffffffffffffffff\n      and\n      0xffffffffffffffffffffffffffffffffffffffff\n      and\n      dup2\n      mstore\n      0x20\n      add\n      swap1\n      dup2\n      mstore\n      0x20\n      add\n      0x00\n      keccak256\n        /* \"MatchaToken.sol\":2164:2220  _balances[msg.sender] = _balances[msg.sender].sub(value) */\n      dup2\n      swap1\n      sstore\n      pop\n        /* \"MatchaToken.sol\":2242:2266  _balances[to].add(value) */\n      tag_133\n        /* \"MatchaToken.sol\":2260:2265  value */\n      dup3\n        /* \"MatchaToken.sol\":2242:2251  _balances */\n      0x02\n        /* \"MatchaToken.sol\":2242:2255  _balances[to] */\n      0x00\n        /* \"MatchaToken.sol\":2252:2254  to */\n      dup7\n        /* \"MatchaToken.sol\":2242:2255  _balances[to] */\n      0xffffffffffffffffffffffffffffffffffffffff\n      and\n      0xffffffffffffffffffffffffffffffffffffffff\n      and\n      dup2\n      mstore\n      0x20\n      add\n      swap1\n      dup2\n      mstore\n      0x20\n      add\n      0x00\n      keccak256\n      sload\n        /* \"MatchaToken.sol\":2242:2259  _balances[to].add */\n      tag_123\n      swap1\n        /* \"MatchaToken.sol\":2242:2266  _balances[to].add(value) */\n      swap2\n      swap1\n      0xffffffff\n      and\n      jump\t// in\n    tag_133:\n        /* \"MatchaToken.sol\":2226:2235  _balances */\n      0x02\n        /* \"MatchaToken.sol\":2226:2239  _balances[to] */\n      0x00\n        /* \"MatchaToken.sol\":2236:2238  to */\n      dup6\n        /* \"MatchaToken.sol\":2226:2239  _balances[to] */\n      0xffffffffffffffffffffffffffffffffffffffff\n      and\n      0xffffffffffffffffffffffffffffffffffffffff\n      and\n      dup2\n      mstore\n      0x20\n      add\n      swap1\n      dup2\n      mstore\n      0x20\n      add\n      0x00\n      keccak256\n        /* \"MatchaToken.sol\":2226:2266  _balances[to] = _balances[to].add(value) */\n      dup2\n      swap1\n      sstore\n      pop\n        /* \"MatchaToken.sol\":2299:2301  to */\n      dup3\n        /* \"MatchaToken.sol\":2278:2309  Transfer(msg.sender, to, value) */\n      0xffffffffffffffffffffffffffffffffffffffff\n      and\n        /* \"MatchaToken.sol\":2287:2297  msg.sender */\n      caller\n        /* \"MatchaToken.sol\":2278:2309  Transfer(msg.sender, to, value) */\n      0xffffffffffffffffffffffffffffffffffffffff\n      and\n      0xddf252ad1be2c89b69c2b068fc378daa952ba7f163c4a11628f55a4df523b3ef\n        /* \"MatchaToken.sol\":2303:2308  value */\n      dup5\n        /* \"MatchaToken.sol\":2278:2309  Transfer(msg.sender, to, value) */\n      mload(0x40)\n      tag_134\n      swap2\n      swap1\n      tag_43\n      jump\t// in\n    tag_134:\n      mload(0x40)\n      dup1\n      swap2\n      sub\n      swap1\n      log3\n        /* \"MatchaToken.sol\":2376:2380  true */\n      0x01\n        /* \"MatchaToken.sol\":2369:2380  return true */\n      swap1\n      pop\n        /* \"MatchaToken.sol\":1953:2383  function transfer(address to, uint256 value) public override returns (bool) {... */\n      swap3\n      swap2\n      pop\n      pop\n      jump\t// out\n        /* \"MatchaToken.sol\":4836:5083  function changeTokenName(address candidate, string memory  newName)public returns (bool){... */\n    tag_76:\n        /* \"MatchaToken.sol\":4919:4923  bool */\n      0x00\n        /* \"MatchaToken.sol\":4958:4959  0 */\n      dup1\n        /* \"MatchaToken.sol\":4938:4960  candidate !=address(0) */\n      0xffffffffffffffffffffffffffffffffffffffff\n      and\n        /* \"MatchaToken.sol\":4938:4947  candidate */\n      dup4\n        /* \"MatchaToken.sol\":4938:4960  candidate !=address(0) */\n      0xffffffffffffffffffffffffffffffffffffffff\n      and\n      sub\n        /* \"MatchaToken.sol\":4930:4961  require(candidate !=address(0)) */\n      tag_136\n      jumpi\n      0x00\n      dup1\n      revert\n    tag_136:\n        /* \"MatchaToken.sol\":5010:5011  2 */\n      0x02\n        /* \"MatchaToken.sol\":4997:5009  _totalSupply */\n      sload(0x01)\n        /* \"MatchaToken.sol\":4997:5011  _totalSupply/2 */\n      tag_137\n      swap2\n      swap1\n      tag_138\n      jump\t// in\n    tag_137:\n        /* \"MatchaToken.sol\":4975:4984  _balances */\n      0x02\n        /* \"MatchaToken.sol\":4975:4995  _balances[candidate] */\n      0x00\n        /* \"MatchaToken.sol\":4985:4994  candidate */\n      dup6\n        /* \"MatchaToken.sol\":4975:4995  _balances[candidate] */\n      0xffffffffffffffffffffffffffffffffffffffff\n      and\n      0xffffffffffffffffffffffffffffffffffffffff\n      and\n      dup2\n      mstore\n      0x20\n      add\n      swap1\n      dup2\n      mstore\n      0x20\n      add\n      0x00\n      keccak256\n      sload\n        /* \"MatchaToken.sol\":4975:5011  _balances[candidate]> _totalSupply/2 */\n      gt\n        /* \"MatchaToken.sol\":4967:5034  require(_balances[candidate]> _totalSupply/2, \"Don't own majority\") */\n      tag_139\n      jumpi\n      mload(0x40)\n      0x08c379a000000000000000000000000000000000000000000000000000000000\n      dup2\n      mstore\n      0x04\n      add\n      tag_140\n      swap1\n      tag_141\n      jump\t// in\n    tag_140:\n      mload(0x40)\n      dup1\n      swap2\n      sub\n      swap1\n      revert\n    tag_139:\n        /* \"MatchaToken.sol\":5046:5063  _setName(newName) */\n      tag_142\n        /* \"MatchaToken.sol\":5055:5062  newName */\n      dup3\n        /* \"MatchaToken.sol\":5046:5054  _setName */\n      tag_143\n        /* \"MatchaToken.sol\":5046:5063  _setName(newName) */\n      jump\t// in\n    tag_142:\n        /* \"MatchaToken.sol\":5040:5044  name */\n      0x00\n        /* \"MatchaToken.sol\":5040:5063  name= _setName(newName) */\n      swap1\n      dup2\n      tag_144\n      swap2\n      swap1\n      tag_145\n      jump\t// in\n    tag_144:\n      pop\n        /* \"MatchaToken.sol\":5076:5080  true */\n      0x01\n        /* \"MatchaToken.sol\":5069:5080  return true */\n      swap1\n      pop\n        /* \"MatchaToken.sol\":4836:5083  function changeTokenName(address candidate, string memory  newName)public returns (bool){... */\n      swap3\n      swap2\n      pop\n      pop\n      jump\t// out\n        /* \"MatchaToken.sol\":1691:1825  function allowance (address from, address spender) public override view returns (uint256){... */\n    tag_81:\n        /* \"MatchaToken.sol\":1772:1779  uint256 */\n      0x00\n        /* \"MatchaToken.sol\":1793:1803  _allowance */\n      0x03\n        /* \"MatchaToken.sol\":1793:1809  _allowance[from] */\n      0x00\n        /* \"MatchaToken.sol\":1804:1808  from */\n      dup5\n        /* \"MatchaToken.sol\":1793:1809  _allowance[from] */\n      0xffffffffffffffffffffffffffffffffffffffff\n      and\n      0xffffffffffffffffffffffffffffffffffffffff\n      and\n      dup2\n      mstore\n      0x20\n      add\n      swap1\n      dup2\n      mstore\n      0x20\n      add\n      0x00\n      keccak256\n        /* \"MatchaToken.sol\":1793:1818  _allowance[from][spender] */\n      0x00\n        /* \"MatchaToken.sol\":1810:1817  spender */\n      dup4\n        /* \"MatchaToken.sol\":1793:1818  _allowance[from][spender] */\n      0xffffffffffffffffffffffffffffffffffffffff\n      and\n      0xffffffffffffffffffffffffffffffffffffffff\n      and\n      dup2\n      mstore\n      0x20\n      add\n      swap1\n      dup2\n      mstore\n      0x20\n      add\n      0x00\n      keccak256\n      sload\n        /* \"MatchaToken.sol\":1786:1818  return _allowance[from][spender] */\n      swap1\n      pop\n        /* \"MatchaToken.sol\":1691:1825  function allowance (address from, address spender) public override view returns (uint256){... */\n      swap3\n      swap2\n      pop\n      pop\n      jump\t// out\n        /* \"SafeMath.sol\":320:447  function sub(uint x, uint y) internal pure returns (uint z) {... */\n    tag_110:\n        /* \"SafeMath.sol\":372:378  uint z */\n      0x00\n        /* \"SafeMath.sol\":413:414  x */\n      dup3\n        /* \"SafeMath.sol\":407:408  y */\n      dup3\n        /* \"SafeMath.sol\":403:404  x */\n      dup5\n        /* \"SafeMath.sol\":403:408  x - y */\n      tag_148\n      swap2\n      swap1\n      tag_149\n      jump\t// in\n    tag_148:\n        /* \"SafeMath.sol\":399:408  z = x - y */\n      swap2\n      pop\n      dup2\n        /* \"SafeMath.sol\":398:414  (z = x - y) <= x */\n      gt\n      iszero\n        /* \"SafeMath.sol\":390:440  require((z = x - y) <= x, 'ds-math-sub-underflow') */\n      tag_150\n      jumpi\n      mload(0x40)\n      0x08c379a000000000000000000000000000000000000000000000000000000000\n      dup2\n      mstore\n      0x04\n      add\n      tag_151\n      swap1\n      tag_152\n      jump\t// in\n    tag_151:\n      mload(0x40)\n      dup1\n      swap2\n      sub\n      swap1\n      revert\n    tag_150:\n        /* \"SafeMath.sol\":320:447  function sub(uint x, uint y) internal pure returns (uint z) {... */\n      swap3\n      swap2\n      pop\n      pop\n      jump\t// out\n        /* \"MatchaToken.sol\":2831:3053  function _transfer(address from, address to, uint256 value) private {... */\n    tag_112:\n        /* \"MatchaToken.sol\":2928:2954  _balances[from].sub(value) */\n      tag_154\n        /* \"MatchaToken.sol\":2948:2953  value */\n      dup2\n        /* \"MatchaToken.sol\":2928:2937  _balances */\n      0x02\n        /* \"MatchaToken.sol\":2928:2943  _balances[from] */\n      0x00\n        /* \"MatchaToken.sol\":2938:2942  from */\n      dup7\n        /* \"MatchaToken.sol\":2928:2943  _balances[from] */\n      0xffffffffffffffffffffffffffffffffffffffff\n      and\n      0xffffffffffffffffffffffffffffffffffffffff\n      and\n      dup2\n      mstore\n      0x20\n      add\n      swap1\n      dup2\n      mstore\n      0x20\n      add\n      0x00\n      keccak256\n      sload\n        /* \"MatchaToken.sol\":2928:2947  _balances[from].sub */\n      tag_110\n      swap1\n        /* \"MatchaToken.sol\":2928:2954  _balances[from].sub(value) */\n      swap2\n      swap1\n      0xffffffff\n      and\n      jump\t// in\n    tag_154:\n        /* \"MatchaToken.sol\":2909:2918  _balances */\n      0x02\n        /* \"MatchaToken.sol\":2909:2924  _balances[from] */\n      0x00\n        /* \"MatchaToken.sol\":2919:2923  from */\n      dup6\n        /* \"MatchaToken.sol\":2909:2924  _balances[from] */\n      0xffffffffffffffffffffffffffffffffffffffff\n      and\n      0xffffffffffffffffffffffffffffffffffffffff\n      and\n      dup2\n      mstore\n      0x20\n      add\n      swap1\n      dup2\n      mstore\n      0x20\n      add\n      0x00\n      keccak256\n        /* \"MatchaToken.sol\":2909:2954  _balances[from] =  _balances[from].sub(value) */\n      dup2\n      swap1\n      sstore\n      pop\n        /* \"MatchaToken.sol\":2981:3005  _balances[to].add(value) */\n      tag_155\n        /* \"MatchaToken.sol\":2999:3004  value */\n      dup2\n        /* \"MatchaToken.sol\":2981:2990  _balances */\n      0x02\n        /* \"MatchaToken.sol\":2981:2994  _balances[to] */\n      0x00\n        /* \"MatchaToken.sol\":2991:2993  to */\n      dup6\n        /* \"MatchaToken.sol\":2981:2994  _balances[to] */\n      0xffffffffffffffffffffffffffffffffffffffff\n      and\n      0xffffffffffffffffffffffffffffffffffffffff\n      and\n      dup2\n      mstore\n      0x20\n      add\n      swap1\n      dup2\n      mstore\n      0x20\n      add\n      0x00\n      keccak256\n      sload\n        /* \"MatchaToken.sol\":2981:2998  _balances[to].add */\n      tag_123\n      swap1\n        /* \"MatchaToken.sol\":2981:3005  _balances[to].add(value) */\n      swap2\n      swap1\n      0xffffffff\n      and\n      jump\t// in\n    tag_155:\n        /* \"MatchaToken.sol\":2964:2973  _balances */\n      0x02\n        /* \"MatchaToken.sol\":2964:2977  _balances[to] */\n      0x00\n        /* \"MatchaToken.sol\":2974:2976  to */\n      dup5\n        /* \"MatchaToken.sol\":2964:2977  _balances[to] */\n      0xffffffffffffffffffffffffffffffffffffffff\n      and\n      0xffffffffffffffffffffffffffffffffffffffff\n      and\n      dup2\n      mstore\n      0x20\n      add\n      swap1\n      dup2\n      mstore\n      0x20\n      add\n      0x00\n      keccak256\n        /* \"MatchaToken.sol\":2964:3005  _balances[to] =  _balances[to].add(value) */\n      dup2\n      swap1\n      sstore\n      pop\n        /* \"MatchaToken.sol\":3036:3038  to */\n      dup2\n        /* \"MatchaToken.sol\":3020:3046  Transfer (from, to, value) */\n      0xffffffffffffffffffffffffffffffffffffffff\n      and\n        /* \"MatchaToken.sol\":3030:3034  from */\n      dup4\n        /* \"MatchaToken.sol\":3020:3046  Transfer (from, to, value) */\n      0xffffffffffffffffffffffffffffffffffffffff\n      and\n      0xddf252ad1be2c89b69c2b068fc378daa952ba7f163c4a11628f55a4df523b3ef\n        /* \"MatchaToken.sol\":3040:3045  value */\n      dup4\n        /* \"MatchaToken.sol\":3020:3046  Transfer (from, to, value) */\n      mload(0x40)\n      tag_156\n      swap2\n      swap1\n      tag_43\n      jump\t// in\n    tag_156:\n      mload(0x40)\n      dup1\n      swap2\n      sub\n      swap1\n      log3\n        /* \"MatchaToken.sol\":2831:3053  function _transfer(address from, address to, uint256 value) private {... */\n      pop\n      pop\n      pop\n      jump\t// out\n        /* \"SafeMath.sol\":192:314  function add(uint x, uint y) internal pure returns (uint z) {... */\n    tag_123:\n        /* \"SafeMath.sol\":244:250  uint z */\n      0x00\n        /* \"SafeMath.sol\":281:282  x */\n      dup3\n        /* \"SafeMath.sol\":275:276  y */\n      dup3\n        /* \"SafeMath.sol\":271:272  x */\n      dup5\n        /* \"SafeMath.sol\":271:276  x + y */\n      tag_158\n      swap2\n      swap1\n      tag_159\n      jump\t// in\n    tag_158:\n        /* \"SafeMath.sol\":267:276  z = x + y */\n      swap2\n      pop\n      dup2\n        /* \"SafeMath.sol\":266:282  (z = x + y) >= x */\n      lt\n      iszero\n        /* \"SafeMath.sol\":258:307  require((z = x + y) >= x, 'ds-math-add-overflow') */\n      tag_160\n      jumpi\n      mload(0x40)\n      0x08c379a000000000000000000000000000000000000000000000000000000000\n      dup2\n      mstore\n      0x04\n      add\n      tag_161\n      swap1\n      tag_162\n      jump\t// in\n    tag_161:\n      mload(0x40)\n      dup1\n      swap2\n      sub\n      swap1\n      revert\n    tag_160:\n        /* \"SafeMath.sol\":192:314  function add(uint x, uint y) internal pure returns (uint z) {... */\n      swap3\n      swap2\n      pop\n      pop\n      jump\t// out\n        /* \"MatchaToken.sol\":5084:5196  function _setName(string memory  change) internal returns (string memory)  {... */\n    tag_143:\n        /* \"MatchaToken.sol\":5143:5156  string memory */\n      0x60\n        /* \"MatchaToken.sol\":5170:5176  change */\n      dup2\n        /* \"MatchaToken.sol\":5165:5169  name */\n      0x00\n        /* \"MatchaToken.sol\":5165:5176  name=change */\n      swap1\n      dup2\n      tag_164\n      swap2\n      swap1\n      tag_145\n      jump\t// in\n    tag_164:\n      pop\n        /* \"MatchaToken.sol\":5189:5193  name */\n      0x00\n        /* \"MatchaToken.sol\":5182:5193  return name */\n      dup1\n      sload\n      tag_165\n      swap1\n      tag_84\n      jump\t// in\n    tag_165:\n      dup1\n      0x1f\n      add\n      0x20\n      dup1\n      swap2\n      div\n      mul\n      0x20\n      add\n      mload(0x40)\n      swap1\n      dup2\n      add\n      0x40\n      mstore\n      dup1\n      swap3\n      swap2\n      swap1\n      dup2\n      dup2\n      mstore\n      0x20\n      add\n      dup3\n      dup1\n      sload\n      tag_166\n      swap1\n      tag_84\n      jump\t// in\n    tag_166:\n      dup1\n      iszero\n      tag_167\n      jumpi\n      dup1\n      0x1f\n      lt\n      tag_168\n      jumpi\n      0x0100\n      dup1\n      dup4\n      sload\n      div\n      mul\n      dup4\n      mstore\n      swap2\n      0x20\n      add\n      swap2\n      jump(tag_167)\n    tag_168:\n      dup3\n      add\n      swap2\n      swap1\n      0x00\n      mstore\n      keccak256(0x00, 0x20)\n      swap1\n    tag_169:\n      dup2\n      sload\n      dup2\n      mstore\n      swap1\n      0x01\n      add\n      swap1\n      0x20\n      add\n      dup1\n      dup4\n      gt\n      tag_169\n      jumpi\n      dup3\n      swap1\n      sub\n      0x1f\n      and\n      dup3\n      add\n      swap2\n    tag_167:\n      pop\n      pop\n      pop\n      pop\n      pop\n      swap1\n      pop\n        /* \"MatchaToken.sol\":5084:5196  function _setName(string memory  change) internal returns (string memory)  {... */\n      swap2\n      swap1\n      pop\n      jump\t// out\n        /* \"#utility.yul\":7:106   */\n    tag_170:\n        /* \"#utility.yul\":59:65   */\n      0x00\n        /* \"#utility.yul\":93:98   */\n      dup2\n        /* \"#utility.yul\":87:99   */\n      mload\n        /* \"#utility.yul\":77:99   */\n      swap1\n      pop\n        /* \"#utility.yul\":7:106   */\n      swap2\n      swap1\n      pop\n      jump\t// out\n        /* \"#utility.yul\":112:281   */\n    tag_171:\n        /* \"#utility.yul\":196:207   */\n      0x00\n        /* \"#utility.yul\":230:236   */\n      dup3\n        /* \"#utility.yul\":225:228   */\n      dup3\n        /* \"#utility.yul\":218:237   */\n      mstore\n        /* \"#utility.yul\":270:274   */\n      0x20\n        /* \"#utility.yul\":265:268   */\n      dup3\n        /* \"#utility.yul\":261:275   */\n      add\n        /* \"#utility.yul\":246:275   */\n      swap1\n      pop\n        /* \"#utility.yul\":112:281   */\n      swap3\n      swap2\n      pop\n      pop\n      jump\t// out\n        /* \"#utility.yul\":287:426   */\n    tag_172:\n        /* \"#utility.yul\":376:382   */\n      dup3\n        /* \"#utility.yul\":371:374   */\n      dup2\n        /* \"#utility.yul\":366:369   */\n      dup4\n        /* \"#utility.yul\":360:383   */\n      mcopy\n        /* \"#utility.yul\":417:418   */\n      0x00\n        /* \"#utility.yul\":408:414   */\n      dup4\n        /* \"#utility.yul\":403:406   */\n      dup4\n        /* \"#utility.yul\":399:415   */\n      add\n        /* \"#utility.yul\":392:419   */\n      mstore\n        /* \"#utility.yul\":287:426   */\n      pop\n      pop\n      pop\n      jump\t// out\n        /* \"#utility.yul\":432:534   */\n    tag_173:\n        /* \"#utility.yul\":473:479   */\n      0x00\n        /* \"#utility.yul\":524:526   */\n      0x1f\n        /* \"#utility.yul\":520:527   */\n      not\n        /* \"#utility.yul\":515:517   */\n      0x1f\n        /* \"#utility.yul\":508:513   */\n      dup4\n        /* \"#utility.yul\":504:518   */\n      add\n        /* \"#utility.yul\":500:528   */\n      and\n        /* \"#utility.yul\":490:528   */\n      swap1\n      pop\n        /* \"#utility.yul\":432:534   */\n      swap2\n      swap1\n      pop\n      jump\t// out\n        /* \"#utility.yul\":540:917   */\n    tag_174:\n        /* \"#utility.yul\":628:631   */\n      0x00\n        /* \"#utility.yul\":656:695   */\n      tag_237\n        /* \"#utility.yul\":689:694   */\n      dup3\n        /* \"#utility.yul\":656:695   */\n      tag_170\n      jump\t// in\n    tag_237:\n        /* \"#utility.yul\":711:782   */\n      tag_238\n        /* \"#utility.yul\":775:781   */\n      dup2\n        /* \"#utility.yul\":770:773   */\n      dup6\n        /* \"#utility.yul\":711:782   */\n      tag_171\n      jump\t// in\n    tag_238:\n        /* \"#utility.yul\":704:782   */\n      swap4\n      pop\n        /* \"#utility.yul\":791:856   */\n      tag_239\n        /* \"#utility.yul\":849:855   */\n      dup2\n        /* \"#utility.yul\":844:847   */\n      dup6\n        /* \"#utility.yul\":837:841   */\n      0x20\n        /* \"#utility.yul\":830:835   */\n      dup7\n        /* \"#utility.yul\":826:842   */\n      add\n        /* \"#utility.yul\":791:856   */\n      tag_172\n      jump\t// in\n    tag_239:\n        /* \"#utility.yul\":881:910   */\n      tag_240\n        /* \"#utility.yul\":903:909   */\n      dup2\n        /* \"#utility.yul\":881:910   */\n      tag_173\n      jump\t// in\n    tag_240:\n        /* \"#utility.yul\":876:879   */\n      dup5\n        /* \"#utility.yul\":872:911   */\n      add\n        /* \"#utility.yul\":865:911   */\n      swap2\n      pop\n        /* \"#utility.yul\":632:917   */\n      pop\n        /* \"#utility.yul\":540:917   */\n      swap3\n      swap2\n      pop\n      pop\n      jump\t// out\n        /* \"#utility.yul\":923:1236   */\n    tag_24:\n        /* \"#utility.yul\":1036:1040   */\n      0x00\n        /* \"#utility.yul\":1074:1076   */\n      0x20\n        /* \"#utility.yul\":1063:1072   */\n      dup3\n        /* \"#utility.yul\":1059:1077   */\n      add\n        /* \"#utility.yul\":1051:1077   */\n      swap1\n      pop\n        /* \"#utility.yul\":1123:1132   */\n      dup2\n        /* \"#utility.yul\":1117:1121   */\n      dup2\n        /* \"#utility.yul\":1113:1133   */\n      sub\n        /* \"#utility.yul\":1109:1110   */\n      0x00\n        /* \"#utility.yul\":1098:1107   */\n      dup4\n        /* \"#utility.yul\":1094:1111   */\n      add\n        /* \"#utility.yul\":1087:1134   */\n      mstore\n        /* \"#utility.yul\":1151:1229   */\n      tag_242\n        /* \"#utility.yul\":1224:1228   */\n      dup2\n        /* \"#utility.yul\":1215:1221   */\n      dup5\n        /* \"#utility.yul\":1151:1229   */\n      tag_174\n      jump\t// in\n    tag_242:\n        /* \"#utility.yul\":1143:1229   */\n      swap1\n      pop\n        /* \"#utility.yul\":923:1236   */\n      swap3\n      swap2\n      pop\n      pop\n      jump\t// out\n        /* \"#utility.yul\":1242:1317   */\n    tag_175:\n        /* \"#utility.yul\":1275:1281   */\n      0x00\n        /* \"#utility.yul\":1308:1310   */\n      0x40\n        /* \"#utility.yul\":1302:1311   */\n      mload\n        /* \"#utility.yul\":1292:1311   */\n      swap1\n      pop\n        /* \"#utility.yul\":1242:1317   */\n      swap1\n      jump\t// out\n        /* \"#utility.yul\":1323:1440   */\n    tag_176:\n        /* \"#utility.yul\":1432:1433   */\n      0x00\n        /* \"#utility.yul\":1429:1430   */\n      dup1\n        /* \"#utility.yul\":1422:1434   */\n      revert\n        /* \"#utility.yul\":1446:1563   */\n    tag_177:\n        /* \"#utility.yul\":1555:1556   */\n      0x00\n        /* \"#utility.yul\":1552:1553   */\n      dup1\n        /* \"#utility.yul\":1545:1557   */\n      revert\n        /* \"#utility.yul\":1569:1695   */\n    tag_178:\n        /* \"#utility.yul\":1606:1613   */\n      0x00\n        /* \"#utility.yul\":1646:1688   */\n      0xffffffffffffffffffffffffffffffffffffffff\n        /* \"#utility.yul\":1639:1644   */\n      dup3\n        /* \"#utility.yul\":1635:1689   */\n      and\n        /* \"#utility.yul\":1624:1689   */\n      swap1\n      pop\n        /* \"#utility.yul\":1569:1695   */\n      swap2\n      swap1\n      pop\n      jump\t// out\n        /* \"#utility.yul\":1701:1797   */\n    tag_179:\n        /* \"#utility.yul\":1738:1745   */\n      0x00\n        /* \"#utility.yul\":1767:1791   */\n      tag_248\n        /* \"#utility.yul\":1785:1790   */\n      dup3\n        /* \"#utility.yul\":1767:1791   */\n      tag_178\n      jump\t// in\n    tag_248:\n        /* \"#utility.yul\":1756:1791   */\n      swap1\n      pop\n        /* \"#utility.yul\":1701:1797   */\n      swap2\n      swap1\n      pop\n      jump\t// out\n        /* \"#utility.yul\":1803:1925   */\n    tag_180:\n        /* \"#utility.yul\":1876:1900   */\n      tag_250\n        /* \"#utility.yul\":1894:1899   */\n      dup2\n        /* \"#utility.yul\":1876:1900   */\n      tag_179\n      jump\t// in\n    tag_250:\n        /* \"#utility.yul\":1869:1874   */\n      dup2\n        /* \"#utility.yul\":1866:1901   */\n      eq\n        /* \"#utility.yul\":1856:1919   */\n      tag_251\n      jumpi\n        /* \"#utility.yul\":1915:1916   */\n      0x00\n        /* \"#utility.yul\":1912:1913   */\n      dup1\n        /* \"#utility.yul\":1905:1917   */\n      revert\n        /* \"#utility.yul\":1856:1919   */\n    tag_251:\n        /* \"#utility.yul\":1803:1925   */\n      pop\n      jump\t// out\n        /* \"#utility.yul\":1931:2070   */\n    tag_181:\n        /* \"#utility.yul\":1977:1982   */\n      0x00\n        /* \"#utility.yul\":2015:2021   */\n      dup2\n        /* \"#utility.yul\":2002:2022   */\n      calldataload\n        /* \"#utility.yul\":1993:2022   */\n      swap1\n      pop\n        /* \"#utility.yul\":2031:2064   */\n      tag_253\n        /* \"#utility.yul\":2058:2063   */\n      dup2\n        /* \"#utility.yul\":2031:2064   */\n      tag_180\n      jump\t// in\n    tag_253:\n        /* \"#utility.yul\":1931:2070   */\n      swap3\n      swap2\n      pop\n      pop\n      jump\t// out\n        /* \"#utility.yul\":2076:2153   */\n    tag_182:\n        /* \"#utility.yul\":2113:2120   */\n      0x00\n        /* \"#utility.yul\":2142:2147   */\n      dup2\n        /* \"#utility.yul\":2131:2147   */\n      swap1\n      pop\n        /* \"#utility.yul\":2076:2153   */\n      swap2\n      swap1\n      pop\n      jump\t// out\n        /* \"#utility.yul\":2159:2281   */\n    tag_183:\n        /* \"#utility.yul\":2232:2256   */\n      tag_256\n        /* \"#utility.yul\":2250:2255   */\n      dup2\n        /* \"#utility.yul\":2232:2256   */\n      tag_182\n      jump\t// in\n    tag_256:\n        /* \"#utility.yul\":2225:2230   */\n      dup2\n        /* \"#utility.yul\":2222:2257   */\n      eq\n        /* \"#utility.yul\":2212:2275   */\n      tag_257\n      jumpi\n        /* \"#utility.yul\":2271:2272   */\n      0x00\n        /* \"#utility.yul\":2268:2269   */\n      dup1\n        /* \"#utility.yul\":2261:2273   */\n      revert\n        /* \"#utility.yul\":2212:2275   */\n    tag_257:\n        /* \"#utility.yul\":2159:2281   */\n      pop\n      jump\t// out\n        /* \"#utility.yul\":2287:2426   */\n    tag_184:\n        /* \"#utility.yul\":2333:2338   */\n      0x00\n        /* \"#utility.yul\":2371:2377   */\n      dup2\n        /* \"#utility.yul\":2358:2378   */\n      calldataload\n        /* \"#utility.yul\":2349:2378   */\n      swap1\n      pop\n        /* \"#utility.yul\":2387:2420   */\n      tag_259\n        /* \"#utility.yul\":2414:2419   */\n      dup2\n        /* \"#utility.yul\":2387:2420   */\n      tag_183\n      jump\t// in\n    tag_259:\n        /* \"#utility.yul\":2287:2426   */\n      swap3\n      swap2\n      pop\n      pop\n      jump\t// out\n        /* \"#utility.yul\":2432:2906   */\n    tag_27:\n        /* \"#utility.yul\":2500:2506   */\n      0x00\n        /* \"#utility.yul\":2508:2514   */\n      dup1\n        /* \"#utility.yul\":2557:2559   */\n      0x40\n        /* \"#utility.yul\":2545:2554   */\n      dup4\n        /* \"#utility.yul\":2536:2543   */\n      dup6\n        /* \"#utility.yul\":2532:2555   */\n      sub\n        /* \"#utility.yul\":2528:2560   */\n      slt\n        /* \"#utility.yul\":2525:2644   */\n      iszero\n      tag_261\n      jumpi\n        /* \"#utility.yul\":2563:2642   */\n      tag_262\n      tag_176\n      jump\t// in\n    tag_262:\n        /* \"#utility.yul\":2525:2644   */\n    tag_261:\n        /* \"#utility.yul\":2683:2684   */\n      0x00\n        /* \"#utility.yul\":2708:2761   */\n      tag_263\n        /* \"#utility.yul\":2753:2760   */\n      dup6\n        /* \"#utility.yul\":2744:2750   */\n      dup3\n        /* \"#utility.yul\":2733:2742   */\n      dup7\n        /* \"#utility.yul\":2729:2751   */\n      add\n        /* \"#utility.yul\":2708:2761   */\n      tag_181\n      jump\t// in\n    tag_263:\n        /* \"#utility.yul\":2698:2761   */\n      swap3\n      pop\n        /* \"#utility.yul\":2654:2771   */\n      pop\n        /* \"#utility.yul\":2810:2812   */\n      0x20\n        /* \"#utility.yul\":2836:2889   */\n      tag_264\n        /* \"#utility.yul\":2881:2888   */\n      dup6\n        /* \"#utility.yul\":2872:2878   */\n      dup3\n        /* \"#utility.yul\":2861:2870   */\n      dup7\n        /* \"#utility.yul\":2857:2879   */\n      add\n        /* \"#utility.yul\":2836:2889   */\n      tag_184\n      jump\t// in\n    tag_264:\n        /* \"#utility.yul\":2826:2889   */\n      swap2\n      pop\n        /* \"#utility.yul\":2781:2899   */\n      pop\n        /* \"#utility.yul\":2432:2906   */\n      swap3\n      pop\n      swap3\n      swap1\n      pop\n      jump\t// out\n        /* \"#utility.yul\":2912:3002   */\n    tag_185:\n        /* \"#utility.yul\":2946:2953   */\n      0x00\n        /* \"#utility.yul\":2989:2994   */\n      dup2\n        /* \"#utility.yul\":2982:2995   */\n      iszero\n        /* \"#utility.yul\":2975:2996   */\n      iszero\n        /* \"#utility.yul\":2964:2996   */\n      swap1\n      pop\n        /* \"#utility.yul\":2912:3002   */\n      swap2\n      swap1\n      pop\n      jump\t// out\n        /* \"#utility.yul\":3008:3117   */\n    tag_186:\n        /* \"#utility.yul\":3089:3110   */\n      tag_267\n        /* \"#utility.yul\":3104:3109   */\n      dup2\n        /* \"#utility.yul\":3089:3110   */\n      tag_185\n      jump\t// in\n    tag_267:\n        /* \"#utility.yul\":3084:3087   */\n      dup3\n        /* \"#utility.yul\":3077:3111   */\n      mstore\n        /* \"#utility.yul\":3008:3117   */\n      pop\n      pop\n      jump\t// out\n        /* \"#utility.yul\":3123:3333   */\n    tag_30:\n        /* \"#utility.yul\":3210:3214   */\n      0x00\n        /* \"#utility.yul\":3248:3250   */\n      0x20\n        /* \"#utility.yul\":3237:3246   */\n      dup3\n        /* \"#utility.yul\":3233:3251   */\n      add\n        /* \"#utility.yul\":3225:3251   */\n      swap1\n      pop\n        /* \"#utility.yul\":3261:3326   */\n      tag_269\n        /* \"#utility.yul\":3323:3324   */\n      0x00\n        /* \"#utility.yul\":3312:3321   */\n      dup4\n        /* \"#utility.yul\":3308:3325   */\n      add\n        /* \"#utility.yul\":3299:3305   */\n      dup5\n        /* \"#utility.yul\":3261:3326   */\n      tag_186\n      jump\t// in\n    tag_269:\n        /* \"#utility.yul\":3123:3333   */\n      swap3\n      swap2\n      pop\n      pop\n      jump\t// out\n        /* \"#utility.yul\":3339:3668   */\n    tag_37:\n        /* \"#utility.yul\":3398:3404   */\n      0x00\n        /* \"#utility.yul\":3447:3449   */\n      0x20\n        /* \"#utility.yul\":3435:3444   */\n      dup3\n        /* \"#utility.yul\":3426:3433   */\n      dup5\n        /* \"#utility.yul\":3422:3445   */\n      sub\n        /* \"#utility.yul\":3418:3450   */\n      slt\n        /* \"#utility.yul\":3415:3534   */\n      iszero\n      tag_271\n      jumpi\n        /* \"#utility.yul\":3453:3532   */\n      tag_272\n      tag_176\n      jump\t// in\n    tag_272:\n        /* \"#utility.yul\":3415:3534   */\n    tag_271:\n        /* \"#utility.yul\":3573:3574   */\n      0x00\n        /* \"#utility.yul\":3598:3651   */\n      tag_273\n        /* \"#utility.yul\":3643:3650   */\n      dup5\n        /* \"#utility.yul\":3634:3640   */\n      dup3\n        /* \"#utility.yul\":3623:3632   */\n      dup6\n        /* \"#utility.yul\":3619:3641   */\n      add\n        /* \"#utility.yul\":3598:3651   */\n      tag_181\n      jump\t// in\n    tag_273:\n        /* \"#utility.yul\":3588:3651   */\n      swap2\n      pop\n        /* \"#utility.yul\":3544:3661   */\n      pop\n        /* \"#utility.yul\":3339:3668   */\n      swap3\n      swap2\n      pop\n      pop\n      jump\t// out\n        /* \"#utility.yul\":3674:3792   */\n    tag_187:\n        /* \"#utility.yul\":3761:3785   */\n      tag_275\n        /* \"#utility.yul\":3779:3784   */\n      dup2\n        /* \"#utility.yul\":3761:3785   */\n      tag_182\n      jump\t// in\n    tag_275:\n        /* \"#utility.yul\":3756:3759   */\n      dup3\n        /* \"#utility.yul\":3749:3786   */\n      mstore\n        /* \"#utility.yul\":3674:3792   */\n      pop\n      pop\n      jump\t// out\n        /* \"#utility.yul\":3798:4020   */\n    tag_43:\n        /* \"#utility.yul\":3891:3895   */\n      0x00\n        /* \"#utility.yul\":3929:3931   */\n      0x20\n        /* \"#utility.yul\":3918:3927   */\n      dup3\n        /* \"#utility.yul\":3914:3932   */\n      add\n        /* \"#utility.yul\":3906:3932   */\n      swap1\n      pop\n        /* \"#utility.yul\":3942:4013   */\n      tag_277\n        /* \"#utility.yul\":4010:4011   */\n      0x00\n        /* \"#utility.yul\":3999:4008   */\n      dup4\n        /* \"#utility.yul\":3995:4012   */\n      add\n        /* \"#utility.yul\":3986:3992   */\n      dup5\n        /* \"#utility.yul\":3942:4013   */\n      tag_187\n      jump\t// in\n    tag_277:\n        /* \"#utility.yul\":3798:4020   */\n      swap3\n      swap2\n      pop\n      pop\n      jump\t// out\n        /* \"#utility.yul\":4026:4645   */\n    tag_46:\n        /* \"#utility.yul\":4103:4109   */\n      0x00\n        /* \"#utility.yul\":4111:4117   */\n      dup1\n        /* \"#utility.yul\":4119:4125   */\n      0x00\n        /* \"#utility.yul\":4168:4170   */\n      0x60\n        /* \"#utility.yul\":4156:4165   */\n      dup5\n        /* \"#utility.yul\":4147:4154   */\n      dup7\n        /* \"#utility.yul\":4143:4166   */\n      sub\n        /* \"#utility.yul\":4139:4171   */\n      slt\n        /* \"#utility.yul\":4136:4255   */\n      iszero\n      tag_279\n      jumpi\n        /* \"#utility.yul\":4174:4253   */\n      tag_280\n      tag_176\n      jump\t// in\n    tag_280:\n        /* \"#utility.yul\":4136:4255   */\n    tag_279:\n        /* \"#utility.yul\":4294:4295   */\n      0x00\n        /* \"#utility.yul\":4319:4372   */\n      tag_281\n        /* \"#utility.yul\":4364:4371   */\n      dup7\n        /* \"#utility.yul\":4355:4361   */\n      dup3\n        /* \"#utility.yul\":4344:4353   */\n      dup8\n        /* \"#utility.yul\":4340:4362   */\n      add\n        /* \"#utility.yul\":4319:4372   */\n      tag_181\n      jump\t// in\n    tag_281:\n        /* \"#utility.yul\":4309:4372   */\n      swap4\n      pop\n        /* \"#utility.yul\":4265:4382   */\n      pop\n        /* \"#utility.yul\":4421:4423   */\n      0x20\n        /* \"#utility.yul\":4447:4500   */\n      tag_282\n        /* \"#utility.yul\":4492:4499   */\n      dup7\n        /* \"#utility.yul\":4483:4489   */\n      dup3\n        /* \"#utility.yul\":4472:4481   */\n      dup8\n        /* \"#utility.yul\":4468:4490   */\n      add\n        /* \"#utility.yul\":4447:4500   */\n      tag_181\n      jump\t// in\n    tag_282:\n        /* \"#utility.yul\":4437:4500   */\n      swap3\n      pop\n        /* \"#utility.yul\":4392:4510   */\n      pop\n        /* \"#utility.yul\":4549:4551   */\n      0x40\n        /* \"#utility.yul\":4575:4628   */\n      tag_283\n        /* \"#utility.yul\":4620:4627   */\n      dup7\n        /* \"#utility.yul\":4611:4617   */\n      dup3\n        /* \"#utility.yul\":4600:4609   */\n      dup8\n        /* \"#utility.yul\":4596:4618   */\n      add\n        /* \"#utility.yul\":4575:4628   */\n      tag_184\n      jump\t// in\n    tag_283:\n        /* \"#utility.yul\":4565:4628   */\n      swap2\n      pop\n        /* \"#utility.yul\":4520:4638   */\n      pop\n        /* \"#utility.yul\":4026:4645   */\n      swap3\n      pop\n      swap3\n      pop\n      swap3\n      jump\t// out\n        /* \"#utility.yul\":4651:4737   */\n    tag_188:\n        /* \"#utility.yul\":4686:4693   */\n      0x00\n        /* \"#utility.yul\":4726:4730   */\n      0xff\n        /* \"#utility.yul\":4719:4724   */\n      dup3\n        /* \"#utility.yul\":4715:4731   */\n      and\n        /* \"#utility.yul\":4704:4731   */\n      swap1\n      pop\n        /* \"#utility.yul\":4651:4737   */\n      swap2\n      swap1\n      pop\n      jump\t// out\n        /* \"#utility.yul\":4743:4855   */\n    tag_189:\n        /* \"#utility.yul\":4826:4848   */\n      tag_286\n        /* \"#utility.yul\":4842:4847   */\n      dup2\n        /* \"#utility.yul\":4826:4848   */\n      tag_188\n      jump\t// in\n    tag_286:\n        /* \"#utility.yul\":4821:4824   */\n      dup3\n        /* \"#utility.yul\":4814:4849   */\n      mstore\n        /* \"#utility.yul\":4743:4855   */\n      pop\n      pop\n      jump\t// out\n        /* \"#utility.yul\":4861:5075   */\n    tag_52:\n        /* \"#utility.yul\":4950:4954   */\n      0x00\n        /* \"#utility.yul\":4988:4990   */\n      0x20\n        /* \"#utility.yul\":4977:4986   */\n      dup3\n        /* \"#utility.yul\":4973:4991   */\n      add\n        /* \"#utility.yul\":4965:4991   */\n      swap1\n      pop\n        /* \"#utility.yul\":5001:5068   */\n      tag_288\n        /* \"#utility.yul\":5065:5066   */\n      0x00\n        /* \"#utility.yul\":5054:5063   */\n      dup4\n        /* \"#utility.yul\":5050:5067   */\n      add\n        /* \"#utility.yul\":5041:5047   */\n      dup5\n        /* \"#utility.yul\":5001:5068   */\n      tag_189\n      jump\t// in\n    tag_288:\n        /* \"#utility.yul\":4861:5075   */\n      swap3\n      swap2\n      pop\n      pop\n      jump\t// out\n        /* \"#utility.yul\":5081:5198   */\n    tag_190:\n        /* \"#utility.yul\":5190:5191   */\n      0x00\n        /* \"#utility.yul\":5187:5188   */\n      dup1\n        /* \"#utility.yul\":5180:5192   */\n      revert\n        /* \"#utility.yul\":5204:5321   */\n    tag_191:\n        /* \"#utility.yul\":5313:5314   */\n      0x00\n        /* \"#utility.yul\":5310:5311   */\n      dup1\n        /* \"#utility.yul\":5303:5315   */\n      revert\n        /* \"#utility.yul\":5327:5507   */\n    tag_192:\n        /* \"#utility.yul\":5375:5452   */\n      0x4e487b7100000000000000000000000000000000000000000000000000000000\n        /* \"#utility.yul\":5372:5373   */\n      0x00\n        /* \"#utility.yul\":5365:5453   */\n      mstore\n        /* \"#utility.yul\":5472:5476   */\n      0x41\n        /* \"#utility.yul\":5469:5470   */\n      0x04\n        /* \"#utility.yul\":5462:5477   */\n      mstore\n        /* \"#utility.yul\":5496:5500   */\n      0x24\n        /* \"#utility.yul\":5493:5494   */\n      0x00\n        /* \"#utility.yul\":5486:5501   */\n      revert\n        /* \"#utility.yul\":5513:5794   */\n    tag_193:\n        /* \"#utility.yul\":5596:5623   */\n      tag_293\n        /* \"#utility.yul\":5618:5622   */\n      dup3\n        /* \"#utility.yul\":5596:5623   */\n      tag_173\n      jump\t// in\n    tag_293:\n        /* \"#utility.yul\":5588:5594   */\n      dup2\n        /* \"#utility.yul\":5584:5624   */\n      add\n        /* \"#utility.yul\":5726:5732   */\n      dup2\n        /* \"#utility.yul\":5714:5724   */\n      dup2\n        /* \"#utility.yul\":5711:5733   */\n      lt\n        /* \"#utility.yul\":5690:5708   */\n      0xffffffffffffffff\n        /* \"#utility.yul\":5678:5688   */\n      dup3\n        /* \"#utility.yul\":5675:5709   */\n      gt\n        /* \"#utility.yul\":5672:5734   */\n      or\n        /* \"#utility.yul\":5669:5757   */\n      iszero\n      tag_294\n      jumpi\n        /* \"#utility.yul\":5737:5755   */\n      tag_295\n      tag_192\n      jump\t// in\n    tag_295:\n        /* \"#utility.yul\":5669:5757   */\n    tag_294:\n        /* \"#utility.yul\":5777:5787   */\n      dup1\n        /* \"#utility.yul\":5773:5775   */\n      0x40\n        /* \"#utility.yul\":5766:5788   */\n      mstore\n        /* \"#utility.yul\":5556:5794   */\n      pop\n        /* \"#utility.yul\":5513:5794   */\n      pop\n      pop\n      jump\t// out\n        /* \"#utility.yul\":5800:5929   */\n    tag_194:\n        /* \"#utility.yul\":5834:5840   */\n      0x00\n        /* \"#utility.yul\":5861:5881   */\n      tag_297\n      tag_175\n      jump\t// in\n    tag_297:\n        /* \"#utility.yul\":5851:5881   */\n      swap1\n      pop\n        /* \"#utility.yul\":5890:5923   */\n      tag_298\n        /* \"#utility.yul\":5918:5922   */\n      dup3\n        /* \"#utility.yul\":5910:5916   */\n      dup3\n        /* \"#utility.yul\":5890:5923   */\n      tag_193\n      jump\t// in\n    tag_298:\n        /* \"#utility.yul\":5800:5929   */\n      swap2\n      swap1\n      pop\n      jump\t// out\n        /* \"#utility.yul\":5935:6243   */\n    tag_195:\n        /* \"#utility.yul\":5997:6001   */\n      0x00\n        /* \"#utility.yul\":6087:6105   */\n      0xffffffffffffffff\n        /* \"#utility.yul\":6079:6085   */\n      dup3\n        /* \"#utility.yul\":6076:6106   */\n      gt\n        /* \"#utility.yul\":6073:6129   */\n      iszero\n      tag_300\n      jumpi\n        /* \"#utility.yul\":6109:6127   */\n      tag_301\n      tag_192\n      jump\t// in\n    tag_301:\n        /* \"#utility.yul\":6073:6129   */\n    tag_300:\n        /* \"#utility.yul\":6147:6176   */\n      tag_302\n        /* \"#utility.yul\":6169:6175   */\n      dup3\n        /* \"#utility.yul\":6147:6176   */\n      tag_173\n      jump\t// in\n    tag_302:\n        /* \"#utility.yul\":6139:6176   */\n      swap1\n      pop\n        /* \"#utility.yul\":6231:6235   */\n      0x20\n        /* \"#utility.yul\":6225:6229   */\n      dup2\n        /* \"#utility.yul\":6221:6236   */\n      add\n        /* \"#utility.yul\":6213:6236   */\n      swap1\n      pop\n        /* \"#utility.yul\":5935:6243   */\n      swap2\n      swap1\n      pop\n      jump\t// out\n        /* \"#utility.yul\":6249:6397   */\n    tag_196:\n        /* \"#utility.yul\":6347:6353   */\n      dup3\n        /* \"#utility.yul\":6342:6345   */\n      dup2\n        /* \"#utility.yul\":6337:6340   */\n      dup4\n        /* \"#utility.yul\":6324:6354   */\n      calldatacopy\n        /* \"#utility.yul\":6388:6389   */\n      0x00\n        /* \"#utility.yul\":6379:6385   */\n      dup4\n        /* \"#utility.yul\":6374:6377   */\n      dup4\n        /* \"#utility.yul\":6370:6386   */\n      add\n        /* \"#utility.yul\":6363:6390   */\n      mstore\n        /* \"#utility.yul\":6249:6397   */\n      pop\n      pop\n      pop\n      jump\t// out\n        /* \"#utility.yul\":6403:6828   */\n    tag_197:\n        /* \"#utility.yul\":6481:6486   */\n      0x00\n        /* \"#utility.yul\":6506:6572   */\n      tag_305\n        /* \"#utility.yul\":6522:6571   */\n      tag_306\n        /* \"#utility.yul\":6564:6570   */\n      dup5\n        /* \"#utility.yul\":6522:6571   */\n      tag_195\n      jump\t// in\n    tag_306:\n        /* \"#utility.yul\":6506:6572   */\n      tag_194\n      jump\t// in\n    tag_305:\n        /* \"#utility.yul\":6497:6572   */\n      swap1\n      pop\n        /* \"#utility.yul\":6595:6601   */\n      dup3\n        /* \"#utility.yul\":6588:6593   */\n      dup2\n        /* \"#utility.yul\":6581:6602   */\n      mstore\n        /* \"#utility.yul\":6633:6637   */\n      0x20\n        /* \"#utility.yul\":6626:6631   */\n      dup2\n        /* \"#utility.yul\":6622:6638   */\n      add\n        /* \"#utility.yul\":6671:6674   */\n      dup5\n        /* \"#utility.yul\":6662:6668   */\n      dup5\n        /* \"#utility.yul\":6657:6660   */\n      dup5\n        /* \"#utility.yul\":6653:6669   */\n      add\n        /* \"#utility.yul\":6650:6675   */\n      gt\n        /* \"#utility.yul\":6647:6759   */\n      iszero\n      tag_307\n      jumpi\n        /* \"#utility.yul\":6678:6757   */\n      tag_308\n      tag_191\n      jump\t// in\n    tag_308:\n        /* \"#utility.yul\":6647:6759   */\n    tag_307:\n        /* \"#utility.yul\":6768:6822   */\n      tag_309\n        /* \"#utility.yul\":6815:6821   */\n      dup5\n        /* \"#utility.yul\":6810:6813   */\n      dup3\n        /* \"#utility.yul\":6805:6808   */\n      dup6\n        /* \"#utility.yul\":6768:6822   */\n      tag_196\n      jump\t// in\n    tag_309:\n        /* \"#utility.yul\":6487:6828   */\n      pop\n        /* \"#utility.yul\":6403:6828   */\n      swap4\n      swap3\n      pop\n      pop\n      pop\n      jump\t// out\n        /* \"#utility.yul\":6848:7188   */\n    tag_198:\n        /* \"#utility.yul\":6904:6909   */\n      0x00\n        /* \"#utility.yul\":6953:6956   */\n      dup3\n        /* \"#utility.yul\":6946:6950   */\n      0x1f\n        /* \"#utility.yul\":6938:6944   */\n      dup4\n        /* \"#utility.yul\":6934:6951   */\n      add\n        /* \"#utility.yul\":6930:6957   */\n      slt\n        /* \"#utility.yul\":6920:7042   */\n      tag_311\n      jumpi\n        /* \"#utility.yul\":6961:7040   */\n      tag_312\n      tag_190\n      jump\t// in\n    tag_312:\n        /* \"#utility.yul\":6920:7042   */\n    tag_311:\n        /* \"#utility.yul\":7078:7084   */\n      dup2\n        /* \"#utility.yul\":7065:7085   */\n      calldataload\n        /* \"#utility.yul\":7103:7182   */\n      tag_313\n        /* \"#utility.yul\":7178:7181   */\n      dup5\n        /* \"#utility.yul\":7170:7176   */\n      dup3\n        /* \"#utility.yul\":7163:7167   */\n      0x20\n        /* \"#utility.yul\":7155:7161   */\n      dup7\n        /* \"#utility.yul\":7151:7168   */\n      add\n        /* \"#utility.yul\":7103:7182   */\n      tag_197\n      jump\t// in\n    tag_313:\n        /* \"#utility.yul\":7094:7182   */\n      swap2\n      pop\n        /* \"#utility.yul\":6910:7188   */\n      pop\n        /* \"#utility.yul\":6848:7188   */\n      swap3\n      swap2\n      pop\n      pop\n      jump\t// out\n        /* \"#utility.yul\":7194:7848   */\n    tag_75:\n        /* \"#utility.yul\":7272:7278   */\n      0x00\n        /* \"#utility.yul\":7280:7286   */\n      dup1\n        /* \"#utility.yul\":7329:7331   */\n      0x40\n        /* \"#utility.yul\":7317:7326   */\n      dup4\n        /* \"#utility.yul\":7308:7315   */\n      dup6\n        /* \"#utility.yul\":7304:7327   */\n      sub\n        /* \"#utility.yul\":7300:7332   */\n      slt\n        /* \"#utility.yul\":7297:7416   */\n      iszero\n      tag_315\n      jumpi\n        /* \"#utility.yul\":7335:7414   */\n      tag_316\n      tag_176\n      jump\t// in\n    tag_316:\n        /* \"#utility.yul\":7297:7416   */\n    tag_315:\n        /* \"#utility.yul\":7455:7456   */\n      0x00\n        /* \"#utility.yul\":7480:7533   */\n      tag_317\n        /* \"#utility.yul\":7525:7532   */\n      dup6\n        /* \"#utility.yul\":7516:7522   */\n      dup3\n        /* \"#utility.yul\":7505:7514   */\n      dup7\n        /* \"#utility.yul\":7501:7523   */\n      add\n        /* \"#utility.yul\":7480:7533   */\n      tag_181\n      jump\t// in\n    tag_317:\n        /* \"#utility.yul\":7470:7533   */\n      swap3\n      pop\n        /* \"#utility.yul\":7426:7543   */\n      pop\n        /* \"#utility.yul\":7610:7612   */\n      0x20\n        /* \"#utility.yul\":7599:7608   */\n      dup4\n        /* \"#utility.yul\":7595:7613   */\n      add\n        /* \"#utility.yul\":7582:7614   */\n      calldataload\n        /* \"#utility.yul\":7641:7659   */\n      0xffffffffffffffff\n        /* \"#utility.yul\":7633:7639   */\n      dup2\n        /* \"#utility.yul\":7630:7660   */\n      gt\n        /* \"#utility.yul\":7627:7744   */\n      iszero\n      tag_318\n      jumpi\n        /* \"#utility.yul\":7663:7742   */\n      tag_319\n      tag_177\n      jump\t// in\n    tag_319:\n        /* \"#utility.yul\":7627:7744   */\n    tag_318:\n        /* \"#utility.yul\":7768:7831   */\n      tag_320\n        /* \"#utility.yul\":7823:7830   */\n      dup6\n        /* \"#utility.yul\":7814:7820   */\n      dup3\n        /* \"#utility.yul\":7803:7812   */\n      dup7\n        /* \"#utility.yul\":7799:7821   */\n      add\n        /* \"#utility.yul\":7768:7831   */\n      tag_198\n      jump\t// in\n    tag_320:\n        /* \"#utility.yul\":7758:7831   */\n      swap2\n      pop\n        /* \"#utility.yul\":7553:7841   */\n      pop\n        /* \"#utility.yul\":7194:7848   */\n      swap3\n      pop\n      swap3\n      swap1\n      pop\n      jump\t// out\n        /* \"#utility.yul\":7854:8328   */\n    tag_80:\n        /* \"#utility.yul\":7922:7928   */\n      0x00\n        /* \"#utility.yul\":7930:7936   */\n      dup1\n        /* \"#utility.yul\":7979:7981   */\n      0x40\n        /* \"#utility.yul\":7967:7976   */\n      dup4\n        /* \"#utility.yul\":7958:7965   */\n      dup6\n        /* \"#utility.yul\":7954:7977   */\n      sub\n        /* \"#utility.yul\":7950:7982   */\n      slt\n        /* \"#utility.yul\":7947:8066   */\n      iszero\n      tag_322\n      jumpi\n        /* \"#utility.yul\":7985:8064   */\n      tag_323\n      tag_176\n      jump\t// in\n    tag_323:\n        /* \"#utility.yul\":7947:8066   */\n    tag_322:\n        /* \"#utility.yul\":8105:8106   */\n      0x00\n        /* \"#utility.yul\":8130:8183   */\n      tag_324\n        /* \"#utility.yul\":8175:8182   */\n      dup6\n        /* \"#utility.yul\":8166:8172   */\n      dup3\n        /* \"#utility.yul\":8155:8164   */\n      dup7\n        /* \"#utility.yul\":8151:8173   */\n      add\n        /* \"#utility.yul\":8130:8183   */\n      tag_181\n      jump\t// in\n    tag_324:\n        /* \"#utility.yul\":8120:8183   */\n      swap3\n      pop\n        /* \"#utility.yul\":8076:8193   */\n      pop\n        /* \"#utility.yul\":8232:8234   */\n      0x20\n        /* \"#utility.yul\":8258:8311   */\n      tag_325\n        /* \"#utility.yul\":8303:8310   */\n      dup6\n        /* \"#utility.yul\":8294:8300   */\n      dup3\n        /* \"#utility.yul\":8283:8292   */\n      dup7\n        /* \"#utility.yul\":8279:8301   */\n      add\n        /* \"#utility.yul\":8258:8311   */\n      tag_181\n      jump\t// in\n    tag_325:\n        /* \"#utility.yul\":8248:8311   */\n      swap2\n      pop\n        /* \"#utility.yul\":8203:8321   */\n      pop\n        /* \"#utility.yul\":7854:8328   */\n      swap3\n      pop\n      swap3\n      swap1\n      pop\n      jump\t// out\n        /* \"#utility.yul\":8334:8514   */\n    tag_199:\n        /* \"#utility.yul\":8382:8459   */\n      0x4e487b7100000000000000000000000000000000000000000000000000000000\n        /* \"#utility.yul\":8379:8380   */\n      0x00\n        /* \"#utility.yul\":8372:8460   */\n      mstore\n        /* \"#utility.yul\":8479:8483   */\n      0x22\n        /* \"#utility.yul\":8476:8477   */\n      0x04\n        /* \"#utility.yul\":8469:8484   */\n      mstore\n        /* \"#utility.yul\":8503:8507   */\n      0x24\n        /* \"#utility.yul\":8500:8501   */\n      0x00\n        /* \"#utility.yul\":8493:8508   */\n      revert\n        /* \"#utility.yul\":8520:8840   */\n    tag_84:\n        /* \"#utility.yul\":8564:8570   */\n      0x00\n        /* \"#utility.yul\":8601:8602   */\n      0x02\n        /* \"#utility.yul\":8595:8599   */\n      dup3\n        /* \"#utility.yul\":8591:8603   */\n      div\n        /* \"#utility.yul\":8581:8603   */\n      swap1\n      pop\n        /* \"#utility.yul\":8648:8649   */\n      0x01\n        /* \"#utility.yul\":8642:8646   */\n      dup3\n        /* \"#utility.yul\":8638:8650   */\n      and\n        /* \"#utility.yul\":8669:8687   */\n      dup1\n        /* \"#utility.yul\":8659:8740   */\n      tag_328\n      jumpi\n        /* \"#utility.yul\":8725:8729   */\n      0x7f\n        /* \"#utility.yul\":8717:8723   */\n      dup3\n        /* \"#utility.yul\":8713:8730   */\n      and\n        /* \"#utility.yul\":8703:8730   */\n      swap2\n      pop\n        /* \"#utility.yul\":8659:8740   */\n    tag_328:\n        /* \"#utility.yul\":8787:8789   */\n      0x20\n        /* \"#utility.yul\":8779:8785   */\n      dup3\n        /* \"#utility.yul\":8776:8790   */\n      lt\n        /* \"#utility.yul\":8756:8774   */\n      dup2\n        /* \"#utility.yul\":8753:8791   */\n      sub\n        /* \"#utility.yul\":8750:8834   */\n      tag_329\n      jumpi\n        /* \"#utility.yul\":8806:8824   */\n      tag_330\n      tag_199\n      jump\t// in\n    tag_330:\n        /* \"#utility.yul\":8750:8834   */\n    tag_329:\n        /* \"#utility.yul\":8571:8840   */\n      pop\n        /* \"#utility.yul\":8520:8840   */\n      swap2\n      swap1\n      pop\n      jump\t// out\n        /* \"#utility.yul\":8846:9084   */\n    tag_200:\n        /* \"#utility.yul\":8986:9020   */\n      0x646f6e2774206275792069742c206974277320746f6f20657870656e73697665\n        /* \"#utility.yul\":8982:8983   */\n      0x00\n        /* \"#utility.yul\":8974:8980   */\n      dup3\n        /* \"#utility.yul\":8970:8984   */\n      add\n        /* \"#utility.yul\":8963:9021   */\n      mstore\n        /* \"#utility.yul\":9055:9076   */\n      0x2072617468657220676f20746f204a6f65797300000000000000000000000000\n        /* \"#utility.yul\":9050:9052   */\n      0x20\n        /* \"#utility.yul\":9042:9048   */\n      dup3\n        /* \"#utility.yul\":9038:9053   */\n      add\n        /* \"#utility.yul\":9031:9077   */\n      mstore\n        /* \"#utility.yul\":8846:9084   */\n      pop\n      jump\t// out\n        /* \"#utility.yul\":9090:9456   */\n    tag_201:\n        /* \"#utility.yul\":9232:9235   */\n      0x00\n        /* \"#utility.yul\":9253:9320   */\n      tag_333\n        /* \"#utility.yul\":9317:9319   */\n      0x33\n        /* \"#utility.yul\":9312:9315   */\n      dup4\n        /* \"#utility.yul\":9253:9320   */\n      tag_171\n      jump\t// in\n    tag_333:\n        /* \"#utility.yul\":9246:9320   */\n      swap2\n      pop\n        /* \"#utility.yul\":9329:9422   */\n      tag_334\n        /* \"#utility.yul\":9418:9421   */\n      dup3\n        /* \"#utility.yul\":9329:9422   */\n      tag_200\n      jump\t// in\n    tag_334:\n        /* \"#utility.yul\":9447:9449   */\n      0x40\n        /* \"#utility.yul\":9442:9445   */\n      dup3\n        /* \"#utility.yul\":9438:9450   */\n      add\n        /* \"#utility.yul\":9431:9450   */\n      swap1\n      pop\n        /* \"#utility.yul\":9090:9456   */\n      swap2\n      swap1\n      pop\n      jump\t// out\n        /* \"#utility.yul\":9462:9881   */\n    tag_92:\n        /* \"#utility.yul\":9628:9632   */\n      0x00\n        /* \"#utility.yul\":9666:9668   */\n      0x20\n        /* \"#utility.yul\":9655:9664   */\n      dup3\n        /* \"#utility.yul\":9651:9669   */\n      add\n        /* \"#utility.yul\":9643:9669   */\n      swap1\n      pop\n        /* \"#utility.yul\":9715:9724   */\n      dup2\n        /* \"#utility.yul\":9709:9713   */\n      dup2\n        /* \"#utility.yul\":9705:9725   */\n      sub\n        /* \"#utility.yul\":9701:9702   */\n      0x00\n        /* \"#utility.yul\":9690:9699   */\n      dup4\n        /* \"#utility.yul\":9686:9703   */\n      add\n        /* \"#utility.yul\":9679:9726   */\n      mstore\n        /* \"#utility.yul\":9743:9874   */\n      tag_336\n        /* \"#utility.yul\":9869:9873   */\n      dup2\n        /* \"#utility.yul\":9743:9874   */\n      tag_201\n      jump\t// in\n    tag_336:\n        /* \"#utility.yul\":9735:9874   */\n      swap1\n      pop\n        /* \"#utility.yul\":9462:9881   */\n      swap2\n      swap1\n      pop\n      jump\t// out\n        /* \"#utility.yul\":9887:10062   */\n    tag_202:\n        /* \"#utility.yul\":10027:10054   */\n      0x496e76616c696420726563697069656e74206164647265737300000000000000\n        /* \"#utility.yul\":10023:10024   */\n      0x00\n        /* \"#utility.yul\":10015:10021   */\n      dup3\n        /* \"#utility.yul\":10011:10025   */\n      add\n        /* \"#utility.yul\":10004:10055   */\n      mstore\n        /* \"#utility.yul\":9887:10062   */\n      pop\n      jump\t// out\n        /* \"#utility.yul\":10068:10434   */\n    tag_203:\n        /* \"#utility.yul\":10210:10213   */\n      0x00\n        /* \"#utility.yul\":10231:10298   */\n      tag_339\n        /* \"#utility.yul\":10295:10297   */\n      0x19\n        /* \"#utility.yul\":10290:10293   */\n      dup4\n        /* \"#utility.yul\":10231:10298   */\n      tag_171\n      jump\t// in\n    tag_339:\n        /* \"#utility.yul\":10224:10298   */\n      swap2\n      pop\n        /* \"#utility.yul\":10307:10400   */\n      tag_340\n        /* \"#utility.yul\":10396:10399   */\n      dup3\n        /* \"#utility.yul\":10307:10400   */\n      tag_202\n      jump\t// in\n    tag_340:\n        /* \"#utility.yul\":10425:10427   */\n      0x20\n        /* \"#utility.yul\":10420:10423   */\n      dup3\n        /* \"#utility.yul\":10416:10428   */\n      add\n        /* \"#utility.yul\":10409:10428   */\n      swap1\n      pop\n        /* \"#utility.yul\":10068:10434   */\n      swap2\n      swap1\n      pop\n      jump\t// out\n        /* \"#utility.yul\":10440:10859   */\n    tag_98:\n        /* \"#utility.yul\":10606:10610   */\n      0x00\n        /* \"#utility.yul\":10644:10646   */\n      0x20\n        /* \"#utility.yul\":10633:10642   */\n      dup3\n        /* \"#utility.yul\":10629:10647   */\n      add\n        /* \"#utility.yul\":10621:10647   */\n      swap1\n      pop\n        /* \"#utility.yul\":10693:10702   */\n      dup2\n        /* \"#utility.yul\":10687:10691   */\n      dup2\n        /* \"#utility.yul\":10683:10703   */\n      sub\n        /* \"#utility.yul\":10679:10680   */\n      0x00\n        /* \"#utility.yul\":10668:10677   */\n      dup4\n        /* \"#utility.yul\":10664:10681   */\n      add\n        /* \"#utility.yul\":10657:10704   */\n      mstore\n        /* \"#utility.yul\":10721:10852   */\n      tag_342\n        /* \"#utility.yul\":10847:10851   */\n      dup2\n        /* \"#utility.yul\":10721:10852   */\n      tag_203\n      jump\t// in\n    tag_342:\n        /* \"#utility.yul\":10713:10852   */\n      swap1\n      pop\n        /* \"#utility.yul\":10440:10859   */\n      swap2\n      swap1\n      pop\n      jump\t// out\n        /* \"#utility.yul\":10865:11030   */\n    tag_204:\n        /* \"#utility.yul\":11005:11022   */\n      0x696e76616c6964207370656e6465720000000000000000000000000000000000\n        /* \"#utility.yul\":11001:11002   */\n      0x00\n        /* \"#utility.yul\":10993:10999   */\n      dup3\n        /* \"#utility.yul\":10989:11003   */\n      add\n        /* \"#utility.yul\":10982:11023   */\n      mstore\n        /* \"#utility.yul\":10865:11030   */\n      pop\n      jump\t// out\n        /* \"#utility.yul\":11036:11402   */\n    tag_205:\n        /* \"#utility.yul\":11178:11181   */\n      0x00\n        /* \"#utility.yul\":11199:11266   */\n      tag_345\n        /* \"#utility.yul\":11263:11265   */\n      0x0f\n        /* \"#utility.yul\":11258:11261   */\n      dup4\n        /* \"#utility.yul\":11199:11266   */\n      tag_171\n      jump\t// in\n    tag_345:\n        /* \"#utility.yul\":11192:11266   */\n      swap2\n      pop\n        /* \"#utility.yul\":11275:11368   */\n      tag_346\n        /* \"#utility.yul\":11364:11367   */\n      dup3\n        /* \"#utility.yul\":11275:11368   */\n      tag_204\n      jump\t// in\n    tag_346:\n        /* \"#utility.yul\":11393:11395   */\n      0x20\n        /* \"#utility.yul\":11388:11391   */\n      dup3\n        /* \"#utility.yul\":11384:11396   */\n      add\n        /* \"#utility.yul\":11377:11396   */\n      swap1\n      pop\n        /* \"#utility.yul\":11036:11402   */\n      swap2\n      swap1\n      pop\n      jump\t// out\n        /* \"#utility.yul\":11408:11827   */\n    tag_116:\n        /* \"#utility.yul\":11574:11578   */\n      0x00\n        /* \"#utility.yul\":11612:11614   */\n      0x20\n        /* \"#utility.yul\":11601:11610   */\n      dup3\n        /* \"#utility.yul\":11597:11615   */\n      add\n        /* \"#utility.yul\":11589:11615   */\n      swap1\n      pop\n        /* \"#utility.yul\":11661:11670   */\n      dup2\n        /* \"#utility.yul\":11655:11659   */\n      dup2\n        /* \"#utility.yul\":11651:11671   */\n      sub\n        /* \"#utility.yul\":11647:11648   */\n      0x00\n        /* \"#utility.yul\":11636:11645   */\n      dup4\n        /* \"#utility.yul\":11632:11649   */\n      add\n        /* \"#utility.yul\":11625:11672   */\n      mstore\n        /* \"#utility.yul\":11689:11820   */\n      tag_348\n        /* \"#utility.yul\":11815:11819   */\n      dup2\n        /* \"#utility.yul\":11689:11820   */\n      tag_205\n      jump\t// in\n    tag_348:\n        /* \"#utility.yul\":11681:11820   */\n      swap1\n      pop\n        /* \"#utility.yul\":11408:11827   */\n      swap2\n      swap1\n      pop\n      jump\t// out\n        /* \"#utility.yul\":11833:12003   */\n    tag_206:\n        /* \"#utility.yul\":11973:11995   */\n      0x496e73756666696369656e742062616c616e6365000000000000000000000000\n        /* \"#utility.yul\":11969:11970   */\n      0x00\n        /* \"#utility.yul\":11961:11967   */\n      dup3\n        /* \"#utility.yul\":11957:11971   */\n      add\n        /* \"#utility.yul\":11950:11996   */\n      mstore\n        /* \"#utility.yul\":11833:12003   */\n      pop\n      jump\t// out\n        /* \"#utility.yul\":12009:12375   */\n    tag_207:\n        /* \"#utility.yul\":12151:12154   */\n      0x00\n        /* \"#utility.yul\":12172:12239   */\n      tag_351\n        /* \"#utility.yul\":12236:12238   */\n      0x14\n        /* \"#utility.yul\":12231:12234   */\n      dup4\n        /* \"#utility.yul\":12172:12239   */\n      tag_171\n      jump\t// in\n    tag_351:\n        /* \"#utility.yul\":12165:12239   */\n      swap2\n      pop\n        /* \"#utility.yul\":12248:12341   */\n      tag_352\n        /* \"#utility.yul\":12337:12340   */\n      dup3\n        /* \"#utility.yul\":12248:12341   */\n      tag_206\n      jump\t// in\n    tag_352:\n        /* \"#utility.yul\":12366:12368   */\n      0x20\n        /* \"#utility.yul\":12361:12364   */\n      dup3\n        /* \"#utility.yul\":12357:12369   */\n      add\n        /* \"#utility.yul\":12350:12369   */\n      swap1\n      pop\n        /* \"#utility.yul\":12009:12375   */\n      swap2\n      swap1\n      pop\n      jump\t// out\n        /* \"#utility.yul\":12381:12800   */\n    tag_129:\n        /* \"#utility.yul\":12547:12551   */\n      0x00\n        /* \"#utility.yul\":12585:12587   */\n      0x20\n        /* \"#utility.yul\":12574:12583   */\n      dup3\n        /* \"#utility.yul\":12570:12588   */\n      add\n        /* \"#utility.yul\":12562:12588   */\n      swap1\n      pop\n        /* \"#utility.yul\":12634:12643   */\n      dup2\n        /* \"#utility.yul\":12628:12632   */\n      dup2\n        /* \"#utility.yul\":12624:12644   */\n      sub\n        /* \"#utility.yul\":12620:12621   */\n      0x00\n        /* \"#utility.yul\":12609:12618   */\n      dup4\n        /* \"#utility.yul\":12605:12622   */\n      add\n        /* \"#utility.yul\":12598:12645   */\n      mstore\n        /* \"#utility.yul\":12662:12793   */\n      tag_354\n        /* \"#utility.yul\":12788:12792   */\n      dup2\n        /* \"#utility.yul\":12662:12793   */\n      tag_207\n      jump\t// in\n    tag_354:\n        /* \"#utility.yul\":12654:12793   */\n      swap1\n      pop\n        /* \"#utility.yul\":12381:12800   */\n      swap2\n      swap1\n      pop\n      jump\t// out\n        /* \"#utility.yul\":12806:12986   */\n    tag_208:\n        /* \"#utility.yul\":12854:12931   */\n      0x4e487b7100000000000000000000000000000000000000000000000000000000\n        /* \"#utility.yul\":12851:12852   */\n      0x00\n        /* \"#utility.yul\":12844:12932   */\n      mstore\n        /* \"#utility.yul\":12951:12955   */\n      0x12\n        /* \"#utility.yul\":12948:12949   */\n      0x04\n        /* \"#utility.yul\":12941:12956   */\n      mstore\n        /* \"#utility.yul\":12975:12979   */\n      0x24\n        /* \"#utility.yul\":12972:12973   */\n      0x00\n        /* \"#utility.yul\":12965:12980   */\n      revert\n        /* \"#utility.yul\":12992:13172   */\n    tag_209:\n        /* \"#utility.yul\":13040:13117   */\n      0x4e487b7100000000000000000000000000000000000000000000000000000000\n        /* \"#utility.yul\":13037:13038   */\n      0x00\n        /* \"#utility.yul\":13030:13118   */\n      mstore\n        /* \"#utility.yul\":13137:13141   */\n      0x11\n        /* \"#utility.yul\":13134:13135   */\n      0x04\n        /* \"#utility.yul\":13127:13142   */\n      mstore\n        /* \"#utility.yul\":13161:13165   */\n      0x24\n        /* \"#utility.yul\":13158:13159   */\n      0x00\n        /* \"#utility.yul\":13151:13166   */\n      revert\n        /* \"#utility.yul\":13178:13363   */\n    tag_138:\n        /* \"#utility.yul\":13218:13219   */\n      0x00\n        /* \"#utility.yul\":13235:13255   */\n      tag_358\n        /* \"#utility.yul\":13253:13254   */\n      dup3\n        /* \"#utility.yul\":13235:13255   */\n      tag_182\n      jump\t// in\n    tag_358:\n        /* \"#utility.yul\":13230:13255   */\n      swap2\n      pop\n        /* \"#utility.yul\":13269:13289   */\n      tag_359\n        /* \"#utility.yul\":13287:13288   */\n      dup4\n        /* \"#utility.yul\":13269:13289   */\n      tag_182\n      jump\t// in\n    tag_359:\n        /* \"#utility.yul\":13264:13289   */\n      swap3\n      pop\n        /* \"#utility.yul\":13308:13309   */\n      dup3\n        /* \"#utility.yul\":13298:13333   */\n      tag_360\n      jumpi\n        /* \"#utility.yul\":13313:13331   */\n      tag_361\n      tag_208\n      jump\t// in\n    tag_361:\n        /* \"#utility.yul\":13298:13333   */\n    tag_360:\n        /* \"#utility.yul\":13355:13356   */\n      dup3\n        /* \"#utility.yul\":13352:13353   */\n      dup3\n        /* \"#utility.yul\":13348:13357   */\n      div\n        /* \"#utility.yul\":13343:13357   */\n      swap1\n      pop\n        /* \"#utility.yul\":13178:13363   */\n      swap3\n      swap2\n      pop\n      pop\n      jump\t// out\n        /* \"#utility.yul\":13369:13537   */\n    tag_210:\n        /* \"#utility.yul\":13509:13529   */\n      0x446f6e2774206f776e206d616a6f726974790000000000000000000000000000\n        /* \"#utility.yul\":13505:13506   */\n      0x00\n        /* \"#utility.yul\":13497:13503   */\n      dup3\n        /* \"#utility.yul\":13493:13507   */\n      add\n        /* \"#utility.yul\":13486:13530   */\n      mstore\n        /* \"#utility.yul\":13369:13537   */\n      pop\n      jump\t// out\n        /* \"#utility.yul\":13543:13909   */\n    tag_211:\n        /* \"#utility.yul\":13685:13688   */\n      0x00\n        /* \"#utility.yul\":13706:13773   */\n      tag_364\n        /* \"#utility.yul\":13770:13772   */\n      0x12\n        /* \"#utility.yul\":13765:13768   */\n      dup4\n        /* \"#utility.yul\":13706:13773   */\n      tag_171\n      jump\t// in\n    tag_364:\n        /* \"#utility.yul\":13699:13773   */\n      swap2\n      pop\n        /* \"#utility.yul\":13782:13875   */\n      tag_365\n        /* \"#utility.yul\":13871:13874   */\n      dup3\n        /* \"#utility.yul\":13782:13875   */\n      tag_210\n      jump\t// in\n    tag_365:\n        /* \"#utility.yul\":13900:13902   */\n      0x20\n        /* \"#utility.yul\":13895:13898   */\n      dup3\n        /* \"#utility.yul\":13891:13903   */\n      add\n        /* \"#utility.yul\":13884:13903   */\n      swap1\n      pop\n        /* \"#utility.yul\":13543:13909   */\n      swap2\n      swap1\n      pop\n      jump\t// out\n        /* \"#utility.yul\":13915:14334   */\n    tag_141:\n        /* \"#utility.yul\":14081:14085   */\n      0x00\n        /* \"#utility.yul\":14119:14121   */\n      0x20\n        /* \"#utility.yul\":14108:14117   */\n      dup3\n        /* \"#utility.yul\":14104:14122   */\n      add\n        /* \"#utility.yul\":14096:14122   */\n      swap1\n      pop\n        /* \"#utility.yul\":14168:14177   */\n      dup2\n        /* \"#utility.yul\":14162:14166   */\n      dup2\n        /* \"#utility.yul\":14158:14178   */\n      sub\n        /* \"#utility.yul\":14154:14155   */\n      0x00\n        /* \"#utility.yul\":14143:14152   */\n      dup4\n        /* \"#utility.yul\":14139:14156   */\n      add\n        /* \"#utility.yul\":14132:14179   */\n      mstore\n        /* \"#utility.yul\":14196:14327   */\n      tag_367\n        /* \"#utility.yul\":14322:14326   */\n      dup2\n        /* \"#utility.yul\":14196:14327   */\n      tag_211\n      jump\t// in\n    tag_367:\n        /* \"#utility.yul\":14188:14327   */\n      swap1\n      pop\n        /* \"#utility.yul\":13915:14334   */\n      swap2\n      swap1\n      pop\n      jump\t// out\n        /* \"#utility.yul\":14340:14481   */\n    tag_212:\n        /* \"#utility.yul\":14389:14393   */\n      0x00\n        /* \"#utility.yul\":14412:14415   */\n      dup2\n        /* \"#utility.yul\":14404:14415   */\n      swap1\n      pop\n        /* \"#utility.yul\":14435:14438   */\n      dup2\n        /* \"#utility.yul\":14432:14433   */\n      0x00\n        /* \"#utility.yul\":14425:14439   */\n      mstore\n        /* \"#utility.yul\":14469:14473   */\n      0x20\n        /* \"#utility.yul\":14466:14467   */\n      0x00\n        /* \"#utility.yul\":14456:14474   */\n      keccak256\n        /* \"#utility.yul\":14448:14474   */\n      swap1\n      pop\n        /* \"#utility.yul\":14340:14481   */\n      swap2\n      swap1\n      pop\n      jump\t// out\n        /* \"#utility.yul\":14487:14580   */\n    tag_213:\n        /* \"#utility.yul\":14524:14530   */\n      0x00\n        /* \"#utility.yul\":14571:14573   */\n      0x20\n        /* \"#utility.yul\":14566:14568   */\n      0x1f\n        /* \"#utility.yul\":14559:14564   */\n      dup4\n        /* \"#utility.yul\":14555:14569   */\n      add\n        /* \"#utility.yul\":14551:14574   */\n      div\n        /* \"#utility.yul\":14541:14574   */\n      swap1\n      pop\n        /* \"#utility.yul\":14487:14580   */\n      swap2\n      swap1\n      pop\n      jump\t// out\n        /* \"#utility.yul\":14586:14693   */\n    tag_214:\n        /* \"#utility.yul\":14630:14638   */\n      0x00\n        /* \"#utility.yul\":14680:14685   */\n      dup3\n        /* \"#utility.yul\":14674:14678   */\n      dup3\n        /* \"#utility.yul\":14670:14686   */\n      shl\n        /* \"#utility.yul\":14649:14686   */\n      swap1\n      pop\n        /* \"#utility.yul\":14586:14693   */\n      swap3\n      swap2\n      pop\n      pop\n      jump\t// out\n        /* \"#utility.yul\":14699:15092   */\n    tag_215:\n        /* \"#utility.yul\":14768:14774   */\n      0x00\n        /* \"#utility.yul\":14818:14819   */\n      0x08\n        /* \"#utility.yul\":14806:14816   */\n      dup4\n        /* \"#utility.yul\":14802:14820   */\n      mul\n        /* \"#utility.yul\":14841:14938   */\n      tag_372\n        /* \"#utility.yul\":14871:14937   */\n      0xffffffffffffffffffffffffffffffffffffffffffffffffffffffffffffffff\n        /* \"#utility.yul\":14860:14869   */\n      dup3\n        /* \"#utility.yul\":14841:14938   */\n      tag_214\n      jump\t// in\n    tag_372:\n        /* \"#utility.yul\":14959:14998   */\n      tag_373\n        /* \"#utility.yul\":14989:14997   */\n      dup7\n        /* \"#utility.yul\":14978:14987   */\n      dup4\n        /* \"#utility.yul\":14959:14998   */\n      tag_214\n      jump\t// in\n    tag_373:\n        /* \"#utility.yul\":14947:14998   */\n      swap6\n      pop\n        /* \"#utility.yul\":15031:15035   */\n      dup1\n        /* \"#utility.yul\":15027:15036   */\n      not\n        /* \"#utility.yul\":15020:15025   */\n      dup5\n        /* \"#utility.yul\":15016:15037   */\n      and\n        /* \"#utility.yul\":15007:15037   */\n      swap4\n      pop\n        /* \"#utility.yul\":15080:15084   */\n      dup1\n        /* \"#utility.yul\":15070:15078   */\n      dup7\n        /* \"#utility.yul\":15066:15085   */\n      and\n        /* \"#utility.yul\":15059:15064   */\n      dup5\n        /* \"#utility.yul\":15056:15086   */\n      or\n        /* \"#utility.yul\":15046:15086   */\n      swap3\n      pop\n        /* \"#utility.yul\":14775:15092   */\n      pop\n      pop\n        /* \"#utility.yul\":14699:15092   */\n      swap4\n      swap3\n      pop\n      pop\n      pop\n      jump\t// out\n        /* \"#utility.yul\":15098:15158   */\n    tag_216:\n        /* \"#utility.yul\":15126:15129   */\n      0x00\n        /* \"#utility.yul\":15147:15152   */\n      dup2\n        /* \"#utility.yul\":15140:15152   */\n      swap1\n      pop\n        /* \"#utility.yul\":15098:15158   */\n      swap2\n      swap1\n      pop\n      jump\t// out\n        /* \"#utility.yul\":15164:15306   */\n    tag_217:\n        /* \"#utility.yul\":15214:15223   */\n      0x00\n        /* \"#utility.yul\":15247:15300   */\n      tag_376\n        /* \"#utility.yul\":15265:15299   */\n      tag_377\n        /* \"#utility.yul\":15274:15298   */\n      tag_378\n        /* \"#utility.yul\":15292:15297   */\n      dup5\n        /* \"#utility.yul\":15274:15298   */\n      tag_182\n      jump\t// in\n    tag_378:\n        /* \"#utility.yul\":15265:15299   */\n      tag_216\n      jump\t// in\n    tag_377:\n        /* \"#utility.yul\":15247:15300   */\n      tag_182\n      jump\t// in\n    tag_376:\n        /* \"#utility.yul\":15234:15300   */\n      swap1\n      pop\n        /* \"#utility.yul\":15164:15306   */\n      swap2\n      swap1\n      pop\n      jump\t// out\n        /* \"#utility.yul\":15312:15387   */\n    tag_218:\n        /* \"#utility.yul\":15355:15358   */\n      0x00\n        /* \"#utility.yul\":15376:15381   */\n      dup2\n        /* \"#utility.yul\":15369:15381   */\n      swap1\n      pop\n        /* \"#utility.yul\":15312:15387   */\n      swap2\n      swap1\n      pop\n      jump\t// out\n        /* \"#utility.yul\":15393:15662   */\n    tag_219:\n        /* \"#utility.yul\":15503:15542   */\n      tag_381\n        /* \"#utility.yul\":15534:15541   */\n      dup4\n        /* \"#utility.yul\":15503:15542   */\n      tag_217\n      jump\t// in\n    tag_381:\n        /* \"#utility.yul\":15564:15655   */\n      tag_382\n        /* \"#utility.yul\":15613:15654   */\n      tag_383\n        /* \"#utility.yul\":15637:15653   */\n      dup3\n        /* \"#utility.yul\":15613:15654   */\n      tag_218\n      jump\t// in\n    tag_383:\n        /* \"#utility.yul\":15605:15611   */\n      dup5\n        /* \"#utility.yul\":15598:15602   */\n      dup5\n        /* \"#utility.yul\":15592:15603   */\n      sload\n        /* \"#utility.yul\":15564:15655   */\n      tag_215\n      jump\t// in\n    tag_382:\n        /* \"#utility.yul\":15558:15562   */\n      dup3\n        /* \"#utility.yul\":15551:15656   */\n      sstore\n        /* \"#utility.yul\":15469:15662   */\n      pop\n        /* \"#utility.yul\":15393:15662   */\n      pop\n      pop\n      pop\n      jump\t// out\n        /* \"#utility.yul\":15668:15741   */\n    tag_220:\n        /* \"#utility.yul\":15713:15716   */\n      0x00\n        /* \"#utility.yul\":15668:15741   */\n      swap1\n      jump\t// out\n        /* \"#utility.yul\":15747:15936   */\n    tag_221:\n        /* \"#utility.yul\":15824:15856   */\n      tag_386\n      tag_220\n      jump\t// in\n    tag_386:\n        /* \"#utility.yul\":15865:15930   */\n      tag_387\n        /* \"#utility.yul\":15923:15929   */\n      dup2\n        /* \"#utility.yul\":15915:15921   */\n      dup5\n        /* \"#utility.yul\":15909:15913   */\n      dup5\n        /* \"#utility.yul\":15865:15930   */\n      tag_219\n      jump\t// in\n    tag_387:\n        /* \"#utility.yul\":15800:15936   */\n      pop\n        /* \"#utility.yul\":15747:15936   */\n      pop\n      pop\n      jump\t// out\n        /* \"#utility.yul\":15942:16128   */\n    tag_222:\n        /* \"#utility.yul\":16002:16122   */\n    tag_389:\n        /* \"#utility.yul\":16019:16022   */\n      dup2\n        /* \"#utility.yul\":16012:16017   */\n      dup2\n        /* \"#utility.yul\":16009:16023   */\n      lt\n        /* \"#utility.yul\":16002:16122   */\n      iszero\n      tag_391\n      jumpi\n        /* \"#utility.yul\":16073:16112   */\n      tag_392\n        /* \"#utility.yul\":16110:16111   */\n      0x00\n        /* \"#utility.yul\":16103:16108   */\n      dup3\n        /* \"#utility.yul\":16073:16112   */\n      tag_221\n      jump\t// in\n    tag_392:\n        /* \"#utility.yul\":16046:16047   */\n      0x01\n        /* \"#utility.yul\":16039:16044   */\n      dup2\n        /* \"#utility.yul\":16035:16048   */\n      add\n        /* \"#utility.yul\":16026:16048   */\n      swap1\n      pop\n        /* \"#utility.yul\":16002:16122   */\n      jump(tag_389)\n    tag_391:\n        /* \"#utility.yul\":15942:16128   */\n      pop\n      pop\n      jump\t// out\n        /* \"#utility.yul\":16134:16677   */\n    tag_223:\n        /* \"#utility.yul\":16235:16237   */\n      0x1f\n        /* \"#utility.yul\":16230:16233   */\n      dup3\n        /* \"#utility.yul\":16227:16238   */\n      gt\n        /* \"#utility.yul\":16224:16670   */\n      iszero\n      tag_394\n      jumpi\n        /* \"#utility.yul\":16269:16307   */\n      tag_395\n        /* \"#utility.yul\":16301:16306   */\n      dup2\n        /* \"#utility.yul\":16269:16307   */\n      tag_212\n      jump\t// in\n    tag_395:\n        /* \"#utility.yul\":16353:16382   */\n      tag_396\n        /* \"#utility.yul\":16371:16381   */\n      dup5\n        /* \"#utility.yul\":16353:16382   */\n      tag_213\n      jump\t// in\n    tag_396:\n        /* \"#utility.yul\":16343:16351   */\n      dup2\n        /* \"#utility.yul\":16339:16383   */\n      add\n        /* \"#utility.yul\":16536:16538   */\n      0x20\n        /* \"#utility.yul\":16524:16534   */\n      dup6\n        /* \"#utility.yul\":16521:16539   */\n      lt\n        /* \"#utility.yul\":16518:16567   */\n      iszero\n      tag_397\n      jumpi\n        /* \"#utility.yul\":16557:16565   */\n      dup2\n        /* \"#utility.yul\":16542:16565   */\n      swap1\n      pop\n        /* \"#utility.yul\":16518:16567   */\n    tag_397:\n        /* \"#utility.yul\":16580:16660   */\n      tag_398\n        /* \"#utility.yul\":16636:16658   */\n      tag_399\n        /* \"#utility.yul\":16654:16657   */\n      dup6\n        /* \"#utility.yul\":16636:16658   */\n      tag_213\n      jump\t// in\n    tag_399:\n        /* \"#utility.yul\":16626:16634   */\n      dup4\n        /* \"#utility.yul\":16622:16659   */\n      add\n        /* \"#utility.yul\":16609:16620   */\n      dup3\n        /* \"#utility.yul\":16580:16660   */\n      tag_222\n      jump\t// in\n    tag_398:\n        /* \"#utility.yul\":16239:16670   */\n      pop\n      pop\n        /* \"#utility.yul\":16224:16670   */\n    tag_394:\n        /* \"#utility.yul\":16134:16677   */\n      pop\n      pop\n      pop\n      jump\t// out\n        /* \"#utility.yul\":16683:16800   */\n    tag_224:\n        /* \"#utility.yul\":16737:16745   */\n      0x00\n        /* \"#utility.yul\":16787:16792   */\n      dup3\n        /* \"#utility.yul\":16781:16785   */\n      dup3\n        /* \"#utility.yul\":16777:16793   */\n      shr\n        /* \"#utility.yul\":16756:16793   */\n      swap1\n      pop\n        /* \"#utility.yul\":16683:16800   */\n      swap3\n      swap2\n      pop\n      pop\n      jump\t// out\n        /* \"#utility.yul\":16806:16975   */\n    tag_225:\n        /* \"#utility.yul\":16850:16856   */\n      0x00\n        /* \"#utility.yul\":16883:16934   */\n      tag_402\n        /* \"#utility.yul\":16931:16932   */\n      0x00\n        /* \"#utility.yul\":16927:16933   */\n      not\n        /* \"#utility.yul\":16919:16924   */\n      dup5\n        /* \"#utility.yul\":16916:16917   */\n      0x08\n        /* \"#utility.yul\":16912:16925   */\n      mul\n        /* \"#utility.yul\":16883:16934   */\n      tag_224\n      jump\t// in\n    tag_402:\n        /* \"#utility.yul\":16879:16935   */\n      not\n        /* \"#utility.yul\":16964:16968   */\n      dup1\n        /* \"#utility.yul\":16958:16962   */\n      dup4\n        /* \"#utility.yul\":16954:16969   */\n      and\n        /* \"#utility.yul\":16944:16969   */\n      swap2\n      pop\n        /* \"#utility.yul\":16857:16975   */\n      pop\n        /* \"#utility.yul\":16806:16975   */\n      swap3\n      swap2\n      pop\n      pop\n      jump\t// out\n        /* \"#utility.yul\":16980:17275   */\n    tag_226:\n        /* \"#utility.yul\":17056:17060   */\n      0x00\n        /* \"#utility.yul\":17202:17231   */\n      tag_404\n        /* \"#utility.yul\":17227:17230   */\n      dup4\n        /* \"#utility.yul\":17221:17225   */\n      dup4\n        /* \"#utility.yul\":17202:17231   */\n      tag_225\n      jump\t// in\n    tag_404:\n        /* \"#utility.yul\":17194:17231   */\n      swap2\n      pop\n        /* \"#utility.yul\":17264:17267   */\n      dup3\n        /* \"#utility.yul\":17261:17262   */\n      0x02\n        /* \"#utility.yul\":17257:17268   */\n      mul\n        /* \"#utility.yul\":17251:17255   */\n      dup3\n        /* \"#utility.yul\":17248:17269   */\n      or\n        /* \"#utility.yul\":17240:17269   */\n      swap1\n      pop\n        /* \"#utility.yul\":16980:17275   */\n      swap3\n      swap2\n      pop\n      pop\n      jump\t// out\n        /* \"#utility.yul\":17280:18675   */\n    tag_145:\n        /* \"#utility.yul\":17397:17434   */\n      tag_406\n        /* \"#utility.yul\":17430:17433   */\n      dup3\n        /* \"#utility.yul\":17397:17434   */\n      tag_170\n      jump\t// in\n    tag_406:\n        /* \"#utility.yul\":17499:17517   */\n      0xffffffffffffffff\n        /* \"#utility.yul\":17491:17497   */\n      dup2\n        /* \"#utility.yul\":17488:17518   */\n      gt\n        /* \"#utility.yul\":17485:17541   */\n      iszero\n      tag_407\n      jumpi\n        /* \"#utility.yul\":17521:17539   */\n      tag_408\n      tag_192\n      jump\t// in\n    tag_408:\n        /* \"#utility.yul\":17485:17541   */\n    tag_407:\n        /* \"#utility.yul\":17565:17603   */\n      tag_409\n        /* \"#utility.yul\":17597:17601   */\n      dup3\n        /* \"#utility.yul\":17591:17602   */\n      sload\n        /* \"#utility.yul\":17565:17603   */\n      tag_84\n      jump\t// in\n    tag_409:\n        /* \"#utility.yul\":17650:17717   */\n      tag_410\n        /* \"#utility.yul\":17710:17716   */\n      dup3\n        /* \"#utility.yul\":17702:17708   */\n      dup3\n        /* \"#utility.yul\":17696:17700   */\n      dup6\n        /* \"#utility.yul\":17650:17717   */\n      tag_223\n      jump\t// in\n    tag_410:\n        /* \"#utility.yul\":17744:17745   */\n      0x00\n        /* \"#utility.yul\":17768:17772   */\n      0x20\n        /* \"#utility.yul\":17755:17772   */\n      swap1\n      pop\n        /* \"#utility.yul\":17800:17802   */\n      0x1f\n        /* \"#utility.yul\":17792:17798   */\n      dup4\n        /* \"#utility.yul\":17789:17803   */\n      gt\n        /* \"#utility.yul\":17817:17818   */\n      0x01\n        /* \"#utility.yul\":17812:18430   */\n      dup2\n      eq\n      tag_412\n      jumpi\n        /* \"#utility.yul\":18474:18475   */\n      0x00\n        /* \"#utility.yul\":18491:18497   */\n      dup5\n        /* \"#utility.yul\":18488:18565   */\n      iszero\n      tag_413\n      jumpi\n        /* \"#utility.yul\":18540:18549   */\n      dup3\n        /* \"#utility.yul\":18535:18538   */\n      dup8\n        /* \"#utility.yul\":18531:18550   */\n      add\n        /* \"#utility.yul\":18525:18551   */\n      mload\n        /* \"#utility.yul\":18516:18551   */\n      swap1\n      pop\n        /* \"#utility.yul\":18488:18565   */\n    tag_413:\n        /* \"#utility.yul\":18591:18658   */\n      tag_414\n        /* \"#utility.yul\":18651:18657   */\n      dup6\n        /* \"#utility.yul\":18644:18649   */\n      dup3\n        /* \"#utility.yul\":18591:18658   */\n      tag_226\n      jump\t// in\n    tag_414:\n        /* \"#utility.yul\":18585:18589   */\n      dup7\n        /* \"#utility.yul\":18578:18659   */\n      sstore\n        /* \"#utility.yul\":18447:18669   */\n      pop\n        /* \"#utility.yul\":17782:18669   */\n      jump(tag_411)\n        /* \"#utility.yul\":17812:18430   */\n    tag_412:\n        /* \"#utility.yul\":17864:17868   */\n      0x1f\n        /* \"#utility.yul\":17860:17869   */\n      not\n        /* \"#utility.yul\":17852:17858   */\n      dup5\n        /* \"#utility.yul\":17848:17870   */\n      and\n        /* \"#utility.yul\":17898:17935   */\n      tag_415\n        /* \"#utility.yul\":17930:17934   */\n      dup7\n        /* \"#utility.yul\":17898:17935   */\n      tag_212\n      jump\t// in\n    tag_415:\n        /* \"#utility.yul\":17957:17958   */\n      0x00\n        /* \"#utility.yul\":17971:18179   */\n    tag_416:\n        /* \"#utility.yul\":17985:17992   */\n      dup3\n        /* \"#utility.yul\":17982:17983   */\n      dup2\n        /* \"#utility.yul\":17979:17993   */\n      lt\n        /* \"#utility.yul\":17971:18179   */\n      iszero\n      tag_418\n      jumpi\n        /* \"#utility.yul\":18064:18073   */\n      dup5\n        /* \"#utility.yul\":18059:18062   */\n      dup10\n        /* \"#utility.yul\":18055:18074   */\n      add\n        /* \"#utility.yul\":18049:18075   */\n      mload\n        /* \"#utility.yul\":18041:18047   */\n      dup3\n        /* \"#utility.yul\":18034:18076   */\n      sstore\n        /* \"#utility.yul\":18115:18116   */\n      0x01\n        /* \"#utility.yul\":18107:18113   */\n      dup3\n        /* \"#utility.yul\":18103:18117   */\n      add\n        /* \"#utility.yul\":18093:18117   */\n      swap2\n      pop\n        /* \"#utility.yul\":18162:18164   */\n      0x20\n        /* \"#utility.yul\":18151:18160   */\n      dup6\n        /* \"#utility.yul\":18147:18165   */\n      add\n        /* \"#utility.yul\":18134:18165   */\n      swap5\n      pop\n        /* \"#utility.yul\":18008:18012   */\n      0x20\n        /* \"#utility.yul\":18005:18006   */\n      dup2\n        /* \"#utility.yul\":18001:18013   */\n      add\n        /* \"#utility.yul\":17996:18013   */\n      swap1\n      pop\n        /* \"#utility.yul\":17971:18179   */\n      jump(tag_416)\n    tag_418:\n        /* \"#utility.yul\":18207:18213   */\n      dup7\n        /* \"#utility.yul\":18198:18205   */\n      dup4\n        /* \"#utility.yul\":18195:18214   */\n      lt\n        /* \"#utility.yul\":18192:18371   */\n      iszero\n      tag_419\n      jumpi\n        /* \"#utility.yul\":18265:18274   */\n      dup5\n        /* \"#utility.yul\":18260:18263   */\n      dup10\n        /* \"#utility.yul\":18256:18275   */\n      add\n        /* \"#utility.yul\":18250:18276   */\n      mload\n        /* \"#utility.yul\":18308:18356   */\n      tag_420\n        /* \"#utility.yul\":18350:18354   */\n      0x1f\n        /* \"#utility.yul\":18342:18348   */\n      dup10\n        /* \"#utility.yul\":18338:18355   */\n      and\n        /* \"#utility.yul\":18327:18336   */\n      dup3\n        /* \"#utility.yul\":18308:18356   */\n      tag_225\n      jump\t// in\n    tag_420:\n        /* \"#utility.yul\":18300:18306   */\n      dup4\n        /* \"#utility.yul\":18293:18357   */\n      sstore\n        /* \"#utility.yul\":18215:18371   */\n      pop\n        /* \"#utility.yul\":18192:18371   */\n    tag_419:\n        /* \"#utility.yul\":18417:18418   */\n      0x01\n        /* \"#utility.yul\":18413:18414   */\n      0x02\n        /* \"#utility.yul\":18405:18411   */\n      dup9\n        /* \"#utility.yul\":18401:18415   */\n      mul\n        /* \"#utility.yul\":18397:18419   */\n      add\n        /* \"#utility.yul\":18391:18395   */\n      dup9\n        /* \"#utility.yul\":18384:18420   */\n      sstore\n        /* \"#utility.yul\":17819:18430   */\n      pop\n      pop\n      pop\n        /* \"#utility.yul\":17782:18669   */\n    tag_411:\n      pop\n        /* \"#utility.yul\":17372:18675   */\n      pop\n      pop\n      pop\n        /* \"#utility.yul\":17280:18675   */\n      pop\n      pop\n      jump\t// out\n        /* \"#utility.yul\":18681:18875   */\n    tag_149:\n        /* \"#utility.yul\":18721:18725   */\n      0x00\n        /* \"#utility.yul\":18741:18761   */\n      tag_422\n        /* \"#utility.yul\":18759:18760   */\n      dup3\n        /* \"#utility.yul\":18741:18761   */\n      tag_182\n      jump\t// in\n    tag_422:\n        /* \"#utility.yul\":18736:18761   */\n      swap2\n      pop\n        /* \"#utility.yul\":18775:18795   */\n      tag_423\n        /* \"#utility.yul\":18793:18794   */\n      dup4\n        /* \"#utility.yul\":18775:18795   */\n      tag_182\n      jump\t// in\n    tag_423:\n        /* \"#utility.yul\":18770:18795   */\n      swap3\n      pop\n        /* \"#utility.yul\":18819:18820   */\n      dup3\n        /* \"#utility.yul\":18816:18817   */\n      dup3\n        /* \"#utility.yul\":18812:18821   */\n      sub\n        /* \"#utility.yul\":18804:18821   */\n      swap1\n      pop\n        /* \"#utility.yul\":18843:18844   */\n      dup2\n        /* \"#utility.yul\":18837:18841   */\n      dup2\n        /* \"#utility.yul\":18834:18845   */\n      gt\n        /* \"#utility.yul\":18831:18868   */\n      iszero\n      tag_424\n      jumpi\n        /* \"#utility.yul\":18848:18866   */\n      tag_425\n      tag_209\n      jump\t// in\n    tag_425:\n        /* \"#utility.yul\":18831:18868   */\n    tag_424:\n        /* \"#utility.yul\":18681:18875   */\n      swap3\n      swap2\n      pop\n      pop\n      jump\t// out\n        /* \"#utility.yul\":18881:19052   */\n    tag_227:\n        /* \"#utility.yul\":19021:19044   */\n      0x64732d6d6174682d7375622d756e646572666c6f770000000000000000000000\n        /* \"#utility.yul\":19017:19018   */\n      0x00\n        /* \"#utility.yul\":19009:19015   */\n      dup3\n        /* \"#utility.yul\":19005:19019   */\n      add\n        /* \"#utility.yul\":18998:19045   */\n      mstore\n        /* \"#utility.yul\":18881:19052   */\n      pop\n      jump\t// out\n        /* \"#utility.yul\":19058:19424   */\n    tag_228:\n        /* \"#utility.yul\":19200:19203   */\n      0x00\n        /* \"#utility.yul\":19221:19288   */\n      tag_428\n        /* \"#utility.yul\":19285:19287   */\n      0x15\n        /* \"#utility.yul\":19280:19283   */\n      dup4\n        /* \"#utility.yul\":19221:19288   */\n      tag_171\n      jump\t// in\n    tag_428:\n        /* \"#utility.yul\":19214:19288   */\n      swap2\n      pop\n        /* \"#utility.yul\":19297:19390   */\n      tag_429\n        /* \"#utility.yul\":19386:19389   */\n      dup3\n        /* \"#utility.yul\":19297:19390   */\n      tag_227\n      jump\t// in\n    tag_429:\n        /* \"#utility.yul\":19415:19417   */\n      0x20\n        /* \"#utility.yul\":19410:19413   */\n      dup3\n        /* \"#utility.yul\":19406:19418   */\n      add\n        /* \"#utility.yul\":19399:19418   */\n      swap1\n      pop\n        /* \"#utility.yul\":19058:19424   */\n      swap2\n      swap1\n      pop\n      jump\t// out\n        /* \"#utility.yul\":19430:19849   */\n    tag_152:\n        /* \"#utility.yul\":19596:19600   */\n      0x00\n        /* \"#utility.yul\":19634:19636   */\n      0x20\n        /* \"#utility.yul\":19623:19632   */\n      dup3\n        /* \"#utility.yul\":19619:19637   */\n      add\n        /* \"#utility.yul\":19611:19637   */\n      swap1\n      pop\n        /* \"#utility.yul\":19683:19692   */\n      dup2\n        /* \"#utility.yul\":19677:19681   */\n      dup2\n        /* \"#utility.yul\":19673:19693   */\n      sub\n        /* \"#utility.yul\":19669:19670   */\n      0x00\n        /* \"#utility.yul\":19658:19667   */\n      dup4\n        /* \"#utility.yul\":19654:19671   */\n      add\n        /* \"#utility.yul\":19647:19694   */\n      mstore\n        /* \"#utility.yul\":19711:19842   */\n      tag_431\n        /* \"#utility.yul\":19837:19841   */\n      dup2\n        /* \"#utility.yul\":19711:19842   */\n      tag_228\n      jump\t// in\n    tag_431:\n        /* \"#utility.yul\":19703:19842   */\n      swap1\n      pop\n        /* \"#utility.yul\":19430:19849   */\n      swap2\n      swap1\n      pop\n      jump\t// out\n        /* \"#utility.yul\":19855:20046   */\n    tag_159:\n        /* \"#utility.yul\":19895:19898   */\n      0x00\n        /* \"#utility.yul\":19914:19934   */\n      tag_433\n        /* \"#utility.yul\":19932:19933   */\n      dup3\n        /* \"#utility.yul\":19914:19934   */\n      tag_182\n      jump\t// in\n    tag_433:\n        /* \"#utility.yul\":19909:19934   */\n      swap2\n      pop\n        /* \"#utility.yul\":19948:19968   */\n      tag_434\n        /* \"#utility.yul\":19966:19967   */\n      dup4\n        /* \"#utility.yul\":19948:19968   */\n      tag_182\n      jump\t// in\n    tag_434:\n        /* \"#utility.yul\":19943:19968   */\n      swap3\n      pop\n        /* \"#utility.yul\":19991:19992   */\n      dup3\n        /* \"#utility.yul\":19988:19989   */\n      dup3\n        /* \"#utility.yul\":19984:19993   */\n      add\n        /* \"#utility.yul\":19977:19993   */\n      swap1\n      pop\n        /* \"#utility.yul\":20012:20015   */\n      dup1\n        /* \"#utility.yul\":20009:20010   */\n      dup3\n        /* \"#utility.yul\":20006:20016   */\n      gt\n        /* \"#utility.yul\":20003:20039   */\n      iszero\n      tag_435\n      jumpi\n        /* \"#utility.yul\":20019:20037   */\n      tag_436\n      tag_209\n      jump\t// in\n    tag_436:\n        /* \"#utility.yul\":20003:20039   */\n    tag_435:\n        /* \"#utility.yul\":19855:20046   */\n      swap3\n      swap2\n      pop\n      pop\n      jump\t// out\n        /* \"#utility.yul\":20052:20222   */\n    tag_229:\n        /* \"#utility.yul\":20192:20214   */\n      0x64732d6d6174682d6164642d6f766572666c6f77000000000000000000000000\n        /* \"#utility.yul\":20188:20189   */\n      0x00\n        /* \"#utility.yul\":20180:20186   */\n      dup3\n        /* \"#utility.yul\":20176:20190   */\n      add\n        /* \"#utility.yul\":20169:20215   */\n      mstore\n        /* \"#utility.yul\":20052:20222   */\n      pop\n      jump\t// out\n        /* \"#utility.yul\":20228:20594   */\n    tag_230:\n        /* \"#utility.yul\":20370:20373   */\n      0x00\n        /* \"#utility.yul\":20391:20458   */\n      tag_439\n        /* \"#utility.yul\":20455:20457   */\n      0x14\n        /* \"#utility.yul\":20450:20453   */\n      dup4\n        /* \"#utility.yul\":20391:20458   */\n      tag_171\n      jump\t// in\n    tag_439:\n        /* \"#utility.yul\":20384:20458   */\n      swap2\n      pop\n        /* \"#utility.yul\":20467:20560   */\n      tag_440\n        /* \"#utility.yul\":20556:20559   */\n      dup3\n        /* \"#utility.yul\":20467:20560   */\n      tag_229\n      jump\t// in\n    tag_440:\n        /* \"#utility.yul\":20585:20587   */\n      0x20\n        /* \"#utility.yul\":20580:20583   */\n      dup3\n        /* \"#utility.yul\":20576:20588   */\n      add\n        /* \"#utility.yul\":20569:20588   */\n      swap1\n      pop\n        /* \"#utility.yul\":20228:20594   */\n      swap2\n      swap1\n      pop\n      jump\t// out\n        /* \"#utility.yul\":20600:21019   */\n    tag_162:\n        /* \"#utility.yul\":20766:20770   */\n      0x00\n        /* \"#utility.yul\":20804:20806   */\n      0x20\n        /* \"#utility.yul\":20793:20802   */\n      dup3\n        /* \"#utility.yul\":20789:20807   */\n      add\n        /* \"#utility.yul\":20781:20807   */\n      swap1\n      pop\n        /* \"#utility.yul\":20853:20862   */\n      dup2\n        /* \"#utility.yul\":20847:20851   */\n      dup2\n        /* \"#utility.yul\":20843:20863   */\n      sub\n        /* \"#utility.yul\":20839:20840   */\n      0x00\n        /* \"#utility.yul\":20828:20837   */\n      dup4\n        /* \"#utility.yul\":20824:20841   */\n      add\n        /* \"#utility.yul\":20817:20864   */\n      mstore\n        /* \"#utility.yul\":20881:21012   */\n      tag_442\n        /* \"#utility.yul\":21007:21011   */\n      dup2\n        /* \"#utility.yul\":20881:21012   */\n      tag_230\n      jump\t// in\n    tag_442:\n        /* \"#utility.yul\":20873:21012   */\n      swap1\n      pop\n        /* \"#utility.yul\":20600:21019   */\n      swap2\n      swap1\n      pop\n      jump\t// out\n\n    auxdata: 0xa26469706673582212201c2c42572112a84a634ab88a624636674bf1e6a47b11149eeb189ef8ff2945cf64736f6c63430008190033\n}\n",
				"bytecode": {
					"linkReferences": {},
					"object": "60806040526040518060400160405280600a81526020017f4d6174636861436f696e000000000000000000000000000000000000000000008152505f90816100479190610346565b506302625a0060015534801561005b575f80fd5b5060015460025f3373ffffffffffffffffffffffffffffffffffffffff1673ffffffffffffffffffffffffffffffffffffffff1681526020019081526020015f20819055503373ffffffffffffffffffffffffffffffffffffffff165f73ffffffffffffffffffffffffffffffffffffffff167fddf252ad1be2c89b69c2b068fc378daa952ba7f163c4a11628f55a4df523b3ef6001546040516100ff9190610424565b60405180910390a361043d565b5f81519050919050565b7f4e487b71000000000000000000000000000000000000000000000000000000005f52604160045260245ffd5b7f4e487b71000000000000000000000000000000000000000000000000000000005f52602260045260245ffd5b5f600282049050600182168061018757607f821691505b60208210810361019a57610199610143565b5b50919050565b5f819050815f5260205f209050919050565b5f6020601f8301049050919050565b5f82821b905092915050565b5f600883026101fc7fffffffffffffffffffffffffffffffffffffffffffffffffffffffffffffffff826101c1565b61020686836101c1565b95508019841693508086168417925050509392505050565b5f819050919050565b5f819050919050565b5f61024a6102456102408461021e565b610227565b61021e565b9050919050565b5f819050919050565b61026383610230565b61027761026f82610251565b8484546101cd565b825550505050565b5f90565b61028b61027f565b61029681848461025a565b505050565b5b818110156102b9576102ae5f82610283565b60018101905061029c565b5050565b601f8211156102fe576102cf816101a0565b6102d8846101b2565b810160208510156102e7578190505b6102fb6102f3856101b2565b83018261029b565b50505b505050565b5f82821c905092915050565b5f61031e5f1984600802610303565b1980831691505092915050565b5f610336838361030f565b9150826002028217905092915050565b61034f8261010c565b67ffffffffffffffff81111561036857610367610116565b5b6103728254610170565b61037d8282856102bd565b5f60209050601f8311600181146103ae575f841561039c578287015190505b6103a6858261032b565b86555061040d565b601f1984166103bc866101a0565b5f5b828110156103e3578489015182556001820191506020850194506020810190506103be565b8683101561040057848901516103fc601f89168261030f565b8355505b6001600288020188555050505b505050505050565b61041e8161021e565b82525050565b5f6020820190506104375f830184610415565b92915050565b611f8c8061044a5f395ff3fe608060405234801561000f575f80fd5b50600436106100f3575f3560e01c80633be5620e1161009557806395d89b411161006457806395d89b4114610297578063a9059cbb146102b5578063a91f1628146102e5578063dd62ed3e14610315576100f3565b80633be5620e146102115780633eaaf86b1461022d5780636de30c301461024b57806370a0823114610267576100f3565b806314cd78b4116100d157806314cd78b41461017557806318160ddd146101a557806323b872dd146101c3578063313ce567146101f3576100f3565b806306fdde03146100f757806307c629c814610115578063095ea7b314610145575b5f80fd5b6100ff610345565b60405161010c91906114d5565b60405180910390f35b61012f600480360381019061012a9190611593565b6103d0565b60405161013c91906115eb565b60405180910390f35b61015f600480360381019061015a9190611593565b610462565b60405161016c91906115eb565b60405180910390f35b61018f600480360381019061018a9190611604565b6105bd565b60405161019c91906115eb565b60405180910390f35b6101ad610609565b6040516101ba919061163e565b60405180910390f35b6101dd60048036038101906101d89190611657565b610612565b6040516101ea91906115eb565b60405180910390f35b6101fb61086b565b60405161020891906116c2565b60405180910390f35b61022b60048036038101906102269190611593565b610870565b005b610235610ac6565b604051610242919061163e565b60405180910390f35b61026560048036038101906102609190611593565b610acc565b005b610281600480360381019061027c9190611604565b610d22565b60405161028e919061163e565b60405180910390f35b61029f610d68565b6040516102ac91906114d5565b60405180910390f35b6102cf60048036038101906102ca9190611593565b610da1565b6040516102dc91906115eb565b60405180910390f35b6102ff60048036038101906102fa9190611807565b611021565b60405161030c91906115eb565b60405180910390f35b61032f600480360381019061032a9190611861565b611107565b60405161033c919061163e565b60405180910390f35b5f8054610351906118cc565b80601f016020809104026020016040519081016040528092919081815260200182805461037d906118cc565b80156103c85780601f1061039f576101008083540402835291602001916103c8565b820191905f5260205f20905b8154815290600101906020018083116103ab57829003601f168201915b505050505081565b5f6008821115610415576040517f08c379a000000000000000000000000000000000000000000000000000000000815260040161040c9061196c565b60405180910390fd5b5f73ffffffffffffffffffffffffffffffffffffffff168373ffffffffffffffffffffffffffffffffffffffff160361044c575f80fd5b610457338484610612565b506001905092915050565b5f8073ffffffffffffffffffffffffffffffffffffffff168373ffffffffffffffffffffffffffffffffffffffff16036104d1576040517f08c379a00000000000000000000000000000000000000000000000000000000081526004016104c8906119d4565b60405180910390fd5b8160035f3373ffffffffffffffffffffffffffffffffffffffff1673ffffffffffffffffffffffffffffffffffffffff1681526020019081526020015f205f8573ffffffffffffffffffffffffffffffffffffffff1673ffffffffffffffffffffffffffffffffffffffff1681526020019081526020015f20819055508273ffffffffffffffffffffffffffffffffffffffff163373ffffffffffffffffffffffffffffffffffffffff167f8c5be1e5ebec7d5bd14f71427d1e84f3dd0314c0f7b2291e5b200ac8c7c3b925846040516105ab919061163e565b60405180910390a36001905092915050565b5f8073ffffffffffffffffffffffffffffffffffffffff168273ffffffffffffffffffffffffffffffffffffffff16036105f5575f80fd5b610600826008610acc565b60019050919050565b5f600154905090565b5f8073ffffffffffffffffffffffffffffffffffffffff168373ffffffffffffffffffffffffffffffffffffffff1603610681576040517f08c379a0000000000000000000000000000000000000000000000000000000008152600401610678906119d4565b60405180910390fd5b60035f8573ffffffffffffffffffffffffffffffffffffffff1673ffffffffffffffffffffffffffffffffffffffff1681526020019081526020015f205f3373ffffffffffffffffffffffffffffffffffffffff1673ffffffffffffffffffffffffffffffffffffffff1681526020019081526020015f2054821115610705575f80fd5b60025f8573ffffffffffffffffffffffffffffffffffffffff1673ffffffffffffffffffffffffffffffffffffffff1681526020019081526020015f205482111561074e575f80fd5b6107d98260035f8773ffffffffffffffffffffffffffffffffffffffff1673ffffffffffffffffffffffffffffffffffffffff1681526020019081526020015f205f3373ffffffffffffffffffffffffffffffffffffffff1673ffffffffffffffffffffffffffffffffffffffff1681526020019081526020015f205461118990919063ffffffff16565b60035f8673ffffffffffffffffffffffffffffffffffffffff1673ffffffffffffffffffffffffffffffffffffffff1681526020019081526020015f205f3373ffffffffffffffffffffffffffffffffffffffff1673ffffffffffffffffffffffffffffffffffffffff1681526020019081526020015f20819055506108608433846111e1565b600190509392505050565b600381565b5f73ffffffffffffffffffffffffffffffffffffffff168273ffffffffffffffffffffffffffffffffffffffff16036108de576040517f08c379a00000000000000000000000000000000000000000000000000000000081526004016108d590611a3c565b60405180910390fd5b6109698160035f3373ffffffffffffffffffffffffffffffffffffffff1673ffffffffffffffffffffffffffffffffffffffff1681526020019081526020015f205f8573ffffffffffffffffffffffffffffffffffffffff1673ffffffffffffffffffffffffffffffffffffffff1681526020019081526020015f205461118990919063ffffffff16565b60035f3373ffffffffffffffffffffffffffffffffffffffff1673ffffffffffffffffffffffffffffffffffffffff1681526020019081526020015f205f8473ffffffffffffffffffffffffffffffffffffffff1673ffffffffffffffffffffffffffffffffffffffff1681526020019081526020015f20819055508173ffffffffffffffffffffffffffffffffffffffff163373ffffffffffffffffffffffffffffffffffffffff167f8c5be1e5ebec7d5bd14f71427d1e84f3dd0314c0f7b2291e5b200ac8c7c3b92560035f3373ffffffffffffffffffffffffffffffffffffffff1673ffffffffffffffffffffffffffffffffffffffff1681526020019081526020015f205f8673ffffffffffffffffffffffffffffffffffffffff1673ffffffffffffffffffffffffffffffffffffffff1681526020019081526020015f2054604051610aba919061163e565b60405180910390a35050565b60015481565b5f73ffffffffffffffffffffffffffffffffffffffff168273ffffffffffffffffffffffffffffffffffffffff1603610b3a576040517f08c379a0000000000000000000000000000000000000000000000000000000008152600401610b3190611a3c565b60405180910390fd5b610bc58160035f3373ffffffffffffffffffffffffffffffffffffffff1673ffffffffffffffffffffffffffffffffffffffff1681526020019081526020015f205f8573ffffffffffffffffffffffffffffffffffffffff1673ffffffffffffffffffffffffffffffffffffffff1681526020019081526020015f205461136d90919063ffffffff16565b60035f3373ffffffffffffffffffffffffffffffffffffffff1673ffffffffffffffffffffffffffffffffffffffff1681526020019081526020015f205f8473ffffffffffffffffffffffffffffffffffffffff1673ffffffffffffffffffffffffffffffffffffffff1681526020019081526020015f20819055508173ffffffffffffffffffffffffffffffffffffffff163373ffffffffffffffffffffffffffffffffffffffff167f8c5be1e5ebec7d5bd14f71427d1e84f3dd0314c0f7b2291e5b200ac8c7c3b92560035f3373ffffffffffffffffffffffffffffffffffffffff1673ffffffffffffffffffffffffffffffffffffffff1681526020019081526020015f205f8673ffffffffffffffffffffffffffffffffffffffff1673ffffffffffffffffffffffffffffffffffffffff1681526020019081526020015f2054604051610d16919061163e565b60405180910390a35050565b5f60025f8373ffffffffffffffffffffffffffffffffffffffff1673ffffffffffffffffffffffffffffffffffffffff1681526020019081526020015f20549050919050565b6040518060400160405280600681526020017f4d6174636861000000000000000000000000000000000000000000000000000081525081565b5f60025f3373ffffffffffffffffffffffffffffffffffffffff1673ffffffffffffffffffffffffffffffffffffffff1681526020019081526020015f2054821115610e22576040517f08c379a0000000000000000000000000000000000000000000000000000000008152600401610e1990611aa4565b60405180910390fd5b5f73ffffffffffffffffffffffffffffffffffffffff168373ffffffffffffffffffffffffffffffffffffffff1603610e90576040517f08c379a0000000000000000000000000000000000000000000000000000000008152600401610e87906119d4565b60405180910390fd5b610ee08260025f3373ffffffffffffffffffffffffffffffffffffffff1673ffffffffffffffffffffffffffffffffffffffff1681526020019081526020015f205461118990919063ffffffff16565b60025f3373ffffffffffffffffffffffffffffffffffffffff1673ffffffffffffffffffffffffffffffffffffffff1681526020019081526020015f2081905550610f718260025f8673ffffffffffffffffffffffffffffffffffffffff1673ffffffffffffffffffffffffffffffffffffffff1681526020019081526020015f205461136d90919063ffffffff16565b60025f8573ffffffffffffffffffffffffffffffffffffffff1673ffffffffffffffffffffffffffffffffffffffff1681526020019081526020015f20819055508273ffffffffffffffffffffffffffffffffffffffff163373ffffffffffffffffffffffffffffffffffffffff167fddf252ad1be2c89b69c2b068fc378daa952ba7f163c4a11628f55a4df523b3ef8460405161100f919061163e565b60405180910390a36001905092915050565b5f8073ffffffffffffffffffffffffffffffffffffffff168373ffffffffffffffffffffffffffffffffffffffff1603611059575f80fd5b60026001546110689190611b1c565b60025f8573ffffffffffffffffffffffffffffffffffffffff1673ffffffffffffffffffffffffffffffffffffffff1681526020019081526020015f2054116110e6576040517f08c379a00000000000000000000000000000000000000000000000000000000081526004016110dd90611b96565b60405180910390fd5b6110ef826113c5565b5f90816110fc9190611d51565b506001905092915050565b5f60035f8473ffffffffffffffffffffffffffffffffffffffff1673ffffffffffffffffffffffffffffffffffffffff1681526020019081526020015f205f8373ffffffffffffffffffffffffffffffffffffffff1673ffffffffffffffffffffffffffffffffffffffff1681526020019081526020015f2054905092915050565b5f8282846111979190611e20565b91508111156111db576040517f08c379a00000000000000000000000000000000000000000000000000000000081526004016111d290611e9d565b60405180910390fd5b92915050565b6112318160025f8673ffffffffffffffffffffffffffffffffffffffff1673ffffffffffffffffffffffffffffffffffffffff1681526020019081526020015f205461118990919063ffffffff16565b60025f8573ffffffffffffffffffffffffffffffffffffffff1673ffffffffffffffffffffffffffffffffffffffff1681526020019081526020015f20819055506112c28160025f8573ffffffffffffffffffffffffffffffffffffffff1673ffffffffffffffffffffffffffffffffffffffff1681526020019081526020015f205461136d90919063ffffffff16565b60025f8473ffffffffffffffffffffffffffffffffffffffff1673ffffffffffffffffffffffffffffffffffffffff1681526020019081526020015f20819055508173ffffffffffffffffffffffffffffffffffffffff168373ffffffffffffffffffffffffffffffffffffffff167fddf252ad1be2c89b69c2b068fc378daa952ba7f163c4a11628f55a4df523b3ef83604051611360919061163e565b60405180910390a3505050565b5f82828461137b9190611ebb565b91508110156113bf576040517f08c379a00000000000000000000000000000000000000000000000000000000081526004016113b690611f38565b60405180910390fd5b92915050565b6060815f90816113d59190611d51565b505f80546113e2906118cc565b80601f016020809104026020016040519081016040528092919081815260200182805461140e906118cc565b80156114595780601f1061143057610100808354040283529160200191611459565b820191905f5260205f20905b81548152906001019060200180831161143c57829003601f168201915b50505050509050919050565b5f81519050919050565b5f82825260208201905092915050565b8281835e5f83830152505050565b5f601f19601f8301169050919050565b5f6114a782611465565b6114b1818561146f565b93506114c181856020860161147f565b6114ca8161148d565b840191505092915050565b5f6020820190508181035f8301526114ed818461149d565b905092915050565b5f604051905090565b5f80fd5b5f80fd5b5f73ffffffffffffffffffffffffffffffffffffffff82169050919050565b5f61152f82611506565b9050919050565b61153f81611525565b8114611549575f80fd5b50565b5f8135905061155a81611536565b92915050565b5f819050919050565b61157281611560565b811461157c575f80fd5b50565b5f8135905061158d81611569565b92915050565b5f80604083850312156115a9576115a86114fe565b5b5f6115b68582860161154c565b92505060206115c78582860161157f565b9150509250929050565b5f8115159050919050565b6115e5816115d1565b82525050565b5f6020820190506115fe5f8301846115dc565b92915050565b5f60208284031215611619576116186114fe565b5b5f6116268482850161154c565b91505092915050565b61163881611560565b82525050565b5f6020820190506116515f83018461162f565b92915050565b5f805f6060848603121561166e5761166d6114fe565b5b5f61167b8682870161154c565b935050602061168c8682870161154c565b925050604061169d8682870161157f565b9150509250925092565b5f60ff82169050919050565b6116bc816116a7565b82525050565b5f6020820190506116d55f8301846116b3565b92915050565b5f80fd5b5f80fd5b7f4e487b71000000000000000000000000000000000000000000000000000000005f52604160045260245ffd5b6117198261148d565b810181811067ffffffffffffffff82111715611738576117376116e3565b5b80604052505050565b5f61174a6114f5565b90506117568282611710565b919050565b5f67ffffffffffffffff821115611775576117746116e3565b5b61177e8261148d565b9050602081019050919050565b828183375f83830152505050565b5f6117ab6117a68461175b565b611741565b9050828152602081018484840111156117c7576117c66116df565b5b6117d284828561178b565b509392505050565b5f82601f8301126117ee576117ed6116db565b5b81356117fe848260208601611799565b91505092915050565b5f806040838503121561181d5761181c6114fe565b5b5f61182a8582860161154c565b925050602083013567ffffffffffffffff81111561184b5761184a611502565b5b611857858286016117da565b9150509250929050565b5f8060408385031215611877576118766114fe565b5b5f6118848582860161154c565b92505060206118958582860161154c565b9150509250929050565b7f4e487b71000000000000000000000000000000000000000000000000000000005f52602260045260245ffd5b5f60028204905060018216806118e357607f821691505b6020821081036118f6576118f561189f565b5b50919050565b7f646f6e2774206275792069742c206974277320746f6f20657870656e736976655f8201527f2072617468657220676f20746f204a6f65797300000000000000000000000000602082015250565b5f61195660338361146f565b9150611961826118fc565b604082019050919050565b5f6020820190508181035f8301526119838161194a565b9050919050565b7f496e76616c696420726563697069656e742061646472657373000000000000005f82015250565b5f6119be60198361146f565b91506119c98261198a565b602082019050919050565b5f6020820190508181035f8301526119eb816119b2565b9050919050565b7f696e76616c6964207370656e64657200000000000000000000000000000000005f82015250565b5f611a26600f8361146f565b9150611a31826119f2565b602082019050919050565b5f6020820190508181035f830152611a5381611a1a565b9050919050565b7f496e73756666696369656e742062616c616e63650000000000000000000000005f82015250565b5f611a8e60148361146f565b9150611a9982611a5a565b602082019050919050565b5f6020820190508181035f830152611abb81611a82565b9050919050565b7f4e487b71000000000000000000000000000000000000000000000000000000005f52601260045260245ffd5b7f4e487b71000000000000000000000000000000000000000000000000000000005f52601160045260245ffd5b5f611b2682611560565b9150611b3183611560565b925082611b4157611b40611ac2565b5b828204905092915050565b7f446f6e2774206f776e206d616a6f7269747900000000000000000000000000005f82015250565b5f611b8060128361146f565b9150611b8b82611b4c565b602082019050919050565b5f6020820190508181035f830152611bad81611b74565b9050919050565b5f819050815f5260205f209050919050565b5f6020601f8301049050919050565b5f82821b905092915050565b5f60088302611c107fffffffffffffffffffffffffffffffffffffffffffffffffffffffffffffffff82611bd5565b611c1a8683611bd5565b95508019841693508086168417925050509392505050565b5f819050919050565b5f611c55611c50611c4b84611560565b611c32565b611560565b9050919050565b5f819050919050565b611c6e83611c3b565b611c82611c7a82611c5c565b848454611be1565b825550505050565b5f90565b611c96611c8a565b611ca1818484611c65565b505050565b5b81811015611cc457611cb95f82611c8e565b600181019050611ca7565b5050565b601f821115611d0957611cda81611bb4565b611ce384611bc6565b81016020851015611cf2578190505b611d06611cfe85611bc6565b830182611ca6565b50505b505050565b5f82821c905092915050565b5f611d295f1984600802611d0e565b1980831691505092915050565b5f611d418383611d1a565b9150826002028217905092915050565b611d5a82611465565b67ffffffffffffffff811115611d7357611d726116e3565b5b611d7d82546118cc565b611d88828285611cc8565b5f60209050601f831160018114611db9575f8415611da7578287015190505b611db18582611d36565b865550611e18565b601f198416611dc786611bb4565b5f5b82811015611dee57848901518255600182019150602085019450602081019050611dc9565b86831015611e0b5784890151611e07601f891682611d1a565b8355505b6001600288020188555050505b505050505050565b5f611e2a82611560565b9150611e3583611560565b9250828203905081811115611e4d57611e4c611aef565b5b92915050565b7f64732d6d6174682d7375622d756e646572666c6f7700000000000000000000005f82015250565b5f611e8760158361146f565b9150611e9282611e53565b602082019050919050565b5f6020820190508181035f830152611eb481611e7b565b9050919050565b5f611ec582611560565b9150611ed083611560565b9250828201905080821115611ee857611ee7611aef565b5b92915050565b7f64732d6d6174682d6164642d6f766572666c6f770000000000000000000000005f82015250565b5f611f2260148361146f565b9150611f2d82611eee565b602082019050919050565b5f6020820190508181035f830152611f4f81611f16565b905091905056fea26469706673582212201c2c42572112a84a634ab88a624636674bf1e6a47b11149eeb189ef8ff2945cf64736f6c63430008190033",
					"opcodes": "PUSH1 0x80 PUSH1 0x40 MSTORE PUSH1 0x40 MLOAD DUP1 PUSH1 0x40 ADD PUSH1 0x40 MSTORE DUP1 PUSH1 0xA DUP2 MSTORE PUSH1 0x20 ADD PUSH32 0x4D6174636861436F696E00000000000000000000000000000000000000000000 DUP2 MSTORE POP PUSH0 SWAP1 DUP2 PUSH2 0x47 SWAP2 SWAP1 PUSH2 0x346 JUMP JUMPDEST POP PUSH4 0x2625A00 PUSH1 0x1 SSTORE CALLVALUE DUP1 ISZERO PUSH2 0x5B JUMPI PUSH0 DUP1 REVERT JUMPDEST POP PUSH1 0x1 SLOAD PUSH1 0x2 PUSH0 CALLER PUSH20 0xFFFFFFFFFFFFFFFFFFFFFFFFFFFFFFFFFFFFFFFF AND PUSH20 0xFFFFFFFFFFFFFFFFFFFFFFFFFFFFFFFFFFFFFFFF AND DUP2 MSTORE PUSH1 0x20 ADD SWAP1 DUP2 MSTORE PUSH1 0x20 ADD PUSH0 KECCAK256 DUP2 SWAP1 SSTORE POP CALLER PUSH20 0xFFFFFFFFFFFFFFFFFFFFFFFFFFFFFFFFFFFFFFFF AND PUSH0 PUSH20 0xFFFFFFFFFFFFFFFFFFFFFFFFFFFFFFFFFFFFFFFF AND PUSH32 0xDDF252AD1BE2C89B69C2B068FC378DAA952BA7F163C4A11628F55A4DF523B3EF PUSH1 0x1 SLOAD PUSH1 0x40 MLOAD PUSH2 0xFF SWAP2 SWAP1 PUSH2 0x424 JUMP JUMPDEST PUSH1 0x40 MLOAD DUP1 SWAP2 SUB SWAP1 LOG3 PUSH2 0x43D JUMP JUMPDEST PUSH0 DUP2 MLOAD SWAP1 POP SWAP2 SWAP1 POP JUMP JUMPDEST PUSH32 0x4E487B7100000000000000000000000000000000000000000000000000000000 PUSH0 MSTORE PUSH1 0x41 PUSH1 0x4 MSTORE PUSH1 0x24 PUSH0 REVERT JUMPDEST PUSH32 0x4E487B7100000000000000000000000000000000000000000000000000000000 PUSH0 MSTORE PUSH1 0x22 PUSH1 0x4 MSTORE PUSH1 0x24 PUSH0 REVERT JUMPDEST PUSH0 PUSH1 0x2 DUP3 DIV SWAP1 POP PUSH1 0x1 DUP3 AND DUP1 PUSH2 0x187 JUMPI PUSH1 0x7F DUP3 AND SWAP2 POP JUMPDEST PUSH1 0x20 DUP3 LT DUP2 SUB PUSH2 0x19A JUMPI PUSH2 0x199 PUSH2 0x143 JUMP JUMPDEST JUMPDEST POP SWAP2 SWAP1 POP JUMP JUMPDEST PUSH0 DUP2 SWAP1 POP DUP2 PUSH0 MSTORE PUSH1 0x20 PUSH0 KECCAK256 SWAP1 POP SWAP2 SWAP1 POP JUMP JUMPDEST PUSH0 PUSH1 0x20 PUSH1 0x1F DUP4 ADD DIV SWAP1 POP SWAP2 SWAP1 POP JUMP JUMPDEST PUSH0 DUP3 DUP3 SHL SWAP1 POP SWAP3 SWAP2 POP POP JUMP JUMPDEST PUSH0 PUSH1 0x8 DUP4 MUL PUSH2 0x1FC PUSH32 0xFFFFFFFFFFFFFFFFFFFFFFFFFFFFFFFFFFFFFFFFFFFFFFFFFFFFFFFFFFFFFFFF DUP3 PUSH2 0x1C1 JUMP JUMPDEST PUSH2 0x206 DUP7 DUP4 PUSH2 0x1C1 JUMP JUMPDEST SWAP6 POP DUP1 NOT DUP5 AND SWAP4 POP DUP1 DUP7 AND DUP5 OR SWAP3 POP POP POP SWAP4 SWAP3 POP POP POP JUMP JUMPDEST PUSH0 DUP2 SWAP1 POP SWAP2 SWAP1 POP JUMP JUMPDEST PUSH0 DUP2 SWAP1 POP SWAP2 SWAP1 POP JUMP JUMPDEST PUSH0 PUSH2 0x24A PUSH2 0x245 PUSH2 0x240 DUP5 PUSH2 0x21E JUMP JUMPDEST PUSH2 0x227 JUMP JUMPDEST PUSH2 0x21E JUMP JUMPDEST SWAP1 POP SWAP2 SWAP1 POP JUMP JUMPDEST PUSH0 DUP2 SWAP1 POP SWAP2 SWAP1 POP JUMP JUMPDEST PUSH2 0x263 DUP4 PUSH2 0x230 JUMP JUMPDEST PUSH2 0x277 PUSH2 0x26F DUP3 PUSH2 0x251 JUMP JUMPDEST DUP5 DUP5 SLOAD PUSH2 0x1CD JUMP JUMPDEST DUP3 SSTORE POP POP POP POP JUMP JUMPDEST PUSH0 SWAP1 JUMP JUMPDEST PUSH2 0x28B PUSH2 0x27F JUMP JUMPDEST PUSH2 0x296 DUP2 DUP5 DUP5 PUSH2 0x25A JUMP JUMPDEST POP POP POP JUMP JUMPDEST JUMPDEST DUP2 DUP2 LT ISZERO PUSH2 0x2B9 JUMPI PUSH2 0x2AE PUSH0 DUP3 PUSH2 0x283 JUMP JUMPDEST PUSH1 0x1 DUP2 ADD SWAP1 POP PUSH2 0x29C JUMP JUMPDEST POP POP JUMP JUMPDEST PUSH1 0x1F DUP3 GT ISZERO PUSH2 0x2FE JUMPI PUSH2 0x2CF DUP2 PUSH2 0x1A0 JUMP JUMPDEST PUSH2 0x2D8 DUP5 PUSH2 0x1B2 JUMP JUMPDEST DUP2 ADD PUSH1 0x20 DUP6 LT ISZERO PUSH2 0x2E7 JUMPI DUP2 SWAP1 POP JUMPDEST PUSH2 0x2FB PUSH2 0x2F3 DUP6 PUSH2 0x1B2 JUMP JUMPDEST DUP4 ADD DUP3 PUSH2 0x29B JUMP JUMPDEST POP POP JUMPDEST POP POP POP JUMP JUMPDEST PUSH0 DUP3 DUP3 SHR SWAP1 POP SWAP3 SWAP2 POP POP JUMP JUMPDEST PUSH0 PUSH2 0x31E PUSH0 NOT DUP5 PUSH1 0x8 MUL PUSH2 0x303 JUMP JUMPDEST NOT DUP1 DUP4 AND SWAP2 POP POP SWAP3 SWAP2 POP POP JUMP JUMPDEST PUSH0 PUSH2 0x336 DUP4 DUP4 PUSH2 0x30F JUMP JUMPDEST SWAP2 POP DUP3 PUSH1 0x2 MUL DUP3 OR SWAP1 POP SWAP3 SWAP2 POP POP JUMP JUMPDEST PUSH2 0x34F DUP3 PUSH2 0x10C JUMP JUMPDEST PUSH8 0xFFFFFFFFFFFFFFFF DUP2 GT ISZERO PUSH2 0x368 JUMPI PUSH2 0x367 PUSH2 0x116 JUMP JUMPDEST JUMPDEST PUSH2 0x372 DUP3 SLOAD PUSH2 0x170 JUMP JUMPDEST PUSH2 0x37D DUP3 DUP3 DUP6 PUSH2 0x2BD JUMP JUMPDEST PUSH0 PUSH1 0x20 SWAP1 POP PUSH1 0x1F DUP4 GT PUSH1 0x1 DUP2 EQ PUSH2 0x3AE JUMPI PUSH0 DUP5 ISZERO PUSH2 0x39C JUMPI DUP3 DUP8 ADD MLOAD SWAP1 POP JUMPDEST PUSH2 0x3A6 DUP6 DUP3 PUSH2 0x32B JUMP JUMPDEST DUP7 SSTORE POP PUSH2 0x40D JUMP JUMPDEST PUSH1 0x1F NOT DUP5 AND PUSH2 0x3BC DUP7 PUSH2 0x1A0 JUMP JUMPDEST PUSH0 JUMPDEST DUP3 DUP2 LT ISZERO PUSH2 0x3E3 JUMPI DUP5 DUP10 ADD MLOAD DUP3 SSTORE PUSH1 0x1 DUP3 ADD SWAP2 POP PUSH1 0x20 DUP6 ADD SWAP5 POP PUSH1 0x20 DUP2 ADD SWAP1 POP PUSH2 0x3BE JUMP JUMPDEST DUP7 DUP4 LT ISZERO PUSH2 0x400 JUMPI DUP5 DUP10 ADD MLOAD PUSH2 0x3FC PUSH1 0x1F DUP10 AND DUP3 PUSH2 0x30F JUMP JUMPDEST DUP4 SSTORE POP JUMPDEST PUSH1 0x1 PUSH1 0x2 DUP9 MUL ADD DUP9 SSTORE POP POP POP JUMPDEST POP POP POP POP POP POP JUMP JUMPDEST PUSH2 0x41E DUP2 PUSH2 0x21E JUMP JUMPDEST DUP3 MSTORE POP POP JUMP JUMPDEST PUSH0 PUSH1 0x20 DUP3 ADD SWAP1 POP PUSH2 0x437 PUSH0 DUP4 ADD DUP5 PUSH2 0x415 JUMP JUMPDEST SWAP3 SWAP2 POP POP JUMP JUMPDEST PUSH2 0x1F8C DUP1 PUSH2 0x44A PUSH0 CODECOPY PUSH0 RETURN INVALID PUSH1 0x80 PUSH1 0x40 MSTORE CALLVALUE DUP1 ISZERO PUSH2 0xF JUMPI PUSH0 DUP1 REVERT JUMPDEST POP PUSH1 0x4 CALLDATASIZE LT PUSH2 0xF3 JUMPI PUSH0 CALLDATALOAD PUSH1 0xE0 SHR DUP1 PUSH4 0x3BE5620E GT PUSH2 0x95 JUMPI DUP1 PUSH4 0x95D89B41 GT PUSH2 0x64 JUMPI DUP1 PUSH4 0x95D89B41 EQ PUSH2 0x297 JUMPI DUP1 PUSH4 0xA9059CBB EQ PUSH2 0x2B5 JUMPI DUP1 PUSH4 0xA91F1628 EQ PUSH2 0x2E5 JUMPI DUP1 PUSH4 0xDD62ED3E EQ PUSH2 0x315 JUMPI PUSH2 0xF3 JUMP JUMPDEST DUP1 PUSH4 0x3BE5620E EQ PUSH2 0x211 JUMPI DUP1 PUSH4 0x3EAAF86B EQ PUSH2 0x22D JUMPI DUP1 PUSH4 0x6DE30C30 EQ PUSH2 0x24B JUMPI DUP1 PUSH4 0x70A08231 EQ PUSH2 0x267 JUMPI PUSH2 0xF3 JUMP JUMPDEST DUP1 PUSH4 0x14CD78B4 GT PUSH2 0xD1 JUMPI DUP1 PUSH4 0x14CD78B4 EQ PUSH2 0x175 JUMPI DUP1 PUSH4 0x18160DDD EQ PUSH2 0x1A5 JUMPI DUP1 PUSH4 0x23B872DD EQ PUSH2 0x1C3 JUMPI DUP1 PUSH4 0x313CE567 EQ PUSH2 0x1F3 JUMPI PUSH2 0xF3 JUMP JUMPDEST DUP1 PUSH4 0x6FDDE03 EQ PUSH2 0xF7 JUMPI DUP1 PUSH4 0x7C629C8 EQ PUSH2 0x115 JUMPI DUP1 PUSH4 0x95EA7B3 EQ PUSH2 0x145 JUMPI JUMPDEST PUSH0 DUP1 REVERT JUMPDEST PUSH2 0xFF PUSH2 0x345 JUMP JUMPDEST PUSH1 0x40 MLOAD PUSH2 0x10C SWAP2 SWAP1 PUSH2 0x14D5 JUMP JUMPDEST PUSH1 0x40 MLOAD DUP1 SWAP2 SUB SWAP1 RETURN JUMPDEST PUSH2 0x12F PUSH1 0x4 DUP1 CALLDATASIZE SUB DUP2 ADD SWAP1 PUSH2 0x12A SWAP2 SWAP1 PUSH2 0x1593 JUMP JUMPDEST PUSH2 0x3D0 JUMP JUMPDEST PUSH1 0x40 MLOAD PUSH2 0x13C SWAP2 SWAP1 PUSH2 0x15EB JUMP JUMPDEST PUSH1 0x40 MLOAD DUP1 SWAP2 SUB SWAP1 RETURN JUMPDEST PUSH2 0x15F PUSH1 0x4 DUP1 CALLDATASIZE SUB DUP2 ADD SWAP1 PUSH2 0x15A SWAP2 SWAP1 PUSH2 0x1593 JUMP JUMPDEST PUSH2 0x462 JUMP JUMPDEST PUSH1 0x40 MLOAD PUSH2 0x16C SWAP2 SWAP1 PUSH2 0x15EB JUMP JUMPDEST PUSH1 0x40 MLOAD DUP1 SWAP2 SUB SWAP1 RETURN JUMPDEST PUSH2 0x18F PUSH1 0x4 DUP1 CALLDATASIZE SUB DUP2 ADD SWAP1 PUSH2 0x18A SWAP2 SWAP1 PUSH2 0x1604 JUMP JUMPDEST PUSH2 0x5BD JUMP JUMPDEST PUSH1 0x40 MLOAD PUSH2 0x19C SWAP2 SWAP1 PUSH2 0x15EB JUMP JUMPDEST PUSH1 0x40 MLOAD DUP1 SWAP2 SUB SWAP1 RETURN JUMPDEST PUSH2 0x1AD PUSH2 0x609 JUMP JUMPDEST PUSH1 0x40 MLOAD PUSH2 0x1BA SWAP2 SWAP1 PUSH2 0x163E JUMP JUMPDEST PUSH1 0x40 MLOAD DUP1 SWAP2 SUB SWAP1 RETURN JUMPDEST PUSH2 0x1DD PUSH1 0x4 DUP1 CALLDATASIZE SUB DUP2 ADD SWAP1 PUSH2 0x1D8 SWAP2 SWAP1 PUSH2 0x1657 JUMP JUMPDEST PUSH2 0x612 JUMP JUMPDEST PUSH1 0x40 MLOAD PUSH2 0x1EA SWAP2 SWAP1 PUSH2 0x15EB JUMP JUMPDEST PUSH1 0x40 MLOAD DUP1 SWAP2 SUB SWAP1 RETURN JUMPDEST PUSH2 0x1FB PUSH2 0x86B JUMP JUMPDEST PUSH1 0x40 MLOAD PUSH2 0x208 SWAP2 SWAP1 PUSH2 0x16C2 JUMP JUMPDEST PUSH1 0x40 MLOAD DUP1 SWAP2 SUB SWAP1 RETURN JUMPDEST PUSH2 0x22B PUSH1 0x4 DUP1 CALLDATASIZE SUB DUP2 ADD SWAP1 PUSH2 0x226 SWAP2 SWAP1 PUSH2 0x1593 JUMP JUMPDEST PUSH2 0x870 JUMP JUMPDEST STOP JUMPDEST PUSH2 0x235 PUSH2 0xAC6 JUMP JUMPDEST PUSH1 0x40 MLOAD PUSH2 0x242 SWAP2 SWAP1 PUSH2 0x163E JUMP JUMPDEST PUSH1 0x40 MLOAD DUP1 SWAP2 SUB SWAP1 RETURN JUMPDEST PUSH2 0x265 PUSH1 0x4 DUP1 CALLDATASIZE SUB DUP2 ADD SWAP1 PUSH2 0x260 SWAP2 SWAP1 PUSH2 0x1593 JUMP JUMPDEST PUSH2 0xACC JUMP JUMPDEST STOP JUMPDEST PUSH2 0x281 PUSH1 0x4 DUP1 CALLDATASIZE SUB DUP2 ADD SWAP1 PUSH2 0x27C SWAP2 SWAP1 PUSH2 0x1604 JUMP JUMPDEST PUSH2 0xD22 JUMP JUMPDEST PUSH1 0x40 MLOAD PUSH2 0x28E SWAP2 SWAP1 PUSH2 0x163E JUMP JUMPDEST PUSH1 0x40 MLOAD DUP1 SWAP2 SUB SWAP1 RETURN JUMPDEST PUSH2 0x29F PUSH2 0xD68 JUMP JUMPDEST PUSH1 0x40 MLOAD PUSH2 0x2AC SWAP2 SWAP1 PUSH2 0x14D5 JUMP JUMPDEST PUSH1 0x40 MLOAD DUP1 SWAP2 SUB SWAP1 RETURN JUMPDEST PUSH2 0x2CF PUSH1 0x4 DUP1 CALLDATASIZE SUB DUP2 ADD SWAP1 PUSH2 0x2CA SWAP2 SWAP1 PUSH2 0x1593 JUMP JUMPDEST PUSH2 0xDA1 JUMP JUMPDEST PUSH1 0x40 MLOAD PUSH2 0x2DC SWAP2 SWAP1 PUSH2 0x15EB JUMP JUMPDEST PUSH1 0x40 MLOAD DUP1 SWAP2 SUB SWAP1 RETURN JUMPDEST PUSH2 0x2FF PUSH1 0x4 DUP1 CALLDATASIZE SUB DUP2 ADD SWAP1 PUSH2 0x2FA SWAP2 SWAP1 PUSH2 0x1807 JUMP JUMPDEST PUSH2 0x1021 JUMP JUMPDEST PUSH1 0x40 MLOAD PUSH2 0x30C SWAP2 SWAP1 PUSH2 0x15EB JUMP JUMPDEST PUSH1 0x40 MLOAD DUP1 SWAP2 SUB SWAP1 RETURN JUMPDEST PUSH2 0x32F PUSH1 0x4 DUP1 CALLDATASIZE SUB DUP2 ADD SWAP1 PUSH2 0x32A SWAP2 SWAP1 PUSH2 0x1861 JUMP JUMPDEST PUSH2 0x1107 JUMP JUMPDEST PUSH1 0x40 MLOAD PUSH2 0x33C SWAP2 SWAP1 PUSH2 0x163E JUMP JUMPDEST PUSH1 0x40 MLOAD DUP1 SWAP2 SUB SWAP1 RETURN JUMPDEST PUSH0 DUP1 SLOAD PUSH2 0x351 SWAP1 PUSH2 0x18CC JUMP JUMPDEST DUP1 PUSH1 0x1F ADD PUSH1 0x20 DUP1 SWAP2 DIV MUL PUSH1 0x20 ADD PUSH1 0x40 MLOAD SWAP1 DUP2 ADD PUSH1 0x40 MSTORE DUP1 SWAP3 SWAP2 SWAP1 DUP2 DUP2 MSTORE PUSH1 0x20 ADD DUP3 DUP1 SLOAD PUSH2 0x37D SWAP1 PUSH2 0x18CC JUMP JUMPDEST DUP1 ISZERO PUSH2 0x3C8 JUMPI DUP1 PUSH1 0x1F LT PUSH2 0x39F JUMPI PUSH2 0x100 DUP1 DUP4 SLOAD DIV MUL DUP4 MSTORE SWAP2 PUSH1 0x20 ADD SWAP2 PUSH2 0x3C8 JUMP JUMPDEST DUP3 ADD SWAP2 SWAP1 PUSH0 MSTORE PUSH1 0x20 PUSH0 KECCAK256 SWAP1 JUMPDEST DUP2 SLOAD DUP2 MSTORE SWAP1 PUSH1 0x1 ADD SWAP1 PUSH1 0x20 ADD DUP1 DUP4 GT PUSH2 0x3AB JUMPI DUP3 SWAP1 SUB PUSH1 0x1F AND DUP3 ADD SWAP2 JUMPDEST POP POP POP POP POP DUP2 JUMP JUMPDEST PUSH0 PUSH1 0x8 DUP3 GT ISZERO PUSH2 0x415 JUMPI PUSH1 0x40 MLOAD PUSH32 0x8C379A000000000000000000000000000000000000000000000000000000000 DUP2 MSTORE PUSH1 0x4 ADD PUSH2 0x40C SWAP1 PUSH2 0x196C JUMP JUMPDEST PUSH1 0x40 MLOAD DUP1 SWAP2 SUB SWAP1 REVERT JUMPDEST PUSH0 PUSH20 0xFFFFFFFFFFFFFFFFFFFFFFFFFFFFFFFFFFFFFFFF AND DUP4 PUSH20 0xFFFFFFFFFFFFFFFFFFFFFFFFFFFFFFFFFFFFFFFF AND SUB PUSH2 0x44C JUMPI PUSH0 DUP1 REVERT JUMPDEST PUSH2 0x457 CALLER DUP5 DUP5 PUSH2 0x612 JUMP JUMPDEST POP PUSH1 0x1 SWAP1 POP SWAP3 SWAP2 POP POP JUMP JUMPDEST PUSH0 DUP1 PUSH20 0xFFFFFFFFFFFFFFFFFFFFFFFFFFFFFFFFFFFFFFFF AND DUP4 PUSH20 0xFFFFFFFFFFFFFFFFFFFFFFFFFFFFFFFFFFFFFFFF AND SUB PUSH2 0x4D1 JUMPI PUSH1 0x40 MLOAD PUSH32 0x8C379A000000000000000000000000000000000000000000000000000000000 DUP2 MSTORE PUSH1 0x4 ADD PUSH2 0x4C8 SWAP1 PUSH2 0x19D4 JUMP JUMPDEST PUSH1 0x40 MLOAD DUP1 SWAP2 SUB SWAP1 REVERT JUMPDEST DUP2 PUSH1 0x3 PUSH0 CALLER PUSH20 0xFFFFFFFFFFFFFFFFFFFFFFFFFFFFFFFFFFFFFFFF AND PUSH20 0xFFFFFFFFFFFFFFFFFFFFFFFFFFFFFFFFFFFFFFFF AND DUP2 MSTORE PUSH1 0x20 ADD SWAP1 DUP2 MSTORE PUSH1 0x20 ADD PUSH0 KECCAK256 PUSH0 DUP6 PUSH20 0xFFFFFFFFFFFFFFFFFFFFFFFFFFFFFFFFFFFFFFFF AND PUSH20 0xFFFFFFFFFFFFFFFFFFFFFFFFFFFFFFFFFFFFFFFF AND DUP2 MSTORE PUSH1 0x20 ADD SWAP1 DUP2 MSTORE PUSH1 0x20 ADD PUSH0 KECCAK256 DUP2 SWAP1 SSTORE POP DUP3 PUSH20 0xFFFFFFFFFFFFFFFFFFFFFFFFFFFFFFFFFFFFFFFF AND CALLER PUSH20 0xFFFFFFFFFFFFFFFFFFFFFFFFFFFFFFFFFFFFFFFF AND PUSH32 0x8C5BE1E5EBEC7D5BD14F71427D1E84F3DD0314C0F7B2291E5B200AC8C7C3B925 DUP5 PUSH1 0x40 MLOAD PUSH2 0x5AB SWAP2 SWAP1 PUSH2 0x163E JUMP JUMPDEST PUSH1 0x40 MLOAD DUP1 SWAP2 SUB SWAP1 LOG3 PUSH1 0x1 SWAP1 POP SWAP3 SWAP2 POP POP JUMP JUMPDEST PUSH0 DUP1 PUSH20 0xFFFFFFFFFFFFFFFFFFFFFFFFFFFFFFFFFFFFFFFF AND DUP3 PUSH20 0xFFFFFFFFFFFFFFFFFFFFFFFFFFFFFFFFFFFFFFFF AND SUB PUSH2 0x5F5 JUMPI PUSH0 DUP1 REVERT JUMPDEST PUSH2 0x600 DUP3 PUSH1 0x8 PUSH2 0xACC JUMP JUMPDEST PUSH1 0x1 SWAP1 POP SWAP2 SWAP1 POP JUMP JUMPDEST PUSH0 PUSH1 0x1 SLOAD SWAP1 POP SWAP1 JUMP JUMPDEST PUSH0 DUP1 PUSH20 0xFFFFFFFFFFFFFFFFFFFFFFFFFFFFFFFFFFFFFFFF AND DUP4 PUSH20 0xFFFFFFFFFFFFFFFFFFFFFFFFFFFFFFFFFFFFFFFF AND SUB PUSH2 0x681 JUMPI PUSH1 0x40 MLOAD PUSH32 0x8C379A000000000000000000000000000000000000000000000000000000000 DUP2 MSTORE PUSH1 0x4 ADD PUSH2 0x678 SWAP1 PUSH2 0x19D4 JUMP JUMPDEST PUSH1 0x40 MLOAD DUP1 SWAP2 SUB SWAP1 REVERT JUMPDEST PUSH1 0x3 PUSH0 DUP6 PUSH20 0xFFFFFFFFFFFFFFFFFFFFFFFFFFFFFFFFFFFFFFFF AND PUSH20 0xFFFFFFFFFFFFFFFFFFFFFFFFFFFFFFFFFFFFFFFF AND DUP2 MSTORE PUSH1 0x20 ADD SWAP1 DUP2 MSTORE PUSH1 0x20 ADD PUSH0 KECCAK256 PUSH0 CALLER PUSH20 0xFFFFFFFFFFFFFFFFFFFFFFFFFFFFFFFFFFFFFFFF AND PUSH20 0xFFFFFFFFFFFFFFFFFFFFFFFFFFFFFFFFFFFFFFFF AND DUP2 MSTORE PUSH1 0x20 ADD SWAP1 DUP2 MSTORE PUSH1 0x20 ADD PUSH0 KECCAK256 SLOAD DUP3 GT ISZERO PUSH2 0x705 JUMPI PUSH0 DUP1 REVERT JUMPDEST PUSH1 0x2 PUSH0 DUP6 PUSH20 0xFFFFFFFFFFFFFFFFFFFFFFFFFFFFFFFFFFFFFFFF AND PUSH20 0xFFFFFFFFFFFFFFFFFFFFFFFFFFFFFFFFFFFFFFFF AND DUP2 MSTORE PUSH1 0x20 ADD SWAP1 DUP2 MSTORE PUSH1 0x20 ADD PUSH0 KECCAK256 SLOAD DUP3 GT ISZERO PUSH2 0x74E JUMPI PUSH0 DUP1 REVERT JUMPDEST PUSH2 0x7D9 DUP3 PUSH1 0x3 PUSH0 DUP8 PUSH20 0xFFFFFFFFFFFFFFFFFFFFFFFFFFFFFFFFFFFFFFFF AND PUSH20 0xFFFFFFFFFFFFFFFFFFFFFFFFFFFFFFFFFFFFFFFF AND DUP2 MSTORE PUSH1 0x20 ADD SWAP1 DUP2 MSTORE PUSH1 0x20 ADD PUSH0 KECCAK256 PUSH0 CALLER PUSH20 0xFFFFFFFFFFFFFFFFFFFFFFFFFFFFFFFFFFFFFFFF AND PUSH20 0xFFFFFFFFFFFFFFFFFFFFFFFFFFFFFFFFFFFFFFFF AND DUP2 MSTORE PUSH1 0x20 ADD SWAP1 DUP2 MSTORE PUSH1 0x20 ADD PUSH0 KECCAK256 SLOAD PUSH2 0x1189 SWAP1 SWAP2 SWAP1 PUSH4 0xFFFFFFFF AND JUMP JUMPDEST PUSH1 0x3 PUSH0 DUP7 PUSH20 0xFFFFFFFFFFFFFFFFFFFFFFFFFFFFFFFFFFFFFFFF AND PUSH20 0xFFFFFFFFFFFFFFFFFFFFFFFFFFFFFFFFFFFFFFFF AND DUP2 MSTORE PUSH1 0x20 ADD SWAP1 DUP2 MSTORE PUSH1 0x20 ADD PUSH0 KECCAK256 PUSH0 CALLER PUSH20 0xFFFFFFFFFFFFFFFFFFFFFFFFFFFFFFFFFFFFFFFF AND PUSH20 0xFFFFFFFFFFFFFFFFFFFFFFFFFFFFFFFFFFFFFFFF AND DUP2 MSTORE PUSH1 0x20 ADD SWAP1 DUP2 MSTORE PUSH1 0x20 ADD PUSH0 KECCAK256 DUP2 SWAP1 SSTORE POP PUSH2 0x860 DUP5 CALLER DUP5 PUSH2 0x11E1 JUMP JUMPDEST PUSH1 0x1 SWAP1 POP SWAP4 SWAP3 POP POP POP JUMP JUMPDEST PUSH1 0x3 DUP2 JUMP JUMPDEST PUSH0 PUSH20 0xFFFFFFFFFFFFFFFFFFFFFFFFFFFFFFFFFFFFFFFF AND DUP3 PUSH20 0xFFFFFFFFFFFFFFFFFFFFFFFFFFFFFFFFFFFFFFFF AND SUB PUSH2 0x8DE JUMPI PUSH1 0x40 MLOAD PUSH32 0x8C379A000000000000000000000000000000000000000000000000000000000 DUP2 MSTORE PUSH1 0x4 ADD PUSH2 0x8D5 SWAP1 PUSH2 0x1A3C JUMP JUMPDEST PUSH1 0x40 MLOAD DUP1 SWAP2 SUB SWAP1 REVERT JUMPDEST PUSH2 0x969 DUP2 PUSH1 0x3 PUSH0 CALLER PUSH20 0xFFFFFFFFFFFFFFFFFFFFFFFFFFFFFFFFFFFFFFFF AND PUSH20 0xFFFFFFFFFFFFFFFFFFFFFFFFFFFFFFFFFFFFFFFF AND DUP2 MSTORE PUSH1 0x20 ADD SWAP1 DUP2 MSTORE PUSH1 0x20 ADD PUSH0 KECCAK256 PUSH0 DUP6 PUSH20 0xFFFFFFFFFFFFFFFFFFFFFFFFFFFFFFFFFFFFFFFF AND PUSH20 0xFFFFFFFFFFFFFFFFFFFFFFFFFFFFFFFFFFFFFFFF AND DUP2 MSTORE PUSH1 0x20 ADD SWAP1 DUP2 MSTORE PUSH1 0x20 ADD PUSH0 KECCAK256 SLOAD PUSH2 0x1189 SWAP1 SWAP2 SWAP1 PUSH4 0xFFFFFFFF AND JUMP JUMPDEST PUSH1 0x3 PUSH0 CALLER PUSH20 0xFFFFFFFFFFFFFFFFFFFFFFFFFFFFFFFFFFFFFFFF AND PUSH20 0xFFFFFFFFFFFFFFFFFFFFFFFFFFFFFFFFFFFFFFFF AND DUP2 MSTORE PUSH1 0x20 ADD SWAP1 DUP2 MSTORE PUSH1 0x20 ADD PUSH0 KECCAK256 PUSH0 DUP5 PUSH20 0xFFFFFFFFFFFFFFFFFFFFFFFFFFFFFFFFFFFFFFFF AND PUSH20 0xFFFFFFFFFFFFFFFFFFFFFFFFFFFFFFFFFFFFFFFF AND DUP2 MSTORE PUSH1 0x20 ADD SWAP1 DUP2 MSTORE PUSH1 0x20 ADD PUSH0 KECCAK256 DUP2 SWAP1 SSTORE POP DUP2 PUSH20 0xFFFFFFFFFFFFFFFFFFFFFFFFFFFFFFFFFFFFFFFF AND CALLER PUSH20 0xFFFFFFFFFFFFFFFFFFFFFFFFFFFFFFFFFFFFFFFF AND PUSH32 0x8C5BE1E5EBEC7D5BD14F71427D1E84F3DD0314C0F7B2291E5B200AC8C7C3B925 PUSH1 0x3 PUSH0 CALLER PUSH20 0xFFFFFFFFFFFFFFFFFFFFFFFFFFFFFFFFFFFFFFFF AND PUSH20 0xFFFFFFFFFFFFFFFFFFFFFFFFFFFFFFFFFFFFFFFF AND DUP2 MSTORE PUSH1 0x20 ADD SWAP1 DUP2 MSTORE PUSH1 0x20 ADD PUSH0 KECCAK256 PUSH0 DUP7 PUSH20 0xFFFFFFFFFFFFFFFFFFFFFFFFFFFFFFFFFFFFFFFF AND PUSH20 0xFFFFFFFFFFFFFFFFFFFFFFFFFFFFFFFFFFFFFFFF AND DUP2 MSTORE PUSH1 0x20 ADD SWAP1 DUP2 MSTORE PUSH1 0x20 ADD PUSH0 KECCAK256 SLOAD PUSH1 0x40 MLOAD PUSH2 0xABA SWAP2 SWAP1 PUSH2 0x163E JUMP JUMPDEST PUSH1 0x40 MLOAD DUP1 SWAP2 SUB SWAP1 LOG3 POP POP JUMP JUMPDEST PUSH1 0x1 SLOAD DUP2 JUMP JUMPDEST PUSH0 PUSH20 0xFFFFFFFFFFFFFFFFFFFFFFFFFFFFFFFFFFFFFFFF AND DUP3 PUSH20 0xFFFFFFFFFFFFFFFFFFFFFFFFFFFFFFFFFFFFFFFF AND SUB PUSH2 0xB3A JUMPI PUSH1 0x40 MLOAD PUSH32 0x8C379A000000000000000000000000000000000000000000000000000000000 DUP2 MSTORE PUSH1 0x4 ADD PUSH2 0xB31 SWAP1 PUSH2 0x1A3C JUMP JUMPDEST PUSH1 0x40 MLOAD DUP1 SWAP2 SUB SWAP1 REVERT JUMPDEST PUSH2 0xBC5 DUP2 PUSH1 0x3 PUSH0 CALLER PUSH20 0xFFFFFFFFFFFFFFFFFFFFFFFFFFFFFFFFFFFFFFFF AND PUSH20 0xFFFFFFFFFFFFFFFFFFFFFFFFFFFFFFFFFFFFFFFF AND DUP2 MSTORE PUSH1 0x20 ADD SWAP1 DUP2 MSTORE PUSH1 0x20 ADD PUSH0 KECCAK256 PUSH0 DUP6 PUSH20 0xFFFFFFFFFFFFFFFFFFFFFFFFFFFFFFFFFFFFFFFF AND PUSH20 0xFFFFFFFFFFFFFFFFFFFFFFFFFFFFFFFFFFFFFFFF AND DUP2 MSTORE PUSH1 0x20 ADD SWAP1 DUP2 MSTORE PUSH1 0x20 ADD PUSH0 KECCAK256 SLOAD PUSH2 0x136D SWAP1 SWAP2 SWAP1 PUSH4 0xFFFFFFFF AND JUMP JUMPDEST PUSH1 0x3 PUSH0 CALLER PUSH20 0xFFFFFFFFFFFFFFFFFFFFFFFFFFFFFFFFFFFFFFFF AND PUSH20 0xFFFFFFFFFFFFFFFFFFFFFFFFFFFFFFFFFFFFFFFF AND DUP2 MSTORE PUSH1 0x20 ADD SWAP1 DUP2 MSTORE PUSH1 0x20 ADD PUSH0 KECCAK256 PUSH0 DUP5 PUSH20 0xFFFFFFFFFFFFFFFFFFFFFFFFFFFFFFFFFFFFFFFF AND PUSH20 0xFFFFFFFFFFFFFFFFFFFFFFFFFFFFFFFFFFFFFFFF AND DUP2 MSTORE PUSH1 0x20 ADD SWAP1 DUP2 MSTORE PUSH1 0x20 ADD PUSH0 KECCAK256 DUP2 SWAP1 SSTORE POP DUP2 PUSH20 0xFFFFFFFFFFFFFFFFFFFFFFFFFFFFFFFFFFFFFFFF AND CALLER PUSH20 0xFFFFFFFFFFFFFFFFFFFFFFFFFFFFFFFFFFFFFFFF AND PUSH32 0x8C5BE1E5EBEC7D5BD14F71427D1E84F3DD0314C0F7B2291E5B200AC8C7C3B925 PUSH1 0x3 PUSH0 CALLER PUSH20 0xFFFFFFFFFFFFFFFFFFFFFFFFFFFFFFFFFFFFFFFF AND PUSH20 0xFFFFFFFFFFFFFFFFFFFFFFFFFFFFFFFFFFFFFFFF AND DUP2 MSTORE PUSH1 0x20 ADD SWAP1 DUP2 MSTORE PUSH1 0x20 ADD PUSH0 KECCAK256 PUSH0 DUP7 PUSH20 0xFFFFFFFFFFFFFFFFFFFFFFFFFFFFFFFFFFFFFFFF AND PUSH20 0xFFFFFFFFFFFFFFFFFFFFFFFFFFFFFFFFFFFFFFFF AND DUP2 MSTORE PUSH1 0x20 ADD SWAP1 DUP2 MSTORE PUSH1 0x20 ADD PUSH0 KECCAK256 SLOAD PUSH1 0x40 MLOAD PUSH2 0xD16 SWAP2 SWAP1 PUSH2 0x163E JUMP JUMPDEST PUSH1 0x40 MLOAD DUP1 SWAP2 SUB SWAP1 LOG3 POP POP JUMP JUMPDEST PUSH0 PUSH1 0x2 PUSH0 DUP4 PUSH20 0xFFFFFFFFFFFFFFFFFFFFFFFFFFFFFFFFFFFFFFFF AND PUSH20 0xFFFFFFFFFFFFFFFFFFFFFFFFFFFFFFFFFFFFFFFF AND DUP2 MSTORE PUSH1 0x20 ADD SWAP1 DUP2 MSTORE PUSH1 0x20 ADD PUSH0 KECCAK256 SLOAD SWAP1 POP SWAP2 SWAP1 POP JUMP JUMPDEST PUSH1 0x40 MLOAD DUP1 PUSH1 0x40 ADD PUSH1 0x40 MSTORE DUP1 PUSH1 0x6 DUP2 MSTORE PUSH1 0x20 ADD PUSH32 0x4D61746368610000000000000000000000000000000000000000000000000000 DUP2 MSTORE POP DUP2 JUMP JUMPDEST PUSH0 PUSH1 0x2 PUSH0 CALLER PUSH20 0xFFFFFFFFFFFFFFFFFFFFFFFFFFFFFFFFFFFFFFFF AND PUSH20 0xFFFFFFFFFFFFFFFFFFFFFFFFFFFFFFFFFFFFFFFF AND DUP2 MSTORE PUSH1 0x20 ADD SWAP1 DUP2 MSTORE PUSH1 0x20 ADD PUSH0 KECCAK256 SLOAD DUP3 GT ISZERO PUSH2 0xE22 JUMPI PUSH1 0x40 MLOAD PUSH32 0x8C379A000000000000000000000000000000000000000000000000000000000 DUP2 MSTORE PUSH1 0x4 ADD PUSH2 0xE19 SWAP1 PUSH2 0x1AA4 JUMP JUMPDEST PUSH1 0x40 MLOAD DUP1 SWAP2 SUB SWAP1 REVERT JUMPDEST PUSH0 PUSH20 0xFFFFFFFFFFFFFFFFFFFFFFFFFFFFFFFFFFFFFFFF AND DUP4 PUSH20 0xFFFFFFFFFFFFFFFFFFFFFFFFFFFFFFFFFFFFFFFF AND SUB PUSH2 0xE90 JUMPI PUSH1 0x40 MLOAD PUSH32 0x8C379A000000000000000000000000000000000000000000000000000000000 DUP2 MSTORE PUSH1 0x4 ADD PUSH2 0xE87 SWAP1 PUSH2 0x19D4 JUMP JUMPDEST PUSH1 0x40 MLOAD DUP1 SWAP2 SUB SWAP1 REVERT JUMPDEST PUSH2 0xEE0 DUP3 PUSH1 0x2 PUSH0 CALLER PUSH20 0xFFFFFFFFFFFFFFFFFFFFFFFFFFFFFFFFFFFFFFFF AND PUSH20 0xFFFFFFFFFFFFFFFFFFFFFFFFFFFFFFFFFFFFFFFF AND DUP2 MSTORE PUSH1 0x20 ADD SWAP1 DUP2 MSTORE PUSH1 0x20 ADD PUSH0 KECCAK256 SLOAD PUSH2 0x1189 SWAP1 SWAP2 SWAP1 PUSH4 0xFFFFFFFF AND JUMP JUMPDEST PUSH1 0x2 PUSH0 CALLER PUSH20 0xFFFFFFFFFFFFFFFFFFFFFFFFFFFFFFFFFFFFFFFF AND PUSH20 0xFFFFFFFFFFFFFFFFFFFFFFFFFFFFFFFFFFFFFFFF AND DUP2 MSTORE PUSH1 0x20 ADD SWAP1 DUP2 MSTORE PUSH1 0x20 ADD PUSH0 KECCAK256 DUP2 SWAP1 SSTORE POP PUSH2 0xF71 DUP3 PUSH1 0x2 PUSH0 DUP7 PUSH20 0xFFFFFFFFFFFFFFFFFFFFFFFFFFFFFFFFFFFFFFFF AND PUSH20 0xFFFFFFFFFFFFFFFFFFFFFFFFFFFFFFFFFFFFFFFF AND DUP2 MSTORE PUSH1 0x20 ADD SWAP1 DUP2 MSTORE PUSH1 0x20 ADD PUSH0 KECCAK256 SLOAD PUSH2 0x136D SWAP1 SWAP2 SWAP1 PUSH4 0xFFFFFFFF AND JUMP JUMPDEST PUSH1 0x2 PUSH0 DUP6 PUSH20 0xFFFFFFFFFFFFFFFFFFFFFFFFFFFFFFFFFFFFFFFF AND PUSH20 0xFFFFFFFFFFFFFFFFFFFFFFFFFFFFFFFFFFFFFFFF AND DUP2 MSTORE PUSH1 0x20 ADD SWAP1 DUP2 MSTORE PUSH1 0x20 ADD PUSH0 KECCAK256 DUP2 SWAP1 SSTORE POP DUP3 PUSH20 0xFFFFFFFFFFFFFFFFFFFFFFFFFFFFFFFFFFFFFFFF AND CALLER PUSH20 0xFFFFFFFFFFFFFFFFFFFFFFFFFFFFFFFFFFFFFFFF AND PUSH32 0xDDF252AD1BE2C89B69C2B068FC378DAA952BA7F163C4A11628F55A4DF523B3EF DUP5 PUSH1 0x40 MLOAD PUSH2 0x100F SWAP2 SWAP1 PUSH2 0x163E JUMP JUMPDEST PUSH1 0x40 MLOAD DUP1 SWAP2 SUB SWAP1 LOG3 PUSH1 0x1 SWAP1 POP SWAP3 SWAP2 POP POP JUMP JUMPDEST PUSH0 DUP1 PUSH20 0xFFFFFFFFFFFFFFFFFFFFFFFFFFFFFFFFFFFFFFFF AND DUP4 PUSH20 0xFFFFFFFFFFFFFFFFFFFFFFFFFFFFFFFFFFFFFFFF AND SUB PUSH2 0x1059 JUMPI PUSH0 DUP1 REVERT JUMPDEST PUSH1 0x2 PUSH1 0x1 SLOAD PUSH2 0x1068 SWAP2 SWAP1 PUSH2 0x1B1C JUMP JUMPDEST PUSH1 0x2 PUSH0 DUP6 PUSH20 0xFFFFFFFFFFFFFFFFFFFFFFFFFFFFFFFFFFFFFFFF AND PUSH20 0xFFFFFFFFFFFFFFFFFFFFFFFFFFFFFFFFFFFFFFFF AND DUP2 MSTORE PUSH1 0x20 ADD SWAP1 DUP2 MSTORE PUSH1 0x20 ADD PUSH0 KECCAK256 SLOAD GT PUSH2 0x10E6 JUMPI PUSH1 0x40 MLOAD PUSH32 0x8C379A000000000000000000000000000000000000000000000000000000000 DUP2 MSTORE PUSH1 0x4 ADD PUSH2 0x10DD SWAP1 PUSH2 0x1B96 JUMP JUMPDEST PUSH1 0x40 MLOAD DUP1 SWAP2 SUB SWAP1 REVERT JUMPDEST PUSH2 0x10EF DUP3 PUSH2 0x13C5 JUMP JUMPDEST PUSH0 SWAP1 DUP2 PUSH2 0x10FC SWAP2 SWAP1 PUSH2 0x1D51 JUMP JUMPDEST POP PUSH1 0x1 SWAP1 POP SWAP3 SWAP2 POP POP JUMP JUMPDEST PUSH0 PUSH1 0x3 PUSH0 DUP5 PUSH20 0xFFFFFFFFFFFFFFFFFFFFFFFFFFFFFFFFFFFFFFFF AND PUSH20 0xFFFFFFFFFFFFFFFFFFFFFFFFFFFFFFFFFFFFFFFF AND DUP2 MSTORE PUSH1 0x20 ADD SWAP1 DUP2 MSTORE PUSH1 0x20 ADD PUSH0 KECCAK256 PUSH0 DUP4 PUSH20 0xFFFFFFFFFFFFFFFFFFFFFFFFFFFFFFFFFFFFFFFF AND PUSH20 0xFFFFFFFFFFFFFFFFFFFFFFFFFFFFFFFFFFFFFFFF AND DUP2 MSTORE PUSH1 0x20 ADD SWAP1 DUP2 MSTORE PUSH1 0x20 ADD PUSH0 KECCAK256 SLOAD SWAP1 POP SWAP3 SWAP2 POP POP JUMP JUMPDEST PUSH0 DUP3 DUP3 DUP5 PUSH2 0x1197 SWAP2 SWAP1 PUSH2 0x1E20 JUMP JUMPDEST SWAP2 POP DUP2 GT ISZERO PUSH2 0x11DB JUMPI PUSH1 0x40 MLOAD PUSH32 0x8C379A000000000000000000000000000000000000000000000000000000000 DUP2 MSTORE PUSH1 0x4 ADD PUSH2 0x11D2 SWAP1 PUSH2 0x1E9D JUMP JUMPDEST PUSH1 0x40 MLOAD DUP1 SWAP2 SUB SWAP1 REVERT JUMPDEST SWAP3 SWAP2 POP POP JUMP JUMPDEST PUSH2 0x1231 DUP2 PUSH1 0x2 PUSH0 DUP7 PUSH20 0xFFFFFFFFFFFFFFFFFFFFFFFFFFFFFFFFFFFFFFFF AND PUSH20 0xFFFFFFFFFFFFFFFFFFFFFFFFFFFFFFFFFFFFFFFF AND DUP2 MSTORE PUSH1 0x20 ADD SWAP1 DUP2 MSTORE PUSH1 0x20 ADD PUSH0 KECCAK256 SLOAD PUSH2 0x1189 SWAP1 SWAP2 SWAP1 PUSH4 0xFFFFFFFF AND JUMP JUMPDEST PUSH1 0x2 PUSH0 DUP6 PUSH20 0xFFFFFFFFFFFFFFFFFFFFFFFFFFFFFFFFFFFFFFFF AND PUSH20 0xFFFFFFFFFFFFFFFFFFFFFFFFFFFFFFFFFFFFFFFF AND DUP2 MSTORE PUSH1 0x20 ADD SWAP1 DUP2 MSTORE PUSH1 0x20 ADD PUSH0 KECCAK256 DUP2 SWAP1 SSTORE POP PUSH2 0x12C2 DUP2 PUSH1 0x2 PUSH0 DUP6 PUSH20 0xFFFFFFFFFFFFFFFFFFFFFFFFFFFFFFFFFFFFFFFF AND PUSH20 0xFFFFFFFFFFFFFFFFFFFFFFFFFFFFFFFFFFFFFFFF AND DUP2 MSTORE PUSH1 0x20 ADD SWAP1 DUP2 MSTORE PUSH1 0x20 ADD PUSH0 KECCAK256 SLOAD PUSH2 0x136D SWAP1 SWAP2 SWAP1 PUSH4 0xFFFFFFFF AND JUMP JUMPDEST PUSH1 0x2 PUSH0 DUP5 PUSH20 0xFFFFFFFFFFFFFFFFFFFFFFFFFFFFFFFFFFFFFFFF AND PUSH20 0xFFFFFFFFFFFFFFFFFFFFFFFFFFFFFFFFFFFFFFFF AND DUP2 MSTORE PUSH1 0x20 ADD SWAP1 DUP2 MSTORE PUSH1 0x20 ADD PUSH0 KECCAK256 DUP2 SWAP1 SSTORE POP DUP2 PUSH20 0xFFFFFFFFFFFFFFFFFFFFFFFFFFFFFFFFFFFFFFFF AND DUP4 PUSH20 0xFFFFFFFFFFFFFFFFFFFFFFFFFFFFFFFFFFFFFFFF AND PUSH32 0xDDF252AD1BE2C89B69C2B068FC378DAA952BA7F163C4A11628F55A4DF523B3EF DUP4 PUSH1 0x40 MLOAD PUSH2 0x1360 SWAP2 SWAP1 PUSH2 0x163E JUMP JUMPDEST PUSH1 0x40 MLOAD DUP1 SWAP2 SUB SWAP1 LOG3 POP POP POP JUMP JUMPDEST PUSH0 DUP3 DUP3 DUP5 PUSH2 0x137B SWAP2 SWAP1 PUSH2 0x1EBB JUMP JUMPDEST SWAP2 POP DUP2 LT ISZERO PUSH2 0x13BF JUMPI PUSH1 0x40 MLOAD PUSH32 0x8C379A000000000000000000000000000000000000000000000000000000000 DUP2 MSTORE PUSH1 0x4 ADD PUSH2 0x13B6 SWAP1 PUSH2 0x1F38 JUMP JUMPDEST PUSH1 0x40 MLOAD DUP1 SWAP2 SUB SWAP1 REVERT JUMPDEST SWAP3 SWAP2 POP POP JUMP JUMPDEST PUSH1 0x60 DUP2 PUSH0 SWAP1 DUP2 PUSH2 0x13D5 SWAP2 SWAP1 PUSH2 0x1D51 JUMP JUMPDEST POP PUSH0 DUP1 SLOAD PUSH2 0x13E2 SWAP1 PUSH2 0x18CC JUMP JUMPDEST DUP1 PUSH1 0x1F ADD PUSH1 0x20 DUP1 SWAP2 DIV MUL PUSH1 0x20 ADD PUSH1 0x40 MLOAD SWAP1 DUP2 ADD PUSH1 0x40 MSTORE DUP1 SWAP3 SWAP2 SWAP1 DUP2 DUP2 MSTORE PUSH1 0x20 ADD DUP3 DUP1 SLOAD PUSH2 0x140E SWAP1 PUSH2 0x18CC JUMP JUMPDEST DUP1 ISZERO PUSH2 0x1459 JUMPI DUP1 PUSH1 0x1F LT PUSH2 0x1430 JUMPI PUSH2 0x100 DUP1 DUP4 SLOAD DIV MUL DUP4 MSTORE SWAP2 PUSH1 0x20 ADD SWAP2 PUSH2 0x1459 JUMP JUMPDEST DUP3 ADD SWAP2 SWAP1 PUSH0 MSTORE PUSH1 0x20 PUSH0 KECCAK256 SWAP1 JUMPDEST DUP2 SLOAD DUP2 MSTORE SWAP1 PUSH1 0x1 ADD SWAP1 PUSH1 0x20 ADD DUP1 DUP4 GT PUSH2 0x143C JUMPI DUP3 SWAP1 SUB PUSH1 0x1F AND DUP3 ADD SWAP2 JUMPDEST POP POP POP POP POP SWAP1 POP SWAP2 SWAP1 POP JUMP JUMPDEST PUSH0 DUP2 MLOAD SWAP1 POP SWAP2 SWAP1 POP JUMP JUMPDEST PUSH0 DUP3 DUP3 MSTORE PUSH1 0x20 DUP3 ADD SWAP1 POP SWAP3 SWAP2 POP POP JUMP JUMPDEST DUP3 DUP2 DUP4 MCOPY PUSH0 DUP4 DUP4 ADD MSTORE POP POP POP JUMP JUMPDEST PUSH0 PUSH1 0x1F NOT PUSH1 0x1F DUP4 ADD AND SWAP1 POP SWAP2 SWAP1 POP JUMP JUMPDEST PUSH0 PUSH2 0x14A7 DUP3 PUSH2 0x1465 JUMP JUMPDEST PUSH2 0x14B1 DUP2 DUP6 PUSH2 0x146F JUMP JUMPDEST SWAP4 POP PUSH2 0x14C1 DUP2 DUP6 PUSH1 0x20 DUP7 ADD PUSH2 0x147F JUMP JUMPDEST PUSH2 0x14CA DUP2 PUSH2 0x148D JUMP JUMPDEST DUP5 ADD SWAP2 POP POP SWAP3 SWAP2 POP POP JUMP JUMPDEST PUSH0 PUSH1 0x20 DUP3 ADD SWAP1 POP DUP2 DUP2 SUB PUSH0 DUP4 ADD MSTORE PUSH2 0x14ED DUP2 DUP5 PUSH2 0x149D JUMP JUMPDEST SWAP1 POP SWAP3 SWAP2 POP POP JUMP JUMPDEST PUSH0 PUSH1 0x40 MLOAD SWAP1 POP SWAP1 JUMP JUMPDEST PUSH0 DUP1 REVERT JUMPDEST PUSH0 DUP1 REVERT JUMPDEST PUSH0 PUSH20 0xFFFFFFFFFFFFFFFFFFFFFFFFFFFFFFFFFFFFFFFF DUP3 AND SWAP1 POP SWAP2 SWAP1 POP JUMP JUMPDEST PUSH0 PUSH2 0x152F DUP3 PUSH2 0x1506 JUMP JUMPDEST SWAP1 POP SWAP2 SWAP1 POP JUMP JUMPDEST PUSH2 0x153F DUP2 PUSH2 0x1525 JUMP JUMPDEST DUP2 EQ PUSH2 0x1549 JUMPI PUSH0 DUP1 REVERT JUMPDEST POP JUMP JUMPDEST PUSH0 DUP2 CALLDATALOAD SWAP1 POP PUSH2 0x155A DUP2 PUSH2 0x1536 JUMP JUMPDEST SWAP3 SWAP2 POP POP JUMP JUMPDEST PUSH0 DUP2 SWAP1 POP SWAP2 SWAP1 POP JUMP JUMPDEST PUSH2 0x1572 DUP2 PUSH2 0x1560 JUMP JUMPDEST DUP2 EQ PUSH2 0x157C JUMPI PUSH0 DUP1 REVERT JUMPDEST POP JUMP JUMPDEST PUSH0 DUP2 CALLDATALOAD SWAP1 POP PUSH2 0x158D DUP2 PUSH2 0x1569 JUMP JUMPDEST SWAP3 SWAP2 POP POP JUMP JUMPDEST PUSH0 DUP1 PUSH1 0x40 DUP4 DUP6 SUB SLT ISZERO PUSH2 0x15A9 JUMPI PUSH2 0x15A8 PUSH2 0x14FE JUMP JUMPDEST JUMPDEST PUSH0 PUSH2 0x15B6 DUP6 DUP3 DUP7 ADD PUSH2 0x154C JUMP JUMPDEST SWAP3 POP POP PUSH1 0x20 PUSH2 0x15C7 DUP6 DUP3 DUP7 ADD PUSH2 0x157F JUMP JUMPDEST SWAP2 POP POP SWAP3 POP SWAP3 SWAP1 POP JUMP JUMPDEST PUSH0 DUP2 ISZERO ISZERO SWAP1 POP SWAP2 SWAP1 POP JUMP JUMPDEST PUSH2 0x15E5 DUP2 PUSH2 0x15D1 JUMP JUMPDEST DUP3 MSTORE POP POP JUMP JUMPDEST PUSH0 PUSH1 0x20 DUP3 ADD SWAP1 POP PUSH2 0x15FE PUSH0 DUP4 ADD DUP5 PUSH2 0x15DC JUMP JUMPDEST SWAP3 SWAP2 POP POP JUMP JUMPDEST PUSH0 PUSH1 0x20 DUP3 DUP5 SUB SLT ISZERO PUSH2 0x1619 JUMPI PUSH2 0x1618 PUSH2 0x14FE JUMP JUMPDEST JUMPDEST PUSH0 PUSH2 0x1626 DUP5 DUP3 DUP6 ADD PUSH2 0x154C JUMP JUMPDEST SWAP2 POP POP SWAP3 SWAP2 POP POP JUMP JUMPDEST PUSH2 0x1638 DUP2 PUSH2 0x1560 JUMP JUMPDEST DUP3 MSTORE POP POP JUMP JUMPDEST PUSH0 PUSH1 0x20 DUP3 ADD SWAP1 POP PUSH2 0x1651 PUSH0 DUP4 ADD DUP5 PUSH2 0x162F JUMP JUMPDEST SWAP3 SWAP2 POP POP JUMP JUMPDEST PUSH0 DUP1 PUSH0 PUSH1 0x60 DUP5 DUP7 SUB SLT ISZERO PUSH2 0x166E JUMPI PUSH2 0x166D PUSH2 0x14FE JUMP JUMPDEST JUMPDEST PUSH0 PUSH2 0x167B DUP7 DUP3 DUP8 ADD PUSH2 0x154C JUMP JUMPDEST SWAP4 POP POP PUSH1 0x20 PUSH2 0x168C DUP7 DUP3 DUP8 ADD PUSH2 0x154C JUMP JUMPDEST SWAP3 POP POP PUSH1 0x40 PUSH2 0x169D DUP7 DUP3 DUP8 ADD PUSH2 0x157F JUMP JUMPDEST SWAP2 POP POP SWAP3 POP SWAP3 POP SWAP3 JUMP JUMPDEST PUSH0 PUSH1 0xFF DUP3 AND SWAP1 POP SWAP2 SWAP1 POP JUMP JUMPDEST PUSH2 0x16BC DUP2 PUSH2 0x16A7 JUMP JUMPDEST DUP3 MSTORE POP POP JUMP JUMPDEST PUSH0 PUSH1 0x20 DUP3 ADD SWAP1 POP PUSH2 0x16D5 PUSH0 DUP4 ADD DUP5 PUSH2 0x16B3 JUMP JUMPDEST SWAP3 SWAP2 POP POP JUMP JUMPDEST PUSH0 DUP1 REVERT JUMPDEST PUSH0 DUP1 REVERT JUMPDEST PUSH32 0x4E487B7100000000000000000000000000000000000000000000000000000000 PUSH0 MSTORE PUSH1 0x41 PUSH1 0x4 MSTORE PUSH1 0x24 PUSH0 REVERT JUMPDEST PUSH2 0x1719 DUP3 PUSH2 0x148D JUMP JUMPDEST DUP2 ADD DUP2 DUP2 LT PUSH8 0xFFFFFFFFFFFFFFFF DUP3 GT OR ISZERO PUSH2 0x1738 JUMPI PUSH2 0x1737 PUSH2 0x16E3 JUMP JUMPDEST JUMPDEST DUP1 PUSH1 0x40 MSTORE POP POP POP JUMP JUMPDEST PUSH0 PUSH2 0x174A PUSH2 0x14F5 JUMP JUMPDEST SWAP1 POP PUSH2 0x1756 DUP3 DUP3 PUSH2 0x1710 JUMP JUMPDEST SWAP2 SWAP1 POP JUMP JUMPDEST PUSH0 PUSH8 0xFFFFFFFFFFFFFFFF DUP3 GT ISZERO PUSH2 0x1775 JUMPI PUSH2 0x1774 PUSH2 0x16E3 JUMP JUMPDEST JUMPDEST PUSH2 0x177E DUP3 PUSH2 0x148D JUMP JUMPDEST SWAP1 POP PUSH1 0x20 DUP2 ADD SWAP1 POP SWAP2 SWAP1 POP JUMP JUMPDEST DUP3 DUP2 DUP4 CALLDATACOPY PUSH0 DUP4 DUP4 ADD MSTORE POP POP POP JUMP JUMPDEST PUSH0 PUSH2 0x17AB PUSH2 0x17A6 DUP5 PUSH2 0x175B JUMP JUMPDEST PUSH2 0x1741 JUMP JUMPDEST SWAP1 POP DUP3 DUP2 MSTORE PUSH1 0x20 DUP2 ADD DUP5 DUP5 DUP5 ADD GT ISZERO PUSH2 0x17C7 JUMPI PUSH2 0x17C6 PUSH2 0x16DF JUMP JUMPDEST JUMPDEST PUSH2 0x17D2 DUP5 DUP3 DUP6 PUSH2 0x178B JUMP JUMPDEST POP SWAP4 SWAP3 POP POP POP JUMP JUMPDEST PUSH0 DUP3 PUSH1 0x1F DUP4 ADD SLT PUSH2 0x17EE JUMPI PUSH2 0x17ED PUSH2 0x16DB JUMP JUMPDEST JUMPDEST DUP2 CALLDATALOAD PUSH2 0x17FE DUP5 DUP3 PUSH1 0x20 DUP7 ADD PUSH2 0x1799 JUMP JUMPDEST SWAP2 POP POP SWAP3 SWAP2 POP POP JUMP JUMPDEST PUSH0 DUP1 PUSH1 0x40 DUP4 DUP6 SUB SLT ISZERO PUSH2 0x181D JUMPI PUSH2 0x181C PUSH2 0x14FE JUMP JUMPDEST JUMPDEST PUSH0 PUSH2 0x182A DUP6 DUP3 DUP7 ADD PUSH2 0x154C JUMP JUMPDEST SWAP3 POP POP PUSH1 0x20 DUP4 ADD CALLDATALOAD PUSH8 0xFFFFFFFFFFFFFFFF DUP2 GT ISZERO PUSH2 0x184B JUMPI PUSH2 0x184A PUSH2 0x1502 JUMP JUMPDEST JUMPDEST PUSH2 0x1857 DUP6 DUP3 DUP7 ADD PUSH2 0x17DA JUMP JUMPDEST SWAP2 POP POP SWAP3 POP SWAP3 SWAP1 POP JUMP JUMPDEST PUSH0 DUP1 PUSH1 0x40 DUP4 DUP6 SUB SLT ISZERO PUSH2 0x1877 JUMPI PUSH2 0x1876 PUSH2 0x14FE JUMP JUMPDEST JUMPDEST PUSH0 PUSH2 0x1884 DUP6 DUP3 DUP7 ADD PUSH2 0x154C JUMP JUMPDEST SWAP3 POP POP PUSH1 0x20 PUSH2 0x1895 DUP6 DUP3 DUP7 ADD PUSH2 0x154C JUMP JUMPDEST SWAP2 POP POP SWAP3 POP SWAP3 SWAP1 POP JUMP JUMPDEST PUSH32 0x4E487B7100000000000000000000000000000000000000000000000000000000 PUSH0 MSTORE PUSH1 0x22 PUSH1 0x4 MSTORE PUSH1 0x24 PUSH0 REVERT JUMPDEST PUSH0 PUSH1 0x2 DUP3 DIV SWAP1 POP PUSH1 0x1 DUP3 AND DUP1 PUSH2 0x18E3 JUMPI PUSH1 0x7F DUP3 AND SWAP2 POP JUMPDEST PUSH1 0x20 DUP3 LT DUP2 SUB PUSH2 0x18F6 JUMPI PUSH2 0x18F5 PUSH2 0x189F JUMP JUMPDEST JUMPDEST POP SWAP2 SWAP1 POP JUMP JUMPDEST PUSH32 0x646F6E2774206275792069742C206974277320746F6F20657870656E73697665 PUSH0 DUP3 ADD MSTORE PUSH32 0x2072617468657220676F20746F204A6F65797300000000000000000000000000 PUSH1 0x20 DUP3 ADD MSTORE POP JUMP JUMPDEST PUSH0 PUSH2 0x1956 PUSH1 0x33 DUP4 PUSH2 0x146F JUMP JUMPDEST SWAP2 POP PUSH2 0x1961 DUP3 PUSH2 0x18FC JUMP JUMPDEST PUSH1 0x40 DUP3 ADD SWAP1 POP SWAP2 SWAP1 POP JUMP JUMPDEST PUSH0 PUSH1 0x20 DUP3 ADD SWAP1 POP DUP2 DUP2 SUB PUSH0 DUP4 ADD MSTORE PUSH2 0x1983 DUP2 PUSH2 0x194A JUMP JUMPDEST SWAP1 POP SWAP2 SWAP1 POP JUMP JUMPDEST PUSH32 0x496E76616C696420726563697069656E74206164647265737300000000000000 PUSH0 DUP3 ADD MSTORE POP JUMP JUMPDEST PUSH0 PUSH2 0x19BE PUSH1 0x19 DUP4 PUSH2 0x146F JUMP JUMPDEST SWAP2 POP PUSH2 0x19C9 DUP3 PUSH2 0x198A JUMP JUMPDEST PUSH1 0x20 DUP3 ADD SWAP1 POP SWAP2 SWAP1 POP JUMP JUMPDEST PUSH0 PUSH1 0x20 DUP3 ADD SWAP1 POP DUP2 DUP2 SUB PUSH0 DUP4 ADD MSTORE PUSH2 0x19EB DUP2 PUSH2 0x19B2 JUMP JUMPDEST SWAP1 POP SWAP2 SWAP1 POP JUMP JUMPDEST PUSH32 0x696E76616C6964207370656E6465720000000000000000000000000000000000 PUSH0 DUP3 ADD MSTORE POP JUMP JUMPDEST PUSH0 PUSH2 0x1A26 PUSH1 0xF DUP4 PUSH2 0x146F JUMP JUMPDEST SWAP2 POP PUSH2 0x1A31 DUP3 PUSH2 0x19F2 JUMP JUMPDEST PUSH1 0x20 DUP3 ADD SWAP1 POP SWAP2 SWAP1 POP JUMP JUMPDEST PUSH0 PUSH1 0x20 DUP3 ADD SWAP1 POP DUP2 DUP2 SUB PUSH0 DUP4 ADD MSTORE PUSH2 0x1A53 DUP2 PUSH2 0x1A1A JUMP JUMPDEST SWAP1 POP SWAP2 SWAP1 POP JUMP JUMPDEST PUSH32 0x496E73756666696369656E742062616C616E6365000000000000000000000000 PUSH0 DUP3 ADD MSTORE POP JUMP JUMPDEST PUSH0 PUSH2 0x1A8E PUSH1 0x14 DUP4 PUSH2 0x146F JUMP JUMPDEST SWAP2 POP PUSH2 0x1A99 DUP3 PUSH2 0x1A5A JUMP JUMPDEST PUSH1 0x20 DUP3 ADD SWAP1 POP SWAP2 SWAP1 POP JUMP JUMPDEST PUSH0 PUSH1 0x20 DUP3 ADD SWAP1 POP DUP2 DUP2 SUB PUSH0 DUP4 ADD MSTORE PUSH2 0x1ABB DUP2 PUSH2 0x1A82 JUMP JUMPDEST SWAP1 POP SWAP2 SWAP1 POP JUMP JUMPDEST PUSH32 0x4E487B7100000000000000000000000000000000000000000000000000000000 PUSH0 MSTORE PUSH1 0x12 PUSH1 0x4 MSTORE PUSH1 0x24 PUSH0 REVERT JUMPDEST PUSH32 0x4E487B7100000000000000000000000000000000000000000000000000000000 PUSH0 MSTORE PUSH1 0x11 PUSH1 0x4 MSTORE PUSH1 0x24 PUSH0 REVERT JUMPDEST PUSH0 PUSH2 0x1B26 DUP3 PUSH2 0x1560 JUMP JUMPDEST SWAP2 POP PUSH2 0x1B31 DUP4 PUSH2 0x1560 JUMP JUMPDEST SWAP3 POP DUP3 PUSH2 0x1B41 JUMPI PUSH2 0x1B40 PUSH2 0x1AC2 JUMP JUMPDEST JUMPDEST DUP3 DUP3 DIV SWAP1 POP SWAP3 SWAP2 POP POP JUMP JUMPDEST PUSH32 0x446F6E2774206F776E206D616A6F726974790000000000000000000000000000 PUSH0 DUP3 ADD MSTORE POP JUMP JUMPDEST PUSH0 PUSH2 0x1B80 PUSH1 0x12 DUP4 PUSH2 0x146F JUMP JUMPDEST SWAP2 POP PUSH2 0x1B8B DUP3 PUSH2 0x1B4C JUMP JUMPDEST PUSH1 0x20 DUP3 ADD SWAP1 POP SWAP2 SWAP1 POP JUMP JUMPDEST PUSH0 PUSH1 0x20 DUP3 ADD SWAP1 POP DUP2 DUP2 SUB PUSH0 DUP4 ADD MSTORE PUSH2 0x1BAD DUP2 PUSH2 0x1B74 JUMP JUMPDEST SWAP1 POP SWAP2 SWAP1 POP JUMP JUMPDEST PUSH0 DUP2 SWAP1 POP DUP2 PUSH0 MSTORE PUSH1 0x20 PUSH0 KECCAK256 SWAP1 POP SWAP2 SWAP1 POP JUMP JUMPDEST PUSH0 PUSH1 0x20 PUSH1 0x1F DUP4 ADD DIV SWAP1 POP SWAP2 SWAP1 POP JUMP JUMPDEST PUSH0 DUP3 DUP3 SHL SWAP1 POP SWAP3 SWAP2 POP POP JUMP JUMPDEST PUSH0 PUSH1 0x8 DUP4 MUL PUSH2 0x1C10 PUSH32 0xFFFFFFFFFFFFFFFFFFFFFFFFFFFFFFFFFFFFFFFFFFFFFFFFFFFFFFFFFFFFFFFF DUP3 PUSH2 0x1BD5 JUMP JUMPDEST PUSH2 0x1C1A DUP7 DUP4 PUSH2 0x1BD5 JUMP JUMPDEST SWAP6 POP DUP1 NOT DUP5 AND SWAP4 POP DUP1 DUP7 AND DUP5 OR SWAP3 POP POP POP SWAP4 SWAP3 POP POP POP JUMP JUMPDEST PUSH0 DUP2 SWAP1 POP SWAP2 SWAP1 POP JUMP JUMPDEST PUSH0 PUSH2 0x1C55 PUSH2 0x1C50 PUSH2 0x1C4B DUP5 PUSH2 0x1560 JUMP JUMPDEST PUSH2 0x1C32 JUMP JUMPDEST PUSH2 0x1560 JUMP JUMPDEST SWAP1 POP SWAP2 SWAP1 POP JUMP JUMPDEST PUSH0 DUP2 SWAP1 POP SWAP2 SWAP1 POP JUMP JUMPDEST PUSH2 0x1C6E DUP4 PUSH2 0x1C3B JUMP JUMPDEST PUSH2 0x1C82 PUSH2 0x1C7A DUP3 PUSH2 0x1C5C JUMP JUMPDEST DUP5 DUP5 SLOAD PUSH2 0x1BE1 JUMP JUMPDEST DUP3 SSTORE POP POP POP POP JUMP JUMPDEST PUSH0 SWAP1 JUMP JUMPDEST PUSH2 0x1C96 PUSH2 0x1C8A JUMP JUMPDEST PUSH2 0x1CA1 DUP2 DUP5 DUP5 PUSH2 0x1C65 JUMP JUMPDEST POP POP POP JUMP JUMPDEST JUMPDEST DUP2 DUP2 LT ISZERO PUSH2 0x1CC4 JUMPI PUSH2 0x1CB9 PUSH0 DUP3 PUSH2 0x1C8E JUMP JUMPDEST PUSH1 0x1 DUP2 ADD SWAP1 POP PUSH2 0x1CA7 JUMP JUMPDEST POP POP JUMP JUMPDEST PUSH1 0x1F DUP3 GT ISZERO PUSH2 0x1D09 JUMPI PUSH2 0x1CDA DUP2 PUSH2 0x1BB4 JUMP JUMPDEST PUSH2 0x1CE3 DUP5 PUSH2 0x1BC6 JUMP JUMPDEST DUP2 ADD PUSH1 0x20 DUP6 LT ISZERO PUSH2 0x1CF2 JUMPI DUP2 SWAP1 POP JUMPDEST PUSH2 0x1D06 PUSH2 0x1CFE DUP6 PUSH2 0x1BC6 JUMP JUMPDEST DUP4 ADD DUP3 PUSH2 0x1CA6 JUMP JUMPDEST POP POP JUMPDEST POP POP POP JUMP JUMPDEST PUSH0 DUP3 DUP3 SHR SWAP1 POP SWAP3 SWAP2 POP POP JUMP JUMPDEST PUSH0 PUSH2 0x1D29 PUSH0 NOT DUP5 PUSH1 0x8 MUL PUSH2 0x1D0E JUMP JUMPDEST NOT DUP1 DUP4 AND SWAP2 POP POP SWAP3 SWAP2 POP POP JUMP JUMPDEST PUSH0 PUSH2 0x1D41 DUP4 DUP4 PUSH2 0x1D1A JUMP JUMPDEST SWAP2 POP DUP3 PUSH1 0x2 MUL DUP3 OR SWAP1 POP SWAP3 SWAP2 POP POP JUMP JUMPDEST PUSH2 0x1D5A DUP3 PUSH2 0x1465 JUMP JUMPDEST PUSH8 0xFFFFFFFFFFFFFFFF DUP2 GT ISZERO PUSH2 0x1D73 JUMPI PUSH2 0x1D72 PUSH2 0x16E3 JUMP JUMPDEST JUMPDEST PUSH2 0x1D7D DUP3 SLOAD PUSH2 0x18CC JUMP JUMPDEST PUSH2 0x1D88 DUP3 DUP3 DUP6 PUSH2 0x1CC8 JUMP JUMPDEST PUSH0 PUSH1 0x20 SWAP1 POP PUSH1 0x1F DUP4 GT PUSH1 0x1 DUP2 EQ PUSH2 0x1DB9 JUMPI PUSH0 DUP5 ISZERO PUSH2 0x1DA7 JUMPI DUP3 DUP8 ADD MLOAD SWAP1 POP JUMPDEST PUSH2 0x1DB1 DUP6 DUP3 PUSH2 0x1D36 JUMP JUMPDEST DUP7 SSTORE POP PUSH2 0x1E18 JUMP JUMPDEST PUSH1 0x1F NOT DUP5 AND PUSH2 0x1DC7 DUP7 PUSH2 0x1BB4 JUMP JUMPDEST PUSH0 JUMPDEST DUP3 DUP2 LT ISZERO PUSH2 0x1DEE JUMPI DUP5 DUP10 ADD MLOAD DUP3 SSTORE PUSH1 0x1 DUP3 ADD SWAP2 POP PUSH1 0x20 DUP6 ADD SWAP5 POP PUSH1 0x20 DUP2 ADD SWAP1 POP PUSH2 0x1DC9 JUMP JUMPDEST DUP7 DUP4 LT ISZERO PUSH2 0x1E0B JUMPI DUP5 DUP10 ADD MLOAD PUSH2 0x1E07 PUSH1 0x1F DUP10 AND DUP3 PUSH2 0x1D1A JUMP JUMPDEST DUP4 SSTORE POP JUMPDEST PUSH1 0x1 PUSH1 0x2 DUP9 MUL ADD DUP9 SSTORE POP POP POP JUMPDEST POP POP POP POP POP POP JUMP JUMPDEST PUSH0 PUSH2 0x1E2A DUP3 PUSH2 0x1560 JUMP JUMPDEST SWAP2 POP PUSH2 0x1E35 DUP4 PUSH2 0x1560 JUMP JUMPDEST SWAP3 POP DUP3 DUP3 SUB SWAP1 POP DUP2 DUP2 GT ISZERO PUSH2 0x1E4D JUMPI PUSH2 0x1E4C PUSH2 0x1AEF JUMP JUMPDEST JUMPDEST SWAP3 SWAP2 POP POP JUMP JUMPDEST PUSH32 0x64732D6D6174682D7375622D756E646572666C6F770000000000000000000000 PUSH0 DUP3 ADD MSTORE POP JUMP JUMPDEST PUSH0 PUSH2 0x1E87 PUSH1 0x15 DUP4 PUSH2 0x146F JUMP JUMPDEST SWAP2 POP PUSH2 0x1E92 DUP3 PUSH2 0x1E53 JUMP JUMPDEST PUSH1 0x20 DUP3 ADD SWAP1 POP SWAP2 SWAP1 POP JUMP JUMPDEST PUSH0 PUSH1 0x20 DUP3 ADD SWAP1 POP DUP2 DUP2 SUB PUSH0 DUP4 ADD MSTORE PUSH2 0x1EB4 DUP2 PUSH2 0x1E7B JUMP JUMPDEST SWAP1 POP SWAP2 SWAP1 POP JUMP JUMPDEST PUSH0 PUSH2 0x1EC5 DUP3 PUSH2 0x1560 JUMP JUMPDEST SWAP2 POP PUSH2 0x1ED0 DUP4 PUSH2 0x1560 JUMP JUMPDEST SWAP3 POP DUP3 DUP3 ADD SWAP1 POP DUP1 DUP3 GT ISZERO PUSH2 0x1EE8 JUMPI PUSH2 0x1EE7 PUSH2 0x1AEF JUMP JUMPDEST JUMPDEST SWAP3 SWAP2 POP POP JUMP JUMPDEST PUSH32 0x64732D6D6174682D6164642D6F766572666C6F77000000000000000000000000 PUSH0 DUP3 ADD MSTORE POP JUMP JUMPDEST PUSH0 PUSH2 0x1F22 PUSH1 0x14 DUP4 PUSH2 0x146F JUMP JUMPDEST SWAP2 POP PUSH2 0x1F2D DUP3 PUSH2 0x1EEE JUMP JUMPDEST PUSH1 0x20 DUP3 ADD SWAP1 POP SWAP2 SWAP1 POP JUMP JUMPDEST PUSH0 PUSH1 0x20 DUP3 ADD SWAP1 POP DUP2 DUP2 SUB PUSH0 DUP4 ADD MSTORE PUSH2 0x1F4F DUP2 PUSH2 0x1F16 JUMP JUMPDEST SWAP1 POP SWAP2 SWAP1 POP JUMP INVALID LOG2 PUSH5 0x6970667358 0x22 SLT KECCAK256 SHR 0x2C TIMESTAMP JUMPI 0x21 SLT 0xA8 BLOBBASEFEE PUSH4 0x4AB88A62 CHAINID CALLDATASIZE PUSH8 0x4BF1E6A47B11149E 0xEB XOR SWAP15 0xF8 SELFDESTRUCT 0x29 GASLIMIT 0xCF PUSH5 0x736F6C6343 STOP ADDMOD NOT STOP CALLER "
				},
				"gasEstimates": {
					"creation": {
						"codeDepositCost": "1615200",
						"executionCost": "infinite",
						"totalCost": "infinite"
					},
					"external": {
						"_totalSupply()": "2470",
						"allowLess(address,uint256)": "infinite",
						"allowMore(address,uint256)": "infinite",
						"allowToSpendOnMatcha(address)": "infinite",
						"allowance(address,address)": "infinite",
						"approve(address,uint256)": "infinite",
						"balanceOf(address)": "2918",
						"buyAMatcha(address,uint256)": "infinite",
						"changeTokenName(address,string)": "infinite",
						"decimals()": "420",
						"name()": "infinite",
						"symbol()": "infinite",
						"totalSupply()": "2477",
						"transfer(address,uint256)": "infinite",
						"transferFrom(address,address,uint256)": "infinite"
					},
					"internal": {
						"_setName(string memory)": "infinite",
						"_transfer(address,address,uint256)": "infinite"
					}
				},
				"methodIdentifiers": {
					"_totalSupply()": "3eaaf86b",
					"allowLess(address,uint256)": "3be5620e",
					"allowMore(address,uint256)": "6de30c30",
					"allowToSpendOnMatcha(address)": "14cd78b4",
					"allowance(address,address)": "dd62ed3e",
					"approve(address,uint256)": "095ea7b3",
					"balanceOf(address)": "70a08231",
					"buyAMatcha(address,uint256)": "07c629c8",
					"changeTokenName(address,string)": "a91f1628",
					"decimals()": "313ce567",
					"name()": "06fdde03",
					"symbol()": "95d89b41",
					"totalSupply()": "18160ddd",
					"transfer(address,uint256)": "a9059cbb",
					"transferFrom(address,address,uint256)": "23b872dd"
				}
			},
			"storageLayout": {
				"storage": [
					{
						"astId": 97,
						"contract": "MatchaToken.sol:SarahKhushiiCoin",
						"label": "name",
						"offset": 0,
						"slot": "0",
						"type": "t_string_storage"
					},
					{
						"astId": 110,
						"contract": "MatchaToken.sol:SarahKhushiiCoin",
						"label": "_totalSupply",
						"offset": 0,
						"slot": "1",
						"type": "t_uint256"
					},
					{
						"astId": 115,
						"contract": "MatchaToken.sol:SarahKhushiiCoin",
						"label": "_balances",
						"offset": 0,
						"slot": "2",
						"type": "t_mapping(t_address,t_uint256)"
					},
					{
						"astId": 121,
						"contract": "MatchaToken.sol:SarahKhushiiCoin",
						"label": "_allowance",
						"offset": 0,
						"slot": "3",
						"type": "t_mapping(t_address,t_mapping(t_address,t_uint256))"
					},
					{
						"astId": 125,
						"contract": "MatchaToken.sol:SarahKhushiiCoin",
						"label": "nonces",
						"offset": 0,
						"slot": "4",
						"type": "t_mapping(t_address,t_uint256)"
					}
				],
				"types": {
					"t_address": {
						"encoding": "inplace",
						"label": "address",
						"numberOfBytes": "20"
					},
					"t_mapping(t_address,t_mapping(t_address,t_uint256))": {
						"encoding": "mapping",
						"key": "t_address",
						"label": "mapping(address => mapping(address => uint256))",
						"numberOfBytes": "32",
						"value": "t_mapping(t_address,t_uint256)"
					},
					"t_mapping(t_address,t_uint256)": {
						"encoding": "mapping",
						"key": "t_address",
						"label": "mapping(address => uint256)",
						"numberOfBytes": "32",
						"value": "t_uint256"
					},
					"t_string_storage": {
						"encoding": "bytes",
						"label": "string",
						"numberOfBytes": "32"
					},
					"t_uint256": {
						"encoding": "inplace",
						"label": "uint256",
						"numberOfBytes": "32"
					}
				}
			},
			"userdoc": {
				"kind": "user",
				"methods": {
					"allowance(address,address)": {
						"notice": "Function to check the amount of tokens that an owner allowed to a spender."
					},
					"approve(address,uint256)": {
						"notice": "here we approve others to spend our token, just added saftey checks "
					},
					"changeTokenName(address,string)": {
						"notice": "here another tries to change the token name but only allow this if he owns more than half the tokens "
					},
					"constructor": {
						"notice": "this method initzilazes the smart contract, only call it once when deploying, the smart contract deployer gets the totalSupply, so will be holder of all the tokens  emit: signals that from address 0 to the caller a transfer happend-> helps other to track what happend"
					},
					"name()": {
						"notice": "wanna adapt this to the actual ints we are using."
					},
					"transfer(address,uint256)": {
						"notice": "inserted saftey checks + delete the from attribute as we should anyways only send from the token holder to others "
					}
				},
				"notice": "copied the provided ERC20 token contract ",
				"version": 1
			}
		}
	}
}